{
  "contractName": "AccountFrozenableToken",
  "abi": [
    {
      "constant": false,
      "inputs": [
        {
          "name": "admin",
          "type": "address"
        }
      ],
      "name": "removeAdmin",
      "outputs": [],
      "payable": false,
      "stateMutability": "nonpayable",
      "type": "function"
    },
    {
      "constant": true,
      "inputs": [
        {
          "name": "account",
          "type": "address"
        }
      ],
      "name": "isAdmin",
      "outputs": [
        {
          "name": "",
          "type": "bool"
        }
      ],
      "payable": false,
      "stateMutability": "view",
      "type": "function"
    },
    {
      "constant": true,
      "inputs": [
        {
          "name": "_address",
          "type": "address"
        }
      ],
      "name": "isOwner",
      "outputs": [
        {
          "name": "",
          "type": "bool"
        }
      ],
      "payable": false,
      "stateMutability": "view",
      "type": "function"
    },
    {
      "constant": false,
      "inputs": [],
      "name": "kill",
      "outputs": [],
      "payable": false,
      "stateMutability": "nonpayable",
      "type": "function"
    },
    {
      "constant": false,
      "inputs": [],
      "name": "claimOwnership",
      "outputs": [],
      "payable": false,
      "stateMutability": "nonpayable",
      "type": "function"
    },
    {
      "constant": false,
      "inputs": [
        {
          "name": "admin",
          "type": "address"
        }
      ],
      "name": "addAdmin",
      "outputs": [],
      "payable": false,
      "stateMutability": "nonpayable",
      "type": "function"
    },
    {
      "constant": false,
      "inputs": [],
      "name": "renounceAdmin",
      "outputs": [],
      "payable": false,
      "stateMutability": "nonpayable",
      "type": "function"
    },
    {
      "constant": false,
      "inputs": [
        {
          "name": "newOwner",
          "type": "address"
        }
      ],
      "name": "transferOwnership",
      "outputs": [],
      "payable": false,
      "stateMutability": "nonpayable",
      "type": "function"
    },
    {
      "anonymous": false,
      "inputs": [
        {
          "indexed": true,
          "name": "account",
          "type": "address"
        }
      ],
      "name": "AccountFrozen",
      "type": "event"
    },
    {
      "anonymous": false,
      "inputs": [
        {
          "indexed": true,
          "name": "account",
          "type": "address"
        }
      ],
      "name": "AccountUnfrozen",
      "type": "event"
    },
    {
      "anonymous": false,
      "inputs": [
        {
          "indexed": true,
          "name": "admin",
          "type": "address"
        }
      ],
      "name": "AdminAdded",
      "type": "event"
    },
    {
      "anonymous": false,
      "inputs": [
        {
          "indexed": true,
          "name": "admin",
          "type": "address"
        }
      ],
      "name": "AdminRemoved",
      "type": "event"
    },
    {
      "anonymous": false,
      "inputs": [
        {
          "indexed": true,
          "name": "previousOwner",
          "type": "address"
        },
        {
          "indexed": true,
          "name": "newOwner",
          "type": "address"
        }
      ],
      "name": "OwnershipTransferred",
      "type": "event"
    },
    {
      "constant": true,
      "inputs": [
        {
          "name": "_account",
          "type": "address"
        }
      ],
      "name": "isAccountFrozen",
      "outputs": [
        {
          "name": "",
          "type": "bool"
        }
      ],
      "payable": false,
      "stateMutability": "view",
      "type": "function"
    },
    {
      "constant": false,
      "inputs": [
        {
          "name": "_account",
          "type": "address"
        }
      ],
      "name": "frozeAccount",
      "outputs": [],
      "payable": false,
      "stateMutability": "nonpayable",
      "type": "function"
    },
    {
      "constant": false,
      "inputs": [
        {
          "name": "_account",
          "type": "address"
        }
      ],
      "name": "unfrozeAccount",
      "outputs": [],
      "payable": false,
      "stateMutability": "nonpayable",
      "type": "function"
    }
  ],
  "bytecode": "0x60806040523361005a576040517f08c379a0000000000000000000000000000000000000000000000000000000008152600401808060200182810382526023815260200180610c9d6023913960400191505060405180910390fd5b60008054600160a060020a03191633179081905561008990600160a060020a031664010000000061008e810204565b610202565b6100a660028264010000000061098c6100dd82021704565b604051600160a060020a038216907f44d6d25963f097ad14f29f06854a01f575648a1ef82f30e562ccd3889717e33990600090a250565b6100f0828264010000000061016b810204565b15610146576040517f08c379a0000000000000000000000000000000000000000000000000000000008152600401808060200182810382526023815260200180610cc06023913960400191505060405180910390fd5b600160a060020a0316600090815260209190915260409020805460ff19166001179055565b6000600160a060020a0382166101e257604080517f08c379a000000000000000000000000000000000000000000000000000000000815260206004820181905260248201527f4163636f756e74206d757374206e6f74206265207a65726f2d61646472657373604482015290519081900360640190fd5b50600160a060020a03166000908152602091909152604090205460ff1690565b610a8c806102116000396000f3fe608060405234801561001057600080fd5b50600436106100c6576000357c0100000000000000000000000000000000000000000000000000000000900480634e71e0c81161008e5780634e71e0c81461018157806370480275146101895780637b68d0ac146101af5780638bad0c0a146101d5578063e816d97f146101dd578063f2fde38b14610203576100c6565b80631785f53c146100cb57806324d7806c146100f35780632f54bf6e1461012d578063414f85941461015357806341c0e1b514610179575b600080fd5b6100f1600480360360208110156100e157600080fd5b5035600160a060020a0316610229565b005b6101196004803603602081101561010957600080fd5b5035600160a060020a0316610288565b604080519115158252519081900360200190f35b6101196004803603602081101561014357600080fd5b5035600160a060020a03166102a1565b6100f16004803603602081101561016957600080fd5b5035600160a060020a03166102b5565b6100f16103b4565b6100f1610425565b6100f16004803603602081101561019f57600080fd5b5035600160a060020a03166104e2565b6100f1600480360360208110156101c557600080fd5b5035600160a060020a031661053e565b6100f1610639565b610119600480360360208110156101f357600080fd5b5035600160a060020a03166106fa565b6100f16004803603602081101561021957600080fd5b5035600160a060020a0316610705565b61023a60023363ffffffff6107de16565b61027c576040805160e560020a62461bcd0281526020600482015260106024820152600080516020610a1e833981519152604482015290519081900360640190fd5b6102858161085e565b50565b600061029b60028363ffffffff6107de16565b92915050565b600054600160a060020a0391821691161490565b6102c660023363ffffffff6107de16565b610308576040805160e560020a62461bcd0281526020600482015260106024820152600080516020610a1e833981519152604482015290519081900360640190fd5b80610312816108a6565b15610367576040805160e560020a62461bcd02815260206004820152601a60248201527f4163636f756e74206d757374206e6f742062652066726f7a656e000000000000604482015290519081900360640190fd5b600160a060020a038216600081815260036020526040808220805460ff19166001179055517f4f2a367e694e71282f29ab5eaa04c4c0be45ac5bf2ca74fb67068b98bdc2887d9190a25050565b600054600160a060020a03163314610416576040805160e560020a62461bcd02815260206004820152601a60248201527f54686973206973206e6f7420636f6e7472616374206f776e6572000000000000604482015290519081900360640190fd5b600054600160a060020a031680ff5b600154600160a060020a03163314610487576040805160e560020a62461bcd02815260206004820152601c60248201527f53656e646572206d7573742062652070656e64696e67206f776e657200000000604482015290519081900360640190fd5b6001546000805473ffffffffffffffffffffffffffffffffffffffff1916600160a060020a03928316908117808355604051919316917f8be0079c531659141344cd1fd0a4f28419497f9722a3daafe3b4186f6b6457e091a3565b6104f360023363ffffffff6107de16565b610535576040805160e560020a62461bcd0281526020600482015260106024820152600080516020610a1e833981519152604482015290519081900360640190fd5b610285816108c4565b61054f60023363ffffffff6107de16565b610591576040805160e560020a62461bcd0281526020600482015260106024820152600080516020610a1e833981519152604482015290519081900360640190fd5b8061059b816108a6565b6105ef576040805160e560020a62461bcd02815260206004820152601660248201527f4163636f756e74206d7573742062652066726f7a656e00000000000000000000604482015290519081900360640190fd5b600160a060020a038216600081815260036020526040808220805460ff19169055517ff915cd9fe234de6e8d3afe7bf2388d35b2b6d48e8c629a24602019bde79c213a9190a25050565b61064a60023363ffffffff6107de16565b61068c576040805160e560020a62461bcd0281526020600482015260106024820152600080516020610a1e833981519152604482015290519081900360640190fd5b600054600160a060020a03163314156106ef576040805160e560020a62461bcd02815260206004820152601f60248201527f4f776e65722063616e206e6f742072656e6f756e636520746f2061646d696e00604482015290519081900360640190fd5b6106f83361085e565b565b600061029b826108a6565b600054600160a060020a03163314610767576040805160e560020a62461bcd02815260206004820152601a60248201527f54686973206973206e6f7420636f6e7472616374206f776e6572000000000000604482015290519081900360640190fd5b600160a060020a0381166107af5760405160e560020a62461bcd0281526004018080602001828103825260238152602001806109fb6023913960400191505060405180910390fd5b6001805473ffffffffffffffffffffffffffffffffffffffff1916600160a060020a0392909216919091179055565b6000600160a060020a03821661083e576040805160e560020a62461bcd02815260206004820181905260248201527f4163636f756e74206d757374206e6f74206265207a65726f2d61646472657373604482015290519081900360640190fd5b50600160a060020a03166000908152602091909152604090205460ff1690565b61086f60028263ffffffff61090c16565b604051600160a060020a038216907fa3b62bc36326052d97ea62d63c3d60308ed4c3ea8ac079dd8499f1e9c4f80c0f90600090a250565b600160a060020a031660009081526003602052604090205460ff1690565b6108d560028263ffffffff61098c16565b604051600160a060020a038216907f44d6d25963f097ad14f29f06854a01f575648a1ef82f30e562ccd3889717e33990600090a250565b61091682826107de565b61096a576040805160e560020a62461bcd02815260206004820152601f60248201527f4163636f756e7420686173206e6f7420686176652061646d696e20726f6c6500604482015290519081900360640190fd5b600160a060020a0316600090815260209190915260409020805460ff19169055565b61099682826107de565b156109d55760405160e560020a62461bcd028152600401808060200182810382526023815260200180610a3e6023913960400191505060405180910390fd5b600160a060020a0316600090815260209190915260409020805460ff1916600117905556fe4f776e65722061646472657373206d757374206e6f7420626520302d616464726573734d75737420626520616e2061646d696e000000000000000000000000000000004163636f756e742068617320616c726561647920686176652061646d696e20726f6c65a165627a7a723058203e5fbd0e4f0c0c5c7c6e4d94be651f94c223671257fb9619370a1644398715ad00294f776e65722061646472657373206d757374206e6f7420626520302d616464726573734163636f756e742068617320616c726561647920686176652061646d696e20726f6c65",
  "source": "pragma solidity >=0.4.10 <0.6.0;\r\n\r\nimport \"./Admin.sol\";\r\n\r\ncontract AccountFrozenableToken is Admin {\r\n    mapping(address => bool) frozenAccounts;\r\n\r\n    event AccountFrozen(address indexed account);\r\n    event AccountUnfrozen(address indexed account);\r\n\r\n    function _isAccountFrozen(address _account) internal view returns(bool) {\r\n        return frozenAccounts[_account];\r\n    }\r\n\r\n    modifier accountFrozen(address _account) {\r\n        require(_isAccountFrozen(_account), \"Account must be frozen\");\r\n        _;\r\n    }\r\n\r\n    modifier accountNotFrozen(address _account) {\r\n        require(!_isAccountFrozen(_account), \"Account must not be frozen\");\r\n        _;\r\n    }\r\n\r\n    function isAccountFrozen(address _account) public view returns(bool) {\r\n        return _isAccountFrozen(_account);\r\n    }\r\n\r\n    function frozeAccount(address _account) public onlyAdmin accountNotFrozen(_account) {\r\n        frozenAccounts[_account] = true;\r\n        emit AccountFrozen(_account);\r\n    }\r\n\r\n    function unfrozeAccount(address _account) public onlyAdmin accountFrozen(_account) {\r\n        frozenAccounts[_account] = false;\r\n        emit AccountUnfrozen(_account);\r\n    }\r\n}",
  "sourcePath": "C:\\Users\\Sim'S\\WebstormProjects\\kmxv1\\contracts\\kmx\\AccountFrozenableToken.sol",
  "compiler": {
    "name": "solc",
    "version": "0.5.8+commit.23d335f2.Emscripten.clang"
  },
  "schemaVersion": "3.0.10",
  "updatedAt": "2020-05-05T09:02:45.844Z",
  "devdoc": {
    "methods": {}
  },
  "userdoc": {
    "methods": {}
  }
}