{
  "contractName": "Admin",
  "abi": [
    {
      "constant": true,
      "inputs": [
        {
          "name": "_address",
          "type": "address"
        }
      ],
      "name": "isOwner",
      "outputs": [
        {
          "name": "",
          "type": "bool"
        }
      ],
      "payable": false,
      "stateMutability": "view",
      "type": "function"
    },
    {
      "constant": false,
      "inputs": [],
      "name": "kill",
      "outputs": [],
      "payable": false,
      "stateMutability": "nonpayable",
      "type": "function"
    },
    {
      "constant": false,
      "inputs": [],
      "name": "claimOwnership",
      "outputs": [],
      "payable": false,
      "stateMutability": "nonpayable",
      "type": "function"
    },
    {
      "constant": false,
      "inputs": [
        {
          "name": "newOwner",
          "type": "address"
        }
      ],
      "name": "transferOwnership",
      "outputs": [],
      "payable": false,
      "stateMutability": "nonpayable",
      "type": "function"
    },
    {
      "inputs": [],
      "payable": false,
      "stateMutability": "nonpayable",
      "type": "constructor"
    },
    {
      "anonymous": false,
      "inputs": [
        {
          "indexed": true,
          "name": "admin",
          "type": "address"
        }
      ],
      "name": "AdminAdded",
      "type": "event"
    },
    {
      "anonymous": false,
      "inputs": [
        {
          "indexed": true,
          "name": "admin",
          "type": "address"
        }
      ],
      "name": "AdminRemoved",
      "type": "event"
    },
    {
      "anonymous": false,
      "inputs": [
        {
          "indexed": true,
          "name": "previousOwner",
          "type": "address"
        },
        {
          "indexed": true,
          "name": "newOwner",
          "type": "address"
        }
      ],
      "name": "OwnershipTransferred",
      "type": "event"
    },
    {
      "constant": false,
      "inputs": [
        {
          "name": "admin",
          "type": "address"
        }
      ],
      "name": "addAdmin",
      "outputs": [],
      "payable": false,
      "stateMutability": "nonpayable",
      "type": "function"
    },
    {
      "constant": false,
      "inputs": [
        {
          "name": "admin",
          "type": "address"
        }
      ],
      "name": "removeAdmin",
      "outputs": [],
      "payable": false,
      "stateMutability": "nonpayable",
      "type": "function"
    },
    {
      "constant": true,
      "inputs": [
        {
          "name": "account",
          "type": "address"
        }
      ],
      "name": "isAdmin",
      "outputs": [
        {
          "name": "",
          "type": "bool"
        }
      ],
      "payable": false,
      "stateMutability": "view",
      "type": "function"
    },
    {
      "constant": false,
      "inputs": [],
      "name": "renounceAdmin",
      "outputs": [],
      "payable": false,
      "stateMutability": "nonpayable",
      "type": "function"
    }
  ],
  "bytecode": "0x608060405234801561001057600080fd5b5033610067576040517f08c379a0000000000000000000000000000000000000000000000000000000008152600401808060200182810382526023815260200180610a0a6023913960400191505060405180910390fd5b60008054600160a060020a03191633179081905561009690600160a060020a031664010000000061009b810204565b61020f565b6100b360028264010000000061070c6100ea82021704565b604051600160a060020a038216907f44d6d25963f097ad14f29f06854a01f575648a1ef82f30e562ccd3889717e33990600090a250565b6100fd8282640100000000610178810204565b15610153576040517f08c379a0000000000000000000000000000000000000000000000000000000008152600401808060200182810382526023815260200180610a2d6023913960400191505060405180910390fd5b600160a060020a0316600090815260209190915260409020805460ff19166001179055565b6000600160a060020a0382166101ef57604080517f08c379a000000000000000000000000000000000000000000000000000000000815260206004820181905260248201527f4163636f756e74206d757374206e6f74206265207a65726f2d61646472657373604482015290519081900360640190fd5b50600160a060020a03166000908152602091909152604090205460ff1690565b6107ec8061021e6000396000f3fe608060405234801561001057600080fd5b50600436106100a5576000357c0100000000000000000000000000000000000000000000000000000000900480634e71e0c8116100785780634e71e0c81461013a57806370480275146101425780638bad0c0a14610168578063f2fde38b14610170576100a5565b80631785f53c146100aa57806324d7806c146100d25780632f54bf6e1461010c57806341c0e1b514610132575b600080fd5b6100d0600480360360208110156100c057600080fd5b5035600160a060020a0316610196565b005b6100f8600480360360208110156100e857600080fd5b5035600160a060020a0316610207565b604080519115158252519081900360200190f35b6100f86004803603602081101561012257600080fd5b5035600160a060020a0316610220565b6100d0610234565b6100d06102a5565b6100d06004803603602081101561015857600080fd5b5035600160a060020a0316610362565b6100d06103d0565b6100d06004803603602081101561018657600080fd5b5035600160a060020a03166104a3565b6101a760023363ffffffff61057c16565b6101fb576040805160e560020a62461bcd02815260206004820152601060248201527f4d75737420626520616e2061646d696e00000000000000000000000000000000604482015290519081900360640190fd5b610204816105fc565b50565b600061021a60028363ffffffff61057c16565b92915050565b600054600160a060020a0391821691161490565b600054600160a060020a03163314610296576040805160e560020a62461bcd02815260206004820152601a60248201527f54686973206973206e6f7420636f6e7472616374206f776e6572000000000000604482015290519081900360640190fd5b600054600160a060020a031680ff5b600154600160a060020a03163314610307576040805160e560020a62461bcd02815260206004820152601c60248201527f53656e646572206d7573742062652070656e64696e67206f776e657200000000604482015290519081900360640190fd5b6001546000805473ffffffffffffffffffffffffffffffffffffffff1916600160a060020a03928316908117808355604051919316917f8be0079c531659141344cd1fd0a4f28419497f9722a3daafe3b4186f6b6457e091a3565b61037360023363ffffffff61057c16565b6103c7576040805160e560020a62461bcd02815260206004820152601060248201527f4d75737420626520616e2061646d696e00000000000000000000000000000000604482015290519081900360640190fd5b61020481610644565b6103e160023363ffffffff61057c16565b610435576040805160e560020a62461bcd02815260206004820152601060248201527f4d75737420626520616e2061646d696e00000000000000000000000000000000604482015290519081900360640190fd5b600054600160a060020a0316331415610498576040805160e560020a62461bcd02815260206004820152601f60248201527f4f776e65722063616e206e6f742072656e6f756e636520746f2061646d696e00604482015290519081900360640190fd5b6104a1336105fc565b565b600054600160a060020a03163314610505576040805160e560020a62461bcd02815260206004820152601a60248201527f54686973206973206e6f7420636f6e7472616374206f776e6572000000000000604482015290519081900360640190fd5b600160a060020a03811661054d5760405160e560020a62461bcd02815260040180806020018281038252602381526020018061077b6023913960400191505060405180910390fd5b6001805473ffffffffffffffffffffffffffffffffffffffff1916600160a060020a0392909216919091179055565b6000600160a060020a0382166105dc576040805160e560020a62461bcd02815260206004820181905260248201527f4163636f756e74206d757374206e6f74206265207a65726f2d61646472657373604482015290519081900360640190fd5b50600160a060020a03166000908152602091909152604090205460ff1690565b61060d60028263ffffffff61068c16565b604051600160a060020a038216907fa3b62bc36326052d97ea62d63c3d60308ed4c3ea8ac079dd8499f1e9c4f80c0f90600090a250565b61065560028263ffffffff61070c16565b604051600160a060020a038216907f44d6d25963f097ad14f29f06854a01f575648a1ef82f30e562ccd3889717e33990600090a250565b610696828261057c565b6106ea576040805160e560020a62461bcd02815260206004820152601f60248201527f4163636f756e7420686173206e6f7420686176652061646d696e20726f6c6500604482015290519081900360640190fd5b600160a060020a0316600090815260209190915260409020805460ff19169055565b610716828261057c565b156107555760405160e560020a62461bcd02815260040180806020018281038252602381526020018061079e6023913960400191505060405180910390fd5b600160a060020a0316600090815260209190915260409020805460ff1916600117905556fe4f776e65722061646472657373206d757374206e6f7420626520302d616464726573734163636f756e742068617320616c726561647920686176652061646d696e20726f6c65a165627a7a72305820e052ccc60846de0bf36e9fb774790f522a97f1678f3de916a130082267685fdb00294f776e65722061646472657373206d757374206e6f7420626520302d616464726573734163636f756e742068617320616c726561647920686176652061646d696e20726f6c65",
  "source": "pragma solidity >=0.4.10 <0.6.0;\r\n\r\nimport \"./AdminLibrary.sol\";\r\nimport \"./AdminRegistry.sol\";\r\nimport \"./Claimable.sol\";\r\n\r\ncontract Admin is Claimable {\r\n    using AdminLibrary for AdminRegistry.Admin;\r\n\r\n    AdminRegistry.Admin private _registry;\r\n\r\n    event AdminAdded(address indexed admin);\r\n    event AdminRemoved(address indexed admin);\r\n\r\n    constructor() public {\r\n        _addAdmin(_owner);\r\n    }\r\n\r\n    modifier onlyAdmin() {\r\n        require(_registry.has(msg.sender), \"Must be an admin\");\r\n        _;\r\n    }\r\n\r\n    function addAdmin(address admin) public onlyAdmin {\r\n        _addAdmin(admin);\r\n    }\r\n\r\n    function removeAdmin(address admin) public onlyAdmin {\r\n        _removeAdmin(admin);\r\n    }\r\n\r\n    function isAdmin(address account) public view returns(bool) {\r\n        return _registry.has(account);\r\n    }\r\n\r\n    function renounceAdmin() public onlyAdmin {\r\n        require(msg.sender != _owner, \"Owner can not renounce to admin\");\r\n        _removeAdmin(msg.sender);\r\n    }\r\n\r\n    function _addAdmin(address admin) internal {\r\n        _registry.add(admin);\r\n        emit AdminAdded(admin);\r\n    }\r\n\r\n    function _removeAdmin(address admin) internal {\r\n        _registry.remove(admin);\r\n        emit AdminRemoved(admin);\r\n    }\r\n\r\n}\r\n",
  "sourcePath": "C:\\Users\\Sim'S\\WebstormProjects\\kmxv1\\contracts\\kmx\\Admin.sol",
  "compiler": {
    "name": "solc",
    "version": "0.5.8+commit.23d335f2.Emscripten.clang"
  },
  "schemaVersion": "3.0.10",
  "updatedAt": "2020-05-05T09:02:45.849Z",
  "devdoc": {
    "methods": {}
  },
  "userdoc": {
    "methods": {}
  }
}