{
  "contractName": "Claimable",
  "abi": [
    {
      "constant": true,
      "inputs": [
        {
          "name": "_address",
          "type": "address"
        }
      ],
      "name": "isOwner",
      "outputs": [
        {
          "name": "",
          "type": "bool"
        }
      ],
      "payable": false,
      "stateMutability": "view",
      "type": "function"
    },
    {
      "constant": false,
      "inputs": [],
      "name": "kill",
      "outputs": [],
      "payable": false,
      "stateMutability": "nonpayable",
      "type": "function"
    },
    {
      "anonymous": false,
      "inputs": [
        {
          "indexed": true,
          "name": "previousOwner",
          "type": "address"
        },
        {
          "indexed": true,
          "name": "newOwner",
          "type": "address"
        }
      ],
      "name": "OwnershipTransferred",
      "type": "event"
    },
    {
      "constant": false,
      "inputs": [
        {
          "name": "newOwner",
          "type": "address"
        }
      ],
      "name": "transferOwnership",
      "outputs": [],
      "payable": false,
      "stateMutability": "nonpayable",
      "type": "function"
    },
    {
      "constant": false,
      "inputs": [],
      "name": "claimOwnership",
      "outputs": [],
      "payable": false,
      "stateMutability": "nonpayable",
      "type": "function"
    }
  ],
  "bytecode": "0x60806040523361005a576040517f08c379a00000000000000000000000000000000000000000000000000000000081526004018080602001828103825260238152602001806103c46023913960400191505060405180910390fd5b60008054600160a060020a031916331790556103498061007b6000396000f3fe608060405234801561001057600080fd5b5060043610610068577c010000000000000000000000000000000000000000000000000000000060003504632f54bf6e811461006d57806341c0e1b5146100a75780634e71e0c8146100b1578063f2fde38b146100b9575b600080fd5b6100936004803603602081101561008357600080fd5b5035600160a060020a03166100df565b604080519115158252519081900360200190f35b6100af6100f3565b005b6100af610164565b6100af600480360360208110156100cf57600080fd5b5035600160a060020a0316610221565b600054600160a060020a0391821691161490565b600054600160a060020a03163314610155576040805160e560020a62461bcd02815260206004820152601a60248201527f54686973206973206e6f7420636f6e7472616374206f776e6572000000000000604482015290519081900360640190fd5b600054600160a060020a031680ff5b600154600160a060020a031633146101c6576040805160e560020a62461bcd02815260206004820152601c60248201527f53656e646572206d7573742062652070656e64696e67206f776e657200000000604482015290519081900360640190fd5b6001546000805473ffffffffffffffffffffffffffffffffffffffff1916600160a060020a03928316908117808355604051919316917f8be0079c531659141344cd1fd0a4f28419497f9722a3daafe3b4186f6b6457e091a3565b600054600160a060020a03163314610283576040805160e560020a62461bcd02815260206004820152601a60248201527f54686973206973206e6f7420636f6e7472616374206f776e6572000000000000604482015290519081900360640190fd5b600160a060020a0381166102cb5760405160e560020a62461bcd0281526004018080602001828103825260238152602001806102fb6023913960400191505060405180910390fd5b6001805473ffffffffffffffffffffffffffffffffffffffff1916600160a060020a039290921691909117905556fe4f776e65722061646472657373206d757374206e6f7420626520302d61646472657373a165627a7a72305820a875dc87e983a6b66e3db613f8752aef7e08bfd99bd31d7dffce118f8f45babb00294f776e65722061646472657373206d757374206e6f7420626520302d61646472657373",
  "source": "pragma solidity >=0.4.10 <0.6.0;\r\n\r\nimport \"./Ownable.sol\";\r\ncontract Claimable is Ownable {\r\n    address internal _pendingOwner;\r\n\r\n    modifier onlyPendingOwner(){\r\n        require(msg.sender==_pendingOwner, \"Sender must be pending owner\");\r\n        _;\r\n    }\r\n\r\n    function transferOwnership(address newOwner) public onlyOwner {\r\n        require(newOwner!=address(0), \"Owner address must not be 0-address\");\r\n        _pendingOwner = newOwner;\r\n    }\r\n\r\n    function claimOwnership() public onlyPendingOwner {\r\n        _owner = _pendingOwner;\r\n        emit OwnershipTransferred(_owner, _pendingOwner);\r\n    }\r\n}",
  "sourcePath": "C:\\Users\\Sim'S\\WebstormProjects\\kmxv1\\contracts\\kmx\\Claimable.sol",
  "compiler": {
    "name": "solc",
    "version": "0.5.8+commit.23d335f2.Emscripten.clang"
  },
  "schemaVersion": "3.0.10",
  "updatedAt": "2019-07-02T19:57:58.320Z",
  "devdoc": {
    "methods": {}
  },
  "userdoc": {
    "methods": {}
  }
}