{
  "contractName": "ConfigurableToken",
  "abi": [
    {
      "constant": false,
      "inputs": [
        {
          "name": "spender",
          "type": "address"
        },
        {
          "name": "value",
          "type": "uint256"
        }
      ],
      "name": "approve",
      "outputs": [
        {
          "name": "",
          "type": "bool"
        }
      ],
      "payable": false,
      "stateMutability": "nonpayable",
      "type": "function"
    },
    {
      "constant": false,
      "inputs": [
        {
          "name": "admin",
          "type": "address"
        }
      ],
      "name": "removeAdmin",
      "outputs": [],
      "payable": false,
      "stateMutability": "nonpayable",
      "type": "function"
    },
    {
      "constant": true,
      "inputs": [],
      "name": "totalSupply",
      "outputs": [
        {
          "name": "",
          "type": "uint256"
        }
      ],
      "payable": false,
      "stateMutability": "view",
      "type": "function"
    },
    {
      "constant": false,
      "inputs": [
        {
          "name": "to",
          "type": "address"
        },
        {
          "name": "from",
          "type": "address"
        },
        {
          "name": "value",
          "type": "uint256"
        }
      ],
      "name": "transferFrom",
      "outputs": [
        {
          "name": "",
          "type": "bool"
        }
      ],
      "payable": false,
      "stateMutability": "nonpayable",
      "type": "function"
    },
    {
      "constant": true,
      "inputs": [
        {
          "name": "account",
          "type": "address"
        }
      ],
      "name": "isAdmin",
      "outputs": [
        {
          "name": "",
          "type": "bool"
        }
      ],
      "payable": false,
      "stateMutability": "view",
      "type": "function"
    },
    {
      "constant": true,
      "inputs": [
        {
          "name": "_address",
          "type": "address"
        }
      ],
      "name": "isOwner",
      "outputs": [
        {
          "name": "",
          "type": "bool"
        }
      ],
      "payable": false,
      "stateMutability": "view",
      "type": "function"
    },
    {
      "constant": false,
      "inputs": [
        {
          "name": "spender",
          "type": "address"
        },
        {
          "name": "value",
          "type": "uint256"
        }
      ],
      "name": "increaseAllowance",
      "outputs": [],
      "payable": false,
      "stateMutability": "nonpayable",
      "type": "function"
    },
    {
      "constant": false,
      "inputs": [
        {
          "name": "_account",
          "type": "address"
        }
      ],
      "name": "frozeAccount",
      "outputs": [],
      "payable": false,
      "stateMutability": "nonpayable",
      "type": "function"
    },
    {
      "constant": false,
      "inputs": [],
      "name": "kill",
      "outputs": [],
      "payable": false,
      "stateMutability": "nonpayable",
      "type": "function"
    },
    {
      "constant": false,
      "inputs": [],
      "name": "claimOwnership",
      "outputs": [],
      "payable": false,
      "stateMutability": "nonpayable",
      "type": "function"
    },
    {
      "constant": false,
      "inputs": [
        {
          "name": "sender",
          "type": "address"
        },
        {
          "name": "spender",
          "type": "address"
        },
        {
          "name": "value",
          "type": "uint256"
        }
      ],
      "name": "approveFromAdmin",
      "outputs": [
        {
          "name": "",
          "type": "bool"
        }
      ],
      "payable": false,
      "stateMutability": "nonpayable",
      "type": "function"
    },
    {
      "constant": false,
      "inputs": [
        {
          "name": "admin",
          "type": "address"
        }
      ],
      "name": "addAdmin",
      "outputs": [],
      "payable": false,
      "stateMutability": "nonpayable",
      "type": "function"
    },
    {
      "constant": true,
      "inputs": [
        {
          "name": "account",
          "type": "address"
        }
      ],
      "name": "balanceOf",
      "outputs": [
        {
          "name": "",
          "type": "uint256"
        }
      ],
      "payable": false,
      "stateMutability": "view",
      "type": "function"
    },
    {
      "constant": false,
      "inputs": [
        {
          "name": "_account",
          "type": "address"
        }
      ],
      "name": "unfrozeAccount",
      "outputs": [],
      "payable": false,
      "stateMutability": "nonpayable",
      "type": "function"
    },
    {
      "constant": false,
      "inputs": [],
      "name": "renounceAdmin",
      "outputs": [],
      "payable": false,
      "stateMutability": "nonpayable",
      "type": "function"
    },
    {
      "constant": false,
      "inputs": [
        {
          "name": "spender",
          "type": "address"
        },
        {
          "name": "value",
          "type": "uint256"
        }
      ],
      "name": "decreaseAllowance",
      "outputs": [],
      "payable": false,
      "stateMutability": "nonpayable",
      "type": "function"
    },
    {
      "constant": false,
      "inputs": [
        {
          "name": "to",
          "type": "address"
        },
        {
          "name": "value",
          "type": "uint256"
        }
      ],
      "name": "transfer",
      "outputs": [
        {
          "name": "",
          "type": "bool"
        }
      ],
      "payable": false,
      "stateMutability": "nonpayable",
      "type": "function"
    },
    {
      "constant": true,
      "inputs": [
        {
          "name": "owner",
          "type": "address"
        },
        {
          "name": "spender",
          "type": "address"
        }
      ],
      "name": "allowance",
      "outputs": [
        {
          "name": "",
          "type": "uint256"
        }
      ],
      "payable": false,
      "stateMutability": "view",
      "type": "function"
    },
    {
      "constant": true,
      "inputs": [
        {
          "name": "_account",
          "type": "address"
        }
      ],
      "name": "isAccountFrozen",
      "outputs": [
        {
          "name": "",
          "type": "bool"
        }
      ],
      "payable": false,
      "stateMutability": "view",
      "type": "function"
    },
    {
      "constant": false,
      "inputs": [
        {
          "name": "newOwner",
          "type": "address"
        }
      ],
      "name": "transferOwnership",
      "outputs": [],
      "payable": false,
      "stateMutability": "nonpayable",
      "type": "function"
    },
    {
      "inputs": [],
      "payable": false,
      "stateMutability": "nonpayable",
      "type": "constructor"
    },
    {
      "anonymous": false,
      "inputs": [
        {
          "indexed": true,
          "name": "oldTokenHolder",
          "type": "address"
        },
        {
          "indexed": true,
          "name": "newTokenHolder",
          "type": "address"
        }
      ],
      "name": "TokenHolderChanged",
      "type": "event"
    },
    {
      "anonymous": false,
      "inputs": [
        {
          "indexed": false,
          "name": "newPrice",
          "type": "uint256"
        },
        {
          "indexed": false,
          "name": "currency",
          "type": "string"
        }
      ],
      "name": "PriceChanged",
      "type": "event"
    },
    {
      "anonymous": false,
      "inputs": [
        {
          "indexed": false,
          "name": "newFees",
          "type": "uint256"
        }
      ],
      "name": "FeesChanged",
      "type": "event"
    },
    {
      "anonymous": false,
      "inputs": [
        {
          "indexed": true,
          "name": "account",
          "type": "address"
        }
      ],
      "name": "AccountFrozen",
      "type": "event"
    },
    {
      "anonymous": false,
      "inputs": [
        {
          "indexed": true,
          "name": "account",
          "type": "address"
        }
      ],
      "name": "AccountUnfrozen",
      "type": "event"
    },
    {
      "anonymous": false,
      "inputs": [
        {
          "indexed": true,
          "name": "admin",
          "type": "address"
        }
      ],
      "name": "AdminAdded",
      "type": "event"
    },
    {
      "anonymous": false,
      "inputs": [
        {
          "indexed": true,
          "name": "admin",
          "type": "address"
        }
      ],
      "name": "AdminRemoved",
      "type": "event"
    },
    {
      "anonymous": false,
      "inputs": [
        {
          "indexed": true,
          "name": "previousOwner",
          "type": "address"
        },
        {
          "indexed": true,
          "name": "newOwner",
          "type": "address"
        }
      ],
      "name": "OwnershipTransferred",
      "type": "event"
    },
    {
      "anonymous": false,
      "inputs": [
        {
          "indexed": true,
          "name": "owner",
          "type": "address"
        },
        {
          "indexed": true,
          "name": "spender",
          "type": "address"
        },
        {
          "indexed": false,
          "name": "value",
          "type": "uint256"
        }
      ],
      "name": "Approval",
      "type": "event"
    },
    {
      "anonymous": false,
      "inputs": [
        {
          "indexed": true,
          "name": "from",
          "type": "address"
        },
        {
          "indexed": true,
          "name": "to",
          "type": "address"
        },
        {
          "indexed": false,
          "name": "value",
          "type": "uint256"
        }
      ],
      "name": "Transfer",
      "type": "event"
    },
    {
      "constant": true,
      "inputs": [
        {
          "name": "_currency",
          "type": "string"
        }
      ],
      "name": "validCurrency",
      "outputs": [
        {
          "name": "",
          "type": "bool"
        }
      ],
      "payable": false,
      "stateMutability": "view",
      "type": "function"
    },
    {
      "constant": true,
      "inputs": [
        {
          "name": "_currency",
          "type": "string"
        }
      ],
      "name": "tokenPrice",
      "outputs": [
        {
          "name": "",
          "type": "uint256"
        }
      ],
      "payable": false,
      "stateMutability": "view",
      "type": "function"
    },
    {
      "constant": false,
      "inputs": [
        {
          "name": "_price",
          "type": "uint256"
        },
        {
          "name": "_currency",
          "type": "string"
        }
      ],
      "name": "changePrice",
      "outputs": [],
      "payable": false,
      "stateMutability": "nonpayable",
      "type": "function"
    },
    {
      "constant": true,
      "inputs": [],
      "name": "transactionFees",
      "outputs": [
        {
          "name": "",
          "type": "uint256"
        }
      ],
      "payable": false,
      "stateMutability": "view",
      "type": "function"
    },
    {
      "constant": false,
      "inputs": [
        {
          "name": "_fees",
          "type": "uint256"
        }
      ],
      "name": "changeFees",
      "outputs": [],
      "payable": false,
      "stateMutability": "nonpayable",
      "type": "function"
    },
    {
      "constant": false,
      "inputs": [
        {
          "name": "_newHolder",
          "type": "address"
        }
      ],
      "name": "changeTokenHolder",
      "outputs": [],
      "payable": false,
      "stateMutability": "nonpayable",
      "type": "function"
    }
  ],
  "bytecode": "0x60806040523480156200001157600080fd5b50336200006a576040517f08c379a0000000000000000000000000000000000000000000000000000000008152600401808060200182810382526023815260200180620021496023913960400191505060405180910390fd5b60008054600160a060020a0319163317908190556200009b90600160a060020a0316640100000000620000df810204565b620000b26001808064010000000062000131810204565b606460075560005460098054600160a060020a031916600160a060020a039092169190911790556200030b565b620000fa60028264010000000062001be1620001e182021704565b604051600160a060020a038216907f44d6d25963f097ad14f29f06854a01f575648a1ef82f30e562ccd3889717e33990600090a250565b604080517f455552000000000000000000000000000000000000000000000000000000000081526008600380830182905283519283900360239081018420979097557f5553440000000000000000000000000000000000000000000000000000000000835282810182905283519283900387018320959095557f58414600000000000000000000000000000000000000000000000000000000008252938101939093525191829003909201902055565b620001f6828264010000000062000273810204565b156200024e576040517f08c379a00000000000000000000000000000000000000000000000000000000081526004018080602001828103825260238152602001806200216c6023913960400191505060405180910390fd5b600160a060020a0316600090815260209190915260409020805460ff19166001179055565b6000600160a060020a038216620002eb57604080517f08c379a000000000000000000000000000000000000000000000000000000000815260206004820181905260248201527f4163636f756e74206d757374206e6f74206265207a65726f2d61646472657373604482015290519081900360640190fd5b50600160a060020a03166000908152602091909152604090205460ff1690565b611e2e806200031b6000396000f3fe608060405234801561001057600080fd5b50600436106101ab576000357c0100000000000000000000000000000000000000000000000000000000900480636cda375b116100fb578063a18a2092116100b4578063b37be8e41161008e578063b37be8e41461065a578063dd62ed3e14610662578063e816d97f14610690578063f2fde38b146106b6576101ab565b8063a18a2092146105dc578063a457c2d714610602578063a9059cbb1461062e576101ab565b80636cda375b1461049857806370480275146104b557806370a08231146104db5780637b68d0ac146105015780638868686c146105275780638bad0c0a146105d4576101ab565b80632f54bf6e1161016857806341c0e1b51161014257806341c0e1b5146103ac5780634e71e0c8146103b457806367deaeb1146103bc578063697d60b0146103f2576101ab565b80632f54bf6e14610334578063395093511461035a578063414f859414610386576101ab565b806302888d06146101b0578063095ea7b3146102685780631785f53c146102a857806318160ddd146102d057806323b872dd146102d857806324d7806c1461030e575b600080fd5b610256600480360360208110156101c657600080fd5b8101906020810181356401000000008111156101e157600080fd5b8201836020820111156101f357600080fd5b8035906020019184600183028401116401000000008311171561021557600080fd5b91908080601f0160208091040260200160405190810160405280939291908181526020018383808284376000920191909152509295506106dc945050505050565b60408051918252519081900360200190f35b6102946004803603604081101561027e57600080fd5b50600160a060020a0381351690602001356107e8565b604080519115158252519081900360200190f35b6102ce600480360360208110156102be57600080fd5b5035600160a060020a031661088e565b005b6102566108ed565b610294600480360360608110156102ee57600080fd5b50600160a060020a038135811691602081013590911690604001356108f3565b6102946004803603602081101561032457600080fd5b5035600160a060020a0316610908565b6102946004803603602081101561034a57600080fd5b5035600160a060020a031661091b565b6102ce6004803603604081101561037057600080fd5b50600160a060020a03813516906020013561092f565b6102ce6004803603602081101561039c57600080fd5b5035600160a060020a03166109cd565b6102ce610acc565b6102ce610b3d565b610294600480360360608110156103d257600080fd5b50600160a060020a03813581169160208101359091169060400135610bfa565b6102946004803603602081101561040857600080fd5b81019060208101813564010000000081111561042357600080fd5b82018360208201111561043557600080fd5b8035906020019184600183028401116401000000008311171561045757600080fd5b91908080601f016020809104026020016040519081016040528093929190818152602001838380828437600092019190915250929550610cfc945050505050565b6102ce600480360360208110156104ae57600080fd5b5035610d66565b6102ce600480360360208110156104cb57600080fd5b5035600160a060020a0316610e4e565b610256600480360360208110156104f157600080fd5b5035600160a060020a0316610eaa565b6102ce6004803603602081101561051757600080fd5b5035600160a060020a0316610eb5565b6102ce6004803603604081101561053d57600080fd5b8135919081019060408101602082013564010000000081111561055f57600080fd5b82018360208201111561057157600080fd5b8035906020019184600183028401116401000000008311171561059357600080fd5b91908080601f016020809104026020016040519081016040528093929190818152602001838380828437600092019190915250929550610fb0945050505050565b6102ce6112f6565b6102ce600480360360208110156105f257600080fd5b5035600160a060020a03166113b7565b6102ce6004803603604081101561061857600080fd5b50600160a060020a03813516906020013561154f565b6102946004803603604081101561064457600080fd5b50600160a060020a0381351690602001356115e9565b6102566115f6565b6102566004803603604081101561067857600080fd5b50600160a060020a03813581169160200135166115fc565b610294600480360360208110156106a657600080fd5b5035600160a060020a0316611608565b6102ce600480360360208110156106cc57600080fd5b5035600160a060020a0316611613565b6000816008816040518082805190602001908083835b602083106107115780518252601f1990920191602091820191016106f2565b51815160209384036101000a60001901801990921691161790529201948552506040519384900301909220541515915061078190505760405160e560020a62461bcd02815260040180806020018281038252602f815260200180611d30602f913960400191505060405180910390fd5b6008836040518082805190602001908083835b602083106107b35780518252601f199092019160209182019101610794565b51815160209384036101000a600019018019909216911617905292019485525060405193849003019092205495945050505050565b60003361082d576040805160e560020a62461bcd02815260206004820152601c6024820152600080516020611da0833981519152604482015290519081900360640190fd5b600160a060020a038316610879576040805160e560020a62461bcd02815260206004820152601d6024820152600080516020611d5f833981519152604482015290519081900360640190fd5b6108843384846116ec565b5060015b92915050565b61089f60023363ffffffff61173c16565b6108e1576040805160e560020a62461bcd0281526020600482015260106024820152600080516020611dc0833981519152604482015290519081900360640190fd5b6108ea816117bc565b50565b60045490565b600061090183858433611804565b9392505050565b600061088860028363ffffffff61173c16565b600054600160a060020a0391821691161490565b33610972576040805160e560020a62461bcd02815260206004820152601c6024820152600080516020611da0833981519152604482015290519081900360640190fd5b600160a060020a0382166109be576040805160e560020a62461bcd02815260206004820152601d6024820152600080516020611d5f833981519152604482015290519081900360640190fd5b6109c9338383611894565b5050565b6109de60023363ffffffff61173c16565b610a20576040805160e560020a62461bcd0281526020600482015260106024820152600080516020611dc0833981519152604482015290519081900360640190fd5b80610a2a816118eb565b15610a7f576040805160e560020a62461bcd02815260206004820152601a60248201527f4163636f756e74206d757374206e6f742062652066726f7a656e000000000000604482015290519081900360640190fd5b600160a060020a038216600081815260036020526040808220805460ff19166001179055517f4f2a367e694e71282f29ab5eaa04c4c0be45ac5bf2ca74fb67068b98bdc2887d9190a25050565b600054600160a060020a03163314610b2e576040805160e560020a62461bcd02815260206004820152601a60248201527f54686973206973206e6f7420636f6e7472616374206f776e6572000000000000604482015290519081900360640190fd5b600054600160a060020a031680ff5b600154600160a060020a03163314610b9f576040805160e560020a62461bcd02815260206004820152601c60248201527f53656e646572206d7573742062652070656e64696e67206f776e657200000000604482015290519081900360640190fd5b6001546000805473ffffffffffffffffffffffffffffffffffffffff1916600160a060020a03928316908117808355604051919316917f8be0079c531659141344cd1fd0a4f28419497f9722a3daafe3b4186f6b6457e091a3565b6000610c0d60023363ffffffff61173c16565b610c4f576040805160e560020a62461bcd0281526020600482015260106024820152600080516020611dc0833981519152604482015290519081900360640190fd5b600160a060020a038416610c9b576040805160e560020a62461bcd02815260206004820152601c6024820152600080516020611da0833981519152604482015290519081900360640190fd5b600160a060020a038316610ce7576040805160e560020a62461bcd02815260206004820152601d6024820152600080516020611d5f833981519152604482015290519081900360640190fd5b610cf28484846116ec565b5060019392505050565b60006008826040518082805190602001908083835b60208310610d305780518252601f199092019160209182019101610d11565b51815160209384036101000a60001901801990921691161790529201948552506040519384900301909220541515949350505050565b610d7760023363ffffffff61173c16565b610db9576040805160e560020a62461bcd0281526020600482015260106024820152600080516020611dc0833981519152604482015290519081900360640190fd5b612710811115610e13576040805160e560020a62461bcd02815260206004820152601d60248201527f46656573206d75737420626520696e2072616e676520302d3130303030000000604482015290519081900360640190fd5b60078190556040805182815290517f3dda580d2b9d92da338ef46ec718e7b1dd0a2c505e3df4aa8d40360192a0f8229181900360200190a150565b610e5f60023363ffffffff61173c16565b610ea1576040805160e560020a62461bcd0281526020600482015260106024820152600080516020611dc0833981519152604482015290519081900360640190fd5b6108ea81611909565b600061088882611951565b610ec660023363ffffffff61173c16565b610f08576040805160e560020a62461bcd0281526020600482015260106024820152600080516020611dc0833981519152604482015290519081900360640190fd5b80610f12816118eb565b610f66576040805160e560020a62461bcd02815260206004820152601660248201527f4163636f756e74206d7573742062652066726f7a656e00000000000000000000604482015290519081900360640190fd5b600160a060020a038216600081815260036020526040808220805460ff19169055517ff915cd9fe234de6e8d3afe7bf2388d35b2b6d48e8c629a24602019bde79c213a9190a25050565b806008816040518082805190602001908083835b60208310610fe35780518252601f199092019160209182019101610fc4565b51815160209384036101000a60001901801990921691161790529201948552506040519384900301909220541515915061105390505760405160e560020a62461bcd02815260040180806020018281038252602f815260200180611d30602f913960400191505060405180910390fd5b61106460023363ffffffff61173c16565b6110a6576040805160e560020a62461bcd0281526020600482015260106024820152600080516020611dc0833981519152604482015290519081900360640190fd5b600083118260405160200180807f546f6b656e20707269636520696e200000000000000000000000000000000000815250600f0182805190602001908083835b602083106111055780518252601f1990920191602091820191016110e6565b6001836020036101000a038019825116818451168082178552505050505050905001807f206d757374206e6f742062652030000000000000000000000000000000000000815250600e01915050604051602081830303815290604052906111ed5760405160e560020a62461bcd0281526004018080602001828103825283818151815260200191508051906020019080838360005b838110156111b257818101518382015260200161119a565b50505050905090810190601f1680156111df5780820380516001836020036101000a031916815260200191505b509250505060405180910390fd5b50826008836040518082805190602001908083835b602083106112215780518252601f199092019160209182019101611202565b51815160209384036101000a60001901801990921691161790529201948552506040805194859003820185209590955587845283810185815287519585019590955286517fbc1a6d11df191cc217bb06c2da838849148b8a9a56b8138fa96cd89e90a0921595899589955093509160608401919085019080838360005b838110156112b657818101518382015260200161129e565b50505050905090810190601f1680156112e35780820380516001836020036101000a031916815260200191505b50935050505060405180910390a1505050565b61130760023363ffffffff61173c16565b611349576040805160e560020a62461bcd0281526020600482015260106024820152600080516020611dc0833981519152604482015290519081900360640190fd5b600054600160a060020a03163314156113ac576040805160e560020a62461bcd02815260206004820152601f60248201527f4f776e65722063616e206e6f742072656e6f756e636520746f2061646d696e00604482015290519081900360640190fd5b6113b5336117bc565b565b600054600160a060020a03163314611419576040805160e560020a62461bcd02815260206004820152601a60248201527f54686973206973206e6f7420636f6e7472616374206f776e6572000000000000604482015290519081900360640190fd5b600160a060020a038116611477576040805160e560020a62461bcd02815260206004820181905260248201527f4e657720486f6c646572206d757374206e6f7420626520302d61646472657373604482015290519081900360640190fd5b600954600160a060020a03828116911614156114c75760405160e560020a62461bcd028152600401808060200182810382526021815260200180611d7f6021913960400191505060405180910390fd5b6009546114e690600160a060020a0316826114e182610eaa565b61196c565b600954604051600160a060020a038084169216907f70418639b9c14c316c6ae17fa73febff0a5d1e066ce89d40a4b9b5381625adfe90600090a36009805473ffffffffffffffffffffffffffffffffffffffff1916600160a060020a0392909216919091179055565b33611592576040805160e560020a62461bcd02815260206004820152601c6024820152600080516020611da0833981519152604482015290519081900360640190fd5b600160a060020a0382166115de576040805160e560020a62461bcd02815260206004820152601d6024820152600080516020611d5f833981519152604482015290519081900360640190fd5b6109c93383836119f0565b600061088833848461196c565b60075490565b600061090183836119fb565b6000610888826118eb565b600054600160a060020a03163314611675576040805160e560020a62461bcd02815260206004820152601a60248201527f54686973206973206e6f7420636f6e7472616374206f776e6572000000000000604482015290519081900360640190fd5b600160a060020a0381166116bd5760405160e560020a62461bcd028152600401808060200182810382526023815260200180611d0d6023913960400191505060405180910390fd5b6001805473ffffffffffffffffffffffffffffffffffffffff1916600160a060020a0392909216919091179055565b6116f7838383611a26565b604080518281529051600160a060020a0384169133917f8c5be1e5ebec7d5bd14f71427d1e84f3dd0314c0f7b2291e5b200ac8c7c3b9259181900360200190a3505050565b6000600160a060020a03821661179c576040805160e560020a62461bcd02815260206004820181905260248201527f4163636f756e74206d757374206e6f74206265207a65726f2d61646472657373604482015290519081900360640190fd5b50600160a060020a03166000908152602091909152604090205460ff1690565b6117cd60028263ffffffff611a5216565b604051600160a060020a038216907fa3b62bc36326052d97ea62d63c3d60308ed4c3ea8ac079dd8499f1e9c4f80c0f90600090a250565b600160a060020a038316301461181e5761181e8383611ad2565b611829848284611b1b565b600160a060020a0384163014611843576118438483611b82565b82600160a060020a031684600160a060020a03167fddf252ad1be2c89b69c2b068fc378daa952ba7f163c4a11628f55a4df523b3ef846040518082815260200191505060405180910390a350505050565b61189f838383611bab565b600160a060020a038216337f8c5be1e5ebec7d5bd14f71427d1e84f3dd0314c0f7b2291e5b200ac8c7c3b9256118d586866119fb565b60408051918252519081900360200190a3505050565b600160a060020a031660009081526003602052604090205460ff1690565b61191a60028263ffffffff611be116565b604051600160a060020a038216907f44d6d25963f097ad14f29f06854a01f575648a1ef82f30e562ccd3889717e33990600090a250565b600160a060020a031660009081526005602052604090205490565b600160a060020a0382163014611986576119868282611ad2565b600160a060020a03831630146119a0576119a08382611b82565b81600160a060020a031683600160a060020a03167fddf252ad1be2c89b69c2b068fc378daa952ba7f163c4a11628f55a4df523b3ef836040518082815260200191505060405180910390a3505050565b61189f838383611b1b565b600160a060020a03918216600090815260066020908152604080832093909416825291909152205490565b600160a060020a0392831660009081526006602090815260408083209490951682529290925291902055565b611a5c828261173c565b611ab0576040805160e560020a62461bcd02815260206004820152601f60248201527f4163636f756e7420686173206e6f7420686176652061646d696e20726f6c6500604482015290519081900360640190fd5b600160a060020a0316600090815260209190915260409020805460ff19169055565b600160a060020a038216600090815260056020526040902054611afb908263ffffffff611c4f16565b600160a060020a0390921660009081526005602052604090209190915550565b600160a060020a03808416600090815260066020908152604080832093861683529290522054611b51908263ffffffff611cac16565b600160a060020a03938416600090815260066020908152604080832095909616825293909352929091209190915550565b600160a060020a038216600090815260056020526040902054611afb908263ffffffff611cac16565b600160a060020a03808416600090815260066020908152604080832093861683529290522054611b51908263ffffffff611c4f16565b611beb828261173c565b15611c2a5760405160e560020a62461bcd028152600401808060200182810382526023815260200180611de06023913960400191505060405180910390fd5b600160a060020a0316600090815260209190915260409020805460ff19166001179055565b600082820183811015610901576040805160e560020a62461bcd02815260206004820152601b60248201527f536166654d6174683a206164646974696f6e206f766572666c6f770000000000604482015290519081900360640190fd5b600082821115611d06576040805160e560020a62461bcd02815260206004820152601e60248201527f536166654d6174683a207375627472616374696f6e206f766572666c6f770000604482015290519081900360640190fd5b5090039056fe4f776e65722061646472657373206d757374206e6f7420626520302d6164647265737343757272656e6379206973206e6f742070726573656e7420696e20737570706f727465642063757272656e636965735370656e646572206d757374206e6f7420626520302d616464726573730000004e657720686f6c646572206d757374206e6f74206265206f6c6420686f6c64657253656e646572206d757374206e6f7420626520302d61646472657373000000004d75737420626520616e2061646d696e000000000000000000000000000000004163636f756e742068617320616c726561647920686176652061646d696e20726f6c65a165627a7a723058204451ca7aa2a36188ad0ebc6932376c5a6e60672c055a12fb679fbb86a22970c600294f776e65722061646472657373206d757374206e6f7420626520302d616464726573734163636f756e742068617320616c726561647920686176652061646d696e20726f6c65",
  "source": "pragma solidity >=0.4.10 <0.6.0;\r\n\r\nimport \"./ERC20ModularToken.sol\";\r\n\r\ncontract ConfigurableToken is ERC20ModularToken {\r\n    uint256 internal _transactionFees;\r\n    mapping(string => uint256) internal _tokenPrices;\r\n    address internal _tokenHolder;\r\n\r\n    event TokenHolderChanged(address indexed oldTokenHolder, address indexed newTokenHolder);\r\n    event PriceChanged(uint256 newPrice, string currency);\r\n    event FeesChanged(uint256 newFees);\r\n\r\n    uint256 constant internal DECIMALS = 10**18;\r\n\r\n    constructor() public {\r\n        _initTokenPrices(1, 1, 1);\r\n        _transactionFees = 100;\r\n        _tokenHolder = _owner;\r\n    }\r\n\r\n    function _initTokenPrices(uint256 eur, uint256 usd, uint256 xaf) internal {\r\n        _tokenPrices[\"EUR\"] = eur;\r\n        _tokenPrices[\"USD\"] = usd;\r\n        _tokenPrices[\"XAF\"] = xaf;\r\n    }\r\n\r\n    modifier notTokenHolder(address _account) {\r\n        require(_account != _tokenHolder, \"Address must not be token holder\");\r\n        _;\r\n    }\r\n\r\n    modifier isValidCurrency(string memory _currency) {\r\n        require(_tokenPrices[_currency] != 0, \"Currency is not present in supported currencies\");\r\n        _;\r\n    }\r\n\r\n    modifier isInvalidCurrency(string memory _currency) {\r\n        require(_tokenPrices[_currency] == 0, \"Currency must not be present in supported currencies\");\r\n        _;\r\n    }\r\n\r\n    function validCurrency(string memory _currency) public view returns(bool) {\r\n        return _tokenPrices[_currency] != 0;\r\n    }\r\n    \r\n    function tokenPrice(string memory _currency) public view isValidCurrency(_currency) returns(uint256) {\r\n        return _tokenPrices[_currency];\r\n    }\r\n\r\n    function changePrice(uint256 _price, string memory _currency) public isValidCurrency(_currency) onlyAdmin {\r\n        require(_price > 0, string(abi.encodePacked(\"Token price in \", _currency, \" must not be 0\")));\r\n        _tokenPrices[_currency] = _price;\r\n        emit PriceChanged(_price, _currency);\r\n    }\r\n\r\n    function transactionFees() public view returns(uint256) {\r\n        return _transactionFees;\r\n    }\r\n\r\n    function changeFees(uint256 _fees) public onlyAdmin {\r\n        require(_fees <= uint256(10000), \"Fees must be in range 0-10000\");\r\n        _transactionFees = _fees;\r\n        emit FeesChanged(_fees);\r\n    }\r\n\r\n    function changeTokenHolder(address _newHolder) public onlyOwner {\r\n        require(_newHolder != address(0), \"New Holder must not be 0-address\");\r\n        require(_newHolder != _tokenHolder, \"New holder must not be old holder\");\r\n        /*address payable _payableNewHolder = address(uint160(_newHolder));\r\n        address payable _payableTokenHolder = address(uint160(_tokenHolder));\r\n        _payableNewHolder.transfer(_payableTokenHolder.balance);*/\r\n        _transferAllArgs(_tokenHolder, _newHolder, balanceOf(_tokenHolder));\r\n        emit TokenHolderChanged(_tokenHolder, _newHolder);\r\n        _tokenHolder = _newHolder;\r\n    }\r\n\r\n}",
  "sourcePath": "C:\\Users\\Sim'S\\WebstormProjects\\kmxv1\\contracts\\kmx\\ConfigurableToken.sol",
  "compiler": {
    "name": "solc",
    "version": "0.5.8+commit.23d335f2.Emscripten.clang"
  },
  "schemaVersion": "3.0.10",
  "updatedAt": "2020-05-05T09:02:45.863Z",
  "devdoc": {
    "methods": {}
  },
  "userdoc": {
    "methods": {}
  }
}