{
  "contractName": "ERC20ModularToken",
  "abi": [
    {
      "constant": false,
      "inputs": [
        {
          "name": "admin",
          "type": "address"
        }
      ],
      "name": "removeAdmin",
      "outputs": [],
      "payable": false,
      "stateMutability": "nonpayable",
      "type": "function"
    },
    {
      "constant": true,
      "inputs": [
        {
          "name": "account",
          "type": "address"
        }
      ],
      "name": "isAdmin",
      "outputs": [
        {
          "name": "",
          "type": "bool"
        }
      ],
      "payable": false,
      "stateMutability": "view",
      "type": "function"
    },
    {
      "constant": true,
      "inputs": [
        {
          "name": "_address",
          "type": "address"
        }
      ],
      "name": "isOwner",
      "outputs": [
        {
          "name": "",
          "type": "bool"
        }
      ],
      "payable": false,
      "stateMutability": "view",
      "type": "function"
    },
    {
      "constant": false,
      "inputs": [
        {
          "name": "_account",
          "type": "address"
        }
      ],
      "name": "frozeAccount",
      "outputs": [],
      "payable": false,
      "stateMutability": "nonpayable",
      "type": "function"
    },
    {
      "constant": false,
      "inputs": [],
      "name": "kill",
      "outputs": [],
      "payable": false,
      "stateMutability": "nonpayable",
      "type": "function"
    },
    {
      "constant": false,
      "inputs": [],
      "name": "claimOwnership",
      "outputs": [],
      "payable": false,
      "stateMutability": "nonpayable",
      "type": "function"
    },
    {
      "constant": false,
      "inputs": [
        {
          "name": "admin",
          "type": "address"
        }
      ],
      "name": "addAdmin",
      "outputs": [],
      "payable": false,
      "stateMutability": "nonpayable",
      "type": "function"
    },
    {
      "constant": false,
      "inputs": [
        {
          "name": "_account",
          "type": "address"
        }
      ],
      "name": "unfrozeAccount",
      "outputs": [],
      "payable": false,
      "stateMutability": "nonpayable",
      "type": "function"
    },
    {
      "constant": false,
      "inputs": [],
      "name": "renounceAdmin",
      "outputs": [],
      "payable": false,
      "stateMutability": "nonpayable",
      "type": "function"
    },
    {
      "constant": true,
      "inputs": [
        {
          "name": "_account",
          "type": "address"
        }
      ],
      "name": "isAccountFrozen",
      "outputs": [
        {
          "name": "",
          "type": "bool"
        }
      ],
      "payable": false,
      "stateMutability": "view",
      "type": "function"
    },
    {
      "constant": false,
      "inputs": [
        {
          "name": "newOwner",
          "type": "address"
        }
      ],
      "name": "transferOwnership",
      "outputs": [],
      "payable": false,
      "stateMutability": "nonpayable",
      "type": "function"
    },
    {
      "anonymous": false,
      "inputs": [
        {
          "indexed": true,
          "name": "account",
          "type": "address"
        }
      ],
      "name": "AccountFrozen",
      "type": "event"
    },
    {
      "anonymous": false,
      "inputs": [
        {
          "indexed": true,
          "name": "account",
          "type": "address"
        }
      ],
      "name": "AccountUnfrozen",
      "type": "event"
    },
    {
      "anonymous": false,
      "inputs": [
        {
          "indexed": true,
          "name": "admin",
          "type": "address"
        }
      ],
      "name": "AdminAdded",
      "type": "event"
    },
    {
      "anonymous": false,
      "inputs": [
        {
          "indexed": true,
          "name": "admin",
          "type": "address"
        }
      ],
      "name": "AdminRemoved",
      "type": "event"
    },
    {
      "anonymous": false,
      "inputs": [
        {
          "indexed": true,
          "name": "previousOwner",
          "type": "address"
        },
        {
          "indexed": true,
          "name": "newOwner",
          "type": "address"
        }
      ],
      "name": "OwnershipTransferred",
      "type": "event"
    },
    {
      "anonymous": false,
      "inputs": [
        {
          "indexed": true,
          "name": "owner",
          "type": "address"
        },
        {
          "indexed": true,
          "name": "spender",
          "type": "address"
        },
        {
          "indexed": false,
          "name": "value",
          "type": "uint256"
        }
      ],
      "name": "Approval",
      "type": "event"
    },
    {
      "anonymous": false,
      "inputs": [
        {
          "indexed": true,
          "name": "from",
          "type": "address"
        },
        {
          "indexed": true,
          "name": "to",
          "type": "address"
        },
        {
          "indexed": false,
          "name": "value",
          "type": "uint256"
        }
      ],
      "name": "Transfer",
      "type": "event"
    },
    {
      "constant": false,
      "inputs": [
        {
          "name": "spender",
          "type": "address"
        },
        {
          "name": "value",
          "type": "uint256"
        }
      ],
      "name": "increaseAllowance",
      "outputs": [],
      "payable": false,
      "stateMutability": "nonpayable",
      "type": "function"
    },
    {
      "constant": false,
      "inputs": [
        {
          "name": "spender",
          "type": "address"
        },
        {
          "name": "value",
          "type": "uint256"
        }
      ],
      "name": "decreaseAllowance",
      "outputs": [],
      "payable": false,
      "stateMutability": "nonpayable",
      "type": "function"
    },
    {
      "constant": false,
      "inputs": [
        {
          "name": "spender",
          "type": "address"
        },
        {
          "name": "value",
          "type": "uint256"
        }
      ],
      "name": "approve",
      "outputs": [
        {
          "name": "",
          "type": "bool"
        }
      ],
      "payable": false,
      "stateMutability": "nonpayable",
      "type": "function"
    },
    {
      "constant": true,
      "inputs": [
        {
          "name": "account",
          "type": "address"
        }
      ],
      "name": "balanceOf",
      "outputs": [
        {
          "name": "",
          "type": "uint256"
        }
      ],
      "payable": false,
      "stateMutability": "view",
      "type": "function"
    },
    {
      "constant": true,
      "inputs": [
        {
          "name": "owner",
          "type": "address"
        },
        {
          "name": "spender",
          "type": "address"
        }
      ],
      "name": "allowance",
      "outputs": [
        {
          "name": "",
          "type": "uint256"
        }
      ],
      "payable": false,
      "stateMutability": "view",
      "type": "function"
    },
    {
      "constant": true,
      "inputs": [],
      "name": "totalSupply",
      "outputs": [
        {
          "name": "",
          "type": "uint256"
        }
      ],
      "payable": false,
      "stateMutability": "view",
      "type": "function"
    },
    {
      "constant": false,
      "inputs": [
        {
          "name": "to",
          "type": "address"
        },
        {
          "name": "from",
          "type": "address"
        },
        {
          "name": "value",
          "type": "uint256"
        }
      ],
      "name": "transferFrom",
      "outputs": [
        {
          "name": "",
          "type": "bool"
        }
      ],
      "payable": false,
      "stateMutability": "nonpayable",
      "type": "function"
    },
    {
      "constant": false,
      "inputs": [
        {
          "name": "to",
          "type": "address"
        },
        {
          "name": "value",
          "type": "uint256"
        }
      ],
      "name": "transfer",
      "outputs": [
        {
          "name": "",
          "type": "bool"
        }
      ],
      "payable": false,
      "stateMutability": "nonpayable",
      "type": "function"
    }
  ],
  "bytecode": "0x6080604052336200005c576040517f08c379a0000000000000000000000000000000000000000000000000000000008152600401808060200182810382526023815260200180620014fe6023913960400191505060405180910390fd5b60008054600160a060020a0319163317908190556200008d90600160a060020a031664010000000062000093810204565b6200020f565b620000ae60028264010000000062001122620000e582021704565b604051600160a060020a038216907f44d6d25963f097ad14f29f06854a01f575648a1ef82f30e562ccd3889717e33990600090a250565b620000fa828264010000000062000177810204565b1562000152576040517f08c379a0000000000000000000000000000000000000000000000000000000008152600401808060200182810382526023815260200180620015216023913960400191505060405180910390fd5b600160a060020a0316600090815260209190915260409020805460ff19166001179055565b6000600160a060020a038216620001ef57604080517f08c379a000000000000000000000000000000000000000000000000000000000815260206004820181905260248201527f4163636f756e74206d757374206e6f74206265207a65726f2d61646472657373604482015290519081900360640190fd5b50600160a060020a03166000908152602091909152604090205460ff1690565b6112df806200021f6000396000f3fe608060405234801561001057600080fd5b506004361061013e576000357c0100000000000000000000000000000000000000000000000000000000900480634e71e0c8116100ca578063a457c2d71161008e578063a457c2d714610323578063a9059cbb1461034f578063dd62ed3e1461037b578063e816d97f146103a9578063f2fde38b146103cf5761013e565b80634e71e0c8146102a157806370480275146102a957806370a08231146102cf5780637b68d0ac146102f55780638bad0c0a1461031b5761013e565b806324d7806c1161011157806324d7806c146101fb5780632f54bf6e146102215780633950935114610247578063414f85941461027357806341c0e1b5146102995761013e565b8063095ea7b3146101435780631785f53c1461018357806318160ddd146101ab57806323b872dd146101c5575b600080fd5b61016f6004803603604081101561015957600080fd5b50600160a060020a0381351690602001356103f5565b604080519115158252519081900360200190f35b6101a96004803603602081101561019957600080fd5b5035600160a060020a03166104bf565b005b6101b361051e565b60408051918252519081900360200190f35b61016f600480360360608110156101db57600080fd5b50600160a060020a03813581169160208101359091169060400135610524565b61016f6004803603602081101561021157600080fd5b5035600160a060020a0316610539565b61016f6004803603602081101561023757600080fd5b5035600160a060020a031661054c565b6101a96004803603604081101561025d57600080fd5b50600160a060020a038135169060200135610560565b6101a96004803603602081101561028957600080fd5b5035600160a060020a0316610622565b6101a9610721565b6101a9610792565b6101a9600480360360208110156102bf57600080fd5b5035600160a060020a031661084f565b6101b3600480360360208110156102e557600080fd5b5035600160a060020a03166108ab565b6101a96004803603602081101561030b57600080fd5b5035600160a060020a03166108b6565b6101a96109b1565b6101a96004803603604081101561033957600080fd5b50600160a060020a038135169060200135610a72565b61016f6004803603604081101561036557600080fd5b50600160a060020a038135169060200135610b30565b6101b36004803603604081101561039157600080fd5b50600160a060020a0381358116916020013516610b3d565b61016f600480360360208110156103bf57600080fd5b5035600160a060020a0316610b49565b6101a9600480360360208110156103e557600080fd5b5035600160a060020a0316610b54565b60003361044c576040805160e560020a62461bcd02815260206004820152601c60248201527f53656e646572206d757374206e6f7420626520302d6164647265737300000000604482015290519081900360640190fd5b600160a060020a0383166104aa576040805160e560020a62461bcd02815260206004820152601d60248201527f5370656e646572206d757374206e6f7420626520302d61646472657373000000604482015290519081900360640190fd5b6104b5338484610c2d565b5060015b92915050565b6104d060023363ffffffff610c7d16565b610512576040805160e560020a62461bcd0281526020600482015260106024820152600080516020611271833981519152604482015290519081900360640190fd5b61051b81610cfd565b50565b60045490565b600061053283858433610d45565b9392505050565b60006104b960028363ffffffff610c7d16565b600054600160a060020a0391821691161490565b336105b5576040805160e560020a62461bcd02815260206004820152601c60248201527f53656e646572206d757374206e6f7420626520302d6164647265737300000000604482015290519081900360640190fd5b600160a060020a038216610613576040805160e560020a62461bcd02815260206004820152601d60248201527f5370656e646572206d757374206e6f7420626520302d61646472657373000000604482015290519081900360640190fd5b61061e338383610dd5565b5050565b61063360023363ffffffff610c7d16565b610675576040805160e560020a62461bcd0281526020600482015260106024820152600080516020611271833981519152604482015290519081900360640190fd5b8061067f81610e2c565b156106d4576040805160e560020a62461bcd02815260206004820152601a60248201527f4163636f756e74206d757374206e6f742062652066726f7a656e000000000000604482015290519081900360640190fd5b600160a060020a038216600081815260036020526040808220805460ff19166001179055517f4f2a367e694e71282f29ab5eaa04c4c0be45ac5bf2ca74fb67068b98bdc2887d9190a25050565b600054600160a060020a03163314610783576040805160e560020a62461bcd02815260206004820152601a60248201527f54686973206973206e6f7420636f6e7472616374206f776e6572000000000000604482015290519081900360640190fd5b600054600160a060020a031680ff5b600154600160a060020a031633146107f4576040805160e560020a62461bcd02815260206004820152601c60248201527f53656e646572206d7573742062652070656e64696e67206f776e657200000000604482015290519081900360640190fd5b6001546000805473ffffffffffffffffffffffffffffffffffffffff1916600160a060020a03928316908117808355604051919316917f8be0079c531659141344cd1fd0a4f28419497f9722a3daafe3b4186f6b6457e091a3565b61086060023363ffffffff610c7d16565b6108a2576040805160e560020a62461bcd0281526020600482015260106024820152600080516020611271833981519152604482015290519081900360640190fd5b61051b81610e4a565b60006104b982610e92565b6108c760023363ffffffff610c7d16565b610909576040805160e560020a62461bcd0281526020600482015260106024820152600080516020611271833981519152604482015290519081900360640190fd5b8061091381610e2c565b610967576040805160e560020a62461bcd02815260206004820152601660248201527f4163636f756e74206d7573742062652066726f7a656e00000000000000000000604482015290519081900360640190fd5b600160a060020a038216600081815260036020526040808220805460ff19169055517ff915cd9fe234de6e8d3afe7bf2388d35b2b6d48e8c629a24602019bde79c213a9190a25050565b6109c260023363ffffffff610c7d16565b610a04576040805160e560020a62461bcd0281526020600482015260106024820152600080516020611271833981519152604482015290519081900360640190fd5b600054600160a060020a0316331415610a67576040805160e560020a62461bcd02815260206004820152601f60248201527f4f776e65722063616e206e6f742072656e6f756e636520746f2061646d696e00604482015290519081900360640190fd5b610a7033610cfd565b565b33610ac7576040805160e560020a62461bcd02815260206004820152601c60248201527f53656e646572206d757374206e6f7420626520302d6164647265737300000000604482015290519081900360640190fd5b600160a060020a038216610b25576040805160e560020a62461bcd02815260206004820152601d60248201527f5370656e646572206d757374206e6f7420626520302d61646472657373000000604482015290519081900360640190fd5b61061e338383610ead565b60006104b9338484610eb8565b60006105328383610f3c565b60006104b982610e2c565b600054600160a060020a03163314610bb6576040805160e560020a62461bcd02815260206004820152601a60248201527f54686973206973206e6f7420636f6e7472616374206f776e6572000000000000604482015290519081900360640190fd5b600160a060020a038116610bfe5760405160e560020a62461bcd02815260040180806020018281038252602381526020018061124e6023913960400191505060405180910390fd5b6001805473ffffffffffffffffffffffffffffffffffffffff1916600160a060020a0392909216919091179055565b610c38838383610f67565b604080518281529051600160a060020a0384169133917f8c5be1e5ebec7d5bd14f71427d1e84f3dd0314c0f7b2291e5b200ac8c7c3b9259181900360200190a3505050565b6000600160a060020a038216610cdd576040805160e560020a62461bcd02815260206004820181905260248201527f4163636f756e74206d757374206e6f74206265207a65726f2d61646472657373604482015290519081900360640190fd5b50600160a060020a03166000908152602091909152604090205460ff1690565b610d0e60028263ffffffff610f9316565b604051600160a060020a038216907fa3b62bc36326052d97ea62d63c3d60308ed4c3ea8ac079dd8499f1e9c4f80c0f90600090a250565b600160a060020a0383163014610d5f57610d5f8383611013565b610d6a84828461105c565b600160a060020a0384163014610d8457610d8484836110c3565b82600160a060020a031684600160a060020a03167fddf252ad1be2c89b69c2b068fc378daa952ba7f163c4a11628f55a4df523b3ef846040518082815260200191505060405180910390a350505050565b610de08383836110ec565b600160a060020a038216337f8c5be1e5ebec7d5bd14f71427d1e84f3dd0314c0f7b2291e5b200ac8c7c3b925610e168686610f3c565b60408051918252519081900360200190a3505050565b600160a060020a031660009081526003602052604090205460ff1690565b610e5b60028263ffffffff61112216565b604051600160a060020a038216907f44d6d25963f097ad14f29f06854a01f575648a1ef82f30e562ccd3889717e33990600090a250565b600160a060020a031660009081526005602052604090205490565b610de083838361105c565b600160a060020a0382163014610ed257610ed28282611013565b600160a060020a0383163014610eec57610eec83826110c3565b81600160a060020a031683600160a060020a03167fddf252ad1be2c89b69c2b068fc378daa952ba7f163c4a11628f55a4df523b3ef836040518082815260200191505060405180910390a3505050565b600160a060020a03918216600090815260066020908152604080832093909416825291909152205490565b600160a060020a0392831660009081526006602090815260408083209490951682529290925291902055565b610f9d8282610c7d565b610ff1576040805160e560020a62461bcd02815260206004820152601f60248201527f4163636f756e7420686173206e6f7420686176652061646d696e20726f6c6500604482015290519081900360640190fd5b600160a060020a0316600090815260209190915260409020805460ff19169055565b600160a060020a03821660009081526005602052604090205461103c908263ffffffff61119016565b600160a060020a0390921660009081526005602052604090209190915550565b600160a060020a03808416600090815260066020908152604080832093861683529290522054611092908263ffffffff6111ed16565b600160a060020a03938416600090815260066020908152604080832095909616825293909352929091209190915550565b600160a060020a03821660009081526005602052604090205461103c908263ffffffff6111ed16565b600160a060020a03808416600090815260066020908152604080832093861683529290522054611092908263ffffffff61119016565b61112c8282610c7d565b1561116b5760405160e560020a62461bcd0281526004018080602001828103825260238152602001806112916023913960400191505060405180910390fd5b600160a060020a0316600090815260209190915260409020805460ff19166001179055565b600082820183811015610532576040805160e560020a62461bcd02815260206004820152601b60248201527f536166654d6174683a206164646974696f6e206f766572666c6f770000000000604482015290519081900360640190fd5b600082821115611247576040805160e560020a62461bcd02815260206004820152601e60248201527f536166654d6174683a207375627472616374696f6e206f766572666c6f770000604482015290519081900360640190fd5b5090039056fe4f776e65722061646472657373206d757374206e6f7420626520302d616464726573734d75737420626520616e2061646d696e000000000000000000000000000000004163636f756e742068617320616c726561647920686176652061646d696e20726f6c65a165627a7a72305820c865b935015c6e658b67c6d702e6a716293d404ed672c409dec40b5fb35e8ace00294f776e65722061646472657373206d757374206e6f7420626520302d616464726573734163636f756e742068617320616c726561647920686176652061646d696e20726f6c65",
  "source": "pragma solidity >=0.4.10 <0.6.0;\r\n\r\nimport \"./ERC20.sol\";\r\nimport \"./AccountFrozenableToken.sol\";\r\nimport \"./utils/SafeMath.sol\";\r\n\r\ncontract ERC20ModularToken is ERC20, AccountFrozenableToken {\r\n    uint256 internal _totalSupply;\r\n    mapping(address => uint256) balances;\r\n    mapping(address => mapping(address => uint256)) allowances;\r\n\r\n    using SafeMath for uint256;\r\n\r\n    function _getBalance(address account) internal view returns(uint256) {\r\n        return balances[account];\r\n    }\r\n\r\n    function _addBalance(address account, uint256 value) internal {\r\n        balances[account] = balances[account].add(value);\r\n    }\r\n\r\n    function _subBalance(address account, uint256 value) internal {\r\n        balances[account] = balances[account].sub(value);\r\n    }\r\n\r\n    function _setBalance(address account, uint256 value) internal {\r\n        balances[account] = value;\r\n    }\r\n\r\n    function _getAllowance(address owner, address spender) internal view returns(uint256) {\r\n        return allowances[owner][spender];\r\n    }\r\n\r\n    function _addAllowance(address owner, address spender, uint256 value) internal {\r\n        allowances[owner][spender] = allowances[owner][spender].add(value);\r\n    }\r\n\r\n    function _subAllowance(address owner, address spender, uint256 value) internal {\r\n        allowances[owner][spender] = allowances[owner][spender].sub(value);\r\n    }\r\n\r\n    function _setAllowance(address owner, address spender, uint256 value) internal {\r\n        allowances[owner][spender] = value;\r\n    }\r\n\r\n    function _approveAllArgs(address owner, address spender, uint256 value) internal {\r\n        _setAllowance(owner, spender, value);\r\n        emit Approval(msg.sender, spender, value);\r\n    }\r\n\r\n    function _increaseAllowanceAllArgs(address owner, address spender, uint256 value) internal {\r\n        _addAllowance(owner, spender, value);\r\n        emit Approval(msg.sender, spender, _getAllowance(owner, spender));\r\n    }\r\n\r\n    function _decreaseAllowanceAllArgs(address owner, address spender, uint256 value) internal {\r\n        _subAllowance(owner, spender, value);\r\n        emit Approval(msg.sender, spender, _getAllowance(owner, spender));\r\n    }\r\n\r\n    function _transferAllArgs(address from, address to, uint256 value) internal {\r\n        if (address(to)!=address(this)) _addBalance(to, value);\r\n        if (address(from)!=address(this)) _subBalance(from, value);\r\n        emit Transfer(from, to, value);\r\n    }\r\n\r\n    function _transferFromAllArgs(address from, address to, uint256 value, address spender) internal {\r\n        if (address(to)!=address(this)) _addBalance(to, value);\r\n        _subAllowance(from, spender, value);\r\n        if (address(from)!=address(this)) _subBalance(from, value);\r\n        emit Transfer(from, to, value);\r\n    }\r\n\r\n    function increaseAllowance(address spender, uint256 value) public {\r\n        require(msg.sender != address(0), \"Sender must not be 0-address\");\r\n        require(spender != address(0), \"Spender must not be 0-address\");\r\n        _increaseAllowanceAllArgs(msg.sender, spender, value);\r\n    }\r\n\r\n    function decreaseAllowance(address spender, uint256 value) public {\r\n        require(msg.sender != address(0), \"Sender must not be 0-address\");\r\n        require(spender != address(0), \"Spender must not be 0-address\");\r\n        _decreaseAllowanceAllArgs(msg.sender, spender, value);\r\n    }\r\n\r\n    function approve(address spender, uint256 value) public returns(bool) {\r\n        require(msg.sender != address(0), \"Sender must not be 0-address\");\r\n        require(spender != address(0), \"Spender must not be 0-address\");\r\n        _approveAllArgs(msg.sender, spender, value);\r\n        return true;\r\n    }\r\n\r\n    function balanceOf(address account) public view returns(uint256) {\r\n        return _getBalance(account);\r\n    }\r\n\r\n    function allowance(address owner, address spender) public view returns(uint256) {\r\n        return _getAllowance(owner, spender);\r\n    }\r\n\r\n    function totalSupply() public view returns(uint256) {\r\n        return _totalSupply;\r\n    }\r\n\r\n    function transferFrom(address to, address from, uint256 value) public returns(bool){\r\n        _transferFromAllArgs(from, to, value, msg.sender);\r\n    }\r\n\r\n    function transfer(address to, uint256 value) public returns(bool){\r\n        _transferAllArgs(msg.sender, to, value);\r\n    }\r\n\r\n}",
  "sourcePath": "C:\\Users\\Sim'S\\WebstormProjects\\kmxv1\\contracts\\kmx\\ERC20ModularToken.sol",
  "compiler": {
    "name": "solc",
    "version": "0.5.8+commit.23d335f2.Emscripten.clang"
  },
  "schemaVersion": "3.0.10",
  "updatedAt": "2019-07-02T19:57:58.333Z",
  "devdoc": {
    "methods": {}
  },
  "userdoc": {
    "methods": {}
  }
}