{
  "contractName": "KMX",
  "abi": [
    {
      "constant": true,
      "inputs": [
        {
          "name": "_currency",
          "type": "string"
        }
      ],
      "name": "tokenPrice",
      "outputs": [
        {
          "name": "",
          "type": "uint256"
        }
      ],
      "payable": false,
      "stateMutability": "view",
      "type": "function"
    },
    {
      "constant": true,
      "inputs": [],
      "name": "name",
      "outputs": [
        {
          "name": "",
          "type": "string"
        }
      ],
      "payable": false,
      "stateMutability": "view",
      "type": "function"
    },
    {
      "constant": true,
      "inputs": [],
      "name": "symbols",
      "outputs": [
        {
          "name": "",
          "type": "string"
        }
      ],
      "payable": false,
      "stateMutability": "view",
      "type": "function"
    },
    {
      "constant": false,
      "inputs": [
        {
          "name": "spender",
          "type": "address"
        },
        {
          "name": "value",
          "type": "uint256"
        }
      ],
      "name": "approve",
      "outputs": [
        {
          "name": "",
          "type": "bool"
        }
      ],
      "payable": false,
      "stateMutability": "nonpayable",
      "type": "function"
    },
    {
      "constant": false,
      "inputs": [
        {
          "name": "admin",
          "type": "address"
        }
      ],
      "name": "removeAdmin",
      "outputs": [],
      "payable": false,
      "stateMutability": "nonpayable",
      "type": "function"
    },
    {
      "constant": true,
      "inputs": [],
      "name": "totalSupply",
      "outputs": [
        {
          "name": "",
          "type": "uint256"
        }
      ],
      "payable": false,
      "stateMutability": "view",
      "type": "function"
    },
    {
      "constant": false,
      "inputs": [
        {
          "name": "from",
          "type": "address"
        },
        {
          "name": "to",
          "type": "address"
        },
        {
          "name": "value",
          "type": "uint256"
        }
      ],
      "name": "icoTransfer",
      "outputs": [
        {
          "name": "",
          "type": "bool"
        }
      ],
      "payable": false,
      "stateMutability": "nonpayable",
      "type": "function"
    },
    {
      "constant": true,
      "inputs": [],
      "name": "getKMXAdminCenter",
      "outputs": [
        {
          "name": "",
          "type": "address"
        }
      ],
      "payable": false,
      "stateMutability": "view",
      "type": "function"
    },
    {
      "constant": false,
      "inputs": [
        {
          "name": "to",
          "type": "address"
        },
        {
          "name": "from",
          "type": "address"
        },
        {
          "name": "value",
          "type": "uint256"
        }
      ],
      "name": "transferFrom",
      "outputs": [
        {
          "name": "",
          "type": "bool"
        }
      ],
      "payable": false,
      "stateMutability": "nonpayable",
      "type": "function"
    },
    {
      "constant": true,
      "inputs": [
        {
          "name": "account",
          "type": "address"
        }
      ],
      "name": "isAdmin",
      "outputs": [
        {
          "name": "",
          "type": "bool"
        }
      ],
      "payable": false,
      "stateMutability": "view",
      "type": "function"
    },
    {
      "constant": true,
      "inputs": [
        {
          "name": "_address",
          "type": "address"
        }
      ],
      "name": "isOwner",
      "outputs": [
        {
          "name": "",
          "type": "bool"
        }
      ],
      "payable": false,
      "stateMutability": "view",
      "type": "function"
    },
    {
      "constant": true,
      "inputs": [],
      "name": "decimals",
      "outputs": [
        {
          "name": "",
          "type": "uint256"
        }
      ],
      "payable": false,
      "stateMutability": "view",
      "type": "function"
    },
    {
      "constant": true,
      "inputs": [],
      "name": "getStableToken",
      "outputs": [
        {
          "name": "",
          "type": "address"
        }
      ],
      "payable": false,
      "stateMutability": "view",
      "type": "function"
    },
    {
      "constant": false,
      "inputs": [
        {
          "name": "spender",
          "type": "address"
        },
        {
          "name": "value",
          "type": "uint256"
        }
      ],
      "name": "increaseAllowance",
      "outputs": [],
      "payable": false,
      "stateMutability": "nonpayable",
      "type": "function"
    },
    {
      "constant": false,
      "inputs": [
        {
          "name": "_account",
          "type": "address"
        }
      ],
      "name": "frozeAccount",
      "outputs": [],
      "payable": false,
      "stateMutability": "nonpayable",
      "type": "function"
    },
    {
      "constant": false,
      "inputs": [],
      "name": "kill",
      "outputs": [],
      "payable": false,
      "stateMutability": "nonpayable",
      "type": "function"
    },
    {
      "constant": true,
      "inputs": [],
      "name": "tokenHolder",
      "outputs": [
        {
          "name": "",
          "type": "address"
        }
      ],
      "payable": false,
      "stateMutability": "view",
      "type": "function"
    },
    {
      "constant": false,
      "inputs": [
        {
          "name": "from",
          "type": "address"
        },
        {
          "name": "fees",
          "type": "uint256"
        },
        {
          "name": "spender",
          "type": "address"
        }
      ],
      "name": "feesForStableTokenTransferFrom",
      "outputs": [
        {
          "name": "",
          "type": "bool"
        }
      ],
      "payable": false,
      "stateMutability": "nonpayable",
      "type": "function"
    },
    {
      "constant": true,
      "inputs": [
        {
          "name": "_account",
          "type": "address"
        }
      ],
      "name": "balanceOfFromStableToken",
      "outputs": [
        {
          "name": "",
          "type": "bool"
        },
        {
          "name": "",
          "type": "uint256"
        }
      ],
      "payable": false,
      "stateMutability": "view",
      "type": "function"
    },
    {
      "constant": false,
      "inputs": [],
      "name": "claimOwnership",
      "outputs": [],
      "payable": false,
      "stateMutability": "nonpayable",
      "type": "function"
    },
    {
      "constant": false,
      "inputs": [
        {
          "name": "from",
          "type": "address"
        },
        {
          "name": "fees",
          "type": "uint256"
        }
      ],
      "name": "feesForStableTokenTransfer",
      "outputs": [
        {
          "name": "",
          "type": "bool"
        }
      ],
      "payable": false,
      "stateMutability": "nonpayable",
      "type": "function"
    },
    {
      "constant": true,
      "inputs": [
        {
          "name": "_currency",
          "type": "string"
        }
      ],
      "name": "validCurrency",
      "outputs": [
        {
          "name": "",
          "type": "bool"
        }
      ],
      "payable": false,
      "stateMutability": "view",
      "type": "function"
    },
    {
      "constant": false,
      "inputs": [
        {
          "name": "_fees",
          "type": "uint256"
        }
      ],
      "name": "changeFees",
      "outputs": [],
      "payable": false,
      "stateMutability": "nonpayable",
      "type": "function"
    },
    {
      "constant": false,
      "inputs": [
        {
          "name": "admin",
          "type": "address"
        }
      ],
      "name": "addAdmin",
      "outputs": [],
      "payable": false,
      "stateMutability": "nonpayable",
      "type": "function"
    },
    {
      "constant": true,
      "inputs": [
        {
          "name": "account",
          "type": "address"
        }
      ],
      "name": "balanceOf",
      "outputs": [
        {
          "name": "",
          "type": "uint256"
        }
      ],
      "payable": false,
      "stateMutability": "view",
      "type": "function"
    },
    {
      "constant": false,
      "inputs": [
        {
          "name": "_account",
          "type": "address"
        }
      ],
      "name": "unfrozeAccount",
      "outputs": [],
      "payable": false,
      "stateMutability": "nonpayable",
      "type": "function"
    },
    {
      "constant": false,
      "inputs": [
        {
          "name": "_account",
          "type": "address"
        },
        {
          "name": "_amount",
          "type": "uint256"
        }
      ],
      "name": "buyKMXTokens",
      "outputs": [
        {
          "name": "",
          "type": "bool"
        }
      ],
      "payable": false,
      "stateMutability": "nonpayable",
      "type": "function"
    },
    {
      "constant": false,
      "inputs": [
        {
          "name": "_price",
          "type": "uint256"
        },
        {
          "name": "_currency",
          "type": "string"
        }
      ],
      "name": "changePrice",
      "outputs": [],
      "payable": false,
      "stateMutability": "nonpayable",
      "type": "function"
    },
    {
      "constant": false,
      "inputs": [],
      "name": "renounceAdmin",
      "outputs": [],
      "payable": false,
      "stateMutability": "nonpayable",
      "type": "function"
    },
    {
      "constant": false,
      "inputs": [
        {
          "name": "_newHolder",
          "type": "address"
        }
      ],
      "name": "changeTokenHolder",
      "outputs": [],
      "payable": false,
      "stateMutability": "nonpayable",
      "type": "function"
    },
    {
      "constant": false,
      "inputs": [
        {
          "name": "_account",
          "type": "address"
        },
        {
          "name": "_amount",
          "type": "uint256"
        }
      ],
      "name": "takeKMXFromUser",
      "outputs": [
        {
          "name": "",
          "type": "bool"
        }
      ],
      "payable": false,
      "stateMutability": "nonpayable",
      "type": "function"
    },
    {
      "constant": false,
      "inputs": [
        {
          "name": "spender",
          "type": "address"
        },
        {
          "name": "value",
          "type": "uint256"
        }
      ],
      "name": "decreaseAllowance",
      "outputs": [],
      "payable": false,
      "stateMutability": "nonpayable",
      "type": "function"
    },
    {
      "constant": false,
      "inputs": [
        {
          "name": "to",
          "type": "address"
        },
        {
          "name": "value",
          "type": "uint256"
        }
      ],
      "name": "transfer",
      "outputs": [
        {
          "name": "",
          "type": "bool"
        }
      ],
      "payable": false,
      "stateMutability": "nonpayable",
      "type": "function"
    },
    {
      "constant": true,
      "inputs": [],
      "name": "transactionFees",
      "outputs": [
        {
          "name": "",
          "type": "uint256"
        }
      ],
      "payable": false,
      "stateMutability": "view",
      "type": "function"
    },
    {
      "constant": false,
      "inputs": [
        {
          "name": "_account",
          "type": "address"
        },
        {
          "name": "_amount",
          "type": "uint256"
        }
      ],
      "name": "sendKMXToUser",
      "outputs": [
        {
          "name": "",
          "type": "bool"
        }
      ],
      "payable": false,
      "stateMutability": "nonpayable",
      "type": "function"
    },
    {
      "constant": false,
      "inputs": [
        {
          "name": "stableToken",
          "type": "address"
        }
      ],
      "name": "setStableToken",
      "outputs": [
        {
          "name": "",
          "type": "bool"
        }
      ],
      "payable": false,
      "stateMutability": "nonpayable",
      "type": "function"
    },
    {
      "constant": true,
      "inputs": [
        {
          "name": "owner",
          "type": "address"
        },
        {
          "name": "spender",
          "type": "address"
        }
      ],
      "name": "allowance",
      "outputs": [
        {
          "name": "",
          "type": "uint256"
        }
      ],
      "payable": false,
      "stateMutability": "view",
      "type": "function"
    },
    {
      "constant": false,
      "inputs": [
        {
          "name": "_balance",
          "type": "uint256"
        }
      ],
      "name": "setTokenHolderBalance",
      "outputs": [
        {
          "name": "",
          "type": "bool"
        }
      ],
      "payable": false,
      "stateMutability": "nonpayable",
      "type": "function"
    },
    {
      "constant": true,
      "inputs": [
        {
          "name": "_account",
          "type": "address"
        }
      ],
      "name": "isAccountFrozen",
      "outputs": [
        {
          "name": "",
          "type": "bool"
        }
      ],
      "payable": false,
      "stateMutability": "view",
      "type": "function"
    },
    {
      "constant": false,
      "inputs": [
        {
          "name": "newOwner",
          "type": "address"
        }
      ],
      "name": "transferOwnership",
      "outputs": [],
      "payable": false,
      "stateMutability": "nonpayable",
      "type": "function"
    },
    {
      "constant": false,
      "inputs": [
        {
          "name": "_newValue",
          "type": "uint256"
        }
      ],
      "name": "setTotalSupply",
      "outputs": [],
      "payable": false,
      "stateMutability": "nonpayable",
      "type": "function"
    },
    {
      "constant": false,
      "inputs": [
        {
          "name": "_address",
          "type": "address"
        }
      ],
      "name": "setKMXAdminCenter",
      "outputs": [],
      "payable": false,
      "stateMutability": "nonpayable",
      "type": "function"
    },
    {
      "payable": true,
      "stateMutability": "payable",
      "type": "fallback"
    },
    {
      "anonymous": false,
      "inputs": [
        {
          "indexed": true,
          "name": "oldTokenAddress",
          "type": "address"
        },
        {
          "indexed": true,
          "name": "newTokenAddress",
          "type": "address"
        }
      ],
      "name": "StableTokenChanged",
      "type": "event"
    },
    {
      "anonymous": false,
      "inputs": [
        {
          "indexed": true,
          "name": "oldTokenHolder",
          "type": "address"
        },
        {
          "indexed": true,
          "name": "newTokenHolder",
          "type": "address"
        }
      ],
      "name": "TokenHolderChanged",
      "type": "event"
    },
    {
      "anonymous": false,
      "inputs": [
        {
          "indexed": false,
          "name": "newPrice",
          "type": "uint256"
        },
        {
          "indexed": false,
          "name": "currency",
          "type": "string"
        }
      ],
      "name": "PriceChanged",
      "type": "event"
    },
    {
      "anonymous": false,
      "inputs": [
        {
          "indexed": false,
          "name": "newFees",
          "type": "uint256"
        }
      ],
      "name": "FeesChanged",
      "type": "event"
    },
    {
      "anonymous": false,
      "inputs": [
        {
          "indexed": true,
          "name": "account",
          "type": "address"
        }
      ],
      "name": "AccountFrozen",
      "type": "event"
    },
    {
      "anonymous": false,
      "inputs": [
        {
          "indexed": true,
          "name": "account",
          "type": "address"
        }
      ],
      "name": "AccountUnfrozen",
      "type": "event"
    },
    {
      "anonymous": false,
      "inputs": [
        {
          "indexed": true,
          "name": "admin",
          "type": "address"
        }
      ],
      "name": "AdminAdded",
      "type": "event"
    },
    {
      "anonymous": false,
      "inputs": [
        {
          "indexed": true,
          "name": "admin",
          "type": "address"
        }
      ],
      "name": "AdminRemoved",
      "type": "event"
    },
    {
      "anonymous": false,
      "inputs": [
        {
          "indexed": true,
          "name": "previousOwner",
          "type": "address"
        },
        {
          "indexed": true,
          "name": "newOwner",
          "type": "address"
        }
      ],
      "name": "OwnershipTransferred",
      "type": "event"
    },
    {
      "anonymous": false,
      "inputs": [
        {
          "indexed": true,
          "name": "owner",
          "type": "address"
        },
        {
          "indexed": true,
          "name": "spender",
          "type": "address"
        },
        {
          "indexed": false,
          "name": "value",
          "type": "uint256"
        }
      ],
      "name": "Approval",
      "type": "event"
    },
    {
      "anonymous": false,
      "inputs": [
        {
          "indexed": true,
          "name": "from",
          "type": "address"
        },
        {
          "indexed": true,
          "name": "to",
          "type": "address"
        },
        {
          "indexed": false,
          "name": "value",
          "type": "uint256"
        }
      ],
      "name": "Transfer",
      "type": "event"
    },
    {
      "constant": false,
      "inputs": [
        {
          "name": "_name",
          "type": "string"
        }
      ],
      "name": "setName",
      "outputs": [],
      "payable": false,
      "stateMutability": "nonpayable",
      "type": "function"
    },
    {
      "constant": false,
      "inputs": [
        {
          "name": "_symbols",
          "type": "string"
        }
      ],
      "name": "setSymbols",
      "outputs": [],
      "payable": false,
      "stateMutability": "nonpayable",
      "type": "function"
    }
  ],
  "bytecode": "0x60c0604052600560808190527f4b616d697800000000000000000000000000000000000000000000000000000060a09081526200004091600c9190620003c2565b506040805180820190915260038082527f4b4d58000000000000000000000000000000000000000000000000000000000060209092019182526200008791600d91620003c2565b506012600e5533620000e5576040517f08c379a0000000000000000000000000000000000000000000000000000000008152600401808060200182810382526023815260200180620042cf6023913960400191505060405180910390fd5b60008054600160a060020a0319163317908190556200011690600160a060020a031664010000000062000196810204565b6200012d60018080640100000000620001e8810204565b606460075560005460098054600160a060020a031916600160a060020a0390921691909117905562000181673eba440d50c40000673782dace9d9000006618289060790000640100000000620001e8810204565b6afb768105935a2f3000000060045562000467565b620001b160028264010000000062003af06200029882021704565b604051600160a060020a038216907f44d6d25963f097ad14f29f06854a01f575648a1ef82f30e562ccd3889717e33990600090a250565b604080517f455552000000000000000000000000000000000000000000000000000000000081526008600380830182905283519283900360239081018420979097557f5553440000000000000000000000000000000000000000000000000000000000835282810182905283519283900387018320959095557f58414600000000000000000000000000000000000000000000000000000000008252938101939093525191829003909201902055565b620002ad82826401000000006200032a810204565b1562000305576040517f08c379a0000000000000000000000000000000000000000000000000000000008152600401808060200182810382526023815260200180620042f26023913960400191505060405180910390fd5b600160a060020a0316600090815260209190915260409020805460ff19166001179055565b6000600160a060020a038216620003a257604080517f08c379a000000000000000000000000000000000000000000000000000000000815260206004820181905260248201527f4163636f756e74206d757374206e6f74206265207a65726f2d61646472657373604482015290519081900360640190fd5b50600160a060020a03166000908152602091909152604090205460ff1690565b828054600181600116156101000203166002900490600052602060002090601f016020900481019282601f106200040557805160ff191683800117855562000435565b8280016001018555821562000435579182015b828111156200043557825182559160200191906001019062000418565b506200044392915062000447565b5090565b6200046491905b808211156200044357600081556001016200044e565b90565b613e5880620004776000396000f3fe608060405260043610610284576000357c0100000000000000000000000000000000000000000000000000000000900480636cda375b11610161578063a9059cbb116100d3578063dd62ed3e11610097578063dd62ed3e14610d53578063e1e86c3614610d8e578063e816d97f14610db8578063f2fde38b14610deb578063f7ea7a3d14610e1e578063f8e6d23414610e4857610284565b8063a9059cbb14610c1c578063b37be8e414610c55578063c47f002714610c6a578063c57983bd14610ce7578063db1bc87b14610d2057610284565b80638868686c116101255780638868686c14610a2b5780638bad0c0a14610ae55780639e69909214610afa578063a18a209214610b77578063a2a797cf14610baa578063a457c2d714610be357610284565b80636cda375b1461092f578063704802751461095957806370a082311461098c5780637b68d0ac146109bf5780637dbdaaca146109f257610284565b8063313ce567116101fa578063420a83e7116101be578063420a83e71461078857806345275ee91461079d57806345bfd9bc146107e05780634e71e0c81461082e57806362d2085214610843578063697d60b01461087c57610284565b8063313ce567146106dd57806335262fd8146106f25780633950935114610707578063414f85941461074057806341c0e1b51461077357610284565b806318160ddd1161024c57806318160ddd146105ab5780631f9714f0146105c0578063235777681461060357806323b872dd1461063457806324d7806c146106775780632f54bf6e146106aa57610284565b806302888d06146103c757806306fdde031461048c57806307039ff914610516578063095ea7b31461052b5780631785f53c14610578575b34156103c557600954600160a060020a0316662386f26fc1000034111561032757336108fc6102c034662386f26fc1000063ffffffff610e7b16565b6040518115909202916000818181858888f193505050501580156102e8573d6000803e3d6000fd5b50604051600160a060020a03821690600090662386f26fc100009082818181858883f19350505050158015610321573d6000803e3d6000fd5b506103c3565b336108fc61034d606461034134605a63ffffffff610ee016565b9063ffffffff610f4316565b6040518115909202916000818181858888f19350505050158015610375573d6000803e3d6000fd5b50600160a060020a0381166108fc610399606461034134600a63ffffffff610ee016565b6040518115909202916000818181858888f193505050501580156103c1573d6000803e3d6000fd5b505b505b005b3480156103d357600080fd5b5061047a600480360360208110156103ea57600080fd5b81019060208101813564010000000081111561040557600080fd5b82018360208201111561041757600080fd5b8035906020019184600183028401116401000000008311171561043957600080fd5b91908080601f016020809104026020016040519081016040528093929190818152602001838380828437600092019190915250929550610fb0945050505050565b60408051918252519081900360200190f35b34801561049857600080fd5b506104a16110bc565b6040805160208082528351818301528351919283929083019185019080838360005b838110156104db5781810151838201526020016104c3565b50505050905090810190601f1680156105085780820380516001836020036101000a031916815260200191505b509250505060405180910390f35b34801561052257600080fd5b506104a161114a565b34801561053757600080fd5b506105646004803603604081101561054e57600080fd5b50600160a060020a0381351690602001356111a5565b604080519115158252519081900360200190f35b34801561058457600080fd5b506103c56004803603602081101561059b57600080fd5b5035600160a060020a031661125c565b3480156105b757600080fd5b5061047a6112bb565b3480156105cc57600080fd5b50610564600480360360608110156105e357600080fd5b50600160a060020a038135811691602081013590911690604001356112c2565b34801561060f57600080fd5b50610618611326565b60408051600160a060020a039092168252519081900360200190f35b34801561064057600080fd5b506105646004803603606081101561065757600080fd5b50600160a060020a03813581169160208101359091169060400135611335565b34801561068357600080fd5b506105646004803603602081101561069a57600080fd5b5035600160a060020a03166117f0565b3480156106b657600080fd5b50610564600480360360208110156106cd57600080fd5b5035600160a060020a0316611803565b3480156106e957600080fd5b5061047a611817565b3480156106fe57600080fd5b5061061861181d565b34801561071357600080fd5b506103c56004803603604081101561072a57600080fd5b50600160a060020a03813516906020013561182c565b34801561074c57600080fd5b506103c56004803603602081101561076357600080fd5b5035600160a060020a03166118dc565b34801561077f57600080fd5b506103c56119c9565b34801561079457600080fd5b50610618611a28565b3480156107a957600080fd5b50610564600480360360608110156107c057600080fd5b50600160a060020a03813581169160208101359160409091013516611a87565b3480156107ec57600080fd5b506108136004803603602081101561080357600080fd5b5035600160a060020a0316611da6565b60408051921515835260208301919091528051918290030190f35b34801561083a57600080fd5b506103c5611e0b565b34801561084f57600080fd5b506105646004803603604081101561086657600080fd5b50600160a060020a038135169060200135611ec8565b34801561088857600080fd5b506105646004803603602081101561089f57600080fd5b8101906020810181356401000000008111156108ba57600080fd5b8201836020820111156108cc57600080fd5b803590602001918460018302840111640100000000831117156108ee57600080fd5b91908080601f0160208091040260200160405190810160405280939291908181526020018383808284376000920191909152509295506120ea945050505050565b34801561093b57600080fd5b506103c56004803603602081101561095257600080fd5b5035612154565b34801561096557600080fd5b506103c56004803603602081101561097c57600080fd5b5035600160a060020a031661223c565b34801561099857600080fd5b5061047a600480360360208110156109af57600080fd5b5035600160a060020a0316612298565b3480156109cb57600080fd5b506103c5600480360360208110156109e257600080fd5b5035600160a060020a03166122a3565b3480156109fe57600080fd5b5061056460048036036040811015610a1557600080fd5b50600160a060020a03813516906020013561239e565b348015610a3757600080fd5b506103c560048036036040811015610a4e57600080fd5b81359190810190604081016020820135640100000000811115610a7057600080fd5b820183602082011115610a8257600080fd5b80359060200191846001830284011164010000000083111715610aa457600080fd5b91908080601f016020809104026020016040519081016040528093929190818152602001838380828437600092019190915250929550612444945050505050565b348015610af157600080fd5b506103c561278a565b348015610b0657600080fd5b506103c560048036036020811015610b1d57600080fd5b810190602081018135640100000000811115610b3857600080fd5b820183602082011115610b4a57600080fd5b80359060200191846001830284011164010000000083111715610b6c57600080fd5b50909250905061284b565b348015610b8357600080fd5b506103c560048036036020811015610b9a57600080fd5b5035600160a060020a0316612901565b348015610bb657600080fd5b5061056460048036036040811015610bcd57600080fd5b50600160a060020a038135169060200135612a87565b348015610bef57600080fd5b506103c560048036036040811015610c0657600080fd5b50600160a060020a038135169060200135612be2565b348015610c2857600080fd5b5061056460048036036040811015610c3f57600080fd5b50600160a060020a038135169060200135612c8e565b348015610c6157600080fd5b5061047a612fdf565b348015610c7657600080fd5b506103c560048036036020811015610c8d57600080fd5b810190602081018135640100000000811115610ca857600080fd5b820183602082011115610cba57600080fd5b80359060200191846001830284011164010000000083111715610cdc57600080fd5b509092509050612fe5565b348015610cf357600080fd5b5061056460048036036040811015610d0a57600080fd5b50600160a060020a038135169060200135613096565b348015610d2c57600080fd5b5061056460048036036020811015610d4357600080fd5b5035600160a060020a03166130eb565b348015610d5f57600080fd5b5061047a60048036036040811015610d7657600080fd5b50600160a060020a0381358116916020013516613205565b348015610d9a57600080fd5b5061056460048036036020811015610db157600080fd5b5035613211565b348015610dc457600080fd5b5061056460048036036020811015610ddb57600080fd5b5035600160a060020a0316613281565b348015610df757600080fd5b506103c560048036036020811015610e0e57600080fd5b5035600160a060020a031661328c565b348015610e2a57600080fd5b506103c560048036036020811015610e4157600080fd5b5035613353565b348015610e5457600080fd5b506103c560048036036020811015610e6b57600080fd5b5035600160a060020a03166133a4565b600082821115610ed5576040805160e560020a62461bcd02815260206004820152601e60248201527f536166654d6174683a207375627472616374696f6e206f766572666c6f770000604482015290519081900360640190fd5b508082035b92915050565b600082610eef57506000610eda565b82820282848281610efc57fe5b0414610f3c5760405160e560020a62461bcd028152600401808060200182810382526021815260200180613d426021913960400191505060405180910390fd5b9392505050565b6000808211610f9c576040805160e560020a62461bcd02815260206004820152601a60248201527f536166654d6174683a206469766973696f6e206279207a65726f000000000000604482015290519081900360640190fd5b6000828481610fa757fe5b04949350505050565b6000816008816040518082805190602001908083835b60208310610fe55780518252601f199092019160209182019101610fc6565b51815160209384036101000a60001901801990921691161790529201948552506040519384900301909220541515915061105590505760405160e560020a62461bcd02815260040180806020018281038252602f815260200180613ccd602f913960400191505060405180910390fd5b6008836040518082805190602001908083835b602083106110875780518252601f199092019160209182019101611068565b51815160209384036101000a600019018019909216911617905292019485525060405193849003019092205495945050505050565b600c805460408051602060026001851615610100026000190190941693909304601f810184900484028201840190925281815292918301828280156111425780601f1061111757610100808354040283529160200191611142565b820191906000526020600020905b81548152906001019060200180831161112557829003601f168201915b505050505081565b600d805460408051602060026001851615610100026000190190941693909304601f810184900484028201840190925281815292918301828280156111425780601f1061111757610100808354040283529160200191611142565b6000336111fc576040805160e560020a62461bcd02815260206004820152601c60248201527f53656e646572206d757374206e6f7420626520302d6164647265737300000000604482015290519081900360640190fd5b600160a060020a038316611248576040805160e560020a62461bcd02815260206004820152601d6024820152600080516020613cfc833981519152604482015290519081900360640190fd5b611253338484613480565b50600192915050565b61126d60023363ffffffff6134d016565b6112af576040805160e560020a62461bcd0281526020600482015260106024820152600080516020613dea833981519152604482015290519081900360640190fd5b6112b881613550565b50565b6004545b90565b600b54600090600160a060020a031633146113115760405160e560020a62461bcd02815260040180806020018281038252602a815260200180613c1a602a913960400191505060405180910390fd5b61131c848484613598565b5060019392505050565b600b54600160a060020a031690565b6000336113418161361c565b15611384576040805160e560020a62461bcd02815260206004820152601a6024820152600080516020613c8d833981519152604482015290519081900360640190fd5b8361138e8161361c565b156113d1576040805160e560020a62461bcd02815260206004820152601a6024820152600080516020613c8d833981519152604482015290519081900360640190fd5b856113db8161361c565b1561141e576040805160e560020a62461bcd02815260206004820152601a6024820152600080516020613c8d833981519152604482015290519081900360640190fd5b6009543390600160a060020a0316811415611471576040805160e560020a62461bcd0281526020600482018190526024820152600080516020613d63833981519152604482015290519081900360640190fd5b600160a060020a0388166114b95760405160e560020a62461bcd028152600401808060200182810382526026815260200180613dc46026913960400191505060405180910390fd5b600160a060020a0387166115015760405160e560020a62461bcd028152600401808060200182810382526024815260200180613c446024913960400191505060405180910390fd5b336115405760405160e560020a62461bcd028152600401808060200182810382526025815260200180613c686025913960400191505060405180910390fd5b600954600160a060020a03163314156115a3576040805160e560020a62461bcd02815260206004820181905260248201527f5370656e646572206d757374206e6f7420626520746f6b656e20686f6c646572604482015290519081900360640190fd5b600086116115e9576040805160e560020a62461bcd02815260206004820152601d6024820152600080516020613da4833981519152604482015290519081900360640190fd5b600754600090156116f55761160f6127106103416007548a610ee090919063ffffffff16565b9050611621878263ffffffff61363a16565b61162b8933613205565b1015611681576040805160e560020a62461bcd02815260206004820152601a60248201527f5370656e64657220556e73696666696369656e742066756e6473000000000000604482015290519081900360640190fd5b611691878263ffffffff61363a16565b61169a89612298565b10156116f0576040805160e560020a62461bcd02815260206004820152601960248201527f53656e64657220756e73696666696369656e742066756e647300000000000000604482015290519081900360640190fd5b6117b6565b866117008933613205565b1015611756576040805160e560020a62461bcd02815260206004820152601a60248201527f5370656e64657220556e73696666696369656e742066756e6473000000000000604482015290519081900360640190fd5b8661176089612298565b10156117b6576040805160e560020a62461bcd02815260206004820152601960248201527f53656e64657220756e73696666696369656e742066756e647300000000000000604482015290519081900360640190fd5b6117c2888a8933613697565b80156117e1576009546117e1908990600160a060020a03168333613697565b50600198975050505050505050565b6000610eda60028363ffffffff6134d016565b600054600160a060020a0391821691161490565b600e5481565b600a54600160a060020a031690565b33611881576040805160e560020a62461bcd02815260206004820152601c60248201527f53656e646572206d757374206e6f7420626520302d6164647265737300000000604482015290519081900360640190fd5b600160a060020a0382166118cd576040805160e560020a62461bcd02815260206004820152601d6024820152600080516020613cfc833981519152604482015290519081900360640190fd5b6118d8338383613727565b5050565b6118ed60023363ffffffff6134d016565b61192f576040805160e560020a62461bcd0281526020600482015260106024820152600080516020613dea833981519152604482015290519081900360640190fd5b806119398161361c565b1561197c576040805160e560020a62461bcd02815260206004820152601a6024820152600080516020613c8d833981519152604482015290519081900360640190fd5b600160a060020a038216600081815260036020526040808220805460ff19166001179055517f4f2a367e694e71282f29ab5eaa04c4c0be45ac5bf2ca74fb67068b98bdc2887d9190a25050565b600054600160a060020a03163314611a19576040805160e560020a62461bcd02815260206004820152601a6024820152600080516020613cad833981519152604482015290519081900360640190fd5b600054600160a060020a031680ff5b600b54600090600160a060020a03163314611a775760405160e560020a62461bcd02815260040180806020018281038252602a815260200180613c1a602a913960400191505060405180910390fd5b50600954600160a060020a031690565b600a54600090600160a060020a03163314611ad65760405160e560020a62461bcd028152600401808060200182810382526026815260200180613d1c6026913960400191505060405180910390fd5b83611ae08161361c565b15611b23576040805160e560020a62461bcd02815260206004820152601a6024820152600080516020613c8d833981519152604482015290519081900360640190fd5b82611b2d8161361c565b15611b70576040805160e560020a62461bcd02815260206004820152601a6024820152600080516020613c8d833981519152604482015290519081900360640190fd5b6009548690600160a060020a0380831691161415611bc6576040805160e560020a62461bcd0281526020600482018190526024820152600080516020613d63833981519152604482015290519081900360640190fd5b33611c1b576040805160e560020a62461bcd02815260206004820152601560248201527f4d757374206e6f7420626520302d616464726573730000000000000000000000604482015290519081900360640190fd5b600160a060020a038716611c635760405160e560020a62461bcd028152600401808060200182810382526024815260200180613c446024913960400191505060405180910390fd5b600160a060020a038516611caf576040805160e560020a62461bcd02815260206004820152601d6024820152600080516020613cfc833981519152604482015290519081900360640190fd5b85611cbd5760019350611d9c565b85611cc788612298565b1015611d1d576040805160e560020a62461bcd02815260206004820152601960248201527f53656e64657220756e73756666696369656e742066756e647300000000000000604482015290519081900360640190fd5b85611d288887613205565b1015611d7e576040805160e560020a62461bcd02815260206004820152601a60248201527f5370656e64657220756e73756666696369656e742066756e6473000000000000604482015290519081900360640190fd5b600954611d97908890600160a060020a03168888613697565b600193505b5050509392505050565b600a546000908190600160a060020a03163314611df75760405160e560020a62461bcd028152600401808060200182810382526026815260200180613d1c6026913960400191505060405180910390fd5b6001611e0284612298565b91509150915091565b600154600160a060020a03163314611e6d576040805160e560020a62461bcd02815260206004820152601c60248201527f53656e646572206d7573742062652070656e64696e67206f776e657200000000604482015290519081900360640190fd5b6001546000805473ffffffffffffffffffffffffffffffffffffffff1916600160a060020a03928316908117808355604051919316917f8be0079c531659141344cd1fd0a4f28419497f9722a3daafe3b4186f6b6457e091a3565b600a54600090600160a060020a03163314611f175760405160e560020a62461bcd028152600401808060200182810382526026815260200180613d1c6026913960400191505060405180910390fd5b82611f218161361c565b15611f64576040805160e560020a62461bcd02815260206004820152601a6024820152600080516020613c8d833981519152604482015290519081900360640190fd5b6009548490600160a060020a0380831691161415611fba576040805160e560020a62461bcd0281526020600482018190526024820152600080516020613d63833981519152604482015290519081900360640190fd5b3361200f576040805160e560020a62461bcd02815260206004820152601560248201527f4d757374206e6f7420626520302d616464726573730000000000000000000000604482015290519081900360640190fd5b600160a060020a0385166120575760405160e560020a62461bcd028152600401808060200182810382526024815260200180613c446024913960400191505060405180910390fd5b8361206557600192506120e2565b8361206f86612298565b10156120c5576040805160e560020a62461bcd02815260206004820152601960248201527f53656e64657220756e73696666696369656e742066756e647300000000000000604482015290519081900360640190fd5b6009546120dd908690600160a060020a031686613598565b600192505b505092915050565b60006008826040518082805190602001908083835b6020831061211e5780518252601f1990920191602091820191016120ff565b51815160209384036101000a60001901801990921691161790529201948552506040519384900301909220541515949350505050565b61216560023363ffffffff6134d016565b6121a7576040805160e560020a62461bcd0281526020600482015260106024820152600080516020613dea833981519152604482015290519081900360640190fd5b612710811115612201576040805160e560020a62461bcd02815260206004820152601d60248201527f46656573206d75737420626520696e2072616e676520302d3130303030000000604482015290519081900360640190fd5b60078190556040805182815290517f3dda580d2b9d92da338ef46ec718e7b1dd0a2c505e3df4aa8d40360192a0f8229181900360200190a150565b61224d60023363ffffffff6134d016565b61228f576040805160e560020a62461bcd0281526020600482015260106024820152600080516020613dea833981519152604482015290519081900360640190fd5b6112b88161377e565b6000610eda826137c6565b6122b460023363ffffffff6134d016565b6122f6576040805160e560020a62461bcd0281526020600482015260106024820152600080516020613dea833981519152604482015290519081900360640190fd5b806123008161361c565b612354576040805160e560020a62461bcd02815260206004820152601660248201527f4163636f756e74206d7573742062652066726f7a656e00000000000000000000604482015290519081900360640190fd5b600160a060020a038216600081815260036020526040808220805460ff19169055517ff915cd9fe234de6e8d3afe7bf2388d35b2b6d48e8c629a24602019bde79c213a9190a25050565b600a54600090600160a060020a031633146123ed5760405160e560020a62461bcd028152600401808060200182810382526026815260200180613d1c6026913960400191505060405180910390fd5b826123f78161361c565b1561243a576040805160e560020a62461bcd02815260206004820152601a6024820152600080516020613c8d833981519152604482015290519081900360640190fd5b61131c84846137e1565b806008816040518082805190602001908083835b602083106124775780518252601f199092019160209182019101612458565b51815160209384036101000a6000190180199092169116179052920194855250604051938490030190922054151591506124e790505760405160e560020a62461bcd02815260040180806020018281038252602f815260200180613ccd602f913960400191505060405180910390fd5b6124f860023363ffffffff6134d016565b61253a576040805160e560020a62461bcd0281526020600482015260106024820152600080516020613dea833981519152604482015290519081900360640190fd5b600083118260405160200180807f546f6b656e20707269636520696e200000000000000000000000000000000000815250600f0182805190602001908083835b602083106125995780518252601f19909201916020918201910161257a565b6001836020036101000a038019825116818451168082178552505050505050905001807f206d757374206e6f742062652030000000000000000000000000000000000000815250600e01915050604051602081830303815290604052906126815760405160e560020a62461bcd0281526004018080602001828103825283818151815260200191508051906020019080838360005b8381101561264657818101518382015260200161262e565b50505050905090810190601f1680156126735780820380516001836020036101000a031916815260200191505b509250505060405180910390fd5b50826008836040518082805190602001908083835b602083106126b55780518252601f199092019160209182019101612696565b51815160209384036101000a60001901801990921691161790529201948552506040805194859003820185209590955587845283810185815287519585019590955286517fbc1a6d11df191cc217bb06c2da838849148b8a9a56b8138fa96cd89e90a0921595899589955093509160608401919085019080838360005b8381101561274a578181015183820152602001612732565b50505050905090810190601f1680156127775780820380516001836020036101000a031916815260200191505b50935050505060405180910390a1505050565b61279b60023363ffffffff6134d016565b6127dd576040805160e560020a62461bcd0281526020600482015260106024820152600080516020613dea833981519152604482015290519081900360640190fd5b600054600160a060020a0316331415612840576040805160e560020a62461bcd02815260206004820152601f60248201527f4f776e65722063616e206e6f742072656e6f756e636520746f2061646d696e00604482015290519081900360640190fd5b61284933613550565b565b600054600160a060020a0316331461289b576040805160e560020a62461bcd02815260206004820152601a6024820152600080516020613cad833981519152604482015290519081900360640190fd5b806128f0576040805160e560020a62461bcd02815260206004820152601960248201527f53796d626f6c73206d757374206e6f7420626520656d70747900000000000000604482015290519081900360640190fd5b6128fc600d8383613b5e565b505050565b600054600160a060020a03163314612951576040805160e560020a62461bcd02815260206004820152601a6024820152600080516020613cad833981519152604482015290519081900360640190fd5b600160a060020a0381166129af576040805160e560020a62461bcd02815260206004820181905260248201527f4e657720486f6c646572206d757374206e6f7420626520302d61646472657373604482015290519081900360640190fd5b600954600160a060020a03828116911614156129ff5760405160e560020a62461bcd028152600401808060200182810382526021815260200180613d836021913960400191505060405180910390fd5b600954612a1e90600160a060020a031682612a1982612298565b613598565b600954604051600160a060020a038084169216907f70418639b9c14c316c6ae17fa73febff0a5d1e066ce89d40a4b9b5381625adfe90600090a36009805473ffffffffffffffffffffffffffffffffffffffff1916600160a060020a0392909216919091179055565b6000612a9a60023363ffffffff6134d016565b612adc576040805160e560020a62461bcd0281526020600482015260106024820152600080516020613dea833981519152604482015290519081900360640190fd5b600160a060020a038316612b245760405160e560020a62461bcd028152600401808060200182810382526024815260200180613c446024913960400191505060405180910390fd5b60008211612b6a576040805160e560020a62461bcd02815260206004820152601d6024820152600080516020613da4833981519152604482015290519081900360640190fd5b81612b7484612298565b1015612bca576040805160e560020a62461bcd02815260206004820152601e60248201527f556e73756666696369656e747320746f6b656e7320617661696c61626c650000604482015290519081900360640190fd5b600954611253908490600160a060020a031684613598565b33612c37576040805160e560020a62461bcd02815260206004820152601c60248201527f53656e646572206d757374206e6f7420626520302d6164647265737300000000604482015290519081900360640190fd5b600160a060020a038216612c83576040805160e560020a62461bcd02815260206004820152601d6024820152600080516020613cfc833981519152604482015290519081900360640190fd5b6118d83383836138f3565b600033612c9a8161361c565b15612cdd576040805160e560020a62461bcd02815260206004820152601a6024820152600080516020613c8d833981519152604482015290519081900360640190fd5b83612ce78161361c565b15612d2a576040805160e560020a62461bcd02815260206004820152601a6024820152600080516020613c8d833981519152604482015290519081900360640190fd5b6009543390600160a060020a0316811415612d7d576040805160e560020a62461bcd0281526020600482018190526024820152600080516020613d63833981519152604482015290519081900360640190fd5b600160a060020a038616612dc55760405160e560020a62461bcd028152600401808060200182810382526026815260200180613dc46026913960400191505060405180910390fd5b33612e045760405160e560020a62461bcd028152600401808060200182810382526026815260200180613dc46026913960400191505060405180910390fd5b600954600160a060020a0316331415612e67576040805160e560020a62461bcd02815260206004820181905260248201527f5370656e646572206d757374206e6f7420626520746f6b656e20686f6c646572604482015290519081900360640190fd5b60008511612ead576040805160e560020a62461bcd02815260206004820152601d6024820152600080516020613da4833981519152604482015290519081900360640190fd5b60075460009015612f4957612ed361271061034160075489610ee090919063ffffffff16565b9050612ee5868263ffffffff61363a16565b612eee33612298565b1015612f44576040805160e560020a62461bcd02815260206004820152601960248201527f53656e64657220556e73696666696369656e742066756e647300000000000000604482015290519081900360640190fd5b612fa9565b85612f5333612298565b1015612fa9576040805160e560020a62461bcd02815260206004820152601960248201527f53656e64657220556e73696666696369656e742066756e647300000000000000604482015290519081900360640190fd5b612fb4338888613598565b8015612fd257600954612fd2903390600160a060020a031683613598565b5060019695505050505050565b60075490565b600054600160a060020a03163314613035576040805160e560020a62461bcd02815260206004820152601a6024820152600080516020613cad833981519152604482015290519081900360640190fd5b8061308a576040805160e560020a62461bcd02815260206004820152601660248201527f4e616d65206d757374206e6f7420626520656d70747900000000000000000000604482015290519081900360640190fd5b6128fc600c8383613b5e565b60006130a960023363ffffffff6134d016565b6123ed576040805160e560020a62461bcd0281526020600482015260106024820152600080516020613dea833981519152604482015290519081900360640190fd5b60008054600160a060020a0316331461313c576040805160e560020a62461bcd02815260206004820152601a6024820152600080516020613cad833981519152604482015290519081900360640190fd5b613145826138fe565b613199576040805160e560020a62461bcd02815260206004820152601a60248201527f50726f76696465206120636f6e74726163742061646472657373000000000000604482015290519081900360640190fd5b600a54604051600160a060020a038085169216907f9057dd3707e57f23446a425b1c54d9f920850718f164e6b653fba866c4999d5b90600090a350600a8054600160a060020a03831673ffffffffffffffffffffffffffffffffffffffff199091161790556001919050565b6000610f3c838361390a565b600b54600090600160a060020a031633146132605760405160e560020a62461bcd02815260040180806020018281038252602a815260200180613c1a602a913960400191505060405180910390fd5b50600954600160a060020a0316600090815260056020526040902055600190565b6000610eda8261361c565b600054600160a060020a031633146132dc576040805160e560020a62461bcd02815260206004820152601a6024820152600080516020613cad833981519152604482015290519081900360640190fd5b600160a060020a0381166133245760405160e560020a62461bcd028152600401808060200182810382526023815260200180613bf76023913960400191505060405180910390fd5b6001805473ffffffffffffffffffffffffffffffffffffffff1916600160a060020a0392909216919091179055565b600b54600160a060020a0316331461339f5760405160e560020a62461bcd02815260040180806020018281038252602a815260200180613c1a602a913960400191505060405180910390fd5b600455565b600054600160a060020a031633146133f4576040805160e560020a62461bcd02815260206004820152601a6024820152600080516020613cad833981519152604482015290519081900360640190fd5b6133fd816138fe565b613451576040805160e560020a62461bcd02815260206004820152601a60248201527f50726f76696465206120636f6e74726163742061646472657373000000000000604482015290519081900360640190fd5b600b805473ffffffffffffffffffffffffffffffffffffffff1916600160a060020a0392909216919091179055565b61348b838383613935565b604080518281529051600160a060020a0384169133917f8c5be1e5ebec7d5bd14f71427d1e84f3dd0314c0f7b2291e5b200ac8c7c3b9259181900360200190a3505050565b6000600160a060020a038216613530576040805160e560020a62461bcd02815260206004820181905260248201527f4163636f756e74206d757374206e6f74206265207a65726f2d61646472657373604482015290519081900360640190fd5b50600160a060020a03166000908152602091909152604090205460ff1690565b61356160028263ffffffff61396116565b604051600160a060020a038216907fa3b62bc36326052d97ea62d63c3d60308ed4c3ea8ac079dd8499f1e9c4f80c0f90600090a250565b600160a060020a03821630146135b2576135b282826139e1565b600160a060020a03831630146135cc576135cc8382613a2a565b81600160a060020a031683600160a060020a03167fddf252ad1be2c89b69c2b068fc378daa952ba7f163c4a11628f55a4df523b3ef836040518082815260200191505060405180910390a3505050565b600160a060020a031660009081526003602052604090205460ff1690565b600082820183811015610f3c576040805160e560020a62461bcd02815260206004820152601b60248201527f536166654d6174683a206164646974696f6e206f766572666c6f770000000000604482015290519081900360640190fd5b600160a060020a03831630146136b1576136b183836139e1565b6136bc848284613a53565b600160a060020a03841630146136d6576136d68483613a2a565b82600160a060020a031684600160a060020a03167fddf252ad1be2c89b69c2b068fc378daa952ba7f163c4a11628f55a4df523b3ef846040518082815260200191505060405180910390a350505050565b613732838383613aba565b600160a060020a038216337f8c5be1e5ebec7d5bd14f71427d1e84f3dd0314c0f7b2291e5b200ac8c7c3b925613768868661390a565b60408051918252519081900360200190a3505050565b61378f60028263ffffffff613af016565b604051600160a060020a038216907f44d6d25963f097ad14f29f06854a01f575648a1ef82f30e562ccd3889717e33990600090a250565b600160a060020a031660009081526005602052604090205490565b600160a060020a0382166138295760405160e560020a62461bcd028152600401808060200182810382526024815260200180613c446024913960400191505060405180910390fd5b6000811161386f576040805160e560020a62461bcd02815260206004820152601d6024820152600080516020613da4833981519152604482015290519081900360640190fd5b600954819061388690600160a060020a0316612298565b10156138dc576040805160e560020a62461bcd02815260206004820152601e60248201527f556e73756666696369656e747320746f6b656e7320617661696c61626c650000604482015290519081900360640190fd5b6009546118d890600160a060020a03168383613598565b613732838383613a53565b3b63ffffffff16151590565b600160a060020a03918216600090815260066020908152604080832093909416825291909152205490565b600160a060020a0392831660009081526006602090815260408083209490951682529290925291902055565b61396b82826134d0565b6139bf576040805160e560020a62461bcd02815260206004820152601f60248201527f4163636f756e7420686173206e6f7420686176652061646d696e20726f6c6500604482015290519081900360640190fd5b600160a060020a0316600090815260209190915260409020805460ff19169055565b600160a060020a038216600090815260056020526040902054613a0a908263ffffffff61363a16565b600160a060020a0390921660009081526005602052604090209190915550565b600160a060020a038216600090815260056020526040902054613a0a908263ffffffff610e7b16565b600160a060020a03808416600090815260066020908152604080832093861683529290522054613a89908263ffffffff610e7b16565b600160a060020a03938416600090815260066020908152604080832095909616825293909352929091209190915550565b600160a060020a03808416600090815260066020908152604080832093861683529290522054613a89908263ffffffff61363a16565b613afa82826134d0565b15613b395760405160e560020a62461bcd028152600401808060200182810382526023815260200180613e0a6023913960400191505060405180910390fd5b600160a060020a0316600090815260209190915260409020805460ff19166001179055565b828054600181600116156101000203166002900490600052602060002090601f016020900481019282601f10613b9f5782800160ff19823516178555613bcc565b82800160010185558215613bcc579182015b82811115613bcc578235825591602001919060010190613bb1565b50613bd8929150613bdc565b5090565b6112bf91905b80821115613bd85760008155600101613be256fe4f776e65722061646472657373206d757374206e6f7420626520302d616464726573734f6e6c792049434f2043656e7465722063616e20706572666f726d2074686973206f7065726174696f6e53656e6465722061646472657373206d757374206e6f7420626520302d616464726573735370656e6465722061646472657373206d757374206e6f7420626520302d616464726573734163636f756e74206d757374206e6f742062652066726f7a656e00000000000054686973206973206e6f7420636f6e7472616374206f776e657200000000000043757272656e6379206973206e6f742070726573656e7420696e20737570706f727465642063757272656e636965735370656e646572206d757374206e6f7420626520302d616464726573730000004f6e6c7920537461626c6520746f6b656e2063616e2063616c6c2074686973206d6574686f64536166654d6174683a206d756c7469706c69636174696f6e206f766572666c6f7741646472657373206d757374206e6f7420626520746f6b656e20686f6c6465724e657720686f6c646572206d757374206e6f74206265206f6c6420686f6c646572416d6f756e74206d7573742062652067726561746572207468616e203000000052656365697665722061646472657373206d757374206e6f7420626520302d616464726573734d75737420626520616e2061646d696e000000000000000000000000000000004163636f756e742068617320616c726561647920686176652061646d696e20726f6c65a165627a7a7230582018982ebfd44ef5f738a77a890e36b967606d3abd4b9151439b49e0249e3e18c200294f776e65722061646472657373206d757374206e6f7420626520302d616464726573734163636f756e742068617320616c726561647920686176652061646d696e20726f6c65",
  "source": "pragma solidity >=0.4.10 <0.6.0;\r\n\r\nimport \"./KMXToken.sol\";\r\n\r\ncontract KMX is KMXToken {\r\n    string public name = \"Kamix\";\r\n    string public symbols = \"KMX\";\r\n    uint256 public decimals = 18;\r\n\r\n    function setName(string calldata _name) external onlyOwner {\r\n        require(bytes(_name).length != 0, \"Name must not be empty\");\r\n        name = _name;\r\n    }\r\n\r\n    function setSymbols(string calldata _symbols) external onlyOwner {\r\n        require(bytes(_symbols).length != 0, \"Symbols must not be empty\");\r\n        symbols = _symbols;\r\n    }\r\n}",
  "sourcePath": "C:/Users/Sim'S/WebstormProjects/kmxv1/contracts/kmx/KMX.sol",
  "compiler": {
    "name": "solc",
    "version": "0.5.8+commit.23d335f2.Emscripten.clang"
  },
  "schemaVersion": "3.0.10",
  "updatedAt": "2019-08-23T20:06:11.687Z",
  "devdoc": {
    "methods": {}
  },
  "userdoc": {
    "methods": {}
  }
}