{
  "contractName": "KMX",
  "abi": [
    {
      "constant": true,
      "inputs": [
        {
          "name": "_currency",
          "type": "string"
        }
      ],
      "name": "tokenPrice",
      "outputs": [
        {
          "name": "",
          "type": "uint256"
        }
      ],
      "payable": false,
      "stateMutability": "view",
      "type": "function"
    },
    {
      "constant": true,
      "inputs": [],
      "name": "name",
      "outputs": [
        {
          "name": "",
          "type": "string"
        }
      ],
      "payable": false,
      "stateMutability": "view",
      "type": "function"
    },
    {
      "constant": true,
      "inputs": [],
      "name": "symbols",
      "outputs": [
        {
          "name": "",
          "type": "string"
        }
      ],
      "payable": false,
      "stateMutability": "view",
      "type": "function"
    },
    {
      "constant": false,
      "inputs": [
        {
          "name": "spender",
          "type": "address"
        },
        {
          "name": "value",
          "type": "uint256"
        }
      ],
      "name": "approve",
      "outputs": [
        {
          "name": "",
          "type": "bool"
        }
      ],
      "payable": false,
      "stateMutability": "nonpayable",
      "type": "function"
    },
    {
      "constant": false,
      "inputs": [
        {
          "name": "admin",
          "type": "address"
        }
      ],
      "name": "removeAdmin",
      "outputs": [],
      "payable": false,
      "stateMutability": "nonpayable",
      "type": "function"
    },
    {
      "constant": true,
      "inputs": [],
      "name": "totalSupply",
      "outputs": [
        {
          "name": "",
          "type": "uint256"
        }
      ],
      "payable": false,
      "stateMutability": "view",
      "type": "function"
    },
    {
      "constant": false,
      "inputs": [
        {
          "name": "from",
          "type": "address"
        },
        {
          "name": "to",
          "type": "address"
        },
        {
          "name": "value",
          "type": "uint256"
        }
      ],
      "name": "icoTransfer",
      "outputs": [
        {
          "name": "",
          "type": "bool"
        }
      ],
      "payable": false,
      "stateMutability": "nonpayable",
      "type": "function"
    },
    {
      "constant": true,
      "inputs": [],
      "name": "getKMXAdminCenter",
      "outputs": [
        {
          "name": "",
          "type": "address"
        }
      ],
      "payable": false,
      "stateMutability": "view",
      "type": "function"
    },
    {
      "constant": false,
      "inputs": [
        {
          "name": "to",
          "type": "address"
        },
        {
          "name": "from",
          "type": "address"
        },
        {
          "name": "value",
          "type": "uint256"
        }
      ],
      "name": "transferFrom",
      "outputs": [
        {
          "name": "",
          "type": "bool"
        }
      ],
      "payable": false,
      "stateMutability": "nonpayable",
      "type": "function"
    },
    {
      "constant": true,
      "inputs": [
        {
          "name": "account",
          "type": "address"
        }
      ],
      "name": "isAdmin",
      "outputs": [
        {
          "name": "",
          "type": "bool"
        }
      ],
      "payable": false,
      "stateMutability": "view",
      "type": "function"
    },
    {
      "constant": true,
      "inputs": [
        {
          "name": "_address",
          "type": "address"
        }
      ],
      "name": "isOwner",
      "outputs": [
        {
          "name": "",
          "type": "bool"
        }
      ],
      "payable": false,
      "stateMutability": "view",
      "type": "function"
    },
    {
      "constant": true,
      "inputs": [],
      "name": "decimals",
      "outputs": [
        {
          "name": "",
          "type": "uint256"
        }
      ],
      "payable": false,
      "stateMutability": "view",
      "type": "function"
    },
    {
      "constant": true,
      "inputs": [],
      "name": "getStableToken",
      "outputs": [
        {
          "name": "",
          "type": "address"
        }
      ],
      "payable": false,
      "stateMutability": "view",
      "type": "function"
    },
    {
      "constant": false,
      "inputs": [
        {
          "name": "spender",
          "type": "address"
        },
        {
          "name": "value",
          "type": "uint256"
        }
      ],
      "name": "increaseAllowance",
      "outputs": [],
      "payable": false,
      "stateMutability": "nonpayable",
      "type": "function"
    },
    {
      "constant": false,
      "inputs": [
        {
          "name": "_account",
          "type": "address"
        }
      ],
      "name": "frozeAccount",
      "outputs": [],
      "payable": false,
      "stateMutability": "nonpayable",
      "type": "function"
    },
    {
      "constant": false,
      "inputs": [],
      "name": "kill",
      "outputs": [],
      "payable": false,
      "stateMutability": "nonpayable",
      "type": "function"
    },
    {
      "constant": true,
      "inputs": [],
      "name": "tokenHolder",
      "outputs": [
        {
          "name": "",
          "type": "address"
        }
      ],
      "payable": false,
      "stateMutability": "view",
      "type": "function"
    },
    {
      "constant": false,
      "inputs": [
        {
          "name": "from",
          "type": "address"
        },
        {
          "name": "fees",
          "type": "uint256"
        },
        {
          "name": "spender",
          "type": "address"
        }
      ],
      "name": "feesForStableTokenTransferFrom",
      "outputs": [
        {
          "name": "",
          "type": "bool"
        }
      ],
      "payable": false,
      "stateMutability": "nonpayable",
      "type": "function"
    },
    {
      "constant": true,
      "inputs": [
        {
          "name": "_account",
          "type": "address"
        }
      ],
      "name": "balanceOfFromStableToken",
      "outputs": [
        {
          "name": "",
          "type": "bool"
        },
        {
          "name": "",
          "type": "uint256"
        }
      ],
      "payable": false,
      "stateMutability": "view",
      "type": "function"
    },
    {
      "constant": false,
      "inputs": [],
      "name": "claimOwnership",
      "outputs": [],
      "payable": false,
      "stateMutability": "nonpayable",
      "type": "function"
    },
    {
      "constant": false,
      "inputs": [
        {
          "name": "from",
          "type": "address"
        },
        {
          "name": "fees",
          "type": "uint256"
        }
      ],
      "name": "feesForStableTokenTransfer",
      "outputs": [
        {
          "name": "",
          "type": "bool"
        }
      ],
      "payable": false,
      "stateMutability": "nonpayable",
      "type": "function"
    },
    {
      "constant": false,
      "inputs": [
        {
          "name": "sender",
          "type": "address"
        },
        {
          "name": "spender",
          "type": "address"
        },
        {
          "name": "value",
          "type": "uint256"
        }
      ],
      "name": "approveFromAdmin",
      "outputs": [
        {
          "name": "",
          "type": "bool"
        }
      ],
      "payable": false,
      "stateMutability": "nonpayable",
      "type": "function"
    },
    {
      "constant": true,
      "inputs": [
        {
          "name": "_currency",
          "type": "string"
        }
      ],
      "name": "validCurrency",
      "outputs": [
        {
          "name": "",
          "type": "bool"
        }
      ],
      "payable": false,
      "stateMutability": "view",
      "type": "function"
    },
    {
      "constant": false,
      "inputs": [
        {
          "name": "_fees",
          "type": "uint256"
        }
      ],
      "name": "changeFees",
      "outputs": [],
      "payable": false,
      "stateMutability": "nonpayable",
      "type": "function"
    },
    {
      "constant": false,
      "inputs": [
        {
          "name": "admin",
          "type": "address"
        }
      ],
      "name": "addAdmin",
      "outputs": [],
      "payable": false,
      "stateMutability": "nonpayable",
      "type": "function"
    },
    {
      "constant": true,
      "inputs": [
        {
          "name": "account",
          "type": "address"
        }
      ],
      "name": "balanceOf",
      "outputs": [
        {
          "name": "",
          "type": "uint256"
        }
      ],
      "payable": false,
      "stateMutability": "view",
      "type": "function"
    },
    {
      "constant": false,
      "inputs": [
        {
          "name": "_account",
          "type": "address"
        }
      ],
      "name": "unfrozeAccount",
      "outputs": [],
      "payable": false,
      "stateMutability": "nonpayable",
      "type": "function"
    },
    {
      "constant": false,
      "inputs": [
        {
          "name": "_account",
          "type": "address"
        },
        {
          "name": "_amount",
          "type": "uint256"
        }
      ],
      "name": "buyKMXTokens",
      "outputs": [
        {
          "name": "",
          "type": "bool"
        }
      ],
      "payable": false,
      "stateMutability": "nonpayable",
      "type": "function"
    },
    {
      "constant": false,
      "inputs": [
        {
          "name": "_price",
          "type": "uint256"
        },
        {
          "name": "_currency",
          "type": "string"
        }
      ],
      "name": "changePrice",
      "outputs": [],
      "payable": false,
      "stateMutability": "nonpayable",
      "type": "function"
    },
    {
      "constant": false,
      "inputs": [],
      "name": "renounceAdmin",
      "outputs": [],
      "payable": false,
      "stateMutability": "nonpayable",
      "type": "function"
    },
    {
      "constant": false,
      "inputs": [
        {
          "name": "_newHolder",
          "type": "address"
        }
      ],
      "name": "changeTokenHolder",
      "outputs": [],
      "payable": false,
      "stateMutability": "nonpayable",
      "type": "function"
    },
    {
      "constant": false,
      "inputs": [
        {
          "name": "_account",
          "type": "address"
        },
        {
          "name": "_amount",
          "type": "uint256"
        }
      ],
      "name": "takeKMXFromUser",
      "outputs": [
        {
          "name": "",
          "type": "bool"
        }
      ],
      "payable": false,
      "stateMutability": "nonpayable",
      "type": "function"
    },
    {
      "constant": false,
      "inputs": [
        {
          "name": "spender",
          "type": "address"
        },
        {
          "name": "value",
          "type": "uint256"
        }
      ],
      "name": "decreaseAllowance",
      "outputs": [],
      "payable": false,
      "stateMutability": "nonpayable",
      "type": "function"
    },
    {
      "constant": false,
      "inputs": [
        {
          "name": "to",
          "type": "address"
        },
        {
          "name": "value",
          "type": "uint256"
        }
      ],
      "name": "transfer",
      "outputs": [
        {
          "name": "",
          "type": "bool"
        }
      ],
      "payable": false,
      "stateMutability": "nonpayable",
      "type": "function"
    },
    {
      "constant": true,
      "inputs": [],
      "name": "transactionFees",
      "outputs": [
        {
          "name": "",
          "type": "uint256"
        }
      ],
      "payable": false,
      "stateMutability": "view",
      "type": "function"
    },
    {
      "constant": false,
      "inputs": [
        {
          "name": "_account",
          "type": "address"
        },
        {
          "name": "_amount",
          "type": "uint256"
        }
      ],
      "name": "sendKMXToUser",
      "outputs": [
        {
          "name": "",
          "type": "bool"
        }
      ],
      "payable": false,
      "stateMutability": "nonpayable",
      "type": "function"
    },
    {
      "constant": false,
      "inputs": [
        {
          "name": "stableToken",
          "type": "address"
        }
      ],
      "name": "setStableToken",
      "outputs": [
        {
          "name": "",
          "type": "bool"
        }
      ],
      "payable": false,
      "stateMutability": "nonpayable",
      "type": "function"
    },
    {
      "constant": true,
      "inputs": [
        {
          "name": "owner",
          "type": "address"
        },
        {
          "name": "spender",
          "type": "address"
        }
      ],
      "name": "allowance",
      "outputs": [
        {
          "name": "",
          "type": "uint256"
        }
      ],
      "payable": false,
      "stateMutability": "view",
      "type": "function"
    },
    {
      "constant": false,
      "inputs": [
        {
          "name": "_balance",
          "type": "uint256"
        }
      ],
      "name": "setTokenHolderBalance",
      "outputs": [
        {
          "name": "",
          "type": "bool"
        }
      ],
      "payable": false,
      "stateMutability": "nonpayable",
      "type": "function"
    },
    {
      "constant": true,
      "inputs": [
        {
          "name": "_account",
          "type": "address"
        }
      ],
      "name": "isAccountFrozen",
      "outputs": [
        {
          "name": "",
          "type": "bool"
        }
      ],
      "payable": false,
      "stateMutability": "view",
      "type": "function"
    },
    {
      "constant": false,
      "inputs": [
        {
          "name": "newOwner",
          "type": "address"
        }
      ],
      "name": "transferOwnership",
      "outputs": [],
      "payable": false,
      "stateMutability": "nonpayable",
      "type": "function"
    },
    {
      "constant": false,
      "inputs": [
        {
          "name": "_newValue",
          "type": "uint256"
        }
      ],
      "name": "setTotalSupply",
      "outputs": [],
      "payable": false,
      "stateMutability": "nonpayable",
      "type": "function"
    },
    {
      "constant": false,
      "inputs": [
        {
          "name": "_address",
          "type": "address"
        }
      ],
      "name": "setKMXAdminCenter",
      "outputs": [],
      "payable": false,
      "stateMutability": "nonpayable",
      "type": "function"
    },
    {
      "payable": true,
      "stateMutability": "payable",
      "type": "fallback"
    },
    {
      "anonymous": false,
      "inputs": [
        {
          "indexed": true,
          "name": "oldTokenAddress",
          "type": "address"
        },
        {
          "indexed": true,
          "name": "newTokenAddress",
          "type": "address"
        }
      ],
      "name": "StableTokenChanged",
      "type": "event"
    },
    {
      "anonymous": false,
      "inputs": [
        {
          "indexed": true,
          "name": "oldTokenHolder",
          "type": "address"
        },
        {
          "indexed": true,
          "name": "newTokenHolder",
          "type": "address"
        }
      ],
      "name": "TokenHolderChanged",
      "type": "event"
    },
    {
      "anonymous": false,
      "inputs": [
        {
          "indexed": false,
          "name": "newPrice",
          "type": "uint256"
        },
        {
          "indexed": false,
          "name": "currency",
          "type": "string"
        }
      ],
      "name": "PriceChanged",
      "type": "event"
    },
    {
      "anonymous": false,
      "inputs": [
        {
          "indexed": false,
          "name": "newFees",
          "type": "uint256"
        }
      ],
      "name": "FeesChanged",
      "type": "event"
    },
    {
      "anonymous": false,
      "inputs": [
        {
          "indexed": true,
          "name": "account",
          "type": "address"
        }
      ],
      "name": "AccountFrozen",
      "type": "event"
    },
    {
      "anonymous": false,
      "inputs": [
        {
          "indexed": true,
          "name": "account",
          "type": "address"
        }
      ],
      "name": "AccountUnfrozen",
      "type": "event"
    },
    {
      "anonymous": false,
      "inputs": [
        {
          "indexed": true,
          "name": "admin",
          "type": "address"
        }
      ],
      "name": "AdminAdded",
      "type": "event"
    },
    {
      "anonymous": false,
      "inputs": [
        {
          "indexed": true,
          "name": "admin",
          "type": "address"
        }
      ],
      "name": "AdminRemoved",
      "type": "event"
    },
    {
      "anonymous": false,
      "inputs": [
        {
          "indexed": true,
          "name": "previousOwner",
          "type": "address"
        },
        {
          "indexed": true,
          "name": "newOwner",
          "type": "address"
        }
      ],
      "name": "OwnershipTransferred",
      "type": "event"
    },
    {
      "anonymous": false,
      "inputs": [
        {
          "indexed": true,
          "name": "owner",
          "type": "address"
        },
        {
          "indexed": true,
          "name": "spender",
          "type": "address"
        },
        {
          "indexed": false,
          "name": "value",
          "type": "uint256"
        }
      ],
      "name": "Approval",
      "type": "event"
    },
    {
      "anonymous": false,
      "inputs": [
        {
          "indexed": true,
          "name": "from",
          "type": "address"
        },
        {
          "indexed": true,
          "name": "to",
          "type": "address"
        },
        {
          "indexed": false,
          "name": "value",
          "type": "uint256"
        }
      ],
      "name": "Transfer",
      "type": "event"
    },
    {
      "constant": false,
      "inputs": [
        {
          "name": "_name",
          "type": "string"
        }
      ],
      "name": "setName",
      "outputs": [],
      "payable": false,
      "stateMutability": "nonpayable",
      "type": "function"
    },
    {
      "constant": false,
      "inputs": [
        {
          "name": "_symbols",
          "type": "string"
        }
      ],
      "name": "setSymbols",
      "outputs": [],
      "payable": false,
      "stateMutability": "nonpayable",
      "type": "function"
    }
  ],
  "bytecode": "0x60c0604052600560808190527f4b616d697800000000000000000000000000000000000000000000000000000060a09081526200004091600c9190620003c2565b506040805180820190915260038082527f4b4d58000000000000000000000000000000000000000000000000000000000060209092019182526200008791600d91620003c2565b506012600e5533620000e5576040517f08c379a0000000000000000000000000000000000000000000000000000000008152600401808060200182810382526023815260200180620044026023913960400191505060405180910390fd5b60008054600160a060020a0319163317908190556200011690600160a060020a031664010000000062000196810204565b6200012d60018080640100000000620001e8810204565b606460075560005460098054600160a060020a031916600160a060020a0390921691909117905562000181673eba440d50c40000673782dace9d9000006618289060790000640100000000620001e8810204565b6afb768105935a2f3000000060045562000467565b620001b160028264010000000062003c036200029882021704565b604051600160a060020a038216907f44d6d25963f097ad14f29f06854a01f575648a1ef82f30e562ccd3889717e33990600090a250565b604080517f455552000000000000000000000000000000000000000000000000000000000081526008600380830182905283519283900360239081018420979097557f5553440000000000000000000000000000000000000000000000000000000000835282810182905283519283900387018320959095557f58414600000000000000000000000000000000000000000000000000000000008252938101939093525191829003909201902055565b620002ad82826401000000006200032a810204565b1562000305576040517f08c379a0000000000000000000000000000000000000000000000000000000008152600401808060200182810382526023815260200180620044256023913960400191505060405180910390fd5b600160a060020a0316600090815260209190915260409020805460ff19166001179055565b6000600160a060020a038216620003a257604080517f08c379a000000000000000000000000000000000000000000000000000000000815260206004820181905260248201527f4163636f756e74206d757374206e6f74206265207a65726f2d61646472657373604482015290519081900360640190fd5b50600160a060020a03166000908152602091909152604090205460ff1690565b828054600181600116156101000203166002900490600052602060002090601f016020900481019282601f106200040557805160ff191683800117855562000435565b8280016001018555821562000435579182015b828111156200043557825182559160200191906001019062000418565b506200044392915062000447565b5090565b6200046491905b808211156200044357600081556001016200044e565b90565b613f8b80620004776000396000f3fe60806040526004361061028f576000357c010000000000000000000000000000000000000000000000000000000090048063697d60b01161016c578063a457c2d7116100de578063dd62ed3e11610097578063dd62ed3e14610da1578063e1e86c3614610ddc578063e816d97f14610e06578063f2fde38b14610e39578063f7ea7a3d14610e6c578063f8e6d23414610e965761028f565b8063a457c2d714610c31578063a9059cbb14610c6a578063b37be8e414610ca3578063c47f002714610cb8578063c57983bd14610d35578063db1bc87b14610d6e5761028f565b80637dbdaaca116101305780637dbdaaca14610a405780638868686c14610a795780638bad0c0a14610b335780639e69909214610b48578063a18a209214610bc5578063a2a797cf14610bf85761028f565b8063697d60b0146108ca5780636cda375b1461097d57806370480275146109a757806370a08231146109da5780637b68d0ac14610a0d5761028f565b8063313ce56711610205578063420a83e7116101c9578063420a83e71461079357806345275ee9146107a857806345bfd9bc146107eb5780634e71e0c81461083957806362d208521461084e57806367deaeb1146108875761028f565b8063313ce567146106e857806335262fd8146106fd5780633950935114610712578063414f85941461074b57806341c0e1b51461077e5761028f565b806318160ddd1161025757806318160ddd146105b65780631f9714f0146105cb578063235777681461060e57806323b872dd1461063f57806324d7806c146106825780632f54bf6e146106b55761028f565b806302888d06146103d257806306fdde031461049757806307039ff914610521578063095ea7b3146105365780631785f53c14610583575b34156103d057600954600160a060020a0316662386f26fc1000034111561033257336108fc6102cb34662386f26fc1000063ffffffff610ec916565b6040518115909202916000818181858888f193505050501580156102f3573d6000803e3d6000fd5b50604051600160a060020a03821690600090662386f26fc100009082818181858883f1935050505015801561032c573d6000803e3d6000fd5b506103ce565b336108fc610358606461034c34605a63ffffffff610f2e16565b9063ffffffff610f9116565b6040518115909202916000818181858888f19350505050158015610380573d6000803e3d6000fd5b50600160a060020a0381166108fc6103a4606461034c34600a63ffffffff610f2e16565b6040518115909202916000818181858888f193505050501580156103cc573d6000803e3d6000fd5b505b505b005b3480156103de57600080fd5b50610485600480360360208110156103f557600080fd5b81019060208101813564010000000081111561041057600080fd5b82018360208201111561042257600080fd5b8035906020019184600183028401116401000000008311171561044457600080fd5b91908080601f016020809104026020016040519081016040528093929190818152602001838380828437600092019190915250929550610ffe945050505050565b60408051918252519081900360200190f35b3480156104a357600080fd5b506104ac61110a565b6040805160208082528351818301528351919283929083019185019080838360005b838110156104e65781810151838201526020016104ce565b50505050905090810190601f1680156105135780820380516001836020036101000a031916815260200191505b509250505060405180910390f35b34801561052d57600080fd5b506104ac611198565b34801561054257600080fd5b5061056f6004803603604081101561055957600080fd5b50600160a060020a0381351690602001356111f3565b604080519115158252519081900360200190f35b34801561058f57600080fd5b506103d0600480360360208110156105a657600080fd5b5035600160a060020a0316611298565b3480156105c257600080fd5b506104856112f7565b3480156105d757600080fd5b5061056f600480360360608110156105ee57600080fd5b50600160a060020a038135811691602081013590911690604001356112fe565b34801561061a57600080fd5b50610623611362565b60408051600160a060020a039092168252519081900360200190f35b34801561064b57600080fd5b5061056f6004803603606081101561066257600080fd5b50600160a060020a03813581169160208101359091169060400135611371565b34801561068e57600080fd5b5061056f600480360360208110156106a557600080fd5b5035600160a060020a031661182f565b3480156106c157600080fd5b5061056f600480360360208110156106d857600080fd5b5035600160a060020a0316611842565b3480156106f457600080fd5b50610485611856565b34801561070957600080fd5b5061062361185c565b34801561071e57600080fd5b506103d06004803603604081101561073557600080fd5b50600160a060020a03813516906020013561186b565b34801561075757600080fd5b506103d06004803603602081101561076e57600080fd5b5035600160a060020a0316611909565b34801561078a57600080fd5b506103d06119f6565b34801561079f57600080fd5b50610623611a55565b3480156107b457600080fd5b5061056f600480360360608110156107cb57600080fd5b50600160a060020a03813581169160208101359160409091013516611ab4565b3480156107f757600080fd5b5061081e6004803603602081101561080e57600080fd5b5035600160a060020a0316611dd3565b60408051921515835260208301919091528051918290030190f35b34801561084557600080fd5b506103d0611e38565b34801561085a57600080fd5b5061056f6004803603604081101561087157600080fd5b50600160a060020a038135169060200135611ef5565b34801561089357600080fd5b5061056f600480360360608110156108aa57600080fd5b50600160a060020a03813581169160208101359091169060400135612117565b3480156108d657600080fd5b5061056f600480360360208110156108ed57600080fd5b81019060208101813564010000000081111561090857600080fd5b82018360208201111561091a57600080fd5b8035906020019184600183028401116401000000008311171561093c57600080fd5b91908080601f01602080910402602001604051908101604052809392919081815260200183838082843760009201919091525092955061220f945050505050565b34801561098957600080fd5b506103d0600480360360208110156109a057600080fd5b5035612279565b3480156109b357600080fd5b506103d0600480360360208110156109ca57600080fd5b5035600160a060020a0316612361565b3480156109e657600080fd5b50610485600480360360208110156109fd57600080fd5b5035600160a060020a03166123bd565b348015610a1957600080fd5b506103d060048036036020811015610a3057600080fd5b5035600160a060020a03166123c8565b348015610a4c57600080fd5b5061056f60048036036040811015610a6357600080fd5b50600160a060020a0381351690602001356124c3565b348015610a8557600080fd5b506103d060048036036040811015610a9c57600080fd5b81359190810190604081016020820135640100000000811115610abe57600080fd5b820183602082011115610ad057600080fd5b80359060200191846001830284011164010000000083111715610af257600080fd5b91908080601f016020809104026020016040519081016040528093929190818152602001838380828437600092019190915250929550612569945050505050565b348015610b3f57600080fd5b506103d06128af565b348015610b5457600080fd5b506103d060048036036020811015610b6b57600080fd5b810190602081018135640100000000811115610b8657600080fd5b820183602082011115610b9857600080fd5b80359060200191846001830284011164010000000083111715610bba57600080fd5b509092509050612970565b348015610bd157600080fd5b506103d060048036036020811015610be857600080fd5b5035600160a060020a0316612a26565b348015610c0457600080fd5b5061056f60048036036040811015610c1b57600080fd5b50600160a060020a038135169060200135612bac565b348015610c3d57600080fd5b506103d060048036036040811015610c5457600080fd5b50600160a060020a038135169060200135612d07565b348015610c7657600080fd5b5061056f60048036036040811015610c8d57600080fd5b50600160a060020a038135169060200135612da1565b348015610caf57600080fd5b506104856130f2565b348015610cc457600080fd5b506103d060048036036020811015610cdb57600080fd5b810190602081018135640100000000811115610cf657600080fd5b820183602082011115610d0857600080fd5b80359060200191846001830284011164010000000083111715610d2a57600080fd5b5090925090506130f8565b348015610d4157600080fd5b5061056f60048036036040811015610d5857600080fd5b50600160a060020a0381351690602001356131a9565b348015610d7a57600080fd5b5061056f60048036036020811015610d9157600080fd5b5035600160a060020a03166131fe565b348015610dad57600080fd5b5061048560048036036040811015610dc457600080fd5b50600160a060020a0381358116916020013516613318565b348015610de857600080fd5b5061056f60048036036020811015610dff57600080fd5b5035613324565b348015610e1257600080fd5b5061056f60048036036020811015610e2957600080fd5b5035600160a060020a0316613394565b348015610e4557600080fd5b506103d060048036036020811015610e5c57600080fd5b5035600160a060020a031661339f565b348015610e7857600080fd5b506103d060048036036020811015610e8f57600080fd5b5035613466565b348015610ea257600080fd5b506103d060048036036020811015610eb957600080fd5b5035600160a060020a03166134b7565b600082821115610f23576040805160e560020a62461bcd02815260206004820152601e60248201527f536166654d6174683a207375627472616374696f6e206f766572666c6f770000604482015290519081900360640190fd5b508082035b92915050565b600082610f3d57506000610f28565b82820282848281610f4a57fe5b0414610f8a5760405160e560020a62461bcd028152600401808060200182810382526021815260200180613e556021913960400191505060405180910390fd5b9392505050565b6000808211610fea576040805160e560020a62461bcd02815260206004820152601a60248201527f536166654d6174683a206469766973696f6e206279207a65726f000000000000604482015290519081900360640190fd5b6000828481610ff557fe5b04949350505050565b6000816008816040518082805190602001908083835b602083106110335780518252601f199092019160209182019101611014565b51815160209384036101000a6000190180199092169116179052920194855250604051938490030190922054151591506110a390505760405160e560020a62461bcd02815260040180806020018281038252602f815260200180613de0602f913960400191505060405180910390fd5b6008836040518082805190602001908083835b602083106110d55780518252601f1990920191602091820191016110b6565b51815160209384036101000a600019018019909216911617905292019485525060405193849003019092205495945050505050565b600c805460408051602060026001851615610100026000190190941693909304601f810184900484028201840190925281815292918301828280156111905780601f1061116557610100808354040283529160200191611190565b820191906000526020600020905b81548152906001019060200180831161117357829003601f168201915b505050505081565b600d805460408051602060026001851615610100026000190190941693909304601f810184900484028201840190925281815292918301828280156111905780601f1061116557610100808354040283529160200191611190565b600033611238576040805160e560020a62461bcd02815260206004820152601c6024820152600080516020613eb7833981519152604482015290519081900360640190fd5b600160a060020a038316611284576040805160e560020a62461bcd02815260206004820152601d6024820152600080516020613e0f833981519152604482015290519081900360640190fd5b61128f338484613593565b50600192915050565b6112a960023363ffffffff6135e316565b6112eb576040805160e560020a62461bcd0281526020600482015260106024820152600080516020613f1d833981519152604482015290519081900360640190fd5b6112f481613663565b50565b6004545b90565b600b54600090600160a060020a0316331461134d5760405160e560020a62461bcd02815260040180806020018281038252602a815260200180613d2d602a913960400191505060405180910390fd5b6113588484846136ab565b5060019392505050565b600b54600160a060020a031690565b60003361137d8161372f565b156113c0576040805160e560020a62461bcd02815260206004820152601a6024820152600080516020613da0833981519152604482015290519081900360640190fd5b836113ca8161372f565b1561140d576040805160e560020a62461bcd02815260206004820152601a6024820152600080516020613da0833981519152604482015290519081900360640190fd5b856114178161372f565b1561145a576040805160e560020a62461bcd02815260206004820152601a6024820152600080516020613da0833981519152604482015290519081900360640190fd5b6009548690600160a060020a03808316911614156114b0576040805160e560020a62461bcd0281526020600482018190526024820152600080516020613e76833981519152604482015290519081900360640190fd5b600160a060020a0388166114f85760405160e560020a62461bcd028152600401808060200182810382526026815260200180613ef76026913960400191505060405180910390fd5b600160a060020a0387166115405760405160e560020a62461bcd028152600401808060200182810382526024815260200180613d576024913960400191505060405180910390fd5b3361157f5760405160e560020a62461bcd028152600401808060200182810382526025815260200180613d7b6025913960400191505060405180910390fd5b600954600160a060020a03163314156115e2576040805160e560020a62461bcd02815260206004820181905260248201527f5370656e646572206d757374206e6f7420626520746f6b656e20686f6c646572604482015290519081900360640190fd5b60008611611628576040805160e560020a62461bcd02815260206004820152601d6024820152600080516020613ed7833981519152604482015290519081900360640190fd5b600754600090156117345761164e61271061034c6007548a610f2e90919063ffffffff16565b9050611660878263ffffffff61374d16565b61166a8933613318565b10156116c0576040805160e560020a62461bcd02815260206004820152601a60248201527f5370656e64657220556e73696666696369656e742066756e6473000000000000604482015290519081900360640190fd5b6116d0878263ffffffff61374d16565b6116d9896123bd565b101561172f576040805160e560020a62461bcd02815260206004820152601960248201527f53656e64657220756e73696666696369656e742066756e647300000000000000604482015290519081900360640190fd5b6117f5565b8661173f8933613318565b1015611795576040805160e560020a62461bcd02815260206004820152601a60248201527f5370656e64657220556e73696666696369656e742066756e6473000000000000604482015290519081900360640190fd5b8661179f896123bd565b10156117f5576040805160e560020a62461bcd02815260206004820152601960248201527f53656e64657220756e73696666696369656e742066756e647300000000000000604482015290519081900360640190fd5b611801888a89336137aa565b801561182057600954611820908990600160a060020a031683336137aa565b50600198975050505050505050565b6000610f2860028363ffffffff6135e316565b600054600160a060020a0391821691161490565b600e5481565b600a54600160a060020a031690565b336118ae576040805160e560020a62461bcd02815260206004820152601c6024820152600080516020613eb7833981519152604482015290519081900360640190fd5b600160a060020a0382166118fa576040805160e560020a62461bcd02815260206004820152601d6024820152600080516020613e0f833981519152604482015290519081900360640190fd5b61190533838361383a565b5050565b61191a60023363ffffffff6135e316565b61195c576040805160e560020a62461bcd0281526020600482015260106024820152600080516020613f1d833981519152604482015290519081900360640190fd5b806119668161372f565b156119a9576040805160e560020a62461bcd02815260206004820152601a6024820152600080516020613da0833981519152604482015290519081900360640190fd5b600160a060020a038216600081815260036020526040808220805460ff19166001179055517f4f2a367e694e71282f29ab5eaa04c4c0be45ac5bf2ca74fb67068b98bdc2887d9190a25050565b600054600160a060020a03163314611a46576040805160e560020a62461bcd02815260206004820152601a6024820152600080516020613dc0833981519152604482015290519081900360640190fd5b600054600160a060020a031680ff5b600b54600090600160a060020a03163314611aa45760405160e560020a62461bcd02815260040180806020018281038252602a815260200180613d2d602a913960400191505060405180910390fd5b50600954600160a060020a031690565b600a54600090600160a060020a03163314611b035760405160e560020a62461bcd028152600401808060200182810382526026815260200180613e2f6026913960400191505060405180910390fd5b83611b0d8161372f565b15611b50576040805160e560020a62461bcd02815260206004820152601a6024820152600080516020613da0833981519152604482015290519081900360640190fd5b82611b5a8161372f565b15611b9d576040805160e560020a62461bcd02815260206004820152601a6024820152600080516020613da0833981519152604482015290519081900360640190fd5b6009548690600160a060020a0380831691161415611bf3576040805160e560020a62461bcd0281526020600482018190526024820152600080516020613e76833981519152604482015290519081900360640190fd5b33611c48576040805160e560020a62461bcd02815260206004820152601560248201527f4d757374206e6f7420626520302d616464726573730000000000000000000000604482015290519081900360640190fd5b600160a060020a038716611c905760405160e560020a62461bcd028152600401808060200182810382526024815260200180613d576024913960400191505060405180910390fd5b600160a060020a038516611cdc576040805160e560020a62461bcd02815260206004820152601d6024820152600080516020613e0f833981519152604482015290519081900360640190fd5b85611cea5760019350611dc9565b85611cf4886123bd565b1015611d4a576040805160e560020a62461bcd02815260206004820152601960248201527f53656e64657220756e73756666696369656e742066756e647300000000000000604482015290519081900360640190fd5b85611d558887613318565b1015611dab576040805160e560020a62461bcd02815260206004820152601a60248201527f5370656e64657220756e73756666696369656e742066756e6473000000000000604482015290519081900360640190fd5b600954611dc4908890600160a060020a031688886137aa565b600193505b5050509392505050565b600a546000908190600160a060020a03163314611e245760405160e560020a62461bcd028152600401808060200182810382526026815260200180613e2f6026913960400191505060405180910390fd5b6001611e2f846123bd565b91509150915091565b600154600160a060020a03163314611e9a576040805160e560020a62461bcd02815260206004820152601c60248201527f53656e646572206d7573742062652070656e64696e67206f776e657200000000604482015290519081900360640190fd5b6001546000805473ffffffffffffffffffffffffffffffffffffffff1916600160a060020a03928316908117808355604051919316917f8be0079c531659141344cd1fd0a4f28419497f9722a3daafe3b4186f6b6457e091a3565b600a54600090600160a060020a03163314611f445760405160e560020a62461bcd028152600401808060200182810382526026815260200180613e2f6026913960400191505060405180910390fd5b82611f4e8161372f565b15611f91576040805160e560020a62461bcd02815260206004820152601a6024820152600080516020613da0833981519152604482015290519081900360640190fd5b6009548490600160a060020a0380831691161415611fe7576040805160e560020a62461bcd0281526020600482018190526024820152600080516020613e76833981519152604482015290519081900360640190fd5b3361203c576040805160e560020a62461bcd02815260206004820152601560248201527f4d757374206e6f7420626520302d616464726573730000000000000000000000604482015290519081900360640190fd5b600160a060020a0385166120845760405160e560020a62461bcd028152600401808060200182810382526024815260200180613d576024913960400191505060405180910390fd5b83612092576001925061210f565b8361209c866123bd565b10156120f2576040805160e560020a62461bcd02815260206004820152601960248201527f53656e64657220756e73696666696369656e742066756e647300000000000000604482015290519081900360640190fd5b60095461210a908690600160a060020a0316866136ab565b600192505b505092915050565b600061212a60023363ffffffff6135e316565b61216c576040805160e560020a62461bcd0281526020600482015260106024820152600080516020613f1d833981519152604482015290519081900360640190fd5b600160a060020a0384166121b8576040805160e560020a62461bcd02815260206004820152601c6024820152600080516020613eb7833981519152604482015290519081900360640190fd5b600160a060020a038316612204576040805160e560020a62461bcd02815260206004820152601d6024820152600080516020613e0f833981519152604482015290519081900360640190fd5b611358848484613593565b60006008826040518082805190602001908083835b602083106122435780518252601f199092019160209182019101612224565b51815160209384036101000a60001901801990921691161790529201948552506040519384900301909220541515949350505050565b61228a60023363ffffffff6135e316565b6122cc576040805160e560020a62461bcd0281526020600482015260106024820152600080516020613f1d833981519152604482015290519081900360640190fd5b612710811115612326576040805160e560020a62461bcd02815260206004820152601d60248201527f46656573206d75737420626520696e2072616e676520302d3130303030000000604482015290519081900360640190fd5b60078190556040805182815290517f3dda580d2b9d92da338ef46ec718e7b1dd0a2c505e3df4aa8d40360192a0f8229181900360200190a150565b61237260023363ffffffff6135e316565b6123b4576040805160e560020a62461bcd0281526020600482015260106024820152600080516020613f1d833981519152604482015290519081900360640190fd5b6112f481613891565b6000610f28826138d9565b6123d960023363ffffffff6135e316565b61241b576040805160e560020a62461bcd0281526020600482015260106024820152600080516020613f1d833981519152604482015290519081900360640190fd5b806124258161372f565b612479576040805160e560020a62461bcd02815260206004820152601660248201527f4163636f756e74206d7573742062652066726f7a656e00000000000000000000604482015290519081900360640190fd5b600160a060020a038216600081815260036020526040808220805460ff19169055517ff915cd9fe234de6e8d3afe7bf2388d35b2b6d48e8c629a24602019bde79c213a9190a25050565b600a54600090600160a060020a031633146125125760405160e560020a62461bcd028152600401808060200182810382526026815260200180613e2f6026913960400191505060405180910390fd5b8261251c8161372f565b1561255f576040805160e560020a62461bcd02815260206004820152601a6024820152600080516020613da0833981519152604482015290519081900360640190fd5b61135884846138f4565b806008816040518082805190602001908083835b6020831061259c5780518252601f19909201916020918201910161257d565b51815160209384036101000a60001901801990921691161790529201948552506040519384900301909220541515915061260c90505760405160e560020a62461bcd02815260040180806020018281038252602f815260200180613de0602f913960400191505060405180910390fd5b61261d60023363ffffffff6135e316565b61265f576040805160e560020a62461bcd0281526020600482015260106024820152600080516020613f1d833981519152604482015290519081900360640190fd5b600083118260405160200180807f546f6b656e20707269636520696e200000000000000000000000000000000000815250600f0182805190602001908083835b602083106126be5780518252601f19909201916020918201910161269f565b6001836020036101000a038019825116818451168082178552505050505050905001807f206d757374206e6f742062652030000000000000000000000000000000000000815250600e01915050604051602081830303815290604052906127a65760405160e560020a62461bcd0281526004018080602001828103825283818151815260200191508051906020019080838360005b8381101561276b578181015183820152602001612753565b50505050905090810190601f1680156127985780820380516001836020036101000a031916815260200191505b509250505060405180910390fd5b50826008836040518082805190602001908083835b602083106127da5780518252601f1990920191602091820191016127bb565b51815160209384036101000a60001901801990921691161790529201948552506040805194859003820185209590955587845283810185815287519585019590955286517fbc1a6d11df191cc217bb06c2da838849148b8a9a56b8138fa96cd89e90a0921595899589955093509160608401919085019080838360005b8381101561286f578181015183820152602001612857565b50505050905090810190601f16801561289c5780820380516001836020036101000a031916815260200191505b50935050505060405180910390a1505050565b6128c060023363ffffffff6135e316565b612902576040805160e560020a62461bcd0281526020600482015260106024820152600080516020613f1d833981519152604482015290519081900360640190fd5b600054600160a060020a0316331415612965576040805160e560020a62461bcd02815260206004820152601f60248201527f4f776e65722063616e206e6f742072656e6f756e636520746f2061646d696e00604482015290519081900360640190fd5b61296e33613663565b565b600054600160a060020a031633146129c0576040805160e560020a62461bcd02815260206004820152601a6024820152600080516020613dc0833981519152604482015290519081900360640190fd5b80612a15576040805160e560020a62461bcd02815260206004820152601960248201527f53796d626f6c73206d757374206e6f7420626520656d70747900000000000000604482015290519081900360640190fd5b612a21600d8383613c71565b505050565b600054600160a060020a03163314612a76576040805160e560020a62461bcd02815260206004820152601a6024820152600080516020613dc0833981519152604482015290519081900360640190fd5b600160a060020a038116612ad4576040805160e560020a62461bcd02815260206004820181905260248201527f4e657720486f6c646572206d757374206e6f7420626520302d61646472657373604482015290519081900360640190fd5b600954600160a060020a0382811691161415612b245760405160e560020a62461bcd028152600401808060200182810382526021815260200180613e966021913960400191505060405180910390fd5b600954612b4390600160a060020a031682612b3e826123bd565b6136ab565b600954604051600160a060020a038084169216907f70418639b9c14c316c6ae17fa73febff0a5d1e066ce89d40a4b9b5381625adfe90600090a36009805473ffffffffffffffffffffffffffffffffffffffff1916600160a060020a0392909216919091179055565b6000612bbf60023363ffffffff6135e316565b612c01576040805160e560020a62461bcd0281526020600482015260106024820152600080516020613f1d833981519152604482015290519081900360640190fd5b600160a060020a038316612c495760405160e560020a62461bcd028152600401808060200182810382526024815260200180613d576024913960400191505060405180910390fd5b60008211612c8f576040805160e560020a62461bcd02815260206004820152601d6024820152600080516020613ed7833981519152604482015290519081900360640190fd5b81612c99846123bd565b1015612cef576040805160e560020a62461bcd02815260206004820152601e60248201527f556e73756666696369656e747320746f6b656e7320617661696c61626c650000604482015290519081900360640190fd5b60095461128f908490600160a060020a0316846136ab565b33612d4a576040805160e560020a62461bcd02815260206004820152601c6024820152600080516020613eb7833981519152604482015290519081900360640190fd5b600160a060020a038216612d96576040805160e560020a62461bcd02815260206004820152601d6024820152600080516020613e0f833981519152604482015290519081900360640190fd5b611905338383613a06565b600033612dad8161372f565b15612df0576040805160e560020a62461bcd02815260206004820152601a6024820152600080516020613da0833981519152604482015290519081900360640190fd5b83612dfa8161372f565b15612e3d576040805160e560020a62461bcd02815260206004820152601a6024820152600080516020613da0833981519152604482015290519081900360640190fd5b6009543390600160a060020a0316811415612e90576040805160e560020a62461bcd0281526020600482018190526024820152600080516020613e76833981519152604482015290519081900360640190fd5b600160a060020a038616612ed85760405160e560020a62461bcd028152600401808060200182810382526026815260200180613ef76026913960400191505060405180910390fd5b33612f175760405160e560020a62461bcd028152600401808060200182810382526026815260200180613ef76026913960400191505060405180910390fd5b600954600160a060020a0316331415612f7a576040805160e560020a62461bcd02815260206004820181905260248201527f5370656e646572206d757374206e6f7420626520746f6b656e20686f6c646572604482015290519081900360640190fd5b60008511612fc0576040805160e560020a62461bcd02815260206004820152601d6024820152600080516020613ed7833981519152604482015290519081900360640190fd5b6007546000901561305c57612fe661271061034c60075489610f2e90919063ffffffff16565b9050612ff8868263ffffffff61374d16565b613001336123bd565b1015613057576040805160e560020a62461bcd02815260206004820152601960248201527f53656e64657220556e73696666696369656e742066756e647300000000000000604482015290519081900360640190fd5b6130bc565b85613066336123bd565b10156130bc576040805160e560020a62461bcd02815260206004820152601960248201527f53656e64657220556e73696666696369656e742066756e647300000000000000604482015290519081900360640190fd5b6130c73388886136ab565b80156130e5576009546130e5903390600160a060020a0316836136ab565b5060019695505050505050565b60075490565b600054600160a060020a03163314613148576040805160e560020a62461bcd02815260206004820152601a6024820152600080516020613dc0833981519152604482015290519081900360640190fd5b8061319d576040805160e560020a62461bcd02815260206004820152601660248201527f4e616d65206d757374206e6f7420626520656d70747900000000000000000000604482015290519081900360640190fd5b612a21600c8383613c71565b60006131bc60023363ffffffff6135e316565b612512576040805160e560020a62461bcd0281526020600482015260106024820152600080516020613f1d833981519152604482015290519081900360640190fd5b60008054600160a060020a0316331461324f576040805160e560020a62461bcd02815260206004820152601a6024820152600080516020613dc0833981519152604482015290519081900360640190fd5b61325882613a11565b6132ac576040805160e560020a62461bcd02815260206004820152601a60248201527f50726f76696465206120636f6e74726163742061646472657373000000000000604482015290519081900360640190fd5b600a54604051600160a060020a038085169216907f9057dd3707e57f23446a425b1c54d9f920850718f164e6b653fba866c4999d5b90600090a350600a8054600160a060020a03831673ffffffffffffffffffffffffffffffffffffffff199091161790556001919050565b6000610f8a8383613a1d565b600b54600090600160a060020a031633146133735760405160e560020a62461bcd02815260040180806020018281038252602a815260200180613d2d602a913960400191505060405180910390fd5b50600954600160a060020a0316600090815260056020526040902055600190565b6000610f288261372f565b600054600160a060020a031633146133ef576040805160e560020a62461bcd02815260206004820152601a6024820152600080516020613dc0833981519152604482015290519081900360640190fd5b600160a060020a0381166134375760405160e560020a62461bcd028152600401808060200182810382526023815260200180613d0a6023913960400191505060405180910390fd5b6001805473ffffffffffffffffffffffffffffffffffffffff1916600160a060020a0392909216919091179055565b600b54600160a060020a031633146134b25760405160e560020a62461bcd02815260040180806020018281038252602a815260200180613d2d602a913960400191505060405180910390fd5b600455565b600054600160a060020a03163314613507576040805160e560020a62461bcd02815260206004820152601a6024820152600080516020613dc0833981519152604482015290519081900360640190fd5b61351081613a11565b613564576040805160e560020a62461bcd02815260206004820152601a60248201527f50726f76696465206120636f6e74726163742061646472657373000000000000604482015290519081900360640190fd5b600b805473ffffffffffffffffffffffffffffffffffffffff1916600160a060020a0392909216919091179055565b61359e838383613a48565b604080518281529051600160a060020a0384169133917f8c5be1e5ebec7d5bd14f71427d1e84f3dd0314c0f7b2291e5b200ac8c7c3b9259181900360200190a3505050565b6000600160a060020a038216613643576040805160e560020a62461bcd02815260206004820181905260248201527f4163636f756e74206d757374206e6f74206265207a65726f2d61646472657373604482015290519081900360640190fd5b50600160a060020a03166000908152602091909152604090205460ff1690565b61367460028263ffffffff613a7416565b604051600160a060020a038216907fa3b62bc36326052d97ea62d63c3d60308ed4c3ea8ac079dd8499f1e9c4f80c0f90600090a250565b600160a060020a03821630146136c5576136c58282613af4565b600160a060020a03831630146136df576136df8382613b3d565b81600160a060020a031683600160a060020a03167fddf252ad1be2c89b69c2b068fc378daa952ba7f163c4a11628f55a4df523b3ef836040518082815260200191505060405180910390a3505050565b600160a060020a031660009081526003602052604090205460ff1690565b600082820183811015610f8a576040805160e560020a62461bcd02815260206004820152601b60248201527f536166654d6174683a206164646974696f6e206f766572666c6f770000000000604482015290519081900360640190fd5b600160a060020a03831630146137c4576137c48383613af4565b6137cf848284613b66565b600160a060020a03841630146137e9576137e98483613b3d565b82600160a060020a031684600160a060020a03167fddf252ad1be2c89b69c2b068fc378daa952ba7f163c4a11628f55a4df523b3ef846040518082815260200191505060405180910390a350505050565b613845838383613bcd565b600160a060020a038216337f8c5be1e5ebec7d5bd14f71427d1e84f3dd0314c0f7b2291e5b200ac8c7c3b92561387b8686613a1d565b60408051918252519081900360200190a3505050565b6138a260028263ffffffff613c0316565b604051600160a060020a038216907f44d6d25963f097ad14f29f06854a01f575648a1ef82f30e562ccd3889717e33990600090a250565b600160a060020a031660009081526005602052604090205490565b600160a060020a03821661393c5760405160e560020a62461bcd028152600401808060200182810382526024815260200180613d576024913960400191505060405180910390fd5b60008111613982576040805160e560020a62461bcd02815260206004820152601d6024820152600080516020613ed7833981519152604482015290519081900360640190fd5b600954819061399990600160a060020a03166123bd565b10156139ef576040805160e560020a62461bcd02815260206004820152601e60248201527f556e73756666696369656e747320746f6b656e7320617661696c61626c650000604482015290519081900360640190fd5b60095461190590600160a060020a031683836136ab565b613845838383613b66565b3b63ffffffff16151590565b600160a060020a03918216600090815260066020908152604080832093909416825291909152205490565b600160a060020a0392831660009081526006602090815260408083209490951682529290925291902055565b613a7e82826135e3565b613ad2576040805160e560020a62461bcd02815260206004820152601f60248201527f4163636f756e7420686173206e6f7420686176652061646d696e20726f6c6500604482015290519081900360640190fd5b600160a060020a0316600090815260209190915260409020805460ff19169055565b600160a060020a038216600090815260056020526040902054613b1d908263ffffffff61374d16565b600160a060020a0390921660009081526005602052604090209190915550565b600160a060020a038216600090815260056020526040902054613b1d908263ffffffff610ec916565b600160a060020a03808416600090815260066020908152604080832093861683529290522054613b9c908263ffffffff610ec916565b600160a060020a03938416600090815260066020908152604080832095909616825293909352929091209190915550565b600160a060020a03808416600090815260066020908152604080832093861683529290522054613b9c908263ffffffff61374d16565b613c0d82826135e3565b15613c4c5760405160e560020a62461bcd028152600401808060200182810382526023815260200180613f3d6023913960400191505060405180910390fd5b600160a060020a0316600090815260209190915260409020805460ff19166001179055565b828054600181600116156101000203166002900490600052602060002090601f016020900481019282601f10613cb25782800160ff19823516178555613cdf565b82800160010185558215613cdf579182015b82811115613cdf578235825591602001919060010190613cc4565b50613ceb929150613cef565b5090565b6112fb91905b80821115613ceb5760008155600101613cf556fe4f776e65722061646472657373206d757374206e6f7420626520302d616464726573734f6e6c792049434f2043656e7465722063616e20706572666f726d2074686973206f7065726174696f6e53656e6465722061646472657373206d757374206e6f7420626520302d616464726573735370656e6465722061646472657373206d757374206e6f7420626520302d616464726573734163636f756e74206d757374206e6f742062652066726f7a656e00000000000054686973206973206e6f7420636f6e7472616374206f776e657200000000000043757272656e6379206973206e6f742070726573656e7420696e20737570706f727465642063757272656e636965735370656e646572206d757374206e6f7420626520302d616464726573730000004f6e6c7920537461626c6520746f6b656e2063616e2063616c6c2074686973206d6574686f64536166654d6174683a206d756c7469706c69636174696f6e206f766572666c6f7741646472657373206d757374206e6f7420626520746f6b656e20686f6c6465724e657720686f6c646572206d757374206e6f74206265206f6c6420686f6c64657253656e646572206d757374206e6f7420626520302d6164647265737300000000416d6f756e74206d7573742062652067726561746572207468616e203000000052656365697665722061646472657373206d757374206e6f7420626520302d616464726573734d75737420626520616e2061646d696e000000000000000000000000000000004163636f756e742068617320616c726561647920686176652061646d696e20726f6c65a165627a7a723058209a961c00f11bfbb0276f2f6e35e671b038297bea3f855903d694162eb13bb29800294f776e65722061646472657373206d757374206e6f7420626520302d616464726573734163636f756e742068617320616c726561647920686176652061646d696e20726f6c65",
  "source": "pragma solidity >=0.4.10 <0.6.0;\r\n\r\nimport \"./KMXToken.sol\";\r\n\r\ncontract KMX is KMXToken {\r\n    string public name = \"Kamix\";\r\n    string public symbols = \"KMX\";\r\n    uint256 public decimals = 18;\r\n\r\n    function setName(string calldata _name) external onlyOwner {\r\n        require(bytes(_name).length != 0, \"Name must not be empty\");\r\n        name = _name;\r\n    }\r\n\r\n    function setSymbols(string calldata _symbols) external onlyOwner {\r\n        require(bytes(_symbols).length != 0, \"Symbols must not be empty\");\r\n        symbols = _symbols;\r\n    }\r\n}",
  "sourcePath": "C:/Users/Sim'S/WebstormProjects/kmxv1/contracts/kmx/KMX.sol",
  "compiler": {
    "name": "solc",
    "version": "0.5.8+commit.23d335f2.Emscripten.clang"
  },
  "schemaVersion": "3.0.10",
  "updatedAt": "2020-05-05T09:03:05.930Z",
  "devdoc": {
    "methods": {}
  },
  "userdoc": {
    "methods": {}
  }
}