{
  "contractName": "KMXAdminCenter",
  "abi": [
    {
      "constant": true,
      "inputs": [],
      "name": "_buyRefundWithEtherFees",
      "outputs": [
        {
          "name": "",
          "type": "uint256"
        }
      ],
      "payable": false,
      "stateMutability": "view",
      "type": "function"
    },
    {
      "constant": false,
      "inputs": [
        {
          "name": "myId",
          "type": "bytes32"
        },
        {
          "name": "result",
          "type": "string"
        }
      ],
      "name": "__callback",
      "outputs": [],
      "payable": false,
      "stateMutability": "nonpayable",
      "type": "function"
    },
    {
      "constant": false,
      "inputs": [
        {
          "name": "_myid",
          "type": "bytes32"
        },
        {
          "name": "_result",
          "type": "string"
        },
        {
          "name": "_proof",
          "type": "bytes"
        }
      ],
      "name": "__callback",
      "outputs": [],
      "payable": false,
      "stateMutability": "nonpayable",
      "type": "function"
    },
    {
      "constant": true,
      "inputs": [],
      "name": "_tknEtherPriceOracleUrl",
      "outputs": [
        {
          "name": "",
          "type": "string"
        }
      ],
      "payable": false,
      "stateMutability": "view",
      "type": "function"
    },
    {
      "constant": false,
      "inputs": [
        {
          "name": "_type",
          "type": "string"
        },
        {
          "name": "_url",
          "type": "string"
        }
      ],
      "name": "query",
      "outputs": [
        {
          "name": "",
          "type": "bytes32"
        }
      ],
      "payable": false,
      "stateMutability": "nonpayable",
      "type": "function"
    },
    {
      "inputs": [],
      "payable": true,
      "stateMutability": "payable",
      "type": "constructor"
    },
    {
      "payable": false,
      "stateMutability": "nonpayable",
      "type": "fallback"
    },
    {
      "anonymous": false,
      "inputs": [
        {
          "indexed": true,
          "name": "from",
          "type": "address"
        },
        {
          "indexed": true,
          "name": "to",
          "type": "address"
        },
        {
          "indexed": false,
          "name": "value",
          "type": "uint256"
        }
      ],
      "name": "Transfer",
      "type": "event"
    },
    {
      "anonymous": false,
      "inputs": [
        {
          "indexed": true,
          "name": "buyer",
          "type": "address"
        },
        {
          "indexed": false,
          "name": "value",
          "type": "uint256"
        }
      ],
      "name": "ICOTokenBought",
      "type": "event"
    },
    {
      "anonymous": false,
      "inputs": [
        {
          "indexed": true,
          "name": "refunder",
          "type": "address"
        },
        {
          "indexed": false,
          "name": "value",
          "type": "uint256"
        }
      ],
      "name": "ICOTokenRefunded",
      "type": "event"
    },
    {
      "constant": false,
      "inputs": [
        {
          "name": "_address",
          "type": "address"
        }
      ],
      "name": "initAdminCenter",
      "outputs": [],
      "payable": false,
      "stateMutability": "nonpayable",
      "type": "function"
    },
    {
      "constant": false,
      "inputs": [],
      "name": "enableBuyWithEther",
      "outputs": [],
      "payable": false,
      "stateMutability": "nonpayable",
      "type": "function"
    },
    {
      "constant": false,
      "inputs": [],
      "name": "disableBuyWithEther",
      "outputs": [],
      "payable": false,
      "stateMutability": "nonpayable",
      "type": "function"
    },
    {
      "constant": true,
      "inputs": [],
      "name": "isEtherAccepted",
      "outputs": [
        {
          "name": "",
          "type": "bool"
        }
      ],
      "payable": false,
      "stateMutability": "view",
      "type": "function"
    },
    {
      "constant": false,
      "inputs": [],
      "name": "startIco",
      "outputs": [],
      "payable": false,
      "stateMutability": "nonpayable",
      "type": "function"
    },
    {
      "constant": false,
      "inputs": [],
      "name": "pauseIco",
      "outputs": [],
      "payable": false,
      "stateMutability": "nonpayable",
      "type": "function"
    },
    {
      "constant": false,
      "inputs": [],
      "name": "continueIco",
      "outputs": [],
      "payable": false,
      "stateMutability": "nonpayable",
      "type": "function"
    },
    {
      "constant": false,
      "inputs": [],
      "name": "endIco",
      "outputs": [],
      "payable": false,
      "stateMutability": "nonpayable",
      "type": "function"
    },
    {
      "constant": true,
      "inputs": [],
      "name": "statusIco",
      "outputs": [
        {
          "name": "",
          "type": "string"
        }
      ],
      "payable": false,
      "stateMutability": "view",
      "type": "function"
    },
    {
      "constant": true,
      "inputs": [
        {
          "name": "part",
          "type": "uint8"
        }
      ],
      "name": "tokens",
      "outputs": [
        {
          "name": "",
          "type": "uint256"
        }
      ],
      "payable": false,
      "stateMutability": "view",
      "type": "function"
    },
    {
      "constant": false,
      "inputs": [
        {
          "name": "_amount",
          "type": "uint256"
        }
      ],
      "name": "reserveToSell",
      "outputs": [],
      "payable": false,
      "stateMutability": "nonpayable",
      "type": "function"
    },
    {
      "constant": false,
      "inputs": [
        {
          "name": "_amount",
          "type": "uint256"
        }
      ],
      "name": "sellToReserve",
      "outputs": [],
      "payable": false,
      "stateMutability": "nonpayable",
      "type": "function"
    },
    {
      "constant": false,
      "inputs": [
        {
          "name": "_amount",
          "type": "uint256"
        }
      ],
      "name": "sellToCirculation",
      "outputs": [],
      "payable": false,
      "stateMutability": "nonpayable",
      "type": "function"
    },
    {
      "constant": false,
      "inputs": [
        {
          "name": "_amount",
          "type": "uint256"
        }
      ],
      "name": "circulationToSell",
      "outputs": [],
      "payable": false,
      "stateMutability": "nonpayable",
      "type": "function"
    },
    {
      "constant": false,
      "inputs": [
        {
          "name": "_amount",
          "type": "uint256"
        }
      ],
      "name": "reserveToCirculation",
      "outputs": [],
      "payable": false,
      "stateMutability": "nonpayable",
      "type": "function"
    },
    {
      "constant": false,
      "inputs": [
        {
          "name": "_amount",
          "type": "uint256"
        }
      ],
      "name": "circulationToReserve",
      "outputs": [],
      "payable": false,
      "stateMutability": "nonpayable",
      "type": "function"
    },
    {
      "constant": false,
      "inputs": [
        {
          "name": "newUrl",
          "type": "string"
        }
      ],
      "name": "changeTokenEthPriceOracleUrl",
      "outputs": [],
      "payable": false,
      "stateMutability": "nonpayable",
      "type": "function"
    },
    {
      "constant": false,
      "inputs": [
        {
          "name": "_newEthFees",
          "type": "uint256"
        }
      ],
      "name": "changeBuyRefundWithEtherFees",
      "outputs": [],
      "payable": false,
      "stateMutability": "nonpayable",
      "type": "function"
    },
    {
      "constant": false,
      "inputs": [
        {
          "name": "_account",
          "type": "address"
        },
        {
          "name": "_currency",
          "type": "string"
        },
        {
          "name": "_amount",
          "type": "uint256"
        }
      ],
      "name": "buyICOTokensForAccount",
      "outputs": [
        {
          "name": "",
          "type": "uint256"
        }
      ],
      "payable": false,
      "stateMutability": "nonpayable",
      "type": "function"
    },
    {
      "constant": true,
      "inputs": [
        {
          "name": "_account",
          "type": "address"
        },
        {
          "name": "_currency",
          "type": "string"
        },
        {
          "name": "_tokenQuantity",
          "type": "uint256"
        }
      ],
      "name": "refundICOAmount",
      "outputs": [
        {
          "name": "",
          "type": "uint256"
        }
      ],
      "payable": false,
      "stateMutability": "view",
      "type": "function"
    },
    {
      "constant": false,
      "inputs": [
        {
          "name": "_account",
          "type": "address"
        },
        {
          "name": "_currency",
          "type": "string"
        },
        {
          "name": "_tokenQuantity",
          "type": "uint256"
        }
      ],
      "name": "refundICO",
      "outputs": [
        {
          "name": "",
          "type": "uint256"
        }
      ],
      "payable": false,
      "stateMutability": "nonpayable",
      "type": "function"
    },
    {
      "constant": false,
      "inputs": [],
      "name": "buyICOTokensWithEther",
      "outputs": [],
      "payable": true,
      "stateMutability": "payable",
      "type": "function"
    },
    {
      "constant": false,
      "inputs": [
        {
          "name": "_tokenQuantity",
          "type": "uint256"
        }
      ],
      "name": "refundICOTokenWithEther",
      "outputs": [],
      "payable": false,
      "stateMutability": "nonpayable",
      "type": "function"
    },
    {
      "constant": false,
      "inputs": [],
      "name": "kill",
      "outputs": [],
      "payable": false,
      "stateMutability": "nonpayable",
      "type": "function"
    }
  ],
  "bytecode": "0x60806040526017805460a060020a60ff0219169055615fb0806100236000396000f3fe6080604052600436106101c65760003560e060020a900480637c1b29ec116100fb578063adf47e1d11610099578063e267c1e911610068578063e267c1e914610ad0578063e657807b14610afa578063f2a5fa5b146107cf578063f9199b2614610b0f576101c6565b8063adf47e1d146109b4578063b9c1bee014610a67578063c4fdc6b814610a91578063cdbecc2614610aa6576101c6565b806389311e6f116100d557806389311e6f1461094b57806395e795061461096057806396ae428d1461098a578063a6fc28231461099f576101c6565b80637c1b29ec146107cf57806381ade307146107e45780638856c0d61461091e576101c6565b80634719db6c1161016857806353ea48371161014257806353ea48371461059157806366a42ba6146105bb5780636ed0930314610680578063762795161461070a576101c6565b80634719db6c1461052d578063487afa0e1461053557806352b4d0a514610568576101c6565b806313caef68116101a457806313caef68146102f357806327dc297e1461031d57806338bbfa50146103d757806341c0e1b514610518576101c6565b80630139cec6146101dd57806304d54a56146102045780630a1c58b6146102c9575b3480156101d257600080fd5b506101db610b39565b005b3480156101e957600080fd5b506101f2610e22565b60408051918252519081900360200190f35b34801561021057600080fd5b506101f26004803603606081101561022757600080fd5b600160a060020a03823516919081019060408101602082013564010000000081111561025257600080fd5b82018360208201111561026457600080fd5b8035906020019184600183028401116401000000008311171561028657600080fd5b91908080601f0160208091040260200160405190810160405280939291908181526020018383808284376000920191909152509295505091359250610e28915050565b3480156102d557600080fd5b506101db600480360360208110156102ec57600080fd5b503561139f565b3480156102ff57600080fd5b506101db6004803603602081101561031657600080fd5b503561158b565b34801561032957600080fd5b506101db6004803603604081101561034057600080fd5b8135919081019060408101602082013564010000000081111561036257600080fd5b82018360208201111561037457600080fd5b8035906020019184600183028401116401000000008311171561039657600080fd5b91908080601f016020809104026020016040519081016040528093929190818152602001838380828437600092019190915250929550611752945050505050565b3480156103e357600080fd5b506101db600480360360608110156103fa57600080fd5b8135919081019060408101602082013564010000000081111561041c57600080fd5b82018360208201111561042e57600080fd5b8035906020019184600183028401116401000000008311171561045057600080fd5b91908080601f01602080910402602001604051908101604052809392919081815260200183838082843760009201919091525092959493602081019350359150506401000000008111156104a357600080fd5b8201836020820111156104b557600080fd5b803590602001918460018302840111640100000000831117156104d757600080fd5b91908080601f0160208091040260200160405190810160405280939291908181526020018383808284376000920191909152509295506117cc945050505050565b34801561052457600080fd5b506101db6117fd565b6101db610b39565b34801561054157600080fd5b506101db6004803603602081101561055857600080fd5b5035600160a060020a03166118b9565b34801561057457600080fd5b5061057d611ac8565b604080519115158252519081900360200190f35b34801561059d57600080fd5b506101db600480360360208110156105b457600080fd5b5035611ad2565b3480156105c757600080fd5b506101f2600480360360608110156105de57600080fd5b600160a060020a03823516919081019060408101602082013564010000000081111561060957600080fd5b82018360208201111561061b57600080fd5b8035906020019184600183028401116401000000008311171561063d57600080fd5b91908080601f0160208091040260200160405190810160405280939291908181526020018383808284376000920191909152509295505091359250611b97915050565b34801561068c57600080fd5b506106956120b7565b6040805160208082528351818301528351919283929083019185019080838360005b838110156106cf5781810151838201526020016106b7565b50505050905090810190601f1680156106fc5780820380516001836020036101000a031916815260200191505b509250505060405180910390f35b34801561071657600080fd5b506101f26004803603606081101561072d57600080fd5b600160a060020a03823516919081019060408101602082013564010000000081111561075857600080fd5b82018360208201111561076a57600080fd5b8035906020019184600183028401116401000000008311171561078c57600080fd5b91908080601f0160208091040260200160405190810160405280939291908181526020018383808284376000920191909152509295505091359250612145915050565b3480156107db57600080fd5b506101db6125b4565b3480156107f057600080fd5b506101f26004803603604081101561080757600080fd5b81019060208101813564010000000081111561082257600080fd5b82018360208201111561083457600080fd5b8035906020019184600183028401116401000000008311171561085657600080fd5b91908080601f01602080910402602001604051908101604052809392919081815260200183838082843760009201919091525092959493602081019350359150506401000000008111156108a957600080fd5b8201836020820111156108bb57600080fd5b803590602001918460018302840111640100000000831117156108dd57600080fd5b91908080601f016020809104026020016040519081016040528093929190818152602001838380828437600092019190915250929550612678945050505050565b34801561092a57600080fd5b506101f26004803603602081101561094157600080fd5b503560ff1661268d565b34801561095757600080fd5b506101db61275a565b34801561096c57600080fd5b506101db6004803603602081101561098357600080fd5b503561281c565b34801561099657600080fd5b50610695612a4f565b3480156109ab57600080fd5b506101db612a60565b3480156109c057600080fd5b506101db600480360360208110156109d757600080fd5b8101906020810181356401000000008111156109f257600080fd5b820183602082011115610a0457600080fd5b80359060200191846001830284011164010000000083111715610a2657600080fd5b91908080601f016020809104026020016040519081016040528093929190818152602001838380828437600092019190915250929550612b22945050505050565b348015610a7357600080fd5b506101db60048036036020811015610a8a57600080fd5b5035612bed565b348015610a9d57600080fd5b506101db612caa565b348015610ab257600080fd5b506101db60048036036020811015610ac957600080fd5b5035612d6c565b348015610adc57600080fd5b506101db60048036036020811015610af357600080fd5b5035612e31565b348015610b0657600080fd5b506101db612ef6565b348015610b1b57600080fd5b506101db60048036036020811015610b3257600080fd5b503561307d565b60105460ff16610b7d5760405160e560020a62461bcd028152600401808060200182810382526021815260200180615db56021913960400191505060405180910390fd5b3380610bbd5760405160e560020a62461bcd028152600401808060200182810382526025815260200180615d1a6025913960400191505060405180910390fd5b601760009054906101000a9004600160a060020a0316600160a060020a031663420a83e76040518163ffffffff1660e060020a02815260040160206040518083038186803b158015610c0e57600080fd5b505afa158015610c22573d6000803e3d6000fd5b505050506040513d6020811015610c3857600080fd5b5051600160a060020a0382811691161415610c875760405160e560020a62461bcd028152600401808060200182810382526030815260200180615edc6030913960400191505060405180910390fd5b6017546040805160e060020a63e816d97f028152600160a060020a0384811660048301529151919092169163e816d97f916024808301926020929190829003018186803b158015610cd757600080fd5b505afa158015610ceb573d6000803e3d6000fd5b505050506040513d6020811015610d0157600080fd5b505115610d46576040805160e560020a62461bcd0281526020600482015260116024820152600080516020615d3f833981519152604482015290519081900360640190fd5b600160055460ff166003811115610d5957fe5b14610d9c576040805160e560020a62461bcd02815260206004820152601a6024820152600080516020615f3b833981519152604482015290519081900360640190fd5b610dae60053334306015546014613140565b610e1f57336000818152600a602052604080822054905181156108fc0292818181858888f19350505050158015610de9573d6000803e3d6000fd5b50336000818152600a602090815260409182902054825190815291513092600080516020615e0583398151915292908290030190a35b50565b60155481565b6017546040805160e260020a630935e01b0281523360048201529051600092600160a060020a0316916324d7806c916024808301926020929190829003018186803b158015610e7657600080fd5b505afa158015610e8a573d6000803e3d6000fd5b505050506040513d6020811015610ea057600080fd5b5051610ee05760405160e560020a62461bcd028152600401808060200182810382526025815260200180615c226025913960400191505060405180910390fd5b83600160a060020a038116610f295760405160e560020a62461bcd028152600401808060200182810382526025815260200180615d1a6025913960400191505060405180910390fd5b601760009054906101000a9004600160a060020a0316600160a060020a031663420a83e76040518163ffffffff1660e060020a02815260040160206040518083038186803b158015610f7a57600080fd5b505afa158015610f8e573d6000803e3d6000fd5b505050506040513d6020811015610fa457600080fd5b5051600160a060020a0382811691161415610ff35760405160e560020a62461bcd028152600401808060200182810382526030815260200180615edc6030913960400191505060405180910390fd5b6017546040805160e060020a63e816d97f028152600160a060020a0384811660048301529151919092169163e816d97f916024808301926020929190829003018186803b15801561104357600080fd5b505afa158015611057573d6000803e3d6000fd5b505050506040513d602081101561106d57600080fd5b5051156110b2576040805160e560020a62461bcd0281526020600482015260116024820152600080516020615d3f833981519152604482015290519081900360640190fd5b600160055460ff1660038111156110c557fe5b14611108576040805160e560020a62461bcd02815260206004820152601a6024820152600080516020615f3b833981519152604482015290519081900360640190fd5b6017546040517f697d60b00000000000000000000000000000000000000000000000000000000081526020600482018181528751602484015287518894600160a060020a03169363697d60b09386939283926044019185019080838360005b8381101561117f578181015183820152602001611167565b50505050905090810190601f1680156111ac5780820380516001836020036101000a031916815260200191505b509250505060206040518083038186803b1580156111c957600080fd5b505afa1580156111dd573d6000803e3d6000fd5b505050506040513d60208110156111f357600080fd5b5051611249576040805160e560020a62461bcd02815260206004820152601860248201527f50726f7669646520612076616c69642063757272656e63790000000000000000604482015290519081900360640190fd5b6017546040517f02888d06000000000000000000000000000000000000000000000000000000008152602060048201818152885160248401528851600094859461134b94600594600160a060020a03909316936302888d06938e9390928392604490920191908501908083838d5b838110156112cf5781810151838201526020016112b7565b50505050905090810190601f1680156112fc5780820380516001836020036101000a031916815260200191505b509250505060206040518083038186803b15801561131957600080fd5b505afa15801561132d573d6000803e3d6000fd5b505050506040513d602081101561134357600080fd5b505188613521565b909250905081156113925760165460175461137a91600160a060020a0391821691168a8563ffffffff61364d16565b506113876005838a6136fe565b61139260058361374d565b9350505b50509392505050565b6017546040805160e260020a630935e01b0281523360048201529051600160a060020a03909216916324d7806c91602480820192602092909190829003018186803b1580156113ed57600080fd5b505afa158015611401573d6000803e3d6000fd5b505050506040513d602081101561141757600080fd5b50516114575760405160e560020a62461bcd028152600401808060200182810382526025815260200180615c226025913960400191505060405180910390fd5b601754604080517f420a83e70000000000000000000000000000000000000000000000000000000081529051611566926005926011928692600160a060020a0316916370a0823191839163420a83e7916004808301926020929190829003018186803b1580156114c657600080fd5b505afa1580156114da573d6000803e3d6000fd5b505050506040513d60208110156114f057600080fd5b50516040805160e060020a63ffffffff8516028152600160a060020a039092166004830152516024808301926020929190829003018186803b15801561153557600080fd5b505afa158015611549573d6000803e3d6000fd5b505050506040513d602081101561155f57600080fd5b5051613788565b60135460175461158791600160a060020a039091169063ffffffff61388616565b5050565b6017546040805160e160020a6317aa5fb70281523360048201529051600160a060020a0390921691632f54bf6e91602480820192602092909190829003018186803b1580156115d957600080fd5b505afa1580156115ed573d6000803e3d6000fd5b505050506040513d602081101561160357600080fd5b50516116435760405160e560020a62461bcd028152600401808060200182810382526025815260200180615b926025913960400191505060405180910390fd5b601754604080517f420a83e70000000000000000000000000000000000000000000000000000000081529051611566926011928592600160a060020a03909216916370a0823191839163420a83e791600480820192602092909190829003018186803b1580156116b257600080fd5b505afa1580156116c6573d6000803e3d6000fd5b505050506040513d60208110156116dc57600080fd5b50516040805160e060020a63ffffffff8516028152600160a060020a039092166004830152516024808301926020929190829003018186803b15801561172157600080fd5b505afa158015611735573d6000803e3d6000fd5b505050506040513d602081101561174b57600080fd5b505161390c565b61175a61398a565b600160a060020a031633600160a060020a0316146117c2576040805160e560020a62461bcd02815260206004820152601d60248201527f4d7573742062652063616c6c6564206f6e6c79206279204f7261636c65000000604482015290519081900360640190fd5b6115878282613b7c565b5050600080805260036020527f3617319a054d772f909f7c479a2cebe5066e836a939412e32403c99029b92eff5550565b6017546040805160e160020a6317aa5fb70281523360048201529051600160a060020a0390921691632f54bf6e91602480820192602092909190829003018186803b15801561184b57600080fd5b505afa15801561185f573d6000803e3d6000fd5b505050506040513d602081101561187557600080fd5b50516118b55760405160e560020a62461bcd028152600401808060200182810382526025815260200180615b926025913960400191505060405180910390fd5b3380ff5b60175474010000000000000000000000000000000000000000900460ff161561192c576040805160e560020a62461bcd02815260206004820152601360248201527f416c726561647920696e697469616c697a656400000000000000000000000000604482015290519081900360640190fd5b61193e81600160a060020a0316613c00565b611992576040805160e560020a62461bcd02815260206004820181905260248201527f41646472657373206d75737420626520636f6e74726163742061646472657373604482015290519081900360640190fd5b60178054600160a060020a03808416600160a060020a031992831681179384905560168054909316179091556a51e410c0f93fe5430000006011556a31a17e847807b1bc0000006012556a77f0f1c0221298310000006013819055604080517fe1e86c3600000000000000000000000000000000000000000000000000000000815260048101929092525184939092169163e1e86c36916024808201926020929091908290030181600087803b158015611a4b57600080fd5b505af1158015611a5f573d6000803e3d6000fd5b505050506040513d6020811015611a7557600080fd5b50611a84905060056011613c0c565b5050662386f26fc100006015556017805474ff0000000000000000000000000000000000000000191674010000000000000000000000000000000000000000179055565b60105460ff165b90565b6017546040805160e260020a630935e01b0281523360048201529051600160a060020a03909216916324d7806c91602480820192602092909190829003018186803b158015611b2057600080fd5b505afa158015611b34573d6000803e3d6000fd5b505050506040513d6020811015611b4a57600080fd5b5051611b8a5760405160e560020a62461bcd028152600401808060200182810382526025815260200180615c226025913960400191505060405180910390fd5b610e1f6005601183613c40565b6017546040805160e260020a630935e01b0281523360048201529051600092600160a060020a0316916324d7806c916024808301926020929190829003018186803b158015611be557600080fd5b505afa158015611bf9573d6000803e3d6000fd5b505050506040513d6020811015611c0f57600080fd5b5051611c4f5760405160e560020a62461bcd028152600401808060200182810382526025815260200180615c226025913960400191505060405180910390fd5b83600160a060020a038116611c985760405160e560020a62461bcd028152600401808060200182810382526025815260200180615d1a6025913960400191505060405180910390fd5b601760009054906101000a9004600160a060020a0316600160a060020a031663420a83e76040518163ffffffff1660e060020a02815260040160206040518083038186803b158015611ce957600080fd5b505afa158015611cfd573d6000803e3d6000fd5b505050506040513d6020811015611d1357600080fd5b5051600160a060020a0382811691161415611d625760405160e560020a62461bcd028152600401808060200182810382526030815260200180615edc6030913960400191505060405180910390fd5b6017546040805160e060020a63e816d97f028152600160a060020a0384811660048301529151919092169163e816d97f916024808301926020929190829003018186803b158015611db257600080fd5b505afa158015611dc6573d6000803e3d6000fd5b505050506040513d6020811015611ddc57600080fd5b505115611e21576040805160e560020a62461bcd0281526020600482015260116024820152600080516020615d3f833981519152604482015290519081900360640190fd5b600160055460ff166003811115611e3457fe5b14611e77576040805160e560020a62461bcd02815260206004820152601a6024820152600080516020615f3b833981519152604482015290519081900360640190fd5b6017546040517f697d60b00000000000000000000000000000000000000000000000000000000081526020600482018181528751602484015287518894600160a060020a03169363697d60b09386939283926044019185019080838360005b83811015611eee578181015183820152602001611ed6565b50505050905090810190601f168015611f1b5780820380516001836020036101000a031916815260200191505b509250505060206040518083038186803b158015611f3857600080fd5b505afa158015611f4c573d6000803e3d6000fd5b505050506040513d6020811015611f6257600080fd5b5051611fb8576040805160e560020a62461bcd02815260206004820152601860248201527f50726f7669646520612076616c69642063757272656e63790000000000000000604482015290519081900360640190fd5b6017546040517f02888d060000000000000000000000000000000000000000000000000000000081526020600482018181528851602484015288516120ad94600160a060020a0316936302888d06938b939283926044019185019080838360005b83811015612031578181015183820152602001612019565b50505050905090810190601f16801561205e5780820380516001836020036101000a031916815260200191505b509250505060206040518083038186803b15801561207b57600080fd5b505afa15801561208f573d6000803e3d6000fd5b505050506040513d60208110156120a557600080fd5b505185613d41565b9695505050505050565b6014805460408051602060026001851615610100026000190190941693909304601f8101849004840282018401909252818152929183018282801561213d5780601f106121125761010080835404028352916020019161213d565b820191906000526020600020905b81548152906001019060200180831161212057829003601f168201915b505050505081565b6017546040805160e260020a630935e01b0281523360048201529051600092600160a060020a0316916324d7806c916024808301926020929190829003018186803b15801561219357600080fd5b505afa1580156121a7573d6000803e3d6000fd5b505050506040513d60208110156121bd57600080fd5b50516121fd5760405160e560020a62461bcd028152600401808060200182810382526025815260200180615c226025913960400191505060405180910390fd5b83600160a060020a0381166122465760405160e560020a62461bcd028152600401808060200182810382526025815260200180615d1a6025913960400191505060405180910390fd5b601760009054906101000a9004600160a060020a0316600160a060020a031663420a83e76040518163ffffffff1660e060020a02815260040160206040518083038186803b15801561229757600080fd5b505afa1580156122ab573d6000803e3d6000fd5b505050506040513d60208110156122c157600080fd5b5051600160a060020a03828116911614156123105760405160e560020a62461bcd028152600401808060200182810382526030815260200180615edc6030913960400191505060405180910390fd5b6017546040805160e060020a63e816d97f028152600160a060020a0384811660048301529151919092169163e816d97f916024808301926020929190829003018186803b15801561236057600080fd5b505afa158015612374573d6000803e3d6000fd5b505050506040513d602081101561238a57600080fd5b5051156123cf576040805160e560020a62461bcd0281526020600482015260116024820152600080516020615d3f833981519152604482015290519081900360640190fd5b600160055460ff1660038111156123e257fe5b14612425576040805160e560020a62461bcd02815260206004820152601a6024820152600080516020615f3b833981519152604482015290519081900360640190fd5b6017546040517f697d60b00000000000000000000000000000000000000000000000000000000081526020600482018181528751602484015287518894600160a060020a03169363697d60b09386939283926044019185019080838360005b8381101561249c578181015183820152602001612484565b50505050905090810190601f1680156124c95780820380516001836020036101000a031916815260200191505b509250505060206040518083038186803b1580156124e657600080fd5b505afa1580156124fa573d6000803e3d6000fd5b505050506040513d602081101561251057600080fd5b5051612566576040805160e560020a62461bcd02815260206004820152601860248201527f50726f7669646520612076616c69642063757272656e63790000000000000000604482015290519081900360640190fd5b61257260058786613da0565b156113965760165460175461259c91600160a060020a03918216918991168763ffffffff61364d16565b506125a960058588613e4a565b611396600585613e75565b6017546040805160e160020a6317aa5fb70281523360048201529051600160a060020a0390921691632f54bf6e91602480820192602092909190829003018186803b15801561260257600080fd5b505afa158015612616573d6000803e3d6000fd5b505050506040513d602081101561262c57600080fd5b505161266c5760405160e560020a62461bcd028152600401808060200182810382526025815260200180615b926025913960400191505060405180910390fd5b6126766005613ea4565b565b60006126848383613eb4565b90505b92915050565b6017546040805160e260020a630935e01b0281523360048201529051600092600160a060020a0316916324d7806c916024808301926020929190829003018186803b1580156126db57600080fd5b505afa1580156126ef573d6000803e3d6000fd5b505050506040513d602081101561270557600080fd5b50516127455760405160e560020a62461bcd028152600401808060200182810382526025815260200180615c226025913960400191505060405180910390fd5b61275260056011846142aa565b90505b919050565b6017546040805160e160020a6317aa5fb70281523360048201529051600160a060020a0390921691632f54bf6e91602480820192602092909190829003018186803b1580156127a857600080fd5b505afa1580156127bc573d6000803e3d6000fd5b505050506040513d60208110156127d257600080fd5b50516128125760405160e560020a62461bcd028152600401808060200182810382526025815260200180615b926025913960400191505060405180910390fd5b6126766005614310565b338061285c5760405160e560020a62461bcd028152600401808060200182810382526025815260200180615d1a6025913960400191505060405180910390fd5b601760009054906101000a9004600160a060020a0316600160a060020a031663420a83e76040518163ffffffff1660e060020a02815260040160206040518083038186803b1580156128ad57600080fd5b505afa1580156128c1573d6000803e3d6000fd5b505050506040513d60208110156128d757600080fd5b5051600160a060020a03828116911614156129265760405160e560020a62461bcd028152600401808060200182810382526030815260200180615edc6030913960400191505060405180910390fd5b6017546040805160e060020a63e816d97f028152600160a060020a0384811660048301529151919092169163e816d97f916024808301926020929190829003018186803b15801561297657600080fd5b505afa15801561298a573d6000803e3d6000fd5b505050506040513d60208110156129a057600080fd5b5051156129e5576040805160e560020a62461bcd0281526020600482015260116024820152600080516020615d3f833981519152604482015290519081900360640190fd5b600160055460ff1660038111156129f857fe5b14612a3b576040805160e560020a62461bcd02815260206004820152601a6024820152600080516020615f3b833981519152604482015290519081900360640190fd5b612a4a6005338430601461438a565b505050565b6060612a5b60056146fd565b905090565b6017546040805160e160020a6317aa5fb70281523360048201529051600160a060020a0390921691632f54bf6e91602480820192602092909190829003018186803b158015612aae57600080fd5b505afa158015612ac2573d6000803e3d6000fd5b505050506040513d6020811015612ad857600080fd5b5051612b185760405160e560020a62461bcd028152600401808060200182810382526025815260200180615b926025913960400191505060405180910390fd5b612676600561482f565b6017546040805160e260020a630935e01b0281523360048201529051600160a060020a03909216916324d7806c91602480820192602092909190829003018186803b158015612b7057600080fd5b505afa158015612b84573d6000803e3d6000fd5b505050506040513d6020811015612b9a57600080fd5b5051612bda5760405160e560020a62461bcd028152600401808060200182810382526025815260200180615c226025913960400191505060405180910390fd5b8051611587906014906020840190615ace565b6017546040805160e260020a630935e01b0281523360048201529051600160a060020a03909216916324d7806c91602480820192602092909190829003018186803b158015612c3b57600080fd5b505afa158015612c4f573d6000803e3d6000fd5b505050506040513d6020811015612c6557600080fd5b5051612ca55760405160e560020a62461bcd028152600401808060200182810382526025815260200180615c226025913960400191505060405180910390fd5b601555565b6017546040805160e160020a6317aa5fb70281523360048201529051600160a060020a0390921691632f54bf6e91602480820192602092909190829003018186803b158015612cf857600080fd5b505afa158015612d0c573d6000803e3d6000fd5b505050506040513d6020811015612d2257600080fd5b5051612d625760405160e560020a62461bcd028152600401808060200182810382526025815260200180615b926025913960400191505060405180910390fd5b61267660056148ac565b6017546040805160e260020a630935e01b0281523360048201529051600160a060020a03909216916324d7806c91602480820192602092909190829003018186803b158015612dba57600080fd5b505afa158015612dce573d6000803e3d6000fd5b505050506040513d6020811015612de457600080fd5b5051612e245760405160e560020a62461bcd028152600401808060200182810382526025815260200180615c226025913960400191505060405180910390fd5b610e1f6005601183614926565b6017546040805160e260020a630935e01b0281523360048201529051600160a060020a03909216916324d7806c91602480820192602092909190829003018186803b158015612e7f57600080fd5b505afa158015612e93573d6000803e3d6000fd5b505050506040513d6020811015612ea957600080fd5b5051612ee95760405160e560020a62461bcd028152600401808060200182810382526025815260200180615c226025913960400191505060405180910390fd5b6115666005601183614a17565b6017546040805160e160020a6317aa5fb70281523360048201529051600160a060020a0390921691632f54bf6e91602480820192602092909190829003018186803b158015612f4457600080fd5b505afa158015612f58573d6000803e3d6000fd5b505050506040513d6020811015612f6e57600080fd5b5051612fae5760405160e560020a62461bcd028152600401808060200182810382526025815260200180615b926025913960400191505060405180910390fd5b612fba60056011614b15565b601754604080517f420a83e70000000000000000000000000000000000000000000000000000000081529051600092600160a060020a03169163420a83e7916004808301926020929190829003018186803b15801561301857600080fd5b505afa15801561302c573d6000803e3d6000fd5b505050506040513d602081101561304257600080fd5b5051604051909150600160a060020a03821690303180156108fc02916000818181858888f19350505050158015611587573d6000803e3d6000fd5b6017546040805160e260020a630935e01b0281523360048201529051600160a060020a03909216916324d7806c91602480820192602092909190829003018186803b1580156130cb57600080fd5b505afa1580156130df573d6000803e3d6000fd5b505050506040513d60208110156130f557600080fd5b50516131355760405160e560020a62461bcd028152600401808060200182810382526025815260200180615c226025913960400191505060405180910390fd5b611566601182614bb0565b6000600160a060020a0386166131a0576040805160e560020a62461bcd02815260206004820181905260248201527f4163636f756e742061646472657373206d757374206e6f74206265206e756c6c604482015290519081900360640190fd5b828511836040516020018080615f5b602a9139602a01828152602001807f2900000000000000000000000000000000000000000000000000000000000000815250600101915050604051602081830303815290604052906132825760405160e560020a62461bcd0281526004018080602001828103825283818151815260200191508051906020019080838360005b8381101561324757818101518382015260200161322f565b50505050905090810190601f1680156132745780820380516001836020036101000a031916815260200191505b509250505060405180910390fd5b5060008760030154116132df576040805160e560020a62461bcd02815260206004820152601d60248201527f5468657265206d757374206861766520746f6b656e7320746f20627579000000604482015290519081900360640190fd5b600160a060020a038616600090815260058801602052604090205415613307575060006120ad565b600084600160a060020a03166381ade3078460405160200180807f6a736f6e280000000000000000000000000000000000000000000000000000008152506005018280546001816001161561010002031660029004801561339f5780601f1061337d57610100808354040283529182019161339f565b820191906000526020600020905b81548152906001019060200180831161338b575b50507f292e7072696365000000000000000000000000000000000000000000000000008152604080516018198184030181526007830180835260e060020a63ffffffff8816029052600b83019182526003604b8401527f55524c0000000000000000000000000000000000000000000000000000000000606b8401526080602b84019081528151608b8501528151919550919350839260ab0190602086019080838360005b8381101561345c578181015183820152602001613444565b50505050905090810190601f1680156134895780820380516001836020036101000a031916815260200191505b509350505050602060405180830381600087803b1580156134a957600080fd5b505af11580156134bd573d6000803e3d6000fd5b505050506040513d60208110156134d357600080fd5b5051600090815260078901602090815260408083208054600160a060020a031916600160a060020a038c16908117909155835260058b01909152902086905550600190509695505050505050565b600080600083116135665760405160e560020a62461bcd028152600401808060200182810382526025815260200180615c476025913960400191505060405180910390fd5b60008560030154116135c2576040805160e560020a62461bcd02815260206004820181905260248201527f546865726520617265206e6f206d6f726520746f6b656e7320746f2073656c6c604482015290519081900360640190fd5b838360006135ee670de0b6b3a76400006135e2848663ffffffff614c3116565b9063ffffffff614c8d16565b90506000809050818960030154101561363f5760038901546000613624866135e284670de0b6b3a764000063ffffffff614c3116565b9050613636858263ffffffff614cfa16565b90945090925090505b909890975095505050505050565b604080517f1f9714f0000000000000000000000000000000000000000000000000000000008152600160a060020a0385811660048301528481166024830152604482018490529151600092871691631f9714f091606480830192602092919082900301818787803b1580156136c157600080fd5b505af11580156136d5573d6000803e3d6000fd5b505050506040513d60208110156136eb57600080fd5b50516136f357fe5b506001949350505050565b600160a060020a0381166000908152600984016020526040902054613729908363ffffffff614d5a16565b600160a060020a039091166000908152600990930160205260409092209190915550565b6004820154613762908263ffffffff614d5a16565b6004830155600382015461377c908263ffffffff614cfa16565b82600301819055505050565b6000845460ff16600381111561379a57fe5b14806137b557506002845460ff1660038111156137b357fe5b145b6137f35760405160e560020a62461bcd028152600401808060200182810382526026815260200180615e256026913960400191505060405180910390fd5b808211156138355760405160e560020a62461bcd028152600401808060200182810382526048815260200180615cd26048913960600191505060405180910390fd5b8254613847908363ffffffff614d5a16565b8355600384015461385e908363ffffffff614d5a16565b60038501556002830154613878908363ffffffff614cfa16565b836002018190555050505050565b600082600160a060020a031663e1e86c36836040518263ffffffff1660e060020a02815260040180828152602001915050602060405180830381600087803b1580156138d157600080fd5b505af11580156138e5573d6000803e3d6000fd5b505050506040513d60208110156138fb57600080fd5b505161390357fe5b50600192915050565b8082111561394e5760405160e560020a62461bcd028152600401808060200182810382526035815260200180615d806035913960400191505060405180910390fd5b6001830154613963908363ffffffff614d5a16565b6001840155600283015461397d908363ffffffff614cfa16565b8360020181905550505050565b600154600090600160a060020a031615806139b757506001546139b590600160a060020a0316614db7565b155b156139c8576139c66000614dbb565b505b600160009054906101000a9004600160a060020a0316600160a060020a03166338cc48316040518163ffffffff1660e060020a028152600401602060405180830381600087803b158015613a1b57600080fd5b505af1158015613a2f573d6000803e3d6000fd5b505050506040513d6020811015613a4557600080fd5b5051600054600160a060020a03908116911614613afb57600160009054906101000a9004600160a060020a0316600160a060020a03166338cc48316040518163ffffffff1660e060020a028152600401602060405180830381600087803b158015613aaf57600080fd5b505af1158015613ac3573d6000803e3d6000fd5b505050506040513d6020811015613ad957600080fd5b505160008054600160a060020a031916600160a060020a039092169190911790555b6000809054906101000a9004600160a060020a0316600160a060020a031663c281d19e6040518163ffffffff1660e060020a02815260040160206040518083038186803b158015613b4b57600080fd5b505afa158015613b5f573d6000803e3d6000fd5b505050506040513d6020811015613b7557600080fd5b5051905090565b600080613b8883614dc5565b6000868152600c60205260409020549193509150600160a060020a031615613bc657613bc18482613bb95783613bbc565b60005b614f12565b613bfa565b6000848152600d6020526040902054600160a060020a031615613bfa57613bfa8482613bf25783613bf5565b60005b6150aa565b50505050565b3b63ffffffff16151590565b815460ff19908116835560006001840181905560028401819055600b84018054909216909155600483015554600390910155565b6000835460ff166003811115613c5257fe5b1480613c6d57506002835460ff166003811115613c6b57fe5b145b613cab5760405160e560020a62461bcd028152600401808060200182810382526026815260200180615e256026913960400191505060405180910390fd5b8160010154811115613cf15760405160e560020a62461bcd028152600401808060200182810382526035815260200180615bb76035913960400191505060405180910390fd5b8154613d03908263ffffffff614d5a16565b82556003830154613d1a908263ffffffff614d5a16565b60038401556001820154613d34908263ffffffff614cfa16565b8260010181905550505050565b6000808211613d845760405160e560020a62461bcd028152600401808060200182810382526026815260200180615e4b6026913960400191505060405180910390fd5b612684836135e284670de0b6b3a764000063ffffffff614c3116565b6000808211613de35760405160e560020a62461bcd028152600401808060200182810382526026815260200180615e4b6026913960400191505060405180910390fd5b600160a060020a0383166000908152600985016020526040902054821115613e3f5760405160e560020a62461bcd028152600401808060200182810382526036815260200180615bec6036913960400191505060405180910390fd5b5060015b9392505050565b600160a060020a0381166000908152600984016020526040902054613729908363ffffffff614cfa16565b6004820154613e8a908263ffffffff614cfa16565b6004830155600382015461377c908263ffffffff614d5a16565b600b01805460ff19166001179055565b600154600090600160a060020a03161580613ee15750600154613edf90600160a060020a0316614db7565b155b15613ef257613ef06000614dbb565b505b600160009054906101000a9004600160a060020a0316600160a060020a03166338cc48316040518163ffffffff1660e060020a028152600401602060405180830381600087803b158015613f4557600080fd5b505af1158015613f59573d6000803e3d6000fd5b505050506040513d6020811015613f6f57600080fd5b5051600054600160a060020a0390811691161461402557600160009054906101000a9004600160a060020a0316600160a060020a03166338cc48316040518163ffffffff1660e060020a028152600401602060405180830381600087803b158015613fd957600080fd5b505af1158015613fed573d6000803e3d6000fd5b505050506040513d602081101561400357600080fd5b505160008054600160a060020a031916600160a060020a039092169190911790555b600080546040517f524f3889000000000000000000000000000000000000000000000000000000008152602060048201818152875160248401528751600160a060020a039094169363524f38899389938392604490920191908501908083838b5b8381101561409e578181015183820152602001614086565b50505050905090810190601f1680156140cb5780820380516001836020036101000a031916815260200191505b5092505050602060405180830381600087803b1580156140ea57600080fd5b505af11580156140fe573d6000803e3d6000fd5b505050506040513d602081101561411457600080fd5b50519050670de0b6b3a764000062030d403a0201811115614139575060009050612687565b600080546040517fadf59f9900000000000000000000000000000000000000000000000000000000815260048101838152606060248301908152885160648401528851600160a060020a039094169463adf59f9994879491938b938b9391929091604481019160849091019060208701908083838b5b838110156141c75781810151838201526020016141af565b50505050905090810190601f1680156141f45780820380516001836020036101000a031916815260200191505b50838103825284518152845160209182019186019080838360005b8381101561422757818101518382015260200161420f565b50505050905090810190601f1680156142545780820380516001836020036101000a031916815260200191505b50955050505050506020604051808303818588803b15801561427557600080fd5b505af1158015614289573d6000803e3d6000fd5b50505050506040513d60208110156142a057600080fd5b5051949350505050565b60008160ff16600a14156142c057508154613e43565b8160ff16600b14156142d757506003830154613e43565b8160ff16600c14156142ee57506004830154613e43565b8160ff166014141561430557506001820154613e43565b506002820154613e43565b6000815460ff16600381111561432257fe5b14614377576040805160e560020a62461bcd02815260206004820152601c60248201527f49434f204d75737420626520696e2070656e64696e6720737461746500000000604482015290519081900360640190fd5b805460ff19166001908117825543910155565b60008084116143cd5760405160e560020a62461bcd028152600401808060200182810382526026815260200180615e4b6026913960400191505060405180910390fd5b600160a060020a03851661442b576040805160e560020a62461bcd02815260206004820181905260248201527f4163636f756e742061646472657373206d757374206e6f74206265206e756c6c604482015290519081900360640190fd5b600160a060020a03851660009081526009870160205260409020548411156144875760405160e560020a62461bcd02815260040180806020018281038252602f815260200180615dd6602f913960400191505060405180910390fd5b600160a060020a0385166000908152600a8701602052604090205460ff166144e35760405160e560020a62461bcd02815260040180806020018281038252602b815260200180615b67602b913960400191505060405180910390fd5b600083600160a060020a03166381ade3078460405160200180807f6a736f6e280000000000000000000000000000000000000000000000000000008152506005018280546001816001161561010002031660029004801561457b5780601f1061455957610100808354040283529182019161457b565b820191906000526020600020905b815481529060010190602001808311614567575b50507f292e7072696365000000000000000000000000000000000000000000000000008152604080516018198184030181526007830180835260e060020a63ffffffff8816029052600b83019182526003604b8401527f55524c0000000000000000000000000000000000000000000000000000000000606b8401526080602b84019081528151608b8501528151919550919350839260ab0190602086019080838360005b83811015614638578181015183820152602001614620565b50505050905090810190601f1680156146655780820380516001836020036101000a031916815260200191505b509350505050602060405180830381600087803b15801561468557600080fd5b505af1158015614699573d6000803e3d6000fd5b505050506040513d60208110156146af57600080fd5b5051600090815260088801602090815260408083208054600160a060020a038b16600160a060020a03199091168117909155835260068a019091529020859055506001905095945050505050565b60606001825460ff16600381111561471157fe5b1415614751575060408051808201909152600881527f4f4e20474f494e470000000000000000000000000000000000000000000000006020820152612755565b6002825460ff16600381111561476357fe5b14156147a3575060408051808201909152600681527f50415553454400000000000000000000000000000000000000000000000000006020820152612755565b6003825460ff1660038111156147b557fe5b14156147f5575060408051808201909152600581527f454e4445440000000000000000000000000000000000000000000000000000006020820152612755565b5060408051808201909152600781527f50454e44494e47000000000000000000000000000000000000000000000000006020820152612755565b6002815460ff16600381111561484157fe5b14614896576040805160e560020a62461bcd02815260206004820152601b60248201527f49434f204d75737420626520696e207061757365642073746174650000000000604482015290519081900360640190fd5b8054600190829060ff191682805b021790555050565b6001815460ff1660038111156148be57fe5b14614913576040805160e560020a62461bcd02815260206004820152601c60248201527f49434f204d75737420626520696e206f6e676f696e6720737461746500000000604482015290519081900360640190fd5b8054600290829060ff19166001836148a4565b6001835460ff16600381111561493857fe5b141561498e576040805160e560020a62461bcd02815260206004820181905260248201527f49434f206d757374206e6f7420626520696e206f6e676f696e67207374617465604482015290519081900360640190fd5b82600301548111156149d45760405160e560020a62461bcd028152600401808060200182810382526044815260200180615e716044913960600191505060405180910390fd5b60038301546149e9908263ffffffff614cfa16565b60038401558154614a00908263ffffffff614cfa16565b82556001820154613d34908263ffffffff614d5a16565b6001835460ff166003811115614a2957fe5b1415614a7f576040805160e560020a62461bcd02815260206004820181905260248201527f49434f206d757374206e6f7420626520696e206f6e676f696e67207374617465604482015290519081900360640190fd5b8260030154811115614ac55760405160e560020a62461bcd028152600401808060200182810382526044815260200180615e716044913960600191505060405180910390fd5b8154614ad7908263ffffffff614cfa16565b82556003830154614aee908263ffffffff614cfa16565b60038401556002820154614b08908263ffffffff614d5a16565b8260020181905550505050565b6002825460ff166003811115614b2757fe5b1480614b4257506001825460ff166003811115614b4057fe5b145b614b805760405160e560020a62461bcd028152600401808060200182810382526026815260200180615c6c6026913960400191505060405180910390fd5b815460ff1916600317825543600280840191909155600483015490820154614ba791614d5a565b60029091015550565b8160010154811115614bf65760405160e560020a62461bcd028152600401808060200182810382526035815260200180615bb76035913960400191505060405180910390fd5b6001820154614c0b908263ffffffff614cfa16565b60018301556002820154614c25908263ffffffff614d5a16565b82600201819055505050565b600082614c4057506000612687565b82820282848281614c4d57fe5b04146126845760405160e560020a62461bcd028152600401808060200182810382526021815260200180615d5f6021913960400191505060405180910390fd5b6000808211614ce6576040805160e560020a62461bcd02815260206004820152601a60248201527f536166654d6174683a206469766973696f6e206279207a65726f000000000000604482015290519081900360640190fd5b6000828481614cf157fe5b04949350505050565b600082821115614d54576040805160e560020a62461bcd02815260206004820152601e60248201527f536166654d6174683a207375627472616374696f6e206f766572666c6f770000604482015290519081900360640190fd5b50900390565b600082820183811015612684576040805160e560020a62461bcd02815260206004820152601b60248201527f536166654d6174683a206164646974696f6e206f766572666c6f770000000000604482015290519081900360640190fd5b3b90565b6000612752615269565b60008080838180805b8351811015614f045783517f300000000000000000000000000000000000000000000000000000000000000090859083908110614e0757fe5b602001015160f860020a900460f860020a027effffffffffffffffffffffffffffffffffffffffffffffffffffffffffffff191610158015614eab575083517f390000000000000000000000000000000000000000000000000000000000000090859083908110614e7457fe5b602001015160f860020a900460f860020a027effffffffffffffffffffffffffffffffffffffffffffffffffffffffffffff191611155b15614ef7578291506030848281518110614ec157fe5b602001015160f860020a900460f860020a0260f860020a90040360ff1683600a0201925082821115614ef257600194505b614efc565b600194505b600101614dce565b509094509192505050915091565b6000806000806000614f2960056015548989615613565b9450945094509450945084614fa5576040518290600160a060020a0382169083156108fc029084906000818181858888f19350505050158015614f70573d6000803e3d6000fd5b50604080518381529051600160a060020a038516913091600080516020615e058339815191529181900360200190a3506150a1565b831561503257601654601754614fcf91600160a060020a039182169116848763ffffffff61364d16565b50614fdc600585846136fe565b614fe7600583615862565b614ff260058561374d565b604080518581529051600160a060020a038416917faa1bb4da4198d8c5efa7bcdc2fc44dfeeb0a5d47b34715a5ed476e7d283a9153919081900360200190a25b82156150a1576040518290600160a060020a0382169085156108fc029086906000818181858888f19350505050158015615070573d6000803e3d6000fd5b50604080518581529051600160a060020a038516913091600080516020615e058339815191529181900360200190a3505b50505050505050565b6000828152600c602090815260408083205460175482517f70a08231000000000000000000000000000000000000000000000000000000008152600160a060020a039283166004820181905293519395948594615160946005948b948b9491909216926370a08231926024808201939291829003018186803b15801561512f57600080fd5b505afa158015615143573d6000803e3d6000fd5b505050506040513d602081101561515957600080fd5b5051615889565b909250905081156151f35760165460175461519091600160a060020a03918216918691168563ffffffff61364d16565b5061519d60058385613e4a565b6151a8600584615a9b565b6151b3600583613e75565b604080518381529051600160a060020a038516917f220b7da382db73245ea37a58aa5dcb6d17791121d316f1463baef209a71ea65f919081900360200190a25b8015615262576040518390600160a060020a0382169083156108fc029084906000818181858888f19350505050158015615231573d6000803e3d6000fd5b50604080518381529051600160a060020a038616913091600080516020615e058339815191529181900360200190a3505b5050505050565b600080615289731d3b2638a7cc9f2cb3d298a3da7a90b67e5506ed614db7565b11156152fa5760018054600160a060020a031916731d3b2638a7cc9f2cb3d298a3da7a90b67e5506ed17905560408051808201909152600b81527f6574685f6d61696e6e657400000000000000000000000000000000000000000060208201526152f290615abf565b506001611acf565b600061531973c03a2615d5efaf5f49f60b7bb6583eaec212fdf1614db7565b11156153825760018054600160a060020a03191673c03a2615d5efaf5f49f60b7bb6583eaec212fdf117905560408051808201909152600c81527f6574685f726f707374656e33000000000000000000000000000000000000000060208201526152f290615abf565b60006153a173b7a07bcf2ba2f2703b24c0691b5278999c59ac7e614db7565b111561540a5760018054600160a060020a03191673b7a07bcf2ba2f2703b24c0691b5278999c59ac7e17905560408051808201909152600981527f6574685f6b6f76616e000000000000000000000000000000000000000000000060208201526152f290615abf565b600061542973146500cfd35b22e4a392fe0adc06de1a1368ed48614db7565b11156154925760018054600160a060020a03191673146500cfd35b22e4a392fe0adc06de1a1368ed4817905560408051808201909152600b81527f6574685f72696e6b65627900000000000000000000000000000000000000000060208201526152f290615abf565b60006154b173a2998efd205fb9d4b4963afb70778d6354ad3a41614db7565b111561551a5760018054600160a060020a03191673a2998efd205fb9d4b4963afb70778d6354ad3a4117905560408051808201909152600a81527f6574685f676f65726c690000000000000000000000000000000000000000000060208201526152f290615abf565b6000615539736f485c8bf6fc43ea212e93bbf8ce046c7f1cb475614db7565b111561556b575060018054600160a060020a031916736f485c8bf6fc43ea212e93bbf8ce046c7f1cb475178155611acf565b600061558a7320e12a1f859b3feae5fb2a0a32c18f5a65555bbf614db7565b11156155bc575060018054600160a060020a0319167320e12a1f859b3feae5fb2a0a32c18f5a65555bbf178155611acf565b60006155db7351efaf4c8b3c9afbd5ab9f4bbc82784ab6ef8faa614db7565b111561560d575060018054600160a060020a0319167351efaf4c8b3c9afbd5ab9f4bbc82784ab6ef8faa178155611acf565b50600090565b60008281526007850160205260408120548190819081908190600160a060020a0316615689576040805160e560020a62461bcd02815260206004820152601560248201527f496e76616c6964206f7261636c65207265712069640000000000000000000000604482015290519081900360640190fd5b600087815260078a016020908152604080832054600160a060020a031680845260058d0190925290912054891061573e5780600160a060020a03167fa602069644371d061a386e5589a60c7f8e2d63e1d886b45a760242a6e4beb70060405180806020018281038252602f815260200180615f0c602f913960400191505060405180910390a2600160a060020a038116600090815260058b016020526040812054600197509095508594509092509050615857565b600160a060020a038116600090815260058b01602052604081205481906001908a61576c57600091506157ea565b61577c818e63ffffffff614cfa16565b905061579a670de0b6b3a76400006135e2838e63ffffffff614c3116565b935060009250838e6003015410156157ea5760038e015460006157cf8d6135e284670de0b6b3a764000063ffffffff614c3116565b90506157e1838263ffffffff614cfa16565b91955090935090505b60008e600501600087600160a060020a0316600160a060020a03168152602001908152602001600020819055508d60070160008d815260200190815260200160002060006101000a815490600160a060020a03021916905581848487849950995099509950995050505050505b945094509450945094565b600160a060020a03166000908152600a90910160205260409020805460ff19166001179055565b6000838152600785016020908152604080832054600160a060020a03168084526006880190925282205482919061591c5780600160a060020a03167f23583bd4d0af8859fad7e849f8bf1aebf2018774e96ac58bc42ac36dad6dcba6604051808060200182810382526040815260200180615c926040913960400191505060405180910390a25060009150819050615a92565b6000808615615a5257600160a060020a038316600090815260068a016020526040902054915061595e876135e284670de0b6b3a764000063ffffffff614c3116565b600160a060020a0384166000908152600a8b01602052604090205490915060ff166159dd5782600160a060020a03167f23583bd4d0af8859fad7e849f8bf1aebf2018774e96ac58bc42ac36dad6dcba6604051808060200182810382526027815260200180615eb56027913960400191505060405180910390a2615a52565b81861015615a52576040805160208082526012908201527f556e73756666696369656e742066756e64730000000000000000000000000000818301529051600160a060020a038516917f23583bd4d0af8859fad7e849f8bf1aebf2018774e96ac58bc42ac36dad6dcba6919081900360600190a25b600160a060020a039092166000908152600689016020908152604080832083905589835260088b0190915290208054600160a060020a0319169055925090505b94509492505050565b600160a060020a03166000908152600a90910160205260409020805460ff19169055565b80516115879060029060208401905b828054600181600116156101000203166002900490600052602060002090601f016020900481019282601f10615b0f57805160ff1916838001178555615b3c565b82800160010185558215615b3c579182015b82811115615b3c578251825591602001919060010190615b21565b50615b48929150615b4c565b5090565b611acf91905b80821115615b485760008155600101615b5256fe4163636f756e74206d757374206861766520626f7567687420746f6b656e732077697468206574686572734f6e6c79204f776e65722063616e20706572666f726d2074686973206f7065726174696f6e416d6f756e7420746f2077697468647261772066726f6d2072657365727665206578636565647320726573657276652066756e6473546f6b656e73207175616e74697479206d757374206265206c657373207468616e207175616e74697479207573657220626f756768744f6e6c792041646d696e2063616e20706572666f726d2074686973206f7065726174696f6e416d6f756e74206f666665726564206d7573742062652067726561746572207468616e203049434f204d75737420626520696e206f6e676f696e67206f722070617573656420737461746555736572206d7573742068617665206265656e20696e697469616c697a65207468652049434f20726566756e6420746f6b656e73207472616e73616374696f6e416d6f756e7420746f2077697468647261772066726f6d2070726f6a6563747320746f6b656e7320657863656564732072656d61696e696e6720746f6b656e7320746f2073656c6c4163636f756e742061646472657373206d757374206e6f7420626520302d616464726573734163636f756e742069732066726f7a656e000000000000000000000000000000536166654d6174683a206d756c7469706c69636174696f6e206f766572666c6f77416d6f756e7420746f2077697468647261772066726f6d207265736572766520657863656564732070726f6a6563742066756e647342757920746f6b656e732077697468206574686572206e6f7420616c6c6f7765644163636f756e742068617665206e6f7420626f756768742074686973207175616e74697479206f6620746f6b656e73ddf252ad1be2c89b69c2b068fc378daa952ba7f163c4a11628f55a4df523b3ef49434f206d75737420626520696e2070656e64696e67206f7220706175736564207374617465546f6b656e73207175616e74697479206d7573742062652067726561746572207468616e2030416d6f756e7420746f2077697468647261772066726f6d2073656c6c20746f6b656e7320657863656564732072656d61696e696e6720746f6b656e7320746f2073656c6c427579657220646f6573206e6f7420626f7567687420746f6b656e7320776974682065746865724163636f756e742061646472657373206d757374206e6f7420626520746f6b656e20686f6c646572206163636f756e744275796572206d7573742068617665206265656e20696e697469616c697a6520627579207472616e73616374696f6e49434f204d757374206265206f6e676f696e6720737461747573000000000000457468657273206f666665726564206d7573742062652067726561746572207468616e20666565732028a165627a7a72305820df6efa8400f37d020baf9cfb3c4a99d71e67b62aa8a942eace07506e25e15ba90029",
  "source": "pragma solidity >=0.4.10 <0.6.0;\r\n\r\nimport \"./KMXToken.sol\";\r\nimport \"./utils/AddressUtils.sol\";\r\nimport \"./utils/SafeMath.sol\";\r\nimport \"./utils/StringParser.sol\";\r\nimport \"./utils/Oracle.sol\";\r\nimport \"./KMXLibrary.sol\"; \r\n\r\nlibrary SafeKMXTokenForAdmin {\r\n    function safeIcoTransfer(KMXToken kmxToken, address from, address to, uint256 value) internal returns(bool) {\r\n        assert(kmxToken.icoTransfer(from, to, value));\r\n        return true;\r\n    }    \r\n    function safeSetTokenHolderBalance(KMXToken kmxToken, uint256 balance) internal returns(bool) {\r\n        assert(kmxToken.setTokenHolderBalance(balance));\r\n        return true;\r\n    }   \r\n}\r\n\r\ncontract KMXAdminCenter is Oracle {\r\n    event Transfer(address indexed from, address indexed to, uint256 value);\r\n    event ICOTokenBought(address indexed buyer, uint256 value);\r\n    event ICOTokenRefunded(address indexed refunder, uint256 value); \r\n\r\n    KMXLibrary.ICOParams internal _icoParams;\r\n    KMXLibrary.KMXTokenParts _kmxTokenParts;\r\n\r\n    string public _tknEtherPriceOracleUrl;\r\n    uint256 public _buyRefundWithEtherFees;\r\n\r\n    address internal _kmxTokenAddress;\r\n    KMXToken internal _kmxToken;\r\n\r\n    uint256 internal constant DECIMALS = 10**18;\r\n\r\n    bool private initialized = false;\r\n\r\n    using AddressUtils for address;\r\n    using SafeMath for uint256;\r\n    using StringParser for string;\r\n    using SafeKMXTokenForAdmin for KMXToken;\r\n\r\n    modifier onlyAdmin() {\r\n        require(_kmxToken.isAdmin(msg.sender), \"Only Admin can perform this operation\");\r\n        _;\r\n    }\r\n\r\n    modifier onlyOwner() {\r\n        require(_kmxToken.isOwner(msg.sender), \"Only Owner can perform this operation\");\r\n        _;\r\n    }\r\n\r\n    constructor() public payable {\r\n\r\n    }\r\n\r\n    function initAdminCenter(address _address) public {\r\n        require(!initialized, \"Already initialized\");\r\n        require(_address.isContractAddress(), \"Address must be contract address\");\r\n        address payable _payableAddress = address(uint160(_address));\r\n        _kmxToken = KMXToken(_payableAddress);\r\n        _kmxTokenAddress = _address;\r\n\r\n        _kmxTokenParts._tokensToSell = 99000000 * DECIMALS; //100 m\r\n        _kmxTokenParts._reserveTokens = 60000000 * DECIMALS;\r\n        _kmxTokenParts._circulatingTokens = 145000000 * DECIMALS; //144 m\r\n        _kmxToken.setTokenHolderBalance(_kmxTokenParts._circulatingTokens);\r\n\r\n        KMXLibrary.init(_icoParams, _kmxTokenParts);\r\n\r\n        _buyRefundWithEtherFees = 10 * 10 ** 15;\r\n\r\n        initialized = true;\r\n    }\r\n\r\n    modifier validateBuyRefICO(address _account) {\r\n        require(_account != address(0), \"Account address must not be 0-address\");\r\n        require(_account != _kmxToken.tokenHolder(), \"Account address must not be token holder account\");\r\n        require(!_kmxToken.isAccountFrozen(_account), \"Account is frozen\");\r\n        require(_icoParams._icoState == KMXLibrary.ICOState.ICO_ONGOING, \"ICO Must be ongoing status\");\r\n        _;\r\n    }\r\n\r\n    modifier validCurrency(string memory _currency) {\r\n        require(_kmxToken.validCurrency(_currency), \"Provide a valid currency\");\r\n        _;\r\n    }\r\n\r\n    modifier acceptEther() {\r\n        require(_icoParams._buyWithEther, \"Buy tokens with ether not allowed\");\r\n        _;\r\n    }\r\n\r\n    function enableBuyWithEther() public onlyOwner {\r\n        KMXLibrary.enableBuyWithEther(_icoParams);\r\n    }\r\n\r\n    function disableBuyWithEther() public onlyOwner {\r\n        KMXLibrary.enableBuyWithEther(_icoParams);\r\n    }\r\n\r\n    function isEtherAccepted() public view returns(bool) {\r\n        return _icoParams._buyWithEther;\r\n    }\r\n\r\n    function startIco() public onlyOwner {\r\n        KMXLibrary.startICO(_icoParams);\r\n    }\r\n\r\n    function pauseIco() public onlyOwner {\r\n        KMXLibrary.pauseICO(_icoParams);\r\n    }\r\n\r\n    function continueIco() public onlyOwner {\r\n        KMXLibrary.continueICO(_icoParams);\r\n    }\r\n\r\n    function endIco() public onlyOwner {\r\n        KMXLibrary.endICO(_icoParams, _kmxTokenParts);\r\n        address payable _payableTknHolder = address(uint160(_kmxToken.tokenHolder()));\r\n        _payableTknHolder.transfer(address(this).balance);\r\n    }\r\n\r\n    function statusIco() public view returns(string memory) {\r\n        return KMXLibrary.statusICO(_icoParams);\r\n    }\r\n\r\n    function tokens(uint8 part) public view onlyAdmin returns(uint256) {\r\n        return KMXLibrary.tokensPart(_icoParams, _kmxTokenParts, part);\r\n    }\r\n\r\n    function reserveToSell(uint256 _amount) public onlyAdmin {\r\n        KMXLibrary.reserveToSell(_icoParams, _kmxTokenParts, _amount);\r\n    }\r\n\r\n    function sellToReserve(uint256 _amount) public onlyAdmin {\r\n        KMXLibrary.sellToReserve(_icoParams, _kmxTokenParts, _amount);\r\n    }\r\n\r\n    function sellToCirculation(uint256 _amount) public onlyAdmin {\r\n        KMXLibrary.sellToCirculation(_icoParams, _kmxTokenParts, _amount);\r\n        _kmxToken.safeSetTokenHolderBalance(_kmxTokenParts._circulatingTokens);\r\n    }\r\n\r\n    function circulationToSell(uint256 _amount) public onlyAdmin {\r\n        KMXLibrary.circulationToSell(_icoParams, _kmxTokenParts, _amount, _kmxToken.balanceOf(_kmxToken.tokenHolder()));\r\n        _kmxToken.safeSetTokenHolderBalance(_kmxTokenParts._circulatingTokens);\r\n    }\r\n\r\n    function reserveToCirculation(uint256 _amount) public onlyAdmin {\r\n        KMXLibrary.reserveToCirculation(_kmxTokenParts, _amount);\r\n        _kmxToken.safeSetTokenHolderBalance(_kmxTokenParts._circulatingTokens);\r\n    }\r\n\r\n    function circulationToReserve(uint256 _amount) public onlyOwner {\r\n        KMXLibrary.circulationToReserve(_kmxTokenParts, _amount, _kmxToken.balanceOf(_kmxToken.tokenHolder()));\r\n        _kmxToken.safeSetTokenHolderBalance(_kmxTokenParts._circulatingTokens);\r\n    }\r\n\r\n    function changeTokenEthPriceOracleUrl(string memory newUrl) public onlyAdmin {\r\n        _tknEtherPriceOracleUrl = newUrl;\r\n    }\r\n\r\n    function changeBuyRefundWithEtherFees(uint256 _newEthFees) public onlyAdmin {\r\n        _buyRefundWithEtherFees = _newEthFees;\r\n    }\r\n\r\n    function buyICOTokensForAccount(address _account, string memory _currency, uint256 _amount) public \r\n    onlyAdmin validateBuyRefICO(_account) validCurrency(_currency) returns(uint256) {\r\n        (uint256 tknQty, uint256 rfd) = KMXLibrary.buyICOTokensForAccount(_icoParams, _kmxToken.tokenPrice(_currency), _amount);\r\n        if (tknQty > 0) {\r\n            _kmxToken.safeIcoTransfer(_kmxTokenAddress, _account, tknQty);\r\n            KMXLibrary.notifyTokensBought(_icoParams, tknQty, _account);\r\n            KMXLibrary.increaseTokensSold(_icoParams, tknQty);\r\n        }\r\n        return rfd;\r\n    }\r\n\r\n    function refundICOAmount(address _account, string memory _currency, uint256 _tokenQuantity) public view\r\n    onlyAdmin validateBuyRefICO(_account) validCurrency(_currency) returns(uint256) {\r\n        return KMXLibrary.refundICOAmount(_kmxToken.tokenPrice(_currency), _tokenQuantity);\r\n    }\r\n\r\n    function refundICO(address _account, string memory _currency, uint256 _tokenQuantity) public\r\n    onlyAdmin validateBuyRefICO(_account) validCurrency(_currency) returns(uint256) {\r\n        if (KMXLibrary.refundICO(_icoParams, _account, _tokenQuantity)){    \r\n            _kmxToken.safeIcoTransfer(_account, _kmxTokenAddress, _tokenQuantity);\r\n            KMXLibrary.notifyRefund(_icoParams, _tokenQuantity, _account);\r\n            KMXLibrary.decreaseTokensSold(_icoParams, _tokenQuantity);\r\n        }\r\n    }\r\n\r\n    function buyICOTokensWithEther() public payable acceptEther validateBuyRefICO(msg.sender) {\r\n        if (!KMXLibrary.buyICOTokensWithEther(_icoParams, msg.sender, msg.value, this, _buyRefundWithEtherFees, _tknEtherPriceOracleUrl)){\r\n            msg.sender.transfer(_icoParams.pendingEtherICOBuyers[msg.sender]);\r\n            emit Transfer(address(this), msg.sender, _icoParams.pendingEtherICOBuyers[msg.sender]);\r\n        }\r\n    }\r\n\r\n    function () external {\r\n        buyICOTokensWithEther();\r\n    }\r\n\r\n    function buyICOTokenWithEtherEnd(bytes32 _oracleReqId, uint256 _tknPrice) internal {\r\n        (bool fb, uint256 tknQty, uint256 rfd, address _account, uint256 _ethAmt) = KMXLibrary.buyICOTokenWithEtherEnd(_icoParams, _buyRefundWithEtherFees, _oracleReqId, _tknPrice);\r\n        if (!fb){\r\n            address payable _payableAccount = address(uint160(_account));\r\n            _payableAccount.transfer(_ethAmt);\r\n            emit Transfer(address(this), _account, _ethAmt);\r\n        }\r\n        else{\r\n            if (tknQty > 0){\r\n                _kmxToken.safeIcoTransfer(_kmxTokenAddress, _account, tknQty);\r\n                KMXLibrary.notifyTokensBought(_icoParams, tknQty, _account);\r\n                KMXLibrary.notifyTokensBoughtWithEther(_icoParams, _account);\r\n                KMXLibrary.increaseTokensSold(_icoParams, tknQty);\r\n                emit ICOTokenBought(_account, tknQty);\r\n            }\r\n            if (rfd > 0){\r\n                address payable _payableAccount = address(uint160(_account));\r\n                _payableAccount.transfer(rfd);\r\n                emit Transfer(address(this), _account, rfd);\r\n            }\r\n        }\r\n    } \r\n\r\n    function refundICOTokenWithEther(uint256 _tokenQuantity) public validateBuyRefICO(msg.sender) {\r\n        KMXLibrary.refundICOTokenWithEther(_icoParams, msg.sender, _tokenQuantity, this, _tknEtherPriceOracleUrl);\r\n    }\r\n\r\n    function refundICOTokenWithEtherEnd(bytes32 _oracleReqId, uint256 _tknPrice) internal {\r\n        address _account = _icoParams.pendingEtherICOBuyersReqIds[_oracleReqId];\r\n        (uint256 tknQty, uint256 ethAmt) = KMXLibrary.refundICOTokenWithEtherEnd(_icoParams, _oracleReqId, _tknPrice, _kmxToken.balanceOf(_account));\r\n        if (tknQty > 0){\r\n            _kmxToken.safeIcoTransfer(_account, _kmxTokenAddress, tknQty);\r\n            KMXLibrary.notifyRefund(_icoParams, tknQty, _account);\r\n            KMXLibrary.notifyRefundWithEther(_icoParams, _account);\r\n            KMXLibrary.decreaseTokensSold(_icoParams, tknQty);\r\n            emit ICOTokenRefunded(_account, tknQty);\r\n        }\r\n        if (ethAmt > 0) {\r\n            address payable _payableAccount = address(uint160(_account));\r\n            _payableAccount.transfer(ethAmt);\r\n            emit Transfer(address(this), _account, ethAmt);\r\n        }\r\n    }\r\n\r\n    function _oracleCallback(bytes32 myId, string memory result) internal {\r\n        (uint256 stTknPrice, bool error) = result.parseToUint256();\r\n        if (_icoParams.pendingEtherICOBuyersReqIds[myId]!=address(0)){\r\n            buyICOTokenWithEtherEnd(myId, error?0:stTknPrice);\r\n        }\r\n        else if (_icoParams.pendingEtherICORefundsReqIds[myId]!=address(0)){\r\n            refundICOTokenWithEtherEnd(myId, error?0:stTknPrice);\r\n        }\r\n    }\r\n\r\n    function kill() public onlyOwner {\r\n        address payable _payableOwner = address(uint160(msg.sender));\r\n        selfdestruct(_payableOwner);\r\n    }\r\n\r\n    /*function increaseTokensToSell(uint256 _value) public onlyOwner {\r\n        KMXLibrary.increaseTokensToSell(_icoParams, _kmxTokenParts, _value);\r\n        _kmxToken.setTotalSupply(_kmxToken.totalSupply().add(_value));\r\n    }\r\n\r\n    function decreaseTokensToSell(uint256 _value) public onlyOwner {\r\n        uint256 val = KMXLibrary.decreaseTokensToSell(_icoParams, _kmxTokenParts, _value);\r\n        _kmxToken.setTotalSupply(_kmxToken.totalSupply().sub(val));\r\n    }*/\r\n\r\n    /*function refundICOTokenWithEtherEnd_RefundTokens() public {\r\n        KMXLibrary.refundICOTokenWithEtherEnd_RefundTokens(_icoParams, msg.sender);\r\n    }*/\r\n\r\n    /*function buyICOTokenWithEtherEnd_RefundEther() public  {\r\n        uint256 toRfd = KMXLibrary.buyICOTokenWithEtherEnd_RefundEther(_icoParams, msg.sender);\r\n        if (toRfd > 0){\r\n            msg.sender.transfer(toRfd);\r\n            emit Transfer(address(this), msg.sender, toRfd);\r\n        }\r\n    }*/\r\n\r\n}",
  "sourcePath": "C:/Users/Sim'S/WebstormProjects/kmxv1/contracts/kmx/KMXAdminCenter.sol",
  "compiler": {
    "name": "solc",
    "version": "0.5.8+commit.23d335f2.Emscripten.clang"
  },
  "schemaVersion": "3.0.10",
  "updatedAt": "2020-05-05T09:03:05.963Z",
  "devdoc": {
    "methods": {}
  },
  "userdoc": {
    "methods": {}
  }
}