{
  "contractName": "KMXAdminCenter",
  "abi": [
    {
      "constant": true,
      "inputs": [],
      "name": "_buyRefundWithEtherFees",
      "outputs": [
        {
          "name": "",
          "type": "uint256"
        }
      ],
      "payable": false,
      "stateMutability": "view",
      "type": "function"
    },
    {
      "constant": false,
      "inputs": [
        {
          "name": "myId",
          "type": "bytes32"
        },
        {
          "name": "result",
          "type": "string"
        }
      ],
      "name": "__callback",
      "outputs": [],
      "payable": false,
      "stateMutability": "nonpayable",
      "type": "function"
    },
    {
      "constant": false,
      "inputs": [
        {
          "name": "_myid",
          "type": "bytes32"
        },
        {
          "name": "_result",
          "type": "string"
        },
        {
          "name": "_proof",
          "type": "bytes"
        }
      ],
      "name": "__callback",
      "outputs": [],
      "payable": false,
      "stateMutability": "nonpayable",
      "type": "function"
    },
    {
      "constant": true,
      "inputs": [],
      "name": "_tknEtherPriceOracleUrl",
      "outputs": [
        {
          "name": "",
          "type": "string"
        }
      ],
      "payable": false,
      "stateMutability": "view",
      "type": "function"
    },
    {
      "constant": false,
      "inputs": [
        {
          "name": "_type",
          "type": "string"
        },
        {
          "name": "_url",
          "type": "string"
        }
      ],
      "name": "query",
      "outputs": [
        {
          "name": "",
          "type": "bytes32"
        }
      ],
      "payable": false,
      "stateMutability": "nonpayable",
      "type": "function"
    },
    {
      "inputs": [],
      "payable": true,
      "stateMutability": "payable",
      "type": "constructor"
    },
    {
      "payable": false,
      "stateMutability": "nonpayable",
      "type": "fallback"
    },
    {
      "anonymous": false,
      "inputs": [
        {
          "indexed": true,
          "name": "from",
          "type": "address"
        },
        {
          "indexed": true,
          "name": "to",
          "type": "address"
        },
        {
          "indexed": false,
          "name": "value",
          "type": "uint256"
        }
      ],
      "name": "Transfer",
      "type": "event"
    },
    {
      "anonymous": false,
      "inputs": [
        {
          "indexed": true,
          "name": "buyer",
          "type": "address"
        },
        {
          "indexed": false,
          "name": "value",
          "type": "uint256"
        }
      ],
      "name": "ICOTokenBought",
      "type": "event"
    },
    {
      "anonymous": false,
      "inputs": [
        {
          "indexed": true,
          "name": "refunder",
          "type": "address"
        },
        {
          "indexed": false,
          "name": "value",
          "type": "uint256"
        }
      ],
      "name": "ICOTokenRefunded",
      "type": "event"
    },
    {
      "constant": false,
      "inputs": [
        {
          "name": "_address",
          "type": "address"
        }
      ],
      "name": "initAdminCenter",
      "outputs": [],
      "payable": false,
      "stateMutability": "nonpayable",
      "type": "function"
    },
    {
      "constant": false,
      "inputs": [],
      "name": "enableBuyWithEther",
      "outputs": [],
      "payable": false,
      "stateMutability": "nonpayable",
      "type": "function"
    },
    {
      "constant": false,
      "inputs": [],
      "name": "disableBuyWithEther",
      "outputs": [],
      "payable": false,
      "stateMutability": "nonpayable",
      "type": "function"
    },
    {
      "constant": true,
      "inputs": [],
      "name": "isEtherAccepted",
      "outputs": [
        {
          "name": "",
          "type": "bool"
        }
      ],
      "payable": false,
      "stateMutability": "view",
      "type": "function"
    },
    {
      "constant": false,
      "inputs": [],
      "name": "startIco",
      "outputs": [],
      "payable": false,
      "stateMutability": "nonpayable",
      "type": "function"
    },
    {
      "constant": false,
      "inputs": [],
      "name": "pauseIco",
      "outputs": [],
      "payable": false,
      "stateMutability": "nonpayable",
      "type": "function"
    },
    {
      "constant": false,
      "inputs": [],
      "name": "continueIco",
      "outputs": [],
      "payable": false,
      "stateMutability": "nonpayable",
      "type": "function"
    },
    {
      "constant": false,
      "inputs": [],
      "name": "endIco",
      "outputs": [],
      "payable": false,
      "stateMutability": "nonpayable",
      "type": "function"
    },
    {
      "constant": true,
      "inputs": [],
      "name": "statusIco",
      "outputs": [
        {
          "name": "",
          "type": "string"
        }
      ],
      "payable": false,
      "stateMutability": "view",
      "type": "function"
    },
    {
      "constant": true,
      "inputs": [
        {
          "name": "part",
          "type": "uint8"
        }
      ],
      "name": "tokens",
      "outputs": [
        {
          "name": "",
          "type": "uint256"
        }
      ],
      "payable": false,
      "stateMutability": "view",
      "type": "function"
    },
    {
      "constant": false,
      "inputs": [
        {
          "name": "_amount",
          "type": "uint256"
        }
      ],
      "name": "reserveToSell",
      "outputs": [],
      "payable": false,
      "stateMutability": "nonpayable",
      "type": "function"
    },
    {
      "constant": false,
      "inputs": [
        {
          "name": "_amount",
          "type": "uint256"
        }
      ],
      "name": "sellToReserve",
      "outputs": [],
      "payable": false,
      "stateMutability": "nonpayable",
      "type": "function"
    },
    {
      "constant": false,
      "inputs": [
        {
          "name": "_amount",
          "type": "uint256"
        }
      ],
      "name": "sellToCirculation",
      "outputs": [],
      "payable": false,
      "stateMutability": "nonpayable",
      "type": "function"
    },
    {
      "constant": false,
      "inputs": [
        {
          "name": "_amount",
          "type": "uint256"
        }
      ],
      "name": "circulationToSell",
      "outputs": [],
      "payable": false,
      "stateMutability": "nonpayable",
      "type": "function"
    },
    {
      "constant": false,
      "inputs": [
        {
          "name": "_amount",
          "type": "uint256"
        }
      ],
      "name": "reserveToCirculation",
      "outputs": [],
      "payable": false,
      "stateMutability": "nonpayable",
      "type": "function"
    },
    {
      "constant": false,
      "inputs": [
        {
          "name": "_amount",
          "type": "uint256"
        }
      ],
      "name": "circulationToReserve",
      "outputs": [],
      "payable": false,
      "stateMutability": "nonpayable",
      "type": "function"
    },
    {
      "constant": false,
      "inputs": [
        {
          "name": "newUrl",
          "type": "string"
        }
      ],
      "name": "changeTokenEthPriceOracleUrl",
      "outputs": [],
      "payable": false,
      "stateMutability": "nonpayable",
      "type": "function"
    },
    {
      "constant": false,
      "inputs": [
        {
          "name": "_newEthFees",
          "type": "uint256"
        }
      ],
      "name": "changeBuyRefundWithEtherFees",
      "outputs": [],
      "payable": false,
      "stateMutability": "nonpayable",
      "type": "function"
    },
    {
      "constant": false,
      "inputs": [
        {
          "name": "_account",
          "type": "address"
        },
        {
          "name": "_currency",
          "type": "string"
        },
        {
          "name": "_amount",
          "type": "uint256"
        }
      ],
      "name": "buyICOTokensForAccount",
      "outputs": [
        {
          "name": "",
          "type": "uint256"
        }
      ],
      "payable": false,
      "stateMutability": "nonpayable",
      "type": "function"
    },
    {
      "constant": true,
      "inputs": [
        {
          "name": "_account",
          "type": "address"
        },
        {
          "name": "_currency",
          "type": "string"
        },
        {
          "name": "_tokenQuantity",
          "type": "uint256"
        }
      ],
      "name": "refundICOAmount",
      "outputs": [
        {
          "name": "",
          "type": "uint256"
        }
      ],
      "payable": false,
      "stateMutability": "view",
      "type": "function"
    },
    {
      "constant": false,
      "inputs": [
        {
          "name": "_account",
          "type": "address"
        },
        {
          "name": "_currency",
          "type": "string"
        },
        {
          "name": "_tokenQuantity",
          "type": "uint256"
        }
      ],
      "name": "refundICO",
      "outputs": [
        {
          "name": "",
          "type": "uint256"
        }
      ],
      "payable": false,
      "stateMutability": "nonpayable",
      "type": "function"
    },
    {
      "constant": false,
      "inputs": [],
      "name": "buyICOTokensWithEther",
      "outputs": [],
      "payable": true,
      "stateMutability": "payable",
      "type": "function"
    },
    {
      "constant": false,
      "inputs": [
        {
          "name": "_tokenQuantity",
          "type": "uint256"
        }
      ],
      "name": "refundICOTokenWithEther",
      "outputs": [],
      "payable": false,
      "stateMutability": "nonpayable",
      "type": "function"
    }
  ],
  "bytecode": "0x60806040526017805460a060020a60ff0219169055615ed1806100236000396000f3fe6080604052600436106101bb5760003560e060020a9004806381ade307116100f0578063b9c1bee01161008e578063e267c1e911610068578063e267c1e914610ab0578063e657807b14610ada578063f2a5fa5b146107af578063f9199b2614610aef576101bb565b8063b9c1bee014610a47578063c4fdc6b814610a71578063cdbecc2614610a86576101bb565b806395e79506116100ca57806395e795061461094057806396ae428d1461096a578063a6fc28231461097f578063adf47e1d14610994576101bb565b806381ade307146107c45780638856c0d6146108fe57806389311e6f1461092b576101bb565b8063487afa0e1161015d57806366a42ba61161013757806366a42ba61461059b5780636ed093031461066057806376279516146106ea5780637c1b29ec146107af576101bb565b8063487afa0e1461051557806352b4d0a51461054857806353ea483714610571576101bb565b806313caef681161019957806313caef68146102e857806327dc297e1461031257806338bbfa50146103cc5780634719db6c1461050d576101bb565b80630139cec6146101d257806304d54a56146101f95780630a1c58b6146102be575b3480156101c757600080fd5b506101d0610b19565b005b3480156101de57600080fd5b506101e7610e02565b60408051918252519081900360200190f35b34801561020557600080fd5b506101e76004803603606081101561021c57600080fd5b600160a060020a03823516919081019060408101602082013564010000000081111561024757600080fd5b82018360208201111561025957600080fd5b8035906020019184600183028401116401000000008311171561027b57600080fd5b91908080601f0160208091040260200160405190810160405280939291908181526020018383808284376000920191909152509295505091359250610e08915050565b3480156102ca57600080fd5b506101d0600480360360208110156102e157600080fd5b503561137f565b3480156102f457600080fd5b506101d06004803603602081101561030b57600080fd5b503561156b565b34801561031e57600080fd5b506101d06004803603604081101561033557600080fd5b8135919081019060408101602082013564010000000081111561035757600080fd5b82018360208201111561036957600080fd5b8035906020019184600183028401116401000000008311171561038b57600080fd5b91908080601f016020809104026020016040519081016040528093929190818152602001838380828437600092019190915250929550611732945050505050565b3480156103d857600080fd5b506101d0600480360360608110156103ef57600080fd5b8135919081019060408101602082013564010000000081111561041157600080fd5b82018360208201111561042357600080fd5b8035906020019184600183028401116401000000008311171561044557600080fd5b91908080601f016020809104026020016040519081016040528093929190818152602001838380828437600092019190915250929594936020810193503591505064010000000081111561049857600080fd5b8201836020820111156104aa57600080fd5b803590602001918460018302840111640100000000831117156104cc57600080fd5b91908080601f0160208091040260200160405190810160405280939291908181526020018383808284376000920191909152509295506117ac945050505050565b6101d0610b19565b34801561052157600080fd5b506101d06004803603602081101561053857600080fd5b5035600160a060020a03166117dd565b34801561055457600080fd5b5061055d6119ec565b604080519115158252519081900360200190f35b34801561057d57600080fd5b506101d06004803603602081101561059457600080fd5b50356119f6565b3480156105a757600080fd5b506101e7600480360360608110156105be57600080fd5b600160a060020a0382351691908101906040810160208201356401000000008111156105e957600080fd5b8201836020820111156105fb57600080fd5b8035906020019184600183028401116401000000008311171561061d57600080fd5b91908080601f0160208091040260200160405190810160405280939291908181526020018383808284376000920191909152509295505091359250611abb915050565b34801561066c57600080fd5b50610675611fdb565b6040805160208082528351818301528351919283929083019185019080838360005b838110156106af578181015183820152602001610697565b50505050905090810190601f1680156106dc5780820380516001836020036101000a031916815260200191505b509250505060405180910390f35b3480156106f657600080fd5b506101e76004803603606081101561070d57600080fd5b600160a060020a03823516919081019060408101602082013564010000000081111561073857600080fd5b82018360208201111561074a57600080fd5b8035906020019184600183028401116401000000008311171561076c57600080fd5b91908080601f0160208091040260200160405190810160405280939291908181526020018383808284376000920191909152509295505091359250612069915050565b3480156107bb57600080fd5b506101d06124d8565b3480156107d057600080fd5b506101e7600480360360408110156107e757600080fd5b81019060208101813564010000000081111561080257600080fd5b82018360208201111561081457600080fd5b8035906020019184600183028401116401000000008311171561083657600080fd5b91908080601f016020809104026020016040519081016040528093929190818152602001838380828437600092019190915250929594936020810193503591505064010000000081111561088957600080fd5b82018360208201111561089b57600080fd5b803590602001918460018302840111640100000000831117156108bd57600080fd5b91908080601f01602080910402602001604051908101604052809392919081815260200183838082843760009201919091525092955061259c945050505050565b34801561090a57600080fd5b506101e76004803603602081101561092157600080fd5b503560ff166125b1565b34801561093757600080fd5b506101d061267e565b34801561094c57600080fd5b506101d06004803603602081101561096357600080fd5b5035612740565b34801561097657600080fd5b50610675612973565b34801561098b57600080fd5b506101d0612984565b3480156109a057600080fd5b506101d0600480360360208110156109b757600080fd5b8101906020810181356401000000008111156109d257600080fd5b8201836020820111156109e457600080fd5b80359060200191846001830284011164010000000083111715610a0657600080fd5b91908080601f016020809104026020016040519081016040528093929190818152602001838380828437600092019190915250929550612a46945050505050565b348015610a5357600080fd5b506101d060048036036020811015610a6a57600080fd5b5035612b11565b348015610a7d57600080fd5b506101d0612bce565b348015610a9257600080fd5b506101d060048036036020811015610aa957600080fd5b5035612c90565b348015610abc57600080fd5b506101d060048036036020811015610ad357600080fd5b5035612d55565b348015610ae657600080fd5b506101d0612e1a565b348015610afb57600080fd5b506101d060048036036020811015610b1257600080fd5b5035612fa1565b60105460ff16610b5d5760405160e560020a62461bcd028152600401808060200182810382526021815260200180615cd76021913960400191505060405180910390fd5b3380610b9d5760405160e560020a62461bcd028152600401808060200182810382526025815260200180615c3c6025913960400191505060405180910390fd5b601760009054906101000a9004600160a060020a0316600160a060020a031663420a83e76040518163ffffffff1660e060020a02815260040160206040518083038186803b158015610bee57600080fd5b505afa158015610c02573d6000803e3d6000fd5b505050506040513d6020811015610c1857600080fd5b5051600160a060020a0382811691161415610c675760405160e560020a62461bcd028152600401808060200182810382526030815260200180615dfe6030913960400191505060405180910390fd5b6017546040805160e060020a63e816d97f028152600160a060020a0384811660048301529151919092169163e816d97f916024808301926020929190829003018186803b158015610cb757600080fd5b505afa158015610ccb573d6000803e3d6000fd5b505050506040513d6020811015610ce157600080fd5b505115610d26576040805160e560020a62461bcd0281526020600482015260116024820152600080516020615c61833981519152604482015290519081900360640190fd5b600160055460ff166003811115610d3957fe5b14610d7c576040805160e560020a62461bcd02815260206004820152601a6024820152600080516020615e5d833981519152604482015290519081900360640190fd5b610d8e60053334306015546014613064565b610dff57336000818152600a602052604080822054905181156108fc0292818181858888f19350505050158015610dc9573d6000803e3d6000fd5b50336000818152600a602090815260409182902054825190815291513092600080516020615d2783398151915292908290030190a35b50565b60155481565b6017546040805160e260020a630935e01b0281523360048201529051600092600160a060020a0316916324d7806c916024808301926020929190829003018186803b158015610e5657600080fd5b505afa158015610e6a573d6000803e3d6000fd5b505050506040513d6020811015610e8057600080fd5b5051610ec05760405160e560020a62461bcd028152600401808060200182810382526025815260200180615b446025913960400191505060405180910390fd5b83600160a060020a038116610f095760405160e560020a62461bcd028152600401808060200182810382526025815260200180615c3c6025913960400191505060405180910390fd5b601760009054906101000a9004600160a060020a0316600160a060020a031663420a83e76040518163ffffffff1660e060020a02815260040160206040518083038186803b158015610f5a57600080fd5b505afa158015610f6e573d6000803e3d6000fd5b505050506040513d6020811015610f8457600080fd5b5051600160a060020a0382811691161415610fd35760405160e560020a62461bcd028152600401808060200182810382526030815260200180615dfe6030913960400191505060405180910390fd5b6017546040805160e060020a63e816d97f028152600160a060020a0384811660048301529151919092169163e816d97f916024808301926020929190829003018186803b15801561102357600080fd5b505afa158015611037573d6000803e3d6000fd5b505050506040513d602081101561104d57600080fd5b505115611092576040805160e560020a62461bcd0281526020600482015260116024820152600080516020615c61833981519152604482015290519081900360640190fd5b600160055460ff1660038111156110a557fe5b146110e8576040805160e560020a62461bcd02815260206004820152601a6024820152600080516020615e5d833981519152604482015290519081900360640190fd5b6017546040517f697d60b00000000000000000000000000000000000000000000000000000000081526020600482018181528751602484015287518894600160a060020a03169363697d60b09386939283926044019185019080838360005b8381101561115f578181015183820152602001611147565b50505050905090810190601f16801561118c5780820380516001836020036101000a031916815260200191505b509250505060206040518083038186803b1580156111a957600080fd5b505afa1580156111bd573d6000803e3d6000fd5b505050506040513d60208110156111d357600080fd5b5051611229576040805160e560020a62461bcd02815260206004820152601860248201527f50726f7669646520612076616c69642063757272656e63790000000000000000604482015290519081900360640190fd5b6017546040517f02888d06000000000000000000000000000000000000000000000000000000008152602060048201818152885160248401528851600094859461132b94600594600160a060020a03909316936302888d06938e9390928392604490920191908501908083838d5b838110156112af578181015183820152602001611297565b50505050905090810190601f1680156112dc5780820380516001836020036101000a031916815260200191505b509250505060206040518083038186803b1580156112f957600080fd5b505afa15801561130d573d6000803e3d6000fd5b505050506040513d602081101561132357600080fd5b505188613445565b909250905081156113725760165460175461135a91600160a060020a0391821691168a8563ffffffff61357116565b506113676005838a613622565b611372600583613671565b9350505b50509392505050565b6017546040805160e260020a630935e01b0281523360048201529051600160a060020a03909216916324d7806c91602480820192602092909190829003018186803b1580156113cd57600080fd5b505afa1580156113e1573d6000803e3d6000fd5b505050506040513d60208110156113f757600080fd5b50516114375760405160e560020a62461bcd028152600401808060200182810382526025815260200180615b446025913960400191505060405180910390fd5b601754604080517f420a83e70000000000000000000000000000000000000000000000000000000081529051611546926005926011928692600160a060020a0316916370a0823191839163420a83e7916004808301926020929190829003018186803b1580156114a657600080fd5b505afa1580156114ba573d6000803e3d6000fd5b505050506040513d60208110156114d057600080fd5b50516040805160e060020a63ffffffff8516028152600160a060020a039092166004830152516024808301926020929190829003018186803b15801561151557600080fd5b505afa158015611529573d6000803e3d6000fd5b505050506040513d602081101561153f57600080fd5b50516136ac565b60135460175461156791600160a060020a039091169063ffffffff6137aa16565b5050565b6017546040805160e160020a6317aa5fb70281523360048201529051600160a060020a0390921691632f54bf6e91602480820192602092909190829003018186803b1580156115b957600080fd5b505afa1580156115cd573d6000803e3d6000fd5b505050506040513d60208110156115e357600080fd5b50516116235760405160e560020a62461bcd028152600401808060200182810382526025815260200180615ab46025913960400191505060405180910390fd5b601754604080517f420a83e70000000000000000000000000000000000000000000000000000000081529051611546926011928592600160a060020a03909216916370a0823191839163420a83e791600480820192602092909190829003018186803b15801561169257600080fd5b505afa1580156116a6573d6000803e3d6000fd5b505050506040513d60208110156116bc57600080fd5b50516040805160e060020a63ffffffff8516028152600160a060020a039092166004830152516024808301926020929190829003018186803b15801561170157600080fd5b505afa158015611715573d6000803e3d6000fd5b505050506040513d602081101561172b57600080fd5b5051613830565b61173a6138ad565b600160a060020a031633600160a060020a0316146117a2576040805160e560020a62461bcd02815260206004820152601d60248201527f4d7573742062652063616c6c6564206f6e6c79206279204f7261636c65000000604482015290519081900360640190fd5b6115678282613a9f565b5050600080805260036020527f3617319a054d772f909f7c479a2cebe5066e836a939412e32403c99029b92eff5550565b60175474010000000000000000000000000000000000000000900460ff1615611850576040805160e560020a62461bcd02815260206004820152601360248201527f416c726561647920696e697469616c697a656400000000000000000000000000604482015290519081900360640190fd5b61186281600160a060020a0316613b23565b6118b6576040805160e560020a62461bcd02815260206004820181905260248201527f41646472657373206d75737420626520636f6e74726163742061646472657373604482015290519081900360640190fd5b60178054600160a060020a03808416600160a060020a031992831681179384905560168054909316179091556a51e410c0f93fe5430000006011556a31a17e847807b1bc0000006012556a77f0f1c0221298310000006013819055604080517fe1e86c3600000000000000000000000000000000000000000000000000000000815260048101929092525184939092169163e1e86c36916024808201926020929091908290030181600087803b15801561196f57600080fd5b505af1158015611983573d6000803e3d6000fd5b505050506040513d602081101561199957600080fd5b506119a8905060056011613b2f565b5050662386f26fc100006015556017805474ff0000000000000000000000000000000000000000191674010000000000000000000000000000000000000000179055565b60105460ff165b90565b6017546040805160e260020a630935e01b0281523360048201529051600160a060020a03909216916324d7806c91602480820192602092909190829003018186803b158015611a4457600080fd5b505afa158015611a58573d6000803e3d6000fd5b505050506040513d6020811015611a6e57600080fd5b5051611aae5760405160e560020a62461bcd028152600401808060200182810382526025815260200180615b446025913960400191505060405180910390fd5b610dff6005601183613b63565b6017546040805160e260020a630935e01b0281523360048201529051600092600160a060020a0316916324d7806c916024808301926020929190829003018186803b158015611b0957600080fd5b505afa158015611b1d573d6000803e3d6000fd5b505050506040513d6020811015611b3357600080fd5b5051611b735760405160e560020a62461bcd028152600401808060200182810382526025815260200180615b446025913960400191505060405180910390fd5b83600160a060020a038116611bbc5760405160e560020a62461bcd028152600401808060200182810382526025815260200180615c3c6025913960400191505060405180910390fd5b601760009054906101000a9004600160a060020a0316600160a060020a031663420a83e76040518163ffffffff1660e060020a02815260040160206040518083038186803b158015611c0d57600080fd5b505afa158015611c21573d6000803e3d6000fd5b505050506040513d6020811015611c3757600080fd5b5051600160a060020a0382811691161415611c865760405160e560020a62461bcd028152600401808060200182810382526030815260200180615dfe6030913960400191505060405180910390fd5b6017546040805160e060020a63e816d97f028152600160a060020a0384811660048301529151919092169163e816d97f916024808301926020929190829003018186803b158015611cd657600080fd5b505afa158015611cea573d6000803e3d6000fd5b505050506040513d6020811015611d0057600080fd5b505115611d45576040805160e560020a62461bcd0281526020600482015260116024820152600080516020615c61833981519152604482015290519081900360640190fd5b600160055460ff166003811115611d5857fe5b14611d9b576040805160e560020a62461bcd02815260206004820152601a6024820152600080516020615e5d833981519152604482015290519081900360640190fd5b6017546040517f697d60b00000000000000000000000000000000000000000000000000000000081526020600482018181528751602484015287518894600160a060020a03169363697d60b09386939283926044019185019080838360005b83811015611e12578181015183820152602001611dfa565b50505050905090810190601f168015611e3f5780820380516001836020036101000a031916815260200191505b509250505060206040518083038186803b158015611e5c57600080fd5b505afa158015611e70573d6000803e3d6000fd5b505050506040513d6020811015611e8657600080fd5b5051611edc576040805160e560020a62461bcd02815260206004820152601860248201527f50726f7669646520612076616c69642063757272656e63790000000000000000604482015290519081900360640190fd5b6017546040517f02888d06000000000000000000000000000000000000000000000000000000008152602060048201818152885160248401528851611fd194600160a060020a0316936302888d06938b939283926044019185019080838360005b83811015611f55578181015183820152602001611f3d565b50505050905090810190601f168015611f825780820380516001836020036101000a031916815260200191505b509250505060206040518083038186803b158015611f9f57600080fd5b505afa158015611fb3573d6000803e3d6000fd5b505050506040513d6020811015611fc957600080fd5b505185613c64565b9695505050505050565b6014805460408051602060026001851615610100026000190190941693909304601f810184900484028201840190925281815292918301828280156120615780601f1061203657610100808354040283529160200191612061565b820191906000526020600020905b81548152906001019060200180831161204457829003601f168201915b505050505081565b6017546040805160e260020a630935e01b0281523360048201529051600092600160a060020a0316916324d7806c916024808301926020929190829003018186803b1580156120b757600080fd5b505afa1580156120cb573d6000803e3d6000fd5b505050506040513d60208110156120e157600080fd5b50516121215760405160e560020a62461bcd028152600401808060200182810382526025815260200180615b446025913960400191505060405180910390fd5b83600160a060020a03811661216a5760405160e560020a62461bcd028152600401808060200182810382526025815260200180615c3c6025913960400191505060405180910390fd5b601760009054906101000a9004600160a060020a0316600160a060020a031663420a83e76040518163ffffffff1660e060020a02815260040160206040518083038186803b1580156121bb57600080fd5b505afa1580156121cf573d6000803e3d6000fd5b505050506040513d60208110156121e557600080fd5b5051600160a060020a03828116911614156122345760405160e560020a62461bcd028152600401808060200182810382526030815260200180615dfe6030913960400191505060405180910390fd5b6017546040805160e060020a63e816d97f028152600160a060020a0384811660048301529151919092169163e816d97f916024808301926020929190829003018186803b15801561228457600080fd5b505afa158015612298573d6000803e3d6000fd5b505050506040513d60208110156122ae57600080fd5b5051156122f3576040805160e560020a62461bcd0281526020600482015260116024820152600080516020615c61833981519152604482015290519081900360640190fd5b600160055460ff16600381111561230657fe5b14612349576040805160e560020a62461bcd02815260206004820152601a6024820152600080516020615e5d833981519152604482015290519081900360640190fd5b6017546040517f697d60b00000000000000000000000000000000000000000000000000000000081526020600482018181528751602484015287518894600160a060020a03169363697d60b09386939283926044019185019080838360005b838110156123c05781810151838201526020016123a8565b50505050905090810190601f1680156123ed5780820380516001836020036101000a031916815260200191505b509250505060206040518083038186803b15801561240a57600080fd5b505afa15801561241e573d6000803e3d6000fd5b505050506040513d602081101561243457600080fd5b505161248a576040805160e560020a62461bcd02815260206004820152601860248201527f50726f7669646520612076616c69642063757272656e63790000000000000000604482015290519081900360640190fd5b61249660058786613cc3565b15611376576016546017546124c091600160a060020a03918216918991168763ffffffff61357116565b506124cd60058588613d6d565b611376600585613d98565b6017546040805160e160020a6317aa5fb70281523360048201529051600160a060020a0390921691632f54bf6e91602480820192602092909190829003018186803b15801561252657600080fd5b505afa15801561253a573d6000803e3d6000fd5b505050506040513d602081101561255057600080fd5b50516125905760405160e560020a62461bcd028152600401808060200182810382526025815260200180615ab46025913960400191505060405180910390fd5b61259a6005613dc7565b565b60006125a88383613dd7565b90505b92915050565b6017546040805160e260020a630935e01b0281523360048201529051600092600160a060020a0316916324d7806c916024808301926020929190829003018186803b1580156125ff57600080fd5b505afa158015612613573d6000803e3d6000fd5b505050506040513d602081101561262957600080fd5b50516126695760405160e560020a62461bcd028152600401808060200182810382526025815260200180615b446025913960400191505060405180910390fd5b61267660056011846141cd565b90505b919050565b6017546040805160e160020a6317aa5fb70281523360048201529051600160a060020a0390921691632f54bf6e91602480820192602092909190829003018186803b1580156126cc57600080fd5b505afa1580156126e0573d6000803e3d6000fd5b505050506040513d60208110156126f657600080fd5b50516127365760405160e560020a62461bcd028152600401808060200182810382526025815260200180615ab46025913960400191505060405180910390fd5b61259a6005614233565b33806127805760405160e560020a62461bcd028152600401808060200182810382526025815260200180615c3c6025913960400191505060405180910390fd5b601760009054906101000a9004600160a060020a0316600160a060020a031663420a83e76040518163ffffffff1660e060020a02815260040160206040518083038186803b1580156127d157600080fd5b505afa1580156127e5573d6000803e3d6000fd5b505050506040513d60208110156127fb57600080fd5b5051600160a060020a038281169116141561284a5760405160e560020a62461bcd028152600401808060200182810382526030815260200180615dfe6030913960400191505060405180910390fd5b6017546040805160e060020a63e816d97f028152600160a060020a0384811660048301529151919092169163e816d97f916024808301926020929190829003018186803b15801561289a57600080fd5b505afa1580156128ae573d6000803e3d6000fd5b505050506040513d60208110156128c457600080fd5b505115612909576040805160e560020a62461bcd0281526020600482015260116024820152600080516020615c61833981519152604482015290519081900360640190fd5b600160055460ff16600381111561291c57fe5b1461295f576040805160e560020a62461bcd02815260206004820152601a6024820152600080516020615e5d833981519152604482015290519081900360640190fd5b61296e600533843060146142ad565b505050565b606061297f6005614620565b905090565b6017546040805160e160020a6317aa5fb70281523360048201529051600160a060020a0390921691632f54bf6e91602480820192602092909190829003018186803b1580156129d257600080fd5b505afa1580156129e6573d6000803e3d6000fd5b505050506040513d60208110156129fc57600080fd5b5051612a3c5760405160e560020a62461bcd028152600401808060200182810382526025815260200180615ab46025913960400191505060405180910390fd5b61259a6005614752565b6017546040805160e260020a630935e01b0281523360048201529051600160a060020a03909216916324d7806c91602480820192602092909190829003018186803b158015612a9457600080fd5b505afa158015612aa8573d6000803e3d6000fd5b505050506040513d6020811015612abe57600080fd5b5051612afe5760405160e560020a62461bcd028152600401808060200182810382526025815260200180615b446025913960400191505060405180910390fd5b80516115679060149060208401906159f0565b6017546040805160e260020a630935e01b0281523360048201529051600160a060020a03909216916324d7806c91602480820192602092909190829003018186803b158015612b5f57600080fd5b505afa158015612b73573d6000803e3d6000fd5b505050506040513d6020811015612b8957600080fd5b5051612bc95760405160e560020a62461bcd028152600401808060200182810382526025815260200180615b446025913960400191505060405180910390fd5b601555565b6017546040805160e160020a6317aa5fb70281523360048201529051600160a060020a0390921691632f54bf6e91602480820192602092909190829003018186803b158015612c1c57600080fd5b505afa158015612c30573d6000803e3d6000fd5b505050506040513d6020811015612c4657600080fd5b5051612c865760405160e560020a62461bcd028152600401808060200182810382526025815260200180615ab46025913960400191505060405180910390fd5b61259a60056147cf565b6017546040805160e260020a630935e01b0281523360048201529051600160a060020a03909216916324d7806c91602480820192602092909190829003018186803b158015612cde57600080fd5b505afa158015612cf2573d6000803e3d6000fd5b505050506040513d6020811015612d0857600080fd5b5051612d485760405160e560020a62461bcd028152600401808060200182810382526025815260200180615b446025913960400191505060405180910390fd5b610dff6005601183614849565b6017546040805160e260020a630935e01b0281523360048201529051600160a060020a03909216916324d7806c91602480820192602092909190829003018186803b158015612da357600080fd5b505afa158015612db7573d6000803e3d6000fd5b505050506040513d6020811015612dcd57600080fd5b5051612e0d5760405160e560020a62461bcd028152600401808060200182810382526025815260200180615b446025913960400191505060405180910390fd5b611546600560118361493a565b6017546040805160e160020a6317aa5fb70281523360048201529051600160a060020a0390921691632f54bf6e91602480820192602092909190829003018186803b158015612e6857600080fd5b505afa158015612e7c573d6000803e3d6000fd5b505050506040513d6020811015612e9257600080fd5b5051612ed25760405160e560020a62461bcd028152600401808060200182810382526025815260200180615ab46025913960400191505060405180910390fd5b612ede60056011614a38565b601754604080517f420a83e70000000000000000000000000000000000000000000000000000000081529051600092600160a060020a03169163420a83e7916004808301926020929190829003018186803b158015612f3c57600080fd5b505afa158015612f50573d6000803e3d6000fd5b505050506040513d6020811015612f6657600080fd5b5051604051909150600160a060020a03821690303180156108fc02916000818181858888f19350505050158015611567573d6000803e3d6000fd5b6017546040805160e260020a630935e01b0281523360048201529051600160a060020a03909216916324d7806c91602480820192602092909190829003018186803b158015612fef57600080fd5b505afa158015613003573d6000803e3d6000fd5b505050506040513d602081101561301957600080fd5b50516130595760405160e560020a62461bcd028152600401808060200182810382526025815260200180615b446025913960400191505060405180910390fd5b611546601182614ad3565b6000600160a060020a0386166130c4576040805160e560020a62461bcd02815260206004820181905260248201527f4163636f756e742061646472657373206d757374206e6f74206265206e756c6c604482015290519081900360640190fd5b828511836040516020018080615e7d60299139602901828152602001807f2900000000000000000000000000000000000000000000000000000000000000815250600101915050604051602081830303815290604052906131a65760405160e560020a62461bcd0281526004018080602001828103825283818151815260200191508051906020019080838360005b8381101561316b578181015183820152602001613153565b50505050905090810190601f1680156131985780820380516001836020036101000a031916815260200191505b509250505060405180910390fd5b506000876003015411613203576040805160e560020a62461bcd02815260206004820152601d60248201527f5468657265206d757374206861766520746f6b656e7320746f20627579000000604482015290519081900360640190fd5b600160a060020a03861660009081526005880160205260409020541561322b57506000611fd1565b600084600160a060020a03166381ade3078460405160200180807f6a736f6e28000000000000000000000000000000000000000000000000000000815250600501828054600181600116156101000203166002900480156132c35780601f106132a15761010080835404028352918201916132c3565b820191906000526020600020905b8154815290600101906020018083116132af575b50507f292e7072696365000000000000000000000000000000000000000000000000008152604080516018198184030181526007830180835260e060020a63ffffffff8816029052600b83019182526003604b8401527f55524c0000000000000000000000000000000000000000000000000000000000606b8401526080602b84019081528151608b8501528151919550919350839260ab0190602086019080838360005b83811015613380578181015183820152602001613368565b50505050905090810190601f1680156133ad5780820380516001836020036101000a031916815260200191505b509350505050602060405180830381600087803b1580156133cd57600080fd5b505af11580156133e1573d6000803e3d6000fd5b505050506040513d60208110156133f757600080fd5b5051600090815260078901602090815260408083208054600160a060020a031916600160a060020a038c16908117909155835260058b01909152902086905550600190509695505050505050565b6000806000831161348a5760405160e560020a62461bcd028152600401808060200182810382526025815260200180615b696025913960400191505060405180910390fd5b60008560030154116134e6576040805160e560020a62461bcd02815260206004820181905260248201527f546865726520617265206e6f206d6f726520746f6b656e7320746f2073656c6c604482015290519081900360640190fd5b83836000613512670de0b6b3a7640000613506848663ffffffff614b5316565b9063ffffffff614baf16565b90506000809050818960030154101561356357600389015460006135488661350684670de0b6b3a764000063ffffffff614b5316565b905061355a858263ffffffff614c1c16565b90945090925090505b909890975095505050505050565b604080517f1f9714f0000000000000000000000000000000000000000000000000000000008152600160a060020a0385811660048301528481166024830152604482018490529151600092871691631f9714f091606480830192602092919082900301818787803b1580156135e557600080fd5b505af11580156135f9573d6000803e3d6000fd5b505050506040513d602081101561360f57600080fd5b505161361757fe5b506001949350505050565b600160a060020a038116600090815260098401602052604090205461364d908363ffffffff614c7c16565b600160a060020a039091166000908152600990930160205260409092209190915550565b6004820154613686908263ffffffff614c7c16565b600483015560038201546136a0908263ffffffff614c1c16565b82600301819055505050565b6000845460ff1660038111156136be57fe5b14806136d957506002845460ff1660038111156136d757fe5b145b6137175760405160e560020a62461bcd028152600401808060200182810382526026815260200180615d476026913960400191505060405180910390fd5b808211156137595760405160e560020a62461bcd028152600401808060200182810382526048815260200180615bf46048913960600191505060405180910390fd5b825461376b908363ffffffff614c7c16565b83556003840154613782908363ffffffff614c7c16565b6003850155600283015461379c908363ffffffff614c1c16565b836002018190555050505050565b600082600160a060020a031663e1e86c36836040518263ffffffff1660e060020a02815260040180828152602001915050602060405180830381600087803b1580156137f557600080fd5b505af1158015613809573d6000803e3d6000fd5b505050506040513d602081101561381f57600080fd5b505161382757fe5b50600192915050565b8082106138715760405160e560020a62461bcd028152600401808060200182810382526035815260200180615ca26035913960400191505060405180910390fd5b6001830154613886908363ffffffff614c7c16565b600184015560028301546138a0908363ffffffff614c1c16565b8360020181905550505050565b600154600090600160a060020a031615806138da57506001546138d890600160a060020a0316614cd9565b155b156138eb576138e96000614cdd565b505b600160009054906101000a9004600160a060020a0316600160a060020a03166338cc48316040518163ffffffff1660e060020a028152600401602060405180830381600087803b15801561393e57600080fd5b505af1158015613952573d6000803e3d6000fd5b505050506040513d602081101561396857600080fd5b5051600054600160a060020a03908116911614613a1e57600160009054906101000a9004600160a060020a0316600160a060020a03166338cc48316040518163ffffffff1660e060020a028152600401602060405180830381600087803b1580156139d257600080fd5b505af11580156139e6573d6000803e3d6000fd5b505050506040513d60208110156139fc57600080fd5b505160008054600160a060020a031916600160a060020a039092169190911790555b6000809054906101000a9004600160a060020a0316600160a060020a031663c281d19e6040518163ffffffff1660e060020a02815260040160206040518083038186803b158015613a6e57600080fd5b505afa158015613a82573d6000803e3d6000fd5b505050506040513d6020811015613a9857600080fd5b5051905090565b600080613aab83614ce7565b6000868152600c60205260409020549193509150600160a060020a031615613ae957613ae48482613adc5783613adf565b60005b614e34565b613b1d565b6000848152600d6020526040902054600160a060020a031615613b1d57613b1d8482613b155783613b18565b60005b614fcc565b50505050565b3b63ffffffff16151590565b815460ff19908116835560006001840181905560028401819055600b84018054909216909155600483015554600390910155565b6000835460ff166003811115613b7557fe5b1480613b9057506002835460ff166003811115613b8e57fe5b145b613bce5760405160e560020a62461bcd028152600401808060200182810382526026815260200180615d476026913960400191505060405180910390fd5b8160010154811115613c145760405160e560020a62461bcd028152600401808060200182810382526035815260200180615ad96035913960400191505060405180910390fd5b8154613c26908263ffffffff614c7c16565b82556003830154613c3d908263ffffffff614c7c16565b60038401556001820154613c57908263ffffffff614c1c16565b8260010181905550505050565b6000808211613ca75760405160e560020a62461bcd028152600401808060200182810382526026815260200180615d6d6026913960400191505060405180910390fd5b6125a88361350684670de0b6b3a764000063ffffffff614b5316565b6000808211613d065760405160e560020a62461bcd028152600401808060200182810382526026815260200180615d6d6026913960400191505060405180910390fd5b600160a060020a0383166000908152600985016020526040902054821115613d625760405160e560020a62461bcd028152600401808060200182810382526036815260200180615b0e6036913960400191505060405180910390fd5b5060015b9392505050565b600160a060020a038116600090815260098401602052604090205461364d908363ffffffff614c1c16565b6004820154613dad908263ffffffff614c1c16565b600483015560038201546136a0908263ffffffff614c7c16565b600b01805460ff19166001179055565b600154600090600160a060020a03161580613e045750600154613e0290600160a060020a0316614cd9565b155b15613e1557613e136000614cdd565b505b600160009054906101000a9004600160a060020a0316600160a060020a03166338cc48316040518163ffffffff1660e060020a028152600401602060405180830381600087803b158015613e6857600080fd5b505af1158015613e7c573d6000803e3d6000fd5b505050506040513d6020811015613e9257600080fd5b5051600054600160a060020a03908116911614613f4857600160009054906101000a9004600160a060020a0316600160a060020a03166338cc48316040518163ffffffff1660e060020a028152600401602060405180830381600087803b158015613efc57600080fd5b505af1158015613f10573d6000803e3d6000fd5b505050506040513d6020811015613f2657600080fd5b505160008054600160a060020a031916600160a060020a039092169190911790555b600080546040517f524f3889000000000000000000000000000000000000000000000000000000008152602060048201818152875160248401528751600160a060020a039094169363524f38899389938392604490920191908501908083838b5b83811015613fc1578181015183820152602001613fa9565b50505050905090810190601f168015613fee5780820380516001836020036101000a031916815260200191505b5092505050602060405180830381600087803b15801561400d57600080fd5b505af1158015614021573d6000803e3d6000fd5b505050506040513d602081101561403757600080fd5b50519050670de0b6b3a764000062030d403a020181111561405c5750600090506125ab565b600080546040517fadf59f9900000000000000000000000000000000000000000000000000000000815260048101838152606060248301908152885160648401528851600160a060020a039094169463adf59f9994879491938b938b9391929091604481019160849091019060208701908083838b5b838110156140ea5781810151838201526020016140d2565b50505050905090810190601f1680156141175780820380516001836020036101000a031916815260200191505b50838103825284518152845160209182019186019080838360005b8381101561414a578181015183820152602001614132565b50505050905090810190601f1680156141775780820380516001836020036101000a031916815260200191505b50955050505050506020604051808303818588803b15801561419857600080fd5b505af11580156141ac573d6000803e3d6000fd5b50505050506040513d60208110156141c357600080fd5b5051949350505050565b60008160ff16600a14156141e357508154613d66565b8160ff16600b14156141fa57506003830154613d66565b8160ff16600c141561421157506004830154613d66565b8160ff166014141561422857506001820154613d66565b506002820154613d66565b6000815460ff16600381111561424557fe5b1461429a576040805160e560020a62461bcd02815260206004820152601c60248201527f49434f204d75737420626520696e2070656e64696e6720737461746500000000604482015290519081900360640190fd5b805460ff19166001908117825543910155565b60008084116142f05760405160e560020a62461bcd028152600401808060200182810382526026815260200180615d6d6026913960400191505060405180910390fd5b600160a060020a03851661434e576040805160e560020a62461bcd02815260206004820181905260248201527f4163636f756e742061646472657373206d757374206e6f74206265206e756c6c604482015290519081900360640190fd5b600160a060020a03851660009081526009870160205260409020548411156143aa5760405160e560020a62461bcd02815260040180806020018281038252602f815260200180615cf8602f913960400191505060405180910390fd5b600160a060020a0385166000908152600a8701602052604090205460ff166144065760405160e560020a62461bcd02815260040180806020018281038252602b815260200180615a89602b913960400191505060405180910390fd5b600083600160a060020a03166381ade3078460405160200180807f6a736f6e280000000000000000000000000000000000000000000000000000008152506005018280546001816001161561010002031660029004801561449e5780601f1061447c57610100808354040283529182019161449e565b820191906000526020600020905b81548152906001019060200180831161448a575b50507f292e7072696365000000000000000000000000000000000000000000000000008152604080516018198184030181526007830180835260e060020a63ffffffff8816029052600b83019182526003604b8401527f55524c0000000000000000000000000000000000000000000000000000000000606b8401526080602b84019081528151608b8501528151919550919350839260ab0190602086019080838360005b8381101561455b578181015183820152602001614543565b50505050905090810190601f1680156145885780820380516001836020036101000a031916815260200191505b509350505050602060405180830381600087803b1580156145a857600080fd5b505af11580156145bc573d6000803e3d6000fd5b505050506040513d60208110156145d257600080fd5b5051600090815260088801602090815260408083208054600160a060020a038b16600160a060020a03199091168117909155835260068a019091529020859055506001905095945050505050565b60606001825460ff16600381111561463457fe5b1415614674575060408051808201909152600881527f4f4e20474f494e470000000000000000000000000000000000000000000000006020820152612679565b6002825460ff16600381111561468657fe5b14156146c6575060408051808201909152600681527f50415553454400000000000000000000000000000000000000000000000000006020820152612679565b6003825460ff1660038111156146d857fe5b1415614718575060408051808201909152600581527f454e4445440000000000000000000000000000000000000000000000000000006020820152612679565b5060408051808201909152600781527f50454e44494e47000000000000000000000000000000000000000000000000006020820152612679565b6002815460ff16600381111561476457fe5b146147b9576040805160e560020a62461bcd02815260206004820152601b60248201527f49434f204d75737420626520696e207061757365642073746174650000000000604482015290519081900360640190fd5b8054600190829060ff191682805b021790555050565b6001815460ff1660038111156147e157fe5b14614836576040805160e560020a62461bcd02815260206004820152601c60248201527f49434f204d75737420626520696e206f6e676f696e6720737461746500000000604482015290519081900360640190fd5b8054600290829060ff19166001836147c7565b6001835460ff16600381111561485b57fe5b14156148b1576040805160e560020a62461bcd02815260206004820181905260248201527f49434f206d757374206e6f7420626520696e206f6e676f696e67207374617465604482015290519081900360640190fd5b82600301548111156148f75760405160e560020a62461bcd028152600401808060200182810382526044815260200180615d936044913960600191505060405180910390fd5b600383015461490c908263ffffffff614c1c16565b60038401558154614923908263ffffffff614c1c16565b82556001820154613c57908263ffffffff614c7c16565b6001835460ff16600381111561494c57fe5b14156149a2576040805160e560020a62461bcd02815260206004820181905260248201527f49434f206d757374206e6f7420626520696e206f6e676f696e67207374617465604482015290519081900360640190fd5b82600301548111156149e85760405160e560020a62461bcd028152600401808060200182810382526044815260200180615d936044913960600191505060405180910390fd5b81546149fa908263ffffffff614c1c16565b82556003830154614a11908263ffffffff614c1c16565b60038401556002820154614a2b908263ffffffff614c7c16565b8260020181905550505050565b6002825460ff166003811115614a4a57fe5b1480614a6557506001825460ff166003811115614a6357fe5b145b614aa35760405160e560020a62461bcd028152600401808060200182810382526026815260200180615b8e6026913960400191505060405180910390fd5b815460ff1916600317825543600280840191909155600483015490820154614aca91614c7c565b60029091015550565b81600101548110614b185760405160e560020a62461bcd028152600401808060200182810382526035815260200180615ad96035913960400191505060405180910390fd5b6001820154614b2d908263ffffffff614c1c16565b60018301556002820154614b47908263ffffffff614c7c16565b82600201819055505050565b600082614b62575060006125ab565b82820282848281614b6f57fe5b04146125a85760405160e560020a62461bcd028152600401808060200182810382526021815260200180615c816021913960400191505060405180910390fd5b6000808211614c08576040805160e560020a62461bcd02815260206004820152601a60248201527f536166654d6174683a206469766973696f6e206279207a65726f000000000000604482015290519081900360640190fd5b6000828481614c1357fe5b04949350505050565b600082821115614c76576040805160e560020a62461bcd02815260206004820152601e60248201527f536166654d6174683a207375627472616374696f6e206f766572666c6f770000604482015290519081900360640190fd5b50900390565b6000828201838110156125a8576040805160e560020a62461bcd02815260206004820152601b60248201527f536166654d6174683a206164646974696f6e206f766572666c6f770000000000604482015290519081900360640190fd5b3b90565b600061267661518b565b60008080838180805b8351811015614e265783517f300000000000000000000000000000000000000000000000000000000000000090859083908110614d2957fe5b602001015160f860020a900460f860020a027effffffffffffffffffffffffffffffffffffffffffffffffffffffffffffff191610158015614dcd575083517f390000000000000000000000000000000000000000000000000000000000000090859083908110614d9657fe5b602001015160f860020a900460f860020a027effffffffffffffffffffffffffffffffffffffffffffffffffffffffffffff191611155b15614e19578291506030848281518110614de357fe5b602001015160f860020a900460f860020a0260f860020a90040360ff1683600a0201925082821115614e1457600194505b614e1e565b600194505b600101614cf0565b509094509192505050915091565b6000806000806000614e4b60056015548989615535565b9450945094509450945084614ec7576040518290600160a060020a0382169083156108fc029084906000818181858888f19350505050158015614e92573d6000803e3d6000fd5b50604080518381529051600160a060020a038516913091600080516020615d278339815191529181900360200190a350614fc3565b8315614f5457601654601754614ef191600160a060020a039182169116848763ffffffff61357116565b50614efe60058584613622565b614f09600583615784565b614f14600585613671565b604080518581529051600160a060020a038416917faa1bb4da4198d8c5efa7bcdc2fc44dfeeb0a5d47b34715a5ed476e7d283a9153919081900360200190a25b8215614fc3576040518290600160a060020a0382169085156108fc029086906000818181858888f19350505050158015614f92573d6000803e3d6000fd5b50604080518581529051600160a060020a038516913091600080516020615d278339815191529181900360200190a3505b50505050505050565b6000828152600c602090815260408083205460175482517f70a08231000000000000000000000000000000000000000000000000000000008152600160a060020a039283166004820181905293519395948594615082946005948b948b9491909216926370a08231926024808201939291829003018186803b15801561505157600080fd5b505afa158015615065573d6000803e3d6000fd5b505050506040513d602081101561507b57600080fd5b50516157ab565b90925090508115615115576016546017546150b291600160a060020a03918216918691168563ffffffff61357116565b506150bf60058385613d6d565b6150ca6005846159bd565b6150d5600583613d98565b604080518381529051600160a060020a038516917f220b7da382db73245ea37a58aa5dcb6d17791121d316f1463baef209a71ea65f919081900360200190a25b8015615184576040518390600160a060020a0382169083156108fc029084906000818181858888f19350505050158015615153573d6000803e3d6000fd5b50604080518381529051600160a060020a038616913091600080516020615d278339815191529181900360200190a3505b5050505050565b6000806151ab731d3b2638a7cc9f2cb3d298a3da7a90b67e5506ed614cd9565b111561521c5760018054600160a060020a031916731d3b2638a7cc9f2cb3d298a3da7a90b67e5506ed17905560408051808201909152600b81527f6574685f6d61696e6e65740000000000000000000000000000000000000000006020820152615214906159e1565b5060016119f3565b600061523b73c03a2615d5efaf5f49f60b7bb6583eaec212fdf1614cd9565b11156152a45760018054600160a060020a03191673c03a2615d5efaf5f49f60b7bb6583eaec212fdf117905560408051808201909152600c81527f6574685f726f707374656e3300000000000000000000000000000000000000006020820152615214906159e1565b60006152c373b7a07bcf2ba2f2703b24c0691b5278999c59ac7e614cd9565b111561532c5760018054600160a060020a03191673b7a07bcf2ba2f2703b24c0691b5278999c59ac7e17905560408051808201909152600981527f6574685f6b6f76616e00000000000000000000000000000000000000000000006020820152615214906159e1565b600061534b73146500cfd35b22e4a392fe0adc06de1a1368ed48614cd9565b11156153b45760018054600160a060020a03191673146500cfd35b22e4a392fe0adc06de1a1368ed4817905560408051808201909152600b81527f6574685f72696e6b6562790000000000000000000000000000000000000000006020820152615214906159e1565b60006153d373a2998efd205fb9d4b4963afb70778d6354ad3a41614cd9565b111561543c5760018054600160a060020a03191673a2998efd205fb9d4b4963afb70778d6354ad3a4117905560408051808201909152600a81527f6574685f676f65726c69000000000000000000000000000000000000000000006020820152615214906159e1565b600061545b736f485c8bf6fc43ea212e93bbf8ce046c7f1cb475614cd9565b111561548d575060018054600160a060020a031916736f485c8bf6fc43ea212e93bbf8ce046c7f1cb4751781556119f3565b60006154ac7320e12a1f859b3feae5fb2a0a32c18f5a65555bbf614cd9565b11156154de575060018054600160a060020a0319167320e12a1f859b3feae5fb2a0a32c18f5a65555bbf1781556119f3565b60006154fd7351efaf4c8b3c9afbd5ab9f4bbc82784ab6ef8faa614cd9565b111561552f575060018054600160a060020a0319167351efaf4c8b3c9afbd5ab9f4bbc82784ab6ef8faa1781556119f3565b50600090565b60008281526007850160205260408120548190819081908190600160a060020a03166155ab576040805160e560020a62461bcd02815260206004820152601560248201527f496e76616c6964206f7261636c65207265712069640000000000000000000000604482015290519081900360640190fd5b600087815260078a016020908152604080832054600160a060020a031680845260058d019092529091205489106156605780600160a060020a03167fa602069644371d061a386e5589a60c7f8e2d63e1d886b45a760242a6e4beb70060405180806020018281038252602f815260200180615e2e602f913960400191505060405180910390a2600160a060020a038116600090815260058b016020526040812054600197509095508594509092509050615779565b600160a060020a038116600090815260058b01602052604081205481906001908a61568e576000915061570c565b61569e818e63ffffffff614c1c16565b90506156bc670de0b6b3a7640000613506838e63ffffffff614b5316565b935060009250838e60030154101561570c5760038e015460006156f18d61350684670de0b6b3a764000063ffffffff614b5316565b9050615703838263ffffffff614c1c16565b91955090935090505b60008e600501600087600160a060020a0316600160a060020a03168152602001908152602001600020819055508d60070160008d815260200190815260200160002060006101000a815490600160a060020a03021916905581848487849950995099509950995050505050505b945094509450945094565b600160a060020a03166000908152600a90910160205260409020805460ff19166001179055565b6000838152600785016020908152604080832054600160a060020a03168084526006880190925282205482919061583e5780600160a060020a03167f23583bd4d0af8859fad7e849f8bf1aebf2018774e96ac58bc42ac36dad6dcba6604051808060200182810382526040815260200180615bb46040913960400191505060405180910390a250600091508190506159b4565b600080861561597457600160a060020a038316600090815260068a01602052604090205491506158808761350684670de0b6b3a764000063ffffffff614b5316565b600160a060020a0384166000908152600a8b01602052604090205490915060ff166158ff5782600160a060020a03167f23583bd4d0af8859fad7e849f8bf1aebf2018774e96ac58bc42ac36dad6dcba6604051808060200182810382526027815260200180615dd76027913960400191505060405180910390a2615974565b81861015615974576040805160208082526012908201527f556e73756666696369656e742066756e64730000000000000000000000000000818301529051600160a060020a038516917f23583bd4d0af8859fad7e849f8bf1aebf2018774e96ac58bc42ac36dad6dcba6919081900360600190a25b600160a060020a039092166000908152600689016020908152604080832083905589835260088b0190915290208054600160a060020a0319169055925090505b94509492505050565b600160a060020a03166000908152600a90910160205260409020805460ff19169055565b80516115679060029060208401905b828054600181600116156101000203166002900490600052602060002090601f016020900481019282601f10615a3157805160ff1916838001178555615a5e565b82800160010185558215615a5e579182015b82811115615a5e578251825591602001919060010190615a43565b50615a6a929150615a6e565b5090565b6119f391905b80821115615a6a5760008155600101615a7456fe4163636f756e74206d757374206861766520626f7567687420746f6b656e732077697468206574686572734f6e6c79204f776e65722063616e20706572666f726d2074686973206f7065726174696f6e416d6f756e7420746f2077697468647261772066726f6d2072657365727665206578636565647320726573657276652066756e6473546f6b656e73207175616e74697479206d757374206265206c657373207468616e207175616e74697479207573657220626f756768744f6e6c792041646d696e2063616e20706572666f726d2074686973206f7065726174696f6e416d6f756e74206f666665726564206d7573742062652067726561746572207468616e203049434f204d75737420626520696e206f6e676f696e67206f722070617573656420737461746555736572206d7573742068617665206265656e20696e697469616c697a65207468652049434f20726566756e6420746f6b656e73207472616e73616374696f6e416d6f756e7420746f2077697468647261772066726f6d2070726f6a6563747320746f6b656e7320657863656564732072656d61696e696e6720746f6b656e7320746f2073656c6c4163636f756e742061646472657373206d757374206e6f7420626520302d616464726573734163636f756e742069732066726f7a656e000000000000000000000000000000536166654d6174683a206d756c7469706c69636174696f6e206f766572666c6f77416d6f756e7420746f2077697468647261772066726f6d207265736572766520657863656564732070726f6a6563742066756e647342757920746f6b656e732077697468206574686572206e6f7420616c6c6f7765644163636f756e742068617665206e6f7420626f756768742074686973207175616e74697479206f6620746f6b656e73ddf252ad1be2c89b69c2b068fc378daa952ba7f163c4a11628f55a4df523b3ef49434f206d75737420626520696e2070656e64696e67206f7220706175736564207374617465546f6b656e73207175616e74697479206d7573742062652067726561746572207468616e2030416d6f756e7420746f2077697468647261772066726f6d2073656c6c20746f6b656e7320657863656564732072656d61696e696e6720746f6b656e7320746f2073656c6c427579657220646f6573206e6f7420626f7567687420746f6b656e7320776974682065746865724163636f756e742061646472657373206d757374206e6f7420626520746f6b656e20686f6c646572206163636f756e744275796572206d7573742068617665206265656e20696e697469616c697a6520627579207472616e73616374696f6e49434f204d757374206265206f6e676f696e672073746174757300000000000056616c7565206f666665726564206d7573742062652067726561746572207468616e20666565732028a165627a7a723058203eca2d4c6d9b174e351b31588b5405100132876e8f5d5406bb410b5e8fb6c2730029",
  "source": "pragma solidity >=0.4.10 <0.6.0;\r\n\r\nimport \"./KMXToken.sol\";\r\nimport \"./utils/AddressUtils.sol\";\r\nimport \"./utils/SafeMath.sol\";\r\nimport \"./utils/StringParser.sol\";\r\nimport \"./utils/Oracle.sol\";\r\nimport \"./KMXLibrary.sol\"; \r\n\r\nlibrary SafeKMXTokenForAdmin {\r\n    function safeIcoTransfer(KMXToken kmxToken, address from, address to, uint256 value) internal returns(bool) {\r\n        assert(kmxToken.icoTransfer(from, to, value));\r\n        return true;\r\n    }    \r\n    function safeSetTokenHolderBalance(KMXToken kmxToken, uint256 balance) internal returns(bool) {\r\n        assert(kmxToken.setTokenHolderBalance(balance));\r\n        return true;\r\n    }   \r\n}\r\n\r\ncontract KMXAdminCenter is Oracle {\r\n    event Transfer(address indexed from, address indexed to, uint256 value);\r\n    event ICOTokenBought(address indexed buyer, uint256 value);\r\n    event ICOTokenRefunded(address indexed refunder, uint256 value); \r\n\r\n    KMXLibrary.ICOParams internal _icoParams;\r\n    KMXLibrary.KMXTokenParts _kmxTokenParts;\r\n\r\n    string public _tknEtherPriceOracleUrl;\r\n    uint256 public _buyRefundWithEtherFees;\r\n\r\n    address internal _kmxTokenAddress;\r\n    KMXToken internal _kmxToken;\r\n\r\n    uint256 internal constant DECIMALS = 10**18;\r\n\r\n    bool private initialized = false;\r\n\r\n    using AddressUtils for address;\r\n    using SafeMath for uint256;\r\n    using StringParser for string;\r\n    using SafeKMXTokenForAdmin for KMXToken;\r\n\r\n    modifier onlyAdmin() {\r\n        require(_kmxToken.isAdmin(msg.sender), \"Only Admin can perform this operation\");\r\n        _;\r\n    }\r\n\r\n    modifier onlyOwner() {\r\n        require(_kmxToken.isOwner(msg.sender), \"Only Owner can perform this operation\");\r\n        _;\r\n    }\r\n\r\n    constructor() public payable {\r\n\r\n    }\r\n\r\n    function initAdminCenter(address _address) public {\r\n        require(!initialized, \"Already initialized\");\r\n        require(_address.isContractAddress(), \"Address must be contract address\");\r\n        address payable _payableAddress = address(uint160(_address));\r\n        _kmxToken = KMXToken(_payableAddress);\r\n        _kmxTokenAddress = _address;\r\n\r\n        _kmxTokenParts._tokensToSell = 99000000 * DECIMALS; //100 m\r\n        _kmxTokenParts._reserveTokens = 60000000 * DECIMALS;\r\n        _kmxTokenParts._circulatingTokens = 145000000 * DECIMALS; //144 m\r\n        _kmxToken.setTokenHolderBalance(_kmxTokenParts._circulatingTokens);\r\n\r\n        KMXLibrary.init(_icoParams, _kmxTokenParts);\r\n\r\n        _buyRefundWithEtherFees = 10 * 10 ** 15;\r\n\r\n        initialized = true;\r\n    }\r\n\r\n    modifier validateBuyRefICO(address _account) {\r\n        require(_account != address(0), \"Account address must not be 0-address\");\r\n        require(_account != _kmxToken.tokenHolder(), \"Account address must not be token holder account\");\r\n        require(!_kmxToken.isAccountFrozen(_account), \"Account is frozen\");\r\n        require(_icoParams._icoState == KMXLibrary.ICOState.ICO_ONGOING, \"ICO Must be ongoing status\");\r\n        _;\r\n    }\r\n\r\n    modifier validCurrency(string memory _currency) {\r\n        require(_kmxToken.validCurrency(_currency), \"Provide a valid currency\");\r\n        _;\r\n    }\r\n\r\n    modifier acceptEther() {\r\n        require(_icoParams._buyWithEther, \"Buy tokens with ether not allowed\");\r\n        _;\r\n    }\r\n\r\n    function enableBuyWithEther() public onlyOwner {\r\n        KMXLibrary.enableBuyWithEther(_icoParams);\r\n    }\r\n\r\n    function disableBuyWithEther() public onlyOwner {\r\n        KMXLibrary.enableBuyWithEther(_icoParams);\r\n    }\r\n\r\n    function isEtherAccepted() public view returns(bool) {\r\n        return _icoParams._buyWithEther;\r\n    }\r\n\r\n    function startIco() public onlyOwner {\r\n        KMXLibrary.startICO(_icoParams);\r\n    }\r\n\r\n    function pauseIco() public onlyOwner {\r\n        KMXLibrary.pauseICO(_icoParams);\r\n    }\r\n\r\n    function continueIco() public onlyOwner {\r\n        KMXLibrary.continueICO(_icoParams);\r\n    }\r\n\r\n    function endIco() public onlyOwner {\r\n        KMXLibrary.endICO(_icoParams, _kmxTokenParts);\r\n        address payable _payableTknHolder = address(uint160(_kmxToken.tokenHolder()));\r\n        _payableTknHolder.transfer(address(this).balance);\r\n    }\r\n\r\n    function statusIco() public view returns(string memory) {\r\n        return KMXLibrary.statusICO(_icoParams);\r\n    }\r\n\r\n    function tokens(uint8 part) public view onlyAdmin returns(uint256) {\r\n        return KMXLibrary.tokensPart(_icoParams, _kmxTokenParts, part);\r\n    }\r\n\r\n    function reserveToSell(uint256 _amount) public onlyAdmin {\r\n        KMXLibrary.reserveToSell(_icoParams, _kmxTokenParts, _amount);\r\n    }\r\n\r\n    function sellToReserve(uint256 _amount) public onlyAdmin {\r\n        KMXLibrary.sellToReserve(_icoParams, _kmxTokenParts, _amount);\r\n    }\r\n\r\n    function sellToCirculation(uint256 _amount) public onlyAdmin {\r\n        KMXLibrary.sellToCirculation(_icoParams, _kmxTokenParts, _amount);\r\n        _kmxToken.safeSetTokenHolderBalance(_kmxTokenParts._circulatingTokens);\r\n    }\r\n\r\n    function circulationToSell(uint256 _amount) public onlyAdmin {\r\n        KMXLibrary.circulationToSell(_icoParams, _kmxTokenParts, _amount, _kmxToken.balanceOf(_kmxToken.tokenHolder()));\r\n        _kmxToken.safeSetTokenHolderBalance(_kmxTokenParts._circulatingTokens);\r\n    }\r\n\r\n    function reserveToCirculation(uint256 _amount) public onlyAdmin {\r\n        KMXLibrary.reserveToCirculation(_kmxTokenParts, _amount);\r\n        _kmxToken.safeSetTokenHolderBalance(_kmxTokenParts._circulatingTokens);\r\n    }\r\n\r\n    function circulationToReserve(uint256 _amount) public onlyOwner {\r\n        KMXLibrary.circulationToReserve(_kmxTokenParts, _amount, _kmxToken.balanceOf(_kmxToken.tokenHolder()));\r\n        _kmxToken.safeSetTokenHolderBalance(_kmxTokenParts._circulatingTokens);\r\n    }\r\n\r\n    function changeTokenEthPriceOracleUrl(string memory newUrl) public onlyAdmin {\r\n        _tknEtherPriceOracleUrl = newUrl;\r\n    }\r\n\r\n    function changeBuyRefundWithEtherFees(uint256 _newEthFees) public onlyAdmin {\r\n        _buyRefundWithEtherFees = _newEthFees;\r\n    }\r\n\r\n    function buyICOTokensForAccount(address _account, string memory _currency, uint256 _amount) public \r\n    onlyAdmin validateBuyRefICO(_account) validCurrency(_currency) returns(uint256) {\r\n        (uint256 tknQty, uint256 rfd) = KMXLibrary.buyICOTokensForAccount(_icoParams, _kmxToken.tokenPrice(_currency), _amount);\r\n        if (tknQty > 0) {\r\n            _kmxToken.safeIcoTransfer(_kmxTokenAddress, _account, tknQty);\r\n            KMXLibrary.notifyTokensBought(_icoParams, tknQty, _account);\r\n            KMXLibrary.increaseTokensSold(_icoParams, tknQty);\r\n        }\r\n        return rfd;\r\n    }\r\n\r\n    function refundICOAmount(address _account, string memory _currency, uint256 _tokenQuantity) public view\r\n    onlyAdmin validateBuyRefICO(_account) validCurrency(_currency) returns(uint256) {\r\n        return KMXLibrary.refundICOAmount(_kmxToken.tokenPrice(_currency), _tokenQuantity);\r\n    }\r\n\r\n    function refundICO(address _account, string memory _currency, uint256 _tokenQuantity) public\r\n    onlyAdmin validateBuyRefICO(_account) validCurrency(_currency) returns(uint256) {\r\n        if (KMXLibrary.refundICO(_icoParams, _account, _tokenQuantity)){    \r\n            _kmxToken.safeIcoTransfer(_account, _kmxTokenAddress, _tokenQuantity);\r\n            KMXLibrary.notifyRefund(_icoParams, _tokenQuantity, _account);\r\n            KMXLibrary.decreaseTokensSold(_icoParams, _tokenQuantity);\r\n        }\r\n    }\r\n\r\n    function buyICOTokensWithEther() public payable acceptEther validateBuyRefICO(msg.sender) {\r\n        if (!KMXLibrary.buyICOTokensWithEther(_icoParams, msg.sender, msg.value, this, _buyRefundWithEtherFees, _tknEtherPriceOracleUrl)){\r\n            msg.sender.transfer(_icoParams.pendingEtherICOBuyers[msg.sender]);\r\n            emit Transfer(address(this), msg.sender, _icoParams.pendingEtherICOBuyers[msg.sender]);\r\n        }\r\n    }\r\n\r\n    function () external {\r\n        buyICOTokensWithEther();\r\n    }\r\n\r\n    function buyICOTokenWithEtherEnd(bytes32 _oracleReqId, uint256 _tknPrice) internal {\r\n        (bool fb, uint256 tknQty, uint256 rfd, address _account, uint256 _ethAmt) = KMXLibrary.buyICOTokenWithEtherEnd(_icoParams, _buyRefundWithEtherFees, _oracleReqId, _tknPrice);\r\n        if (!fb){\r\n            address payable _payableAccount = address(uint160(_account));\r\n            _payableAccount.transfer(_ethAmt);\r\n            emit Transfer(address(this), _account, _ethAmt);\r\n        }\r\n        else{\r\n            if (tknQty > 0){\r\n                _kmxToken.safeIcoTransfer(_kmxTokenAddress, _account, tknQty);\r\n                KMXLibrary.notifyTokensBought(_icoParams, tknQty, _account);\r\n                KMXLibrary.notifyTokensBoughtWithEther(_icoParams, _account);\r\n                KMXLibrary.increaseTokensSold(_icoParams, tknQty);\r\n                emit ICOTokenBought(_account, tknQty);\r\n            }\r\n            if (rfd > 0){\r\n                address payable _payableAccount = address(uint160(_account));\r\n                _payableAccount.transfer(rfd);\r\n                emit Transfer(address(this), _account, rfd);\r\n            }\r\n        }\r\n    } \r\n\r\n    function refundICOTokenWithEther(uint256 _tokenQuantity) public validateBuyRefICO(msg.sender) {\r\n        KMXLibrary.refundICOTokenWithEther(_icoParams, msg.sender, _tokenQuantity, this, _tknEtherPriceOracleUrl);\r\n    }\r\n\r\n    function refundICOTokenWithEtherEnd(bytes32 _oracleReqId, uint256 _tknPrice) internal {\r\n        address _account = _icoParams.pendingEtherICOBuyersReqIds[_oracleReqId];\r\n        (uint256 tknQty, uint256 ethAmt) = KMXLibrary.refundICOTokenWithEtherEnd(_icoParams, _oracleReqId, _tknPrice, _kmxToken.balanceOf(_account));\r\n        if (tknQty > 0){\r\n            _kmxToken.safeIcoTransfer(_account, _kmxTokenAddress, tknQty);\r\n            KMXLibrary.notifyRefund(_icoParams, tknQty, _account);\r\n            KMXLibrary.notifyRefundWithEther(_icoParams, _account);\r\n            KMXLibrary.decreaseTokensSold(_icoParams, tknQty);\r\n            emit ICOTokenRefunded(_account, tknQty);\r\n        }\r\n        if (ethAmt > 0) {\r\n            address payable _payableAccount = address(uint160(_account));\r\n            _payableAccount.transfer(ethAmt);\r\n            emit Transfer(address(this), _account, ethAmt);\r\n        }\r\n    }\r\n\r\n    function _oracleCallback(bytes32 myId, string memory result) internal {\r\n        (uint256 stTknPrice, bool error) = result.parseToUint256();\r\n        if (_icoParams.pendingEtherICOBuyersReqIds[myId]!=address(0)){\r\n            buyICOTokenWithEtherEnd(myId, error?0:stTknPrice);\r\n        }\r\n        else if (_icoParams.pendingEtherICORefundsReqIds[myId]!=address(0)){\r\n            refundICOTokenWithEtherEnd(myId, error?0:stTknPrice);\r\n        }\r\n    }\r\n\r\n    /*function increaseTokensToSell(uint256 _value) public onlyOwner {\r\n        KMXLibrary.increaseTokensToSell(_icoParams, _kmxTokenParts, _value);\r\n        _kmxToken.setTotalSupply(_kmxToken.totalSupply().add(_value));\r\n    }\r\n\r\n    function decreaseTokensToSell(uint256 _value) public onlyOwner {\r\n        uint256 val = KMXLibrary.decreaseTokensToSell(_icoParams, _kmxTokenParts, _value);\r\n        _kmxToken.setTotalSupply(_kmxToken.totalSupply().sub(val));\r\n    }*/\r\n\r\n    /*function refundICOTokenWithEtherEnd_RefundTokens() public {\r\n        KMXLibrary.refundICOTokenWithEtherEnd_RefundTokens(_icoParams, msg.sender);\r\n    }*/\r\n\r\n    /*function buyICOTokenWithEtherEnd_RefundEther() public  {\r\n        uint256 toRfd = KMXLibrary.buyICOTokenWithEtherEnd_RefundEther(_icoParams, msg.sender);\r\n        if (toRfd > 0){\r\n            msg.sender.transfer(toRfd);\r\n            emit Transfer(address(this), msg.sender, toRfd);\r\n        }\r\n    }*/\r\n\r\n}",
  "sourcePath": "C:/Users/Sim'S/WebstormProjects/kmxv1/contracts/kmx/KMXAdminCenter.sol",
  "compiler": {
    "name": "solc",
    "version": "0.5.8+commit.23d335f2.Emscripten.clang"
  },
  "schemaVersion": "3.0.10",
  "updatedAt": "2019-08-23T20:06:11.709Z",
  "devdoc": {
    "methods": {}
  },
  "userdoc": {
    "methods": {}
  }
}