{
  "contractName": "KMXStableToken",
  "abi": [
    {
      "constant": true,
      "inputs": [
        {
          "name": "_currency",
          "type": "string"
        }
      ],
      "name": "tokenPrice",
      "outputs": [
        {
          "name": "",
          "type": "uint256"
        }
      ],
      "payable": false,
      "stateMutability": "view",
      "type": "function"
    },
    {
      "constant": false,
      "inputs": [
        {
          "name": "spender",
          "type": "address"
        },
        {
          "name": "value",
          "type": "uint256"
        }
      ],
      "name": "approve",
      "outputs": [
        {
          "name": "",
          "type": "bool"
        }
      ],
      "payable": false,
      "stateMutability": "nonpayable",
      "type": "function"
    },
    {
      "constant": false,
      "inputs": [
        {
          "name": "admin",
          "type": "address"
        }
      ],
      "name": "removeAdmin",
      "outputs": [],
      "payable": false,
      "stateMutability": "nonpayable",
      "type": "function"
    },
    {
      "constant": true,
      "inputs": [],
      "name": "totalSupply",
      "outputs": [
        {
          "name": "",
          "type": "uint256"
        }
      ],
      "payable": false,
      "stateMutability": "view",
      "type": "function"
    },
    {
      "constant": true,
      "inputs": [
        {
          "name": "account",
          "type": "address"
        }
      ],
      "name": "isAdmin",
      "outputs": [
        {
          "name": "",
          "type": "bool"
        }
      ],
      "payable": false,
      "stateMutability": "view",
      "type": "function"
    },
    {
      "constant": true,
      "inputs": [
        {
          "name": "_address",
          "type": "address"
        }
      ],
      "name": "isOwner",
      "outputs": [
        {
          "name": "",
          "type": "bool"
        }
      ],
      "payable": false,
      "stateMutability": "view",
      "type": "function"
    },
    {
      "constant": false,
      "inputs": [
        {
          "name": "spender",
          "type": "address"
        },
        {
          "name": "value",
          "type": "uint256"
        }
      ],
      "name": "increaseAllowance",
      "outputs": [],
      "payable": false,
      "stateMutability": "nonpayable",
      "type": "function"
    },
    {
      "constant": false,
      "inputs": [
        {
          "name": "_account",
          "type": "address"
        }
      ],
      "name": "frozeAccount",
      "outputs": [],
      "payable": false,
      "stateMutability": "nonpayable",
      "type": "function"
    },
    {
      "constant": false,
      "inputs": [],
      "name": "kill",
      "outputs": [],
      "payable": false,
      "stateMutability": "nonpayable",
      "type": "function"
    },
    {
      "constant": false,
      "inputs": [
        {
          "name": "_value",
          "type": "uint256"
        }
      ],
      "name": "burn",
      "outputs": [
        {
          "name": "",
          "type": "uint256"
        }
      ],
      "payable": false,
      "stateMutability": "nonpayable",
      "type": "function"
    },
    {
      "constant": false,
      "inputs": [],
      "name": "claimOwnership",
      "outputs": [],
      "payable": false,
      "stateMutability": "nonpayable",
      "type": "function"
    },
    {
      "constant": false,
      "inputs": [
        {
          "name": "sender",
          "type": "address"
        },
        {
          "name": "spender",
          "type": "address"
        },
        {
          "name": "value",
          "type": "uint256"
        }
      ],
      "name": "approveFromAdmin",
      "outputs": [
        {
          "name": "",
          "type": "bool"
        }
      ],
      "payable": false,
      "stateMutability": "nonpayable",
      "type": "function"
    },
    {
      "constant": true,
      "inputs": [
        {
          "name": "_currency",
          "type": "string"
        }
      ],
      "name": "validCurrency",
      "outputs": [
        {
          "name": "",
          "type": "bool"
        }
      ],
      "payable": false,
      "stateMutability": "view",
      "type": "function"
    },
    {
      "constant": true,
      "inputs": [],
      "name": "isMintBurnAllowed",
      "outputs": [
        {
          "name": "",
          "type": "bool"
        }
      ],
      "payable": false,
      "stateMutability": "view",
      "type": "function"
    },
    {
      "constant": false,
      "inputs": [
        {
          "name": "_fees",
          "type": "uint256"
        }
      ],
      "name": "changeFees",
      "outputs": [],
      "payable": false,
      "stateMutability": "nonpayable",
      "type": "function"
    },
    {
      "constant": false,
      "inputs": [
        {
          "name": "admin",
          "type": "address"
        }
      ],
      "name": "addAdmin",
      "outputs": [],
      "payable": false,
      "stateMutability": "nonpayable",
      "type": "function"
    },
    {
      "constant": true,
      "inputs": [
        {
          "name": "account",
          "type": "address"
        }
      ],
      "name": "balanceOf",
      "outputs": [
        {
          "name": "",
          "type": "uint256"
        }
      ],
      "payable": false,
      "stateMutability": "view",
      "type": "function"
    },
    {
      "constant": false,
      "inputs": [
        {
          "name": "_account",
          "type": "address"
        }
      ],
      "name": "unfrozeAccount",
      "outputs": [],
      "payable": false,
      "stateMutability": "nonpayable",
      "type": "function"
    },
    {
      "constant": false,
      "inputs": [
        {
          "name": "_price",
          "type": "uint256"
        },
        {
          "name": "_currency",
          "type": "string"
        }
      ],
      "name": "changePrice",
      "outputs": [],
      "payable": false,
      "stateMutability": "nonpayable",
      "type": "function"
    },
    {
      "constant": false,
      "inputs": [],
      "name": "renounceAdmin",
      "outputs": [],
      "payable": false,
      "stateMutability": "nonpayable",
      "type": "function"
    },
    {
      "constant": false,
      "inputs": [
        {
          "name": "_value",
          "type": "uint256"
        }
      ],
      "name": "mint",
      "outputs": [],
      "payable": false,
      "stateMutability": "nonpayable",
      "type": "function"
    },
    {
      "constant": false,
      "inputs": [
        {
          "name": "_newHolder",
          "type": "address"
        }
      ],
      "name": "changeTokenHolder",
      "outputs": [],
      "payable": false,
      "stateMutability": "nonpayable",
      "type": "function"
    },
    {
      "constant": false,
      "inputs": [
        {
          "name": "spender",
          "type": "address"
        },
        {
          "name": "value",
          "type": "uint256"
        }
      ],
      "name": "decreaseAllowance",
      "outputs": [],
      "payable": false,
      "stateMutability": "nonpayable",
      "type": "function"
    },
    {
      "constant": true,
      "inputs": [],
      "name": "transactionFees",
      "outputs": [
        {
          "name": "",
          "type": "uint256"
        }
      ],
      "payable": false,
      "stateMutability": "view",
      "type": "function"
    },
    {
      "constant": true,
      "inputs": [
        {
          "name": "owner",
          "type": "address"
        },
        {
          "name": "spender",
          "type": "address"
        }
      ],
      "name": "allowance",
      "outputs": [
        {
          "name": "",
          "type": "uint256"
        }
      ],
      "payable": false,
      "stateMutability": "view",
      "type": "function"
    },
    {
      "constant": true,
      "inputs": [
        {
          "name": "_account",
          "type": "address"
        }
      ],
      "name": "isAccountFrozen",
      "outputs": [
        {
          "name": "",
          "type": "bool"
        }
      ],
      "payable": false,
      "stateMutability": "view",
      "type": "function"
    },
    {
      "constant": false,
      "inputs": [
        {
          "name": "_newState",
          "type": "bool"
        }
      ],
      "name": "changeMintBurnAllowance",
      "outputs": [],
      "payable": false,
      "stateMutability": "nonpayable",
      "type": "function"
    },
    {
      "constant": false,
      "inputs": [
        {
          "name": "newOwner",
          "type": "address"
        }
      ],
      "name": "transferOwnership",
      "outputs": [],
      "payable": false,
      "stateMutability": "nonpayable",
      "type": "function"
    },
    {
      "inputs": [],
      "payable": false,
      "stateMutability": "nonpayable",
      "type": "constructor"
    },
    {
      "payable": true,
      "stateMutability": "payable",
      "type": "fallback"
    },
    {
      "anonymous": false,
      "inputs": [
        {
          "indexed": true,
          "name": "tokenAddress",
          "type": "address"
        }
      ],
      "name": "KMXTokenSet",
      "type": "event"
    },
    {
      "anonymous": false,
      "inputs": [
        {
          "indexed": false,
          "name": "_newState",
          "type": "bool"
        }
      ],
      "name": "MintBurnAllowanceChanged",
      "type": "event"
    },
    {
      "anonymous": false,
      "inputs": [
        {
          "indexed": false,
          "name": "value",
          "type": "uint256"
        },
        {
          "indexed": false,
          "name": "newTotalSupply",
          "type": "uint256"
        }
      ],
      "name": "Minted",
      "type": "event"
    },
    {
      "anonymous": false,
      "inputs": [
        {
          "indexed": false,
          "name": "value",
          "type": "uint256"
        },
        {
          "indexed": false,
          "name": "newTotalSupply",
          "type": "uint256"
        }
      ],
      "name": "Burned",
      "type": "event"
    },
    {
      "anonymous": false,
      "inputs": [
        {
          "indexed": true,
          "name": "oldTokenHolder",
          "type": "address"
        },
        {
          "indexed": true,
          "name": "newTokenHolder",
          "type": "address"
        }
      ],
      "name": "TokenHolderChanged",
      "type": "event"
    },
    {
      "anonymous": false,
      "inputs": [
        {
          "indexed": false,
          "name": "newPrice",
          "type": "uint256"
        },
        {
          "indexed": false,
          "name": "currency",
          "type": "string"
        }
      ],
      "name": "PriceChanged",
      "type": "event"
    },
    {
      "anonymous": false,
      "inputs": [
        {
          "indexed": false,
          "name": "newFees",
          "type": "uint256"
        }
      ],
      "name": "FeesChanged",
      "type": "event"
    },
    {
      "anonymous": false,
      "inputs": [
        {
          "indexed": true,
          "name": "account",
          "type": "address"
        }
      ],
      "name": "AccountFrozen",
      "type": "event"
    },
    {
      "anonymous": false,
      "inputs": [
        {
          "indexed": true,
          "name": "account",
          "type": "address"
        }
      ],
      "name": "AccountUnfrozen",
      "type": "event"
    },
    {
      "anonymous": false,
      "inputs": [
        {
          "indexed": true,
          "name": "admin",
          "type": "address"
        }
      ],
      "name": "AdminAdded",
      "type": "event"
    },
    {
      "anonymous": false,
      "inputs": [
        {
          "indexed": true,
          "name": "admin",
          "type": "address"
        }
      ],
      "name": "AdminRemoved",
      "type": "event"
    },
    {
      "anonymous": false,
      "inputs": [
        {
          "indexed": true,
          "name": "previousOwner",
          "type": "address"
        },
        {
          "indexed": true,
          "name": "newOwner",
          "type": "address"
        }
      ],
      "name": "OwnershipTransferred",
      "type": "event"
    },
    {
      "anonymous": false,
      "inputs": [
        {
          "indexed": true,
          "name": "owner",
          "type": "address"
        },
        {
          "indexed": true,
          "name": "spender",
          "type": "address"
        },
        {
          "indexed": false,
          "name": "value",
          "type": "uint256"
        }
      ],
      "name": "Approval",
      "type": "event"
    },
    {
      "anonymous": false,
      "inputs": [
        {
          "indexed": true,
          "name": "from",
          "type": "address"
        },
        {
          "indexed": true,
          "name": "to",
          "type": "address"
        },
        {
          "indexed": false,
          "name": "value",
          "type": "uint256"
        }
      ],
      "name": "Transfer",
      "type": "event"
    },
    {
      "constant": false,
      "inputs": [
        {
          "name": "kmxTokenDiscountForFees",
          "type": "uint256"
        }
      ],
      "name": "changeKmxTokenDiscountForFees",
      "outputs": [],
      "payable": false,
      "stateMutability": "nonpayable",
      "type": "function"
    },
    {
      "constant": true,
      "inputs": [],
      "name": "getKmxTokenDiscountForFees",
      "outputs": [
        {
          "name": "",
          "type": "uint256"
        }
      ],
      "payable": false,
      "stateMutability": "view",
      "type": "function"
    },
    {
      "constant": true,
      "inputs": [],
      "name": "tokenHolder",
      "outputs": [
        {
          "name": "",
          "type": "address"
        }
      ],
      "payable": false,
      "stateMutability": "view",
      "type": "function"
    },
    {
      "constant": false,
      "inputs": [
        {
          "name": "_address",
          "type": "address"
        }
      ],
      "name": "setKmxToken",
      "outputs": [
        {
          "name": "",
          "type": "bool"
        }
      ],
      "payable": false,
      "stateMutability": "nonpayable",
      "type": "function"
    },
    {
      "constant": true,
      "inputs": [],
      "name": "getKmxToken",
      "outputs": [
        {
          "name": "",
          "type": "address"
        }
      ],
      "payable": false,
      "stateMutability": "view",
      "type": "function"
    },
    {
      "constant": false,
      "inputs": [
        {
          "name": "_address",
          "type": "address"
        }
      ],
      "name": "setMarketContractAddress",
      "outputs": [],
      "payable": false,
      "stateMutability": "nonpayable",
      "type": "function"
    },
    {
      "constant": true,
      "inputs": [],
      "name": "marketContractAddress",
      "outputs": [
        {
          "name": "",
          "type": "address"
        }
      ],
      "payable": false,
      "stateMutability": "view",
      "type": "function"
    },
    {
      "constant": false,
      "inputs": [
        {
          "name": "to",
          "type": "address"
        },
        {
          "name": "value",
          "type": "uint256"
        }
      ],
      "name": "kmxStableTokenTransfer",
      "outputs": [
        {
          "name": "",
          "type": "bool"
        }
      ],
      "payable": false,
      "stateMutability": "nonpayable",
      "type": "function"
    },
    {
      "constant": false,
      "inputs": [
        {
          "name": "from",
          "type": "address"
        },
        {
          "name": "to",
          "type": "address"
        },
        {
          "name": "value",
          "type": "uint256"
        }
      ],
      "name": "kmxStableTokenTransferFrom",
      "outputs": [
        {
          "name": "",
          "type": "bool"
        }
      ],
      "payable": false,
      "stateMutability": "nonpayable",
      "type": "function"
    },
    {
      "constant": false,
      "inputs": [
        {
          "name": "to",
          "type": "address"
        },
        {
          "name": "value",
          "type": "uint256"
        },
        {
          "name": "stableTokenPrice",
          "type": "uint256"
        }
      ],
      "name": "kmxStableTokenTransferKMXFees",
      "outputs": [
        {
          "name": "",
          "type": "bool"
        }
      ],
      "payable": false,
      "stateMutability": "nonpayable",
      "type": "function"
    },
    {
      "constant": false,
      "inputs": [
        {
          "name": "from",
          "type": "address"
        },
        {
          "name": "to",
          "type": "address"
        },
        {
          "name": "value",
          "type": "uint256"
        },
        {
          "name": "stableTokenPrice",
          "type": "uint256"
        }
      ],
      "name": "kmxStableTokenTransferFromKMXFees",
      "outputs": [
        {
          "name": "",
          "type": "bool"
        }
      ],
      "payable": false,
      "stateMutability": "nonpayable",
      "type": "function"
    },
    {
      "constant": false,
      "inputs": [
        {
          "name": "to",
          "type": "address"
        },
        {
          "name": "value",
          "type": "uint256"
        }
      ],
      "name": "transfer",
      "outputs": [
        {
          "name": "",
          "type": "bool"
        }
      ],
      "payable": false,
      "stateMutability": "nonpayable",
      "type": "function"
    },
    {
      "constant": false,
      "inputs": [
        {
          "name": "to",
          "type": "address"
        },
        {
          "name": "from",
          "type": "address"
        },
        {
          "name": "value",
          "type": "uint256"
        }
      ],
      "name": "transferFrom",
      "outputs": [
        {
          "name": "",
          "type": "bool"
        }
      ],
      "payable": false,
      "stateMutability": "nonpayable",
      "type": "function"
    },
    {
      "constant": false,
      "inputs": [
        {
          "name": "from",
          "type": "address"
        },
        {
          "name": "to",
          "type": "address"
        },
        {
          "name": "value",
          "type": "uint256"
        }
      ],
      "name": "marketTransfer",
      "outputs": [
        {
          "name": "",
          "type": "bool"
        }
      ],
      "payable": false,
      "stateMutability": "nonpayable",
      "type": "function"
    },
    {
      "constant": false,
      "inputs": [
        {
          "name": "to",
          "type": "address"
        },
        {
          "name": "value",
          "type": "uint256"
        }
      ],
      "name": "marketBuyKMX",
      "outputs": [
        {
          "name": "",
          "type": "bool"
        }
      ],
      "payable": false,
      "stateMutability": "nonpayable",
      "type": "function"
    }
  ],
  "bytecode": "0x60806040523480156200001157600080fd5b50336200006a576040517f08c379a0000000000000000000000000000000000000000000000000000000008152600401808060200182810382526023815260200180620042e96023913960400191505060405180910390fd5b60008054600160a060020a0319163317908190556200009b90600160a060020a031664010000000062000149810204565b620000b2600180806401000000006200019b810204565b606460075560005460098054600160a060020a03909216600160a060020a03199092169190911760a060020a60ff021916905562000112670fae910354310000670de0b6b3a764000066060a24181e40006401000000006200019b810204565b6032600d556a084595161401484a0000006004819055600954600160a060020a031660009081526005602052604090205562000375565b6200016460028264010000000062003ba26200024b82021704565b604051600160a060020a038216907f44d6d25963f097ad14f29f06854a01f575648a1ef82f30e562ccd3889717e33990600090a250565b604080517f455552000000000000000000000000000000000000000000000000000000000081526008600380830182905283519283900360239081018420979097557f5553440000000000000000000000000000000000000000000000000000000000835282810182905283519283900387018320959095557f58414600000000000000000000000000000000000000000000000000000000008252938101939093525191829003909201902055565b620002608282640100000000620002dd810204565b15620002b8576040517f08c379a00000000000000000000000000000000000000000000000000000000081526004018080602001828103825260238152602001806200430c6023913960400191505060405180910390fd5b600160a060020a0316600090815260209190915260409020805460ff19166001179055565b6000600160a060020a0382166200035557604080517f08c379a000000000000000000000000000000000000000000000000000000000815260206004820181905260248201527f4163636f756e74206d757374206e6f74206265207a65726f2d61646472657373604482015290519081900360640190fd5b50600160a060020a03166000908152602091909152604090205460ff1690565b613f6480620003856000396000f3fe608060405260043610610279576000357c0100000000000000000000000000000000000000000000000000000000900480636cda375b11610161578063a9059cbb116100d3578063c73358de11610097578063c73358de14610c0a578063dd62ed3e14610c3d578063e44f917714610c78578063e816d97f14610cbb578063ea14d67b14610cee578063f2fde38b14610d1a57610279565b8063a9059cbb14610b16578063ad59d89214610b4f578063b37be8e414610b88578063bcf0dd8e14610b9d578063c110f14514610be057610279565b80638af13846116101255780638af1384614610a175780638bad0c0a14610a56578063923aa87d14610a6b578063a0712d6814610a80578063a18a209214610aaa578063a457c2d714610add57610279565b80636cda375b1461089a57806370480275146108c457806370a08231146108f75780637b68d0ac1461092a5780638868686c1461095d57610279565b8063414f8594116101fa5780634e71e0c8116101be5780634e71e0c81461071c5780635303852a146107315780635633131c1461077a57806367deaeb11461078f578063697d60b0146107d25780636b8d9cc51461088557610279565b8063414f85941461065c57806341c0e1b51461068f578063420a83e7146106a457806342966c68146106b95780634bb63ce6146106e357610279565b806324d7806c1161024157806324d7806c146105595780632f54bf6e1461058c5780632fa9a2f8146105bf5780633087cbe3146105f2578063395093511461062357610279565b806302888d06146103bc578063095ea7b3146104815780631785f53c146104ce57806318160ddd1461050157806323b872dd14610516575b34156103ba57600954600160a060020a0316662386f26fc1000034111561031c57336108fc6102b534662386f26fc1000063ffffffff610d4d16565b6040518115909202916000818181858888f193505050501580156102dd573d6000803e3d6000fd5b50604051600160a060020a03821690600090662386f26fc100009082818181858883f19350505050158015610316573d6000803e3d6000fd5b506103b8565b336108fc610342606461033634605a63ffffffff610db216565b9063ffffffff610e1516565b6040518115909202916000818181858888f1935050505015801561036a573d6000803e3d6000fd5b50600160a060020a0381166108fc61038e606461033634600a63ffffffff610db216565b6040518115909202916000818181858888f193505050501580156103b6573d6000803e3d6000fd5b505b505b005b3480156103c857600080fd5b5061046f600480360360208110156103df57600080fd5b8101906020810181356401000000008111156103fa57600080fd5b82018360208201111561040c57600080fd5b8035906020019184600183028401116401000000008311171561042e57600080fd5b91908080601f016020809104026020016040519081016040528093929190818152602001838380828437600092019190915250929550610e82945050505050565b60408051918252519081900360200190f35b34801561048d57600080fd5b506104ba600480360360408110156104a457600080fd5b50600160a060020a038135169060200135610f8e565b604080519115158252519081900360200190f35b3480156104da57600080fd5b506103ba600480360360208110156104f157600080fd5b5035600160a060020a0316611033565b34801561050d57600080fd5b5061046f611092565b34801561052257600080fd5b506104ba6004803603606081101561053957600080fd5b50600160a060020a03813581169160208101359091169060400135611098565b34801561056557600080fd5b506104ba6004803603602081101561057c57600080fd5b5035600160a060020a03166110ad565b34801561059857600080fd5b506104ba600480360360208110156105af57600080fd5b5035600160a060020a03166110c0565b3480156105cb57600080fd5b506104ba600480360360208110156105e257600080fd5b5035600160a060020a03166110d4565b3480156105fe57600080fd5b506106076111f8565b60408051600160a060020a039092168252519081900360200190f35b34801561062f57600080fd5b506103ba6004803603604081101561064657600080fd5b50600160a060020a038135169060200135611207565b34801561066857600080fd5b506103ba6004803603602081101561067f57600080fd5b5035600160a060020a03166112a5565b34801561069b57600080fd5b506103ba611392565b3480156106b057600080fd5b506106076113f1565b3480156106c557600080fd5b5061046f600480360360208110156106dc57600080fd5b5035611450565b3480156106ef57600080fd5b506104ba6004803603604081101561070657600080fd5b50600160a060020a0381351690602001356115cd565b34801561072857600080fd5b506103ba611643565b34801561073d57600080fd5b506104ba6004803603608081101561075457600080fd5b50600160a060020a03813581169160208101359091169060408101359060600135611700565b34801561078657600080fd5b50610607611b4f565b34801561079b57600080fd5b506104ba600480360360608110156107b257600080fd5b50600160a060020a03813581169160208101359091169060400135611b5e565b3480156107de57600080fd5b506104ba600480360360208110156107f557600080fd5b81019060208101813564010000000081111561081057600080fd5b82018360208201111561082257600080fd5b8035906020019184600183028401116401000000008311171561084457600080fd5b91908080601f016020809104026020016040519081016040528093929190818152602001838380828437600092019190915250929550611c56945050505050565b34801561089157600080fd5b506104ba611cc0565b3480156108a657600080fd5b506103ba600480360360208110156108bd57600080fd5b5035611cd0565b3480156108d057600080fd5b506103ba600480360360208110156108e757600080fd5b5035600160a060020a0316611db8565b34801561090357600080fd5b5061046f6004803603602081101561091a57600080fd5b5035600160a060020a0316611e14565b34801561093657600080fd5b506103ba6004803603602081101561094d57600080fd5b5035600160a060020a0316611e1f565b34801561096957600080fd5b506103ba6004803603604081101561098057600080fd5b813591908101906040810160208201356401000000008111156109a257600080fd5b8201836020820111156109b457600080fd5b803590602001918460018302840111640100000000831117156109d657600080fd5b91908080601f016020809104026020016040519081016040528093929190818152602001838380828437600092019190915250929550611f1a945050505050565b348015610a2357600080fd5b506104ba60048036036060811015610a3a57600080fd5b50600160a060020a038135169060208101359060400135612260565b348015610a6257600080fd5b506103ba612567565b348015610a7757600080fd5b5061046f612628565b348015610a8c57600080fd5b506103ba60048036036020811015610aa357600080fd5b503561262e565b348015610ab657600080fd5b506103ba60048036036020811015610acd57600080fd5b5035600160a060020a0316612771565b348015610ae957600080fd5b506103ba60048036036040811015610b0057600080fd5b50600160a060020a0381351690602001356128f7565b348015610b2257600080fd5b506104ba60048036036040811015610b3957600080fd5b50600160a060020a038135169060200135612991565b348015610b5b57600080fd5b506104ba60048036036040811015610b7257600080fd5b50600160a060020a038135169060200135612999565b348015610b9457600080fd5b5061046f612c67565b348015610ba957600080fd5b506104ba60048036036060811015610bc057600080fd5b50600160a060020a03813581169160208101359091169060400135612c6d565b348015610bec57600080fd5b506103ba60048036036020811015610c0357600080fd5b5035612cc7565b348015610c1657600080fd5b506103ba60048036036020811015610c2d57600080fd5b5035600160a060020a0316612d5f565b348015610c4957600080fd5b5061046f60048036036040811015610c6057600080fd5b50600160a060020a0381358116916020013516612e3d565b348015610c8457600080fd5b506104ba60048036036060811015610c9b57600080fd5b50600160a060020a03813581169160208101359091169060400135612e49565b348015610cc757600080fd5b506104ba60048036036020811015610cde57600080fd5b5035600160a060020a0316613261565b348015610cfa57600080fd5b506103ba60048036036020811015610d1157600080fd5b5035151561326c565b348015610d2657600080fd5b506103ba60048036036020811015610d3d57600080fd5b5035600160a060020a03166133e6565b600082821115610da7576040805160e560020a62461bcd02815260206004820152601e60248201527f536166654d6174683a207375627472616374696f6e206f766572666c6f770000604482015290519081900360640190fd5b508082035b92915050565b600082610dc157506000610dac565b82820282848281610dce57fe5b0414610e0e5760405160e560020a62461bcd028152600401808060200182810382526021815260200180613dbf6021913960400191505060405180910390fd5b9392505050565b6000808211610e6e576040805160e560020a62461bcd02815260206004820152601a60248201527f536166654d6174683a206469766973696f6e206279207a65726f000000000000604482015290519081900360640190fd5b6000828481610e7957fe5b04949350505050565b6000816008816040518082805190602001908083835b60208310610eb75780518252601f199092019160209182019101610e98565b51815160209384036101000a600019018019909216911617905292019485525060405193849003019092205415159150610f2790505760405160e560020a62461bcd02815260040180806020018281038252602f815260200180613d1d602f913960400191505060405180910390fd5b6008836040518082805190602001908083835b60208310610f595780518252601f199092019160209182019101610f3a565b51815160209384036101000a600019018019909216911617905292019485525060405193849003019092205495945050505050565b600033610fd3576040805160e560020a62461bcd02815260206004820152601c6024820152600080516020613e21833981519152604482015290519081900360640190fd5b600160a060020a03831661101f576040805160e560020a62461bcd02815260206004820152601d6024820152600080516020613d9f833981519152604482015290519081900360640190fd5b61102a3384846134ad565b50600192915050565b61104460023363ffffffff6134fd16565b611086576040805160e560020a62461bcd0281526020600482015260106024820152600080516020613ef6833981519152604482015290519081900360640190fd5b61108f8161357d565b50565b60045490565b60006110a5838584612e49565b949350505050565b6000610dac60028363ffffffff6134fd16565b600054600160a060020a0391821691161490565b6000816110e0816135c5565b611134576040805160e560020a62461bcd02815260206004820152601a60248201527f4d757374206265206120636f6e74726163742061646472657373000000000000604482015290519081900360640190fd5b600054600160a060020a03163314611184576040805160e560020a62461bcd02815260206004820152601a6024820152600080516020613cdd833981519152604482015290519081900360640190fd5b600b805473ffffffffffffffffffffffffffffffffffffffff19908116600160a060020a03868116918217909355600c80549092161790819055604051859291909116907fda46792bd7f899765e3e585d3e08f18062f24add103a990ad3944619dfd1209a90600090a25060019392505050565b600a54600160a060020a031690565b3361124a576040805160e560020a62461bcd02815260206004820152601c6024820152600080516020613e21833981519152604482015290519081900360640190fd5b600160a060020a038216611296576040805160e560020a62461bcd02815260206004820152601d6024820152600080516020613d9f833981519152604482015290519081900360640190fd5b6112a13383836135d1565b5050565b6112b660023363ffffffff6134fd16565b6112f8576040805160e560020a62461bcd0281526020600482015260106024820152600080516020613ef6833981519152604482015290519081900360640190fd5b8061130281613628565b15611345576040805160e560020a62461bcd02815260206004820152601a6024820152600080516020613cbd833981519152604482015290519081900360640190fd5b600160a060020a038216600081815260036020526040808220805460ff19166001179055517f4f2a367e694e71282f29ab5eaa04c4c0be45ac5bf2ca74fb67068b98bdc2887d9190a25050565b600054600160a060020a031633146113e2576040805160e560020a62461bcd02815260206004820152601a6024820152600080516020613cdd833981519152604482015290519081900360640190fd5b600054600160a060020a031680ff5b600a54600090600160a060020a031633146114405760405160e560020a62461bcd02815260040180806020018281038252602f815260200180613d4c602f913960400191505060405180910390fd5b50600954600160a060020a031690565b600061146360023363ffffffff6134fd16565b6114a5576040805160e560020a62461bcd0281526020600482015260106024820152600080516020613ef6833981519152604482015290519081900360640190fd5b60095460a060020a900460ff166114f05760405160e560020a62461bcd028152600401808060200182810382526024815260200180613d7b6024913960400191505060405180910390fd5b6009548290819061150990600160a060020a0316611e14565b10156115275760095461152490600160a060020a0316611e14565b90505b60095461153d90600160a060020a031682613646565b600454611550908263ffffffff610d4d16565b6004557fcec1bae6e024d929f2929f3478ce70f55f9c636c8ef7b5073a61d7c3a432451b8361157d611092565b6040805192835260208301919091528051918290030190a1600954604080518381529051600092600160a060020a031691600080516020613e41833981519152919081900360200190a392915050565b600a54600090600160a060020a0316331461161c5760405160e560020a62461bcd02815260040180806020018281038252602f815260200180613d4c602f913960400191505060405180910390fd5b600b5461163990600160a060020a0316848463ffffffff61368f16565b5060019392505050565b600154600160a060020a031633146116a5576040805160e560020a62461bcd02815260206004820152601c60248201527f53656e646572206d7573742062652070656e64696e67206f776e657200000000604482015290519081900360640190fd5b6001546000805473ffffffffffffffffffffffffffffffffffffffff1916600160a060020a03928316908117808355604051919316917f8be0079c531659141344cd1fd0a4f28419497f9722a3daafe3b4186f6b6457e091a3565b60003361170c81613628565b1561174f576040805160e560020a62461bcd02815260206004820152601a6024820152600080516020613cbd833981519152604482015290519081900360640190fd5b8561175981613628565b1561179c576040805160e560020a62461bcd02815260206004820152601a6024820152600080516020613cbd833981519152604482015290519081900360640190fd5b856117a681613628565b156117e9576040805160e560020a62461bcd02815260206004820152601a6024820152600080516020613cbd833981519152604482015290519081900360640190fd5b6009548890600160a060020a038083169116141561183f576040805160e560020a62461bcd0281526020600482018190526024820152600080516020613de0833981519152604482015290519081900360640190fd5b600160a060020a0388166118875760405160e560020a62461bcd028152600401808060200182810382526026815260200180613ed06026913960400191505060405180910390fd5b600160a060020a0389166118cf5760405160e560020a62461bcd028152600401808060200182810382526024815260200180613c746024913960400191505060405180910390fd5b3361190e5760405160e560020a62461bcd028152600401808060200182810382526025815260200180613c986025913960400191505060405180910390fd5b60008711611954576040805160e560020a62461bcd02815260206004820152601d6024820152600080516020613eb0833981519152604482015290519081900360640190fd5b60075415611a955760006119796127106103366007548b610db290919063ffffffff16565b90506119978761033683670de0b6b3a764000063ffffffff610db216565b90506119c460646103366119b7600d546064610d4d90919063ffffffff16565b849063ffffffff610db216565b9050876119d08b611e14565b1015611a14576040805160e560020a62461bcd0281526020600482015260196024820152600080516020613cfd833981519152604482015290519081900360640190fd5b87611a1f8b33612e3d565b1015611a63576040805160e560020a62461bcd0281526020600482015260196024820152600080516020613c54833981519152604482015290519081900360640190fd5b611a6f8a8a8a3361372d565b600b54611a8d90600160a060020a03168b833363ffffffff6137ab16565b955050611b43565b86611a9f8a611e14565b1015611ae3576040805160e560020a62461bcd0281526020600482015260196024820152600080516020613cfd833981519152604482015290519081900360640190fd5b86611aee8a33612e3d565b1015611b32576040805160e560020a62461bcd0281526020600482015260196024820152600080516020613c54833981519152604482015290519081900360640190fd5b611b3e8989893361372d565b600194505b50505050949350505050565b600c54600160a060020a031690565b6000611b7160023363ffffffff6134fd16565b611bb3576040805160e560020a62461bcd0281526020600482015260106024820152600080516020613ef6833981519152604482015290519081900360640190fd5b600160a060020a038416611bff576040805160e560020a62461bcd02815260206004820152601c6024820152600080516020613e21833981519152604482015290519081900360640190fd5b600160a060020a038316611c4b576040805160e560020a62461bcd02815260206004820152601d6024820152600080516020613d9f833981519152604482015290519081900360640190fd5b6116398484846134ad565b60006008826040518082805190602001908083835b60208310611c8a5780518252601f199092019160209182019101611c6b565b51815160209384036101000a60001901801990921691161790529201948552506040519384900301909220541515949350505050565b60095460a060020a900460ff1690565b611ce160023363ffffffff6134fd16565b611d23576040805160e560020a62461bcd0281526020600482015260106024820152600080516020613ef6833981519152604482015290519081900360640190fd5b612710811115611d7d576040805160e560020a62461bcd02815260206004820152601d60248201527f46656573206d75737420626520696e2072616e676520302d3130303030000000604482015290519081900360640190fd5b60078190556040805182815290517f3dda580d2b9d92da338ef46ec718e7b1dd0a2c505e3df4aa8d40360192a0f8229181900360200190a150565b611dc960023363ffffffff6134fd16565b611e0b576040805160e560020a62461bcd0281526020600482015260106024820152600080516020613ef6833981519152604482015290519081900360640190fd5b61108f8161385c565b6000610dac826138a4565b611e3060023363ffffffff6134fd16565b611e72576040805160e560020a62461bcd0281526020600482015260106024820152600080516020613ef6833981519152604482015290519081900360640190fd5b80611e7c81613628565b611ed0576040805160e560020a62461bcd02815260206004820152601660248201527f4163636f756e74206d7573742062652066726f7a656e00000000000000000000604482015290519081900360640190fd5b600160a060020a038216600081815260036020526040808220805460ff19169055517ff915cd9fe234de6e8d3afe7bf2388d35b2b6d48e8c629a24602019bde79c213a9190a25050565b806008816040518082805190602001908083835b60208310611f4d5780518252601f199092019160209182019101611f2e565b51815160209384036101000a600019018019909216911617905292019485525060405193849003019092205415159150611fbd90505760405160e560020a62461bcd02815260040180806020018281038252602f815260200180613d1d602f913960400191505060405180910390fd5b611fce60023363ffffffff6134fd16565b612010576040805160e560020a62461bcd0281526020600482015260106024820152600080516020613ef6833981519152604482015290519081900360640190fd5b600083118260405160200180807f546f6b656e20707269636520696e200000000000000000000000000000000000815250600f0182805190602001908083835b6020831061206f5780518252601f199092019160209182019101612050565b6001836020036101000a038019825116818451168082178552505050505050905001807f206d757374206e6f742062652030000000000000000000000000000000000000815250600e01915050604051602081830303815290604052906121575760405160e560020a62461bcd0281526004018080602001828103825283818151815260200191508051906020019080838360005b8381101561211c578181015183820152602001612104565b50505050905090810190601f1680156121495780820380516001836020036101000a031916815260200191505b509250505060405180910390fd5b50826008836040518082805190602001908083835b6020831061218b5780518252601f19909201916020918201910161216c565b51815160209384036101000a60001901801990921691161790529201948552506040805194859003820185209590955587845283810185815287519585019590955286517fbc1a6d11df191cc217bb06c2da838849148b8a9a56b8138fa96cd89e90a0921595899589955093509160608401919085019080838360005b83811015612220578181015183820152602001612208565b50505050905090810190601f16801561224d5780820380516001836020036101000a031916815260200191505b50935050505060405180910390a1505050565b60003361226c81613628565b156122af576040805160e560020a62461bcd02815260206004820152601a6024820152600080516020613cbd833981519152604482015290519081900360640190fd5b846122b981613628565b156122fc576040805160e560020a62461bcd02815260206004820152601a6024820152600080516020613cbd833981519152604482015290519081900360640190fd5b6009543390600160a060020a031681141561234f576040805160e560020a62461bcd0281526020600482018190526024820152600080516020613de0833981519152604482015290519081900360640190fd5b600160a060020a0387166123975760405160e560020a62461bcd028152600401808060200182810382526026815260200180613ed06026913960400191505060405180910390fd5b336123d65760405160e560020a62461bcd028152600401808060200182810382526026815260200180613ed06026913960400191505060405180910390fd5b6000861161241c576040805160e560020a62461bcd02815260206004820152601d6024820152600080516020613eb0833981519152604482015290519081900360640190fd5b600754156124ff5760006124416127106103366007548a610db290919063ffffffff16565b905061245f8661033683670de0b6b3a764000063ffffffff610db216565b905061247f60646103366119b7600d546064610d4d90919063ffffffff16565b90508661248b33611e14565b10156124cf576040805160e560020a62461bcd0281526020600482015260196024820152600080516020613c34833981519152604482015290519081900360640190fd5b6124da3389896138bf565b600b546124f790600160a060020a0316338363ffffffff61393116565b94505061255d565b8561250933611e14565b101561254d576040805160e560020a62461bcd0281526020600482015260196024820152600080516020613c34833981519152604482015290519081900360640190fd5b6125583388886138bf565b600193505b5050509392505050565b61257860023363ffffffff6134fd16565b6125ba576040805160e560020a62461bcd0281526020600482015260106024820152600080516020613ef6833981519152604482015290519081900360640190fd5b600054600160a060020a031633141561261d576040805160e560020a62461bcd02815260206004820152601f60248201527f4f776e65722063616e206e6f742072656e6f756e636520746f2061646d696e00604482015290519081900360640190fd5b6126263361357d565b565b600d5490565b61263f60023363ffffffff6134fd16565b612681576040805160e560020a62461bcd0281526020600482015260106024820152600080516020613ef6833981519152604482015290519081900360640190fd5b60095460a060020a900460ff166126cc5760405160e560020a62461bcd028152600401808060200182810382526024815260200180613d7b6024913960400191505060405180910390fd5b6009546126e290600160a060020a03168261399d565b6004546126f5908263ffffffff6139c616565b6004557f8a9dcf4e150b1153011b29fec302d5be0c13e84fa8f56ab78587f778a32a90dd81612722611092565b6040805192835260208301919091528051918290030190a1600954604080518381529051600160a060020a0390921691600091600080516020613e41833981519152919081900360200190a350565b600054600160a060020a031633146127c1576040805160e560020a62461bcd02815260206004820152601a6024820152600080516020613cdd833981519152604482015290519081900360640190fd5b600160a060020a03811661281f576040805160e560020a62461bcd02815260206004820181905260248201527f4e657720486f6c646572206d757374206e6f7420626520302d61646472657373604482015290519081900360640190fd5b600954600160a060020a038281169116141561286f5760405160e560020a62461bcd028152600401808060200182810382526021815260200180613e006021913960400191505060405180910390fd5b60095461288e90600160a060020a03168261288982611e14565b6138bf565b600954604051600160a060020a038084169216907f70418639b9c14c316c6ae17fa73febff0a5d1e066ce89d40a4b9b5381625adfe90600090a36009805473ffffffffffffffffffffffffffffffffffffffff1916600160a060020a0392909216919091179055565b3361293a576040805160e560020a62461bcd02815260206004820152601c6024820152600080516020613e21833981519152604482015290519081900360640190fd5b600160a060020a038216612986576040805160e560020a62461bcd02815260206004820152601d6024820152600080516020613d9f833981519152604482015290519081900360640190fd5b6112a1338383613a23565b6000610e0e83835b6000336129a581613628565b156129e8576040805160e560020a62461bcd02815260206004820152601a6024820152600080516020613cbd833981519152604482015290519081900360640190fd5b836129f281613628565b15612a35576040805160e560020a62461bcd02815260206004820152601a6024820152600080516020613cbd833981519152604482015290519081900360640190fd5b6009543390600160a060020a0316811415612a88576040805160e560020a62461bcd0281526020600482018190526024820152600080516020613de0833981519152604482015290519081900360640190fd5b600160a060020a038616612ad05760405160e560020a62461bcd028152600401808060200182810382526026815260200180613ed06026913960400191505060405180910390fd5b33612b0f5760405160e560020a62461bcd028152600401808060200182810382526026815260200180613ed06026913960400191505060405180910390fd5b60008511612b55576040805160e560020a62461bcd02815260206004820152601d6024820152600080516020613eb0833981519152604482015290519081900360640190fd5b60075415612c02576000612b7a61271061033660075489610db290919063ffffffff16565b9050612b8c868263ffffffff6139c616565b612b9533611e14565b1015612bd9576040805160e560020a62461bcd0281526020600482015260196024820152600080516020613c34833981519152604482015290519081900360640190fd5b612be43388886138bf565b600954612bfc903390600160a060020a0316836138bf565b50612c5b565b84612c0c33611e14565b1015612c50576040805160e560020a62461bcd0281526020600482015260196024820152600080516020613c34833981519152604482015290519081900360640190fd5b612c5b3387876138bf565b50600195945050505050565b60075490565b600a54600090600160a060020a03163314612cbc5760405160e560020a62461bcd02815260040180806020018281038252602f815260200180613d4c602f913960400191505060405180910390fd5b6116398484846138bf565b600054600160a060020a03163314612d17576040805160e560020a62461bcd02815260206004820152601a6024820152600080516020613cdd833981519152604482015290519081900360640190fd5b6064811115612d5a5760405160e560020a62461bcd02815260040180806020018281038252604f815260200180613e61604f913960600191505060405180910390fd5b600d55565b80612d69816135c5565b612dbd576040805160e560020a62461bcd02815260206004820152601a60248201527f4d757374206265206120636f6e74726163742061646472657373000000000000604482015290519081900360640190fd5b600054600160a060020a03163314612e0d576040805160e560020a62461bcd02815260206004820152601a6024820152600080516020613cdd833981519152604482015290519081900360640190fd5b50600a805473ffffffffffffffffffffffffffffffffffffffff1916600160a060020a0392909216919091179055565b6000610e0e8383613a2e565b600033612e5581613628565b15612e98576040805160e560020a62461bcd02815260206004820152601a6024820152600080516020613cbd833981519152604482015290519081900360640190fd5b84612ea281613628565b15612ee5576040805160e560020a62461bcd02815260206004820152601a6024820152600080516020613cbd833981519152604482015290519081900360640190fd5b84612eef81613628565b15612f32576040805160e560020a62461bcd02815260206004820152601a6024820152600080516020613cbd833981519152604482015290519081900360640190fd5b6009548790600160a060020a0380831691161415612f88576040805160e560020a62461bcd0281526020600482018190526024820152600080516020613de0833981519152604482015290519081900360640190fd5b600160a060020a038716612fd05760405160e560020a62461bcd028152600401808060200182810382526026815260200180613ed06026913960400191505060405180910390fd5b600160a060020a0388166130185760405160e560020a62461bcd028152600401808060200182810382526024815260200180613c746024913960400191505060405180910390fd5b336130575760405160e560020a62461bcd028152600401808060200182810382526025815260200180613c986025913960400191505060405180910390fd5b6000861161309d576040805160e560020a62461bcd02815260206004820152601d6024820152600080516020613eb0833981519152604482015290519081900360640190fd5b600754156131aa5760006130c26127106103366007548a610db290919063ffffffff16565b90506130d4878263ffffffff6139c616565b6130dd8a611e14565b1015613121576040805160e560020a62461bcd0281526020600482015260196024820152600080516020613cfd833981519152604482015290519081900360640190fd5b613131878263ffffffff6139c616565b61313b8a33612e3d565b101561317f576040805160e560020a62461bcd0281526020600482015260196024820152600080516020613c54833981519152604482015290519081900360640190fd5b61318b8989893361372d565b6009546131a4908a90600160a060020a0316833361372d565b50613253565b856131b489611e14565b10156131f8576040805160e560020a62461bcd0281526020600482015260196024820152600080516020613cfd833981519152604482015290519081900360640190fd5b856132038933612e3d565b1015613247576040805160e560020a62461bcd0281526020600482015260196024820152600080516020613c54833981519152604482015290519081900360640190fd5b6132538888883361372d565b506001979650505050505050565b6000610dac82613628565b600054600160a060020a031633146132bc576040805160e560020a62461bcd02815260206004820152601a6024820152600080516020613cdd833981519152604482015290519081900360640190fd5b600954604080517f4e6577204d696e7420416c6c6f77616e6365206d757374206265200000000000602082015283157f01000000000000000000000000000000000000000000000000000000000000008102603b8301528251808303601c018152603c9092019092529160a060020a900460ff161515146133815760405160e560020a62461bcd02815260206004820181815283516024840152835190928392604490910191908501908083836000831561211c578181015183820152602001612104565b506009805482151560a060020a810274ff0000000000000000000000000000000000000000199092169190911790915560408051918252517ffd1efbc27e4f96d2ced2f88c1e9bb283db7b0bb5a896728fa99314defd42be519181900360200190a150565b600054600160a060020a03163314613436576040805160e560020a62461bcd02815260206004820152601a6024820152600080516020613cdd833981519152604482015290519081900360640190fd5b600160a060020a03811661347e5760405160e560020a62461bcd028152600401808060200182810382526023815260200180613c116023913960400191505060405180910390fd5b6001805473ffffffffffffffffffffffffffffffffffffffff1916600160a060020a0392909216919091179055565b6134b8838383613a59565b604080518281529051600160a060020a0384169133917f8c5be1e5ebec7d5bd14f71427d1e84f3dd0314c0f7b2291e5b200ac8c7c3b9259181900360200190a3505050565b6000600160a060020a03821661355d576040805160e560020a62461bcd02815260206004820181905260248201527f4163636f756e74206d757374206e6f74206265207a65726f2d61646472657373604482015290519081900360640190fd5b50600160a060020a03166000908152602091909152604090205460ff1690565b61358e60028263ffffffff613a8516565b604051600160a060020a038216907fa3b62bc36326052d97ea62d63c3d60308ed4c3ea8ac079dd8499f1e9c4f80c0f90600090a250565b3b63ffffffff16151590565b6135dc838383613b05565b600160a060020a038216337f8c5be1e5ebec7d5bd14f71427d1e84f3dd0314c0f7b2291e5b200ac8c7c3b9256136128686613a2e565b60408051918252519081900360200190a3505050565b600160a060020a031660009081526003602052604090205460ff1690565b600160a060020a03821660009081526005602052604090205461366f908263ffffffff610d4d16565b600160a060020a0390921660009081526005602052604090209190915550565b604080517f7dbdaaca000000000000000000000000000000000000000000000000000000008152600160a060020a038481166004830152602482018490529151600092861691637dbdaaca91604480830192602092919082900301818787803b1580156136fb57600080fd5b505af115801561370f573d6000803e3d6000fd5b505050506040513d602081101561372557600080fd5b505161163957fe5b600160a060020a038316301461374757613747838361399d565b613752848284613b6c565b600160a060020a038416301461376c5761376c8483613646565b82600160a060020a031684600160a060020a0316600080516020613e41833981519152846040518082815260200191505060405180910390a350505050565b604080517f45275ee9000000000000000000000000000000000000000000000000000000008152600160a060020a03858116600483015260248201859052838116604483015291516000928716916345275ee991606480830192602092919082900301818787803b15801561381f57600080fd5b505af1158015613833573d6000803e3d6000fd5b505050506040513d602081101561384957600080fd5b505161385157fe5b506001949350505050565b61386d60028263ffffffff613ba216565b604051600160a060020a038216907f44d6d25963f097ad14f29f06854a01f575648a1ef82f30e562ccd3889717e33990600090a250565b600160a060020a031660009081526005602052604090205490565b600160a060020a03821630146138d9576138d9828261399d565b600160a060020a03831630146138f3576138f38382613646565b81600160a060020a031683600160a060020a0316600080516020613e41833981519152836040518082815260200191505060405180910390a3505050565b604080517f62d20852000000000000000000000000000000000000000000000000000000008152600160a060020a0384811660048301526024820184905291516000928616916362d2085291604480830192602092919082900301818787803b1580156136fb57600080fd5b600160a060020a03821660009081526005602052604090205461366f908263ffffffff6139c616565b600082820183811015610e0e576040805160e560020a62461bcd02815260206004820152601b60248201527f536166654d6174683a206164646974696f6e206f766572666c6f770000000000604482015290519081900360640190fd5b6135dc838383613b6c565b600160a060020a03918216600090815260066020908152604080832093909416825291909152205490565b600160a060020a0392831660009081526006602090815260408083209490951682529290925291902055565b613a8f82826134fd565b613ae3576040805160e560020a62461bcd02815260206004820152601f60248201527f4163636f756e7420686173206e6f7420686176652061646d696e20726f6c6500604482015290519081900360640190fd5b600160a060020a0316600090815260209190915260409020805460ff19169055565b600160a060020a03808416600090815260066020908152604080832093861683529290522054613b3b908263ffffffff6139c616565b600160a060020a03938416600090815260066020908152604080832095909616825293909352929091209190915550565b600160a060020a03808416600090815260066020908152604080832093861683529290522054613b3b908263ffffffff610d4d16565b613bac82826134fd565b15613beb5760405160e560020a62461bcd028152600401808060200182810382526023815260200180613f166023913960400191505060405180910390fd5b600160a060020a0316600090815260209190915260409020805460ff1916600117905556fe4f776e65722061646472657373206d757374206e6f7420626520302d6164647265737353656e64657220556e73696666696369656e742066756e6473000000000000005370656e64657220756e73756666696369656e7420666565730000000000000053656e6465722061646472657373206d757374206e6f7420626520302d616464726573735370656e6465722061646472657373206d757374206e6f7420626520302d616464726573734163636f756e74206d757374206e6f742062652066726f7a656e00000000000054686973206973206e6f7420636f6e7472616374206f776e657200000000000053656e64657220756e73756666696369656e742066756e64730000000000000043757272656e6379206973206e6f742070726573656e7420696e20737570706f727465642063757272656e636965734f6e6c79204d61726b657420636f6e74726163742063616e20706572666f726d2074686973206f7065726174696f6e4d696e7420616e64206275726e206f7065726174696f6e73206e6f7420616c6c6f7765645370656e646572206d757374206e6f7420626520302d61646472657373000000536166654d6174683a206d756c7469706c69636174696f6e206f766572666c6f7741646472657373206d757374206e6f7420626520746f6b656e20686f6c6465724e657720686f6c646572206d757374206e6f74206265206f6c6420686f6c64657253656e646572206d757374206e6f7420626520302d6164647265737300000000ddf252ad1be2c89b69c2b068fc378daa952ba7f163c4a11628f55a4df523b3ef4665657320446973636f756e74207573696e67204b4d5820546f6b656e20666f72204b4d5820537461626c6520546f6b656e73206d757374206265206265747765656e203020616e64203130302025416d6f756e74206d7573742062652067726561746572207468616e203000000052656365697665722061646472657373206d757374206e6f7420626520302d616464726573734d75737420626520616e2061646d696e000000000000000000000000000000004163636f756e742068617320616c726561647920686176652061646d696e20726f6c65a165627a7a7230582094cce7a57388fb8d342746dcb192873a3188c5d2edab4a6e8237456f1ab97ad900294f776e65722061646472657373206d757374206e6f7420626520302d616464726573734163636f756e742068617320616c726561647920686176652061646d696e20726f6c65",
  "source": "pragma solidity >=0.4.10 <0.6.0;\r\n\r\nimport \"./MintBurnToken.sol\";\r\nimport \"./KMXToken.sol\";\r\nimport \"./utils/AddressUtils.sol\";\r\n\r\nlibrary SafeKMXToken {\r\n    function SafeFeesForStableTokenTransfer(KMXToken token, address from, uint256 fees) internal returns(bool) {\r\n        assert(token.feesForStableTokenTransfer(from, fees));\r\n        return true;\r\n    }\r\n    function SafeFeesForStableTokenTransferFrom(KMXToken token, address from, uint256 fees, address spender) internal returns(bool) {\r\n        assert(token.feesForStableTokenTransferFrom(from, fees, spender));\r\n        return true;\r\n    }\r\n    function SafeBuyKMXTokens(KMXToken token, address account, uint256 amount) internal returns(bool) {\r\n        assert(token.buyKMXTokens(account, amount));\r\n        return true;\r\n    }\r\n    function SafeBalanceOf(KMXToken token, address account) internal view returns(uint256) {\r\n        bool success = false;\r\n        uint256 balance = 0;\r\n        (success, balance) = token.balanceOfFromStableToken(account);\r\n        assert(success);\r\n        return balance;\r\n    }\r\n}\r\n\r\ncontract KMXStableToken is MintBurnToken {\r\n    address internal _kmxStableMarketAddress;\r\n    KMXToken internal _kmxToken;\r\n    address internal _kmxTokenAdd;\r\n    uint256 internal _kmxTokenDiscountForFees;\r\n\r\n    event KMXTokenSet(address indexed tokenAddress);\r\n\r\n    using SafeKMXToken for KMXToken;\r\n\r\n    constructor() public {\r\n        _initTokenPrices(1 * 113 * 10 ** 16, 1 * DECIMALS, 1 * 17 * 10 ** 14);\r\n        _kmxTokenDiscountForFees = 50;\r\n        _totalSupply = 10000000 * DECIMALS;\r\n        balances[_tokenHolder] = _totalSupply;\r\n    }\r\n\r\n    function changeKmxTokenDiscountForFees(uint256 kmxTokenDiscountForFees) public onlyOwner {\r\n        require(kmxTokenDiscountForFees<=100, \"Fees Discount using KMX Token for KMX Stable Tokens must be between 0 and 100 %\");\r\n        _kmxTokenDiscountForFees = kmxTokenDiscountForFees;\r\n    }\r\n\r\n    function getKmxTokenDiscountForFees() public view returns(uint256){\r\n        return _kmxTokenDiscountForFees;\r\n    }\r\n\r\n    modifier isContractAddress(address _address) {\r\n        require(AddressUtils.isContractAddress(_address), \"Must be a contract address\");\r\n        _;\r\n    }\r\n\r\n    modifier onlyMarketContract() {\r\n        require(msg.sender == _kmxStableMarketAddress, \"Only Market contract can perform this operation\");\r\n        _;\r\n    }\r\n\r\n    function tokenHolder() public view onlyMarketContract returns(address) {\r\n        return _tokenHolder;\r\n    }\r\n\r\n    function setKmxToken(address _address) public isContractAddress(_address) onlyOwner returns(bool) {\r\n        address payable _payableAddress = address(uint160(_address));\r\n        _kmxToken = KMXToken(_payableAddress);\r\n        _kmxTokenAdd = _address;\r\n        emit KMXTokenSet(_kmxTokenAdd);\r\n        return true;\r\n    }\r\n\r\n    function getKmxToken() public view returns(address) {\r\n        return _kmxTokenAdd;\r\n    }\r\n\r\n    function setMarketContractAddress(address _address) public isContractAddress(_address) onlyOwner  {\r\n        _kmxStableMarketAddress = _address;\r\n    }\r\n\r\n    function marketContractAddress() public view returns(address) {\r\n        return _kmxStableMarketAddress;\r\n    }\r\n\r\n    function kmxStableTokenTransfer(address to, uint256 value) public \r\n    accountNotFrozen(msg.sender) accountNotFrozen(to) notTokenHolder(msg.sender) returns(bool) {\r\n        require(to != address(0), \"Receiver address must not be 0-address\");\r\n        require(msg.sender != address(0), \"Receiver address must not be 0-address\");\r\n        require(value > 0, \"Amount must be greater than 0\");\r\n        if (_transactionFees > 0) {\r\n            uint256 fees = value.mul(_transactionFees).div(10000);\r\n            require(balanceOf(msg.sender) >= value.add(fees), \"Sender Unsifficient funds\");\r\n            _transferAllArgs(msg.sender, to, value);\r\n            _transferAllArgs(msg.sender, _tokenHolder, fees);\r\n        }\r\n        else {\r\n            require(balanceOf(msg.sender) >= value, \"Sender Unsifficient funds\");\r\n            _transferAllArgs(msg.sender, to, value);\r\n        }\r\n        return true;\r\n    }\r\n\r\n    function kmxStableTokenTransferFrom(address from, address to, uint256 value) public \r\n    accountNotFrozen(msg.sender) accountNotFrozen(from) accountNotFrozen(to) notTokenHolder(from) returns(bool) {\r\n        require(to != address(0), \"Receiver address must not be 0-address\");\r\n        require(from != address(0), \"Sender address must not be 0-address\");\r\n        require(msg.sender != address(0), \"Spender address must not be 0-address\");\r\n        require(value > 0, \"Amount must be greater than 0\");\r\n        if (_transactionFees > 0) {\r\n            uint256 fees = value.mul(_transactionFees).div(10000);\r\n            require(balanceOf(from) >= value.add(fees), \"Sender unsufficient funds\");\r\n            require(allowance(from, msg.sender) >= value.add(fees), \"Spender unsufficient fees\");\r\n            _transferFromAllArgs(from, to, value, msg.sender);\r\n            _transferFromAllArgs(from, _tokenHolder, fees, msg.sender);\r\n        }\r\n        else{\r\n            require(balanceOf(from) >= value, \"Sender unsufficient funds\");\r\n            require(allowance(from, msg.sender) >= value, \"Spender unsufficient fees\");\r\n            _transferFromAllArgs(from, to, value, msg.sender);\r\n        } \r\n        return true;\r\n    }\r\n\r\n    function kmxStableTokenTransferKMXFees(address to, uint256 value, uint256 stableTokenPrice) public \r\n    accountNotFrozen(msg.sender) accountNotFrozen(to) notTokenHolder(msg.sender) returns(bool) {\r\n        require(to != address(0), \"Receiver address must not be 0-address\");\r\n        require(msg.sender != address(0), \"Receiver address must not be 0-address\");\r\n        require(value > 0, \"Amount must be greater than 0\");\r\n        if (_transactionFees > 0) {\r\n            uint256 fees = value.mul(_transactionFees).div(10000);\r\n            fees = fees.mul(DECIMALS).div(stableTokenPrice);\r\n            fees = fees.mul(uint256(100).sub(_kmxTokenDiscountForFees)).div(100);\r\n            require(balanceOf(msg.sender) >= value, \"Sender Unsifficient funds\");\r\n            _transferAllArgs(msg.sender, to, value);\r\n            return _kmxToken.SafeFeesForStableTokenTransfer(msg.sender, fees);\r\n        }\r\n        else {\r\n            require(balanceOf(msg.sender) >= value, \"Sender Unsifficient funds\");\r\n            _transferAllArgs(msg.sender, to, value);\r\n        }\r\n        return true;\r\n    }\r\n\r\n    function kmxStableTokenTransferFromKMXFees(address from, address to, uint256 value, uint256 stableTokenPrice) public\r\n    accountNotFrozen(msg.sender) accountNotFrozen(from) accountNotFrozen(to) notTokenHolder(from) returns(bool) {\r\n        require(to != address(0), \"Receiver address must not be 0-address\");\r\n        require(from != address(0), \"Sender address must not be 0-address\");\r\n        require(msg.sender != address(0), \"Spender address must not be 0-address\");\r\n        require(value > 0, \"Amount must be greater than 0\");\r\n        if (_transactionFees > 0) {\r\n            uint256 fees = value.mul(_transactionFees).div(10000);\r\n            fees = fees.mul(DECIMALS).div(stableTokenPrice);\r\n            fees = fees.mul(uint256(100).sub(_kmxTokenDiscountForFees)).div(100);\r\n            require(balanceOf(from) >= value, \"Sender unsufficient funds\");\r\n            require(allowance(from, msg.sender) >= value, \"Spender unsufficient fees\");\r\n            _transferFromAllArgs(from, to, value, msg.sender);\r\n            return _kmxToken.SafeFeesForStableTokenTransferFrom(from, fees, msg.sender);\r\n        }\r\n        else{\r\n            require(balanceOf(from) >= value, \"Sender unsufficient funds\");\r\n            require(allowance(from, msg.sender) >= value, \"Spender unsufficient fees\");\r\n            _transferFromAllArgs(from, to, value, msg.sender);\r\n        } \r\n        return true;\r\n    }\r\n\r\n    function transfer(address to, uint256 value) public returns(bool) {\r\n        return kmxStableTokenTransfer(to, value);\r\n    }\r\n\r\n    function transferFrom(address to, address from, uint256 value) public returns(bool) {\r\n        return kmxStableTokenTransferFrom(from, to, value);\r\n    }\r\n\r\n    function marketTransfer(address from, address to, uint256 value) public onlyMarketContract returns(bool) {\r\n        _transferAllArgs(from, to, value);\r\n        return true;\r\n    }\r\n\r\n    function marketBuyKMX(address to, uint256 value) public onlyMarketContract returns(bool) {\r\n        _kmxToken.SafeBuyKMXTokens(to, value);\r\n        return true;\r\n    }\r\n\r\n    function () external payable {\r\n        if (msg.value > 0){\r\n            address payable _payableTokenHolder = address(uint160(_tokenHolder));\r\n            if (msg.value > 10**16) {\r\n                msg.sender.transfer(msg.value.sub(10**16));\r\n                _payableTokenHolder.transfer(10**16);\r\n            }\r\n            else {\r\n                msg.sender.transfer(msg.value.mul(90).div(100));\r\n                _payableTokenHolder.transfer(msg.value.mul(10).div(100));\r\n            }\r\n        }\r\n    }\r\n\r\n    /*function buyKMXTokens(uint256 amount) public {\r\n        require(balanceOf(msg.sender) >= amount, \"Unsufficient balances\");\r\n        bytes32 reqId = oraclize_query(\"URL\", string(abi.encodePacked(\"json(\", _stableTokenPriceUrl, \").price\")));\r\n        buyKMXBuyersReqIds[reqId] = msg.sender;\r\n        buyKMXBuyers[msg.sender] = amount;\r\n        requestBuyKMXTokens[msg.sender] = true;\r\n    }\r\n\r\n    function exchangeKMXTokens(bytes32 _oracleReqId, uint256 stableTokenPrice) public { // 1 KMX ===? x KEUR\r\n        address _account = buyKMXBuyersReqIds[_oracleReqId];\r\n        uint256 amount = buyKMXBuyers[_account];\r\n        uint256 fees = amount.mul(_buyKMXFees).div(100);\r\n        if (!requestBuyKMXTokens[msg.sender]){\r\n            emit FeedbackBuyKMX(_account, \"Sender has not requested buy KMX Tokens\");\r\n            delete buyKMXBuyersReqIds[_oracleReqId];\r\n            delete buyKMXBuyers[_account];\r\n            requestBuyKMXTokens[msg.sender] = false;\r\n        }\r\n        else if (balanceOf(msg.sender) < amount){\r\n            emit FeedbackBuyKMX(_account, \"Unsufficient balances\");\r\n            delete buyKMXBuyersReqIds[_oracleReqId];\r\n            delete buyKMXBuyers[_account];\r\n            requestBuyKMXTokens[msg.sender] = false;\r\n        }\r\n        else{\r\n            uint256 amountToUse = amount.sub(fees);\r\n            uint256 kmxTokensQuantity = amountToUse.mul(DECIMALS).div(stableTokenPrice);\r\n            _kmxToken.SafeBuyKMXTokens(msg.sender, kmxTokensQuantity);\r\n            _transferAllArgs(_account, _tokenHolder, fees);\r\n            emit KMXTokensBought(msg.sender, kmxTokensQuantity);\r\n        }\r\n    }\r\n\r\n    function _oracleCallback(bytes32 myId, string memory result) internal {\r\n        //super._oracleCallback(myId, result);\r\n        if (buyKMXBuyersReqIds[myId]!=address(0)){\r\n            (uint256 stTknPrice, bool error) = result.parseToUint256();\r\n            exchangeKMXTokens(myId, error?0:stTknPrice);\r\n        }\r\n    }*/\r\n\r\n}",
  "sourcePath": "C:\\Users\\Sim'S\\WebstormProjects\\kmxv1\\contracts\\kmx\\KMXStableToken.sol",
  "compiler": {
    "name": "solc",
    "version": "0.5.8+commit.23d335f2.Emscripten.clang"
  },
  "schemaVersion": "3.0.10",
  "updatedAt": "2020-05-05T09:02:45.961Z",
  "devdoc": {
    "methods": {}
  },
  "userdoc": {
    "methods": {}
  }
}