{
  "contractName": "KMXStable",
  "abi": [
    {
      "constant": true,
      "inputs": [
        {
          "name": "_currency",
          "type": "string"
        }
      ],
      "name": "tokenPrice",
      "outputs": [
        {
          "name": "",
          "type": "uint256"
        }
      ],
      "payable": false,
      "stateMutability": "view",
      "type": "function"
    },
    {
      "constant": true,
      "inputs": [],
      "name": "name",
      "outputs": [
        {
          "name": "",
          "type": "string"
        }
      ],
      "payable": false,
      "stateMutability": "view",
      "type": "function"
    },
    {
      "constant": true,
      "inputs": [],
      "name": "symbols",
      "outputs": [
        {
          "name": "",
          "type": "string"
        }
      ],
      "payable": false,
      "stateMutability": "view",
      "type": "function"
    },
    {
      "constant": false,
      "inputs": [
        {
          "name": "spender",
          "type": "address"
        },
        {
          "name": "value",
          "type": "uint256"
        }
      ],
      "name": "approve",
      "outputs": [
        {
          "name": "",
          "type": "bool"
        }
      ],
      "payable": false,
      "stateMutability": "nonpayable",
      "type": "function"
    },
    {
      "constant": false,
      "inputs": [
        {
          "name": "admin",
          "type": "address"
        }
      ],
      "name": "removeAdmin",
      "outputs": [],
      "payable": false,
      "stateMutability": "nonpayable",
      "type": "function"
    },
    {
      "constant": true,
      "inputs": [],
      "name": "totalSupply",
      "outputs": [
        {
          "name": "",
          "type": "uint256"
        }
      ],
      "payable": false,
      "stateMutability": "view",
      "type": "function"
    },
    {
      "constant": false,
      "inputs": [
        {
          "name": "to",
          "type": "address"
        },
        {
          "name": "from",
          "type": "address"
        },
        {
          "name": "value",
          "type": "uint256"
        }
      ],
      "name": "transferFrom",
      "outputs": [
        {
          "name": "",
          "type": "bool"
        }
      ],
      "payable": false,
      "stateMutability": "nonpayable",
      "type": "function"
    },
    {
      "constant": true,
      "inputs": [
        {
          "name": "account",
          "type": "address"
        }
      ],
      "name": "isAdmin",
      "outputs": [
        {
          "name": "",
          "type": "bool"
        }
      ],
      "payable": false,
      "stateMutability": "view",
      "type": "function"
    },
    {
      "constant": true,
      "inputs": [
        {
          "name": "_address",
          "type": "address"
        }
      ],
      "name": "isOwner",
      "outputs": [
        {
          "name": "",
          "type": "bool"
        }
      ],
      "payable": false,
      "stateMutability": "view",
      "type": "function"
    },
    {
      "constant": false,
      "inputs": [
        {
          "name": "_address",
          "type": "address"
        }
      ],
      "name": "setKmxToken",
      "outputs": [
        {
          "name": "",
          "type": "bool"
        }
      ],
      "payable": false,
      "stateMutability": "nonpayable",
      "type": "function"
    },
    {
      "constant": true,
      "inputs": [],
      "name": "marketContractAddress",
      "outputs": [
        {
          "name": "",
          "type": "address"
        }
      ],
      "payable": false,
      "stateMutability": "view",
      "type": "function"
    },
    {
      "constant": true,
      "inputs": [],
      "name": "decimals",
      "outputs": [
        {
          "name": "",
          "type": "uint256"
        }
      ],
      "payable": false,
      "stateMutability": "view",
      "type": "function"
    },
    {
      "constant": false,
      "inputs": [
        {
          "name": "spender",
          "type": "address"
        },
        {
          "name": "value",
          "type": "uint256"
        }
      ],
      "name": "increaseAllowance",
      "outputs": [],
      "payable": false,
      "stateMutability": "nonpayable",
      "type": "function"
    },
    {
      "constant": false,
      "inputs": [
        {
          "name": "_account",
          "type": "address"
        }
      ],
      "name": "frozeAccount",
      "outputs": [],
      "payable": false,
      "stateMutability": "nonpayable",
      "type": "function"
    },
    {
      "constant": false,
      "inputs": [],
      "name": "kill",
      "outputs": [],
      "payable": false,
      "stateMutability": "nonpayable",
      "type": "function"
    },
    {
      "constant": true,
      "inputs": [],
      "name": "tokenHolder",
      "outputs": [
        {
          "name": "",
          "type": "address"
        }
      ],
      "payable": false,
      "stateMutability": "view",
      "type": "function"
    },
    {
      "constant": false,
      "inputs": [
        {
          "name": "_value",
          "type": "uint256"
        }
      ],
      "name": "burn",
      "outputs": [
        {
          "name": "",
          "type": "uint256"
        }
      ],
      "payable": false,
      "stateMutability": "nonpayable",
      "type": "function"
    },
    {
      "constant": false,
      "inputs": [
        {
          "name": "to",
          "type": "address"
        },
        {
          "name": "value",
          "type": "uint256"
        }
      ],
      "name": "marketBuyKMX",
      "outputs": [
        {
          "name": "",
          "type": "bool"
        }
      ],
      "payable": false,
      "stateMutability": "nonpayable",
      "type": "function"
    },
    {
      "constant": false,
      "inputs": [],
      "name": "claimOwnership",
      "outputs": [],
      "payable": false,
      "stateMutability": "nonpayable",
      "type": "function"
    },
    {
      "constant": false,
      "inputs": [
        {
          "name": "from",
          "type": "address"
        },
        {
          "name": "to",
          "type": "address"
        },
        {
          "name": "value",
          "type": "uint256"
        },
        {
          "name": "stableTokenPrice",
          "type": "uint256"
        }
      ],
      "name": "kmxStableTokenTransferFromKMXFees",
      "outputs": [
        {
          "name": "",
          "type": "bool"
        }
      ],
      "payable": false,
      "stateMutability": "nonpayable",
      "type": "function"
    },
    {
      "constant": true,
      "inputs": [],
      "name": "getKmxToken",
      "outputs": [
        {
          "name": "",
          "type": "address"
        }
      ],
      "payable": false,
      "stateMutability": "view",
      "type": "function"
    },
    {
      "constant": false,
      "inputs": [
        {
          "name": "sender",
          "type": "address"
        },
        {
          "name": "spender",
          "type": "address"
        },
        {
          "name": "value",
          "type": "uint256"
        }
      ],
      "name": "approveFromAdmin",
      "outputs": [
        {
          "name": "",
          "type": "bool"
        }
      ],
      "payable": false,
      "stateMutability": "nonpayable",
      "type": "function"
    },
    {
      "constant": true,
      "inputs": [
        {
          "name": "_currency",
          "type": "string"
        }
      ],
      "name": "validCurrency",
      "outputs": [
        {
          "name": "",
          "type": "bool"
        }
      ],
      "payable": false,
      "stateMutability": "view",
      "type": "function"
    },
    {
      "constant": true,
      "inputs": [],
      "name": "isMintBurnAllowed",
      "outputs": [
        {
          "name": "",
          "type": "bool"
        }
      ],
      "payable": false,
      "stateMutability": "view",
      "type": "function"
    },
    {
      "constant": false,
      "inputs": [
        {
          "name": "_fees",
          "type": "uint256"
        }
      ],
      "name": "changeFees",
      "outputs": [],
      "payable": false,
      "stateMutability": "nonpayable",
      "type": "function"
    },
    {
      "constant": false,
      "inputs": [
        {
          "name": "admin",
          "type": "address"
        }
      ],
      "name": "addAdmin",
      "outputs": [],
      "payable": false,
      "stateMutability": "nonpayable",
      "type": "function"
    },
    {
      "constant": true,
      "inputs": [
        {
          "name": "account",
          "type": "address"
        }
      ],
      "name": "balanceOf",
      "outputs": [
        {
          "name": "",
          "type": "uint256"
        }
      ],
      "payable": false,
      "stateMutability": "view",
      "type": "function"
    },
    {
      "constant": false,
      "inputs": [
        {
          "name": "_account",
          "type": "address"
        }
      ],
      "name": "unfrozeAccount",
      "outputs": [],
      "payable": false,
      "stateMutability": "nonpayable",
      "type": "function"
    },
    {
      "constant": false,
      "inputs": [
        {
          "name": "_price",
          "type": "uint256"
        },
        {
          "name": "_currency",
          "type": "string"
        }
      ],
      "name": "changePrice",
      "outputs": [],
      "payable": false,
      "stateMutability": "nonpayable",
      "type": "function"
    },
    {
      "constant": false,
      "inputs": [
        {
          "name": "to",
          "type": "address"
        },
        {
          "name": "value",
          "type": "uint256"
        },
        {
          "name": "stableTokenPrice",
          "type": "uint256"
        }
      ],
      "name": "kmxStableTokenTransferKMXFees",
      "outputs": [
        {
          "name": "",
          "type": "bool"
        }
      ],
      "payable": false,
      "stateMutability": "nonpayable",
      "type": "function"
    },
    {
      "constant": false,
      "inputs": [],
      "name": "renounceAdmin",
      "outputs": [],
      "payable": false,
      "stateMutability": "nonpayable",
      "type": "function"
    },
    {
      "constant": true,
      "inputs": [],
      "name": "getKmxTokenDiscountForFees",
      "outputs": [
        {
          "name": "",
          "type": "uint256"
        }
      ],
      "payable": false,
      "stateMutability": "view",
      "type": "function"
    },
    {
      "constant": false,
      "inputs": [
        {
          "name": "_value",
          "type": "uint256"
        }
      ],
      "name": "mint",
      "outputs": [],
      "payable": false,
      "stateMutability": "nonpayable",
      "type": "function"
    },
    {
      "constant": false,
      "inputs": [
        {
          "name": "_newHolder",
          "type": "address"
        }
      ],
      "name": "changeTokenHolder",
      "outputs": [],
      "payable": false,
      "stateMutability": "nonpayable",
      "type": "function"
    },
    {
      "constant": false,
      "inputs": [
        {
          "name": "spender",
          "type": "address"
        },
        {
          "name": "value",
          "type": "uint256"
        }
      ],
      "name": "decreaseAllowance",
      "outputs": [],
      "payable": false,
      "stateMutability": "nonpayable",
      "type": "function"
    },
    {
      "constant": false,
      "inputs": [
        {
          "name": "to",
          "type": "address"
        },
        {
          "name": "value",
          "type": "uint256"
        }
      ],
      "name": "transfer",
      "outputs": [
        {
          "name": "",
          "type": "bool"
        }
      ],
      "payable": false,
      "stateMutability": "nonpayable",
      "type": "function"
    },
    {
      "constant": false,
      "inputs": [
        {
          "name": "to",
          "type": "address"
        },
        {
          "name": "value",
          "type": "uint256"
        }
      ],
      "name": "kmxStableTokenTransfer",
      "outputs": [
        {
          "name": "",
          "type": "bool"
        }
      ],
      "payable": false,
      "stateMutability": "nonpayable",
      "type": "function"
    },
    {
      "constant": true,
      "inputs": [],
      "name": "transactionFees",
      "outputs": [
        {
          "name": "",
          "type": "uint256"
        }
      ],
      "payable": false,
      "stateMutability": "view",
      "type": "function"
    },
    {
      "constant": false,
      "inputs": [
        {
          "name": "from",
          "type": "address"
        },
        {
          "name": "to",
          "type": "address"
        },
        {
          "name": "value",
          "type": "uint256"
        }
      ],
      "name": "marketTransfer",
      "outputs": [
        {
          "name": "",
          "type": "bool"
        }
      ],
      "payable": false,
      "stateMutability": "nonpayable",
      "type": "function"
    },
    {
      "constant": false,
      "inputs": [
        {
          "name": "kmxTokenDiscountForFees",
          "type": "uint256"
        }
      ],
      "name": "changeKmxTokenDiscountForFees",
      "outputs": [],
      "payable": false,
      "stateMutability": "nonpayable",
      "type": "function"
    },
    {
      "constant": false,
      "inputs": [
        {
          "name": "_address",
          "type": "address"
        }
      ],
      "name": "setMarketContractAddress",
      "outputs": [],
      "payable": false,
      "stateMutability": "nonpayable",
      "type": "function"
    },
    {
      "constant": true,
      "inputs": [
        {
          "name": "owner",
          "type": "address"
        },
        {
          "name": "spender",
          "type": "address"
        }
      ],
      "name": "allowance",
      "outputs": [
        {
          "name": "",
          "type": "uint256"
        }
      ],
      "payable": false,
      "stateMutability": "view",
      "type": "function"
    },
    {
      "constant": false,
      "inputs": [
        {
          "name": "from",
          "type": "address"
        },
        {
          "name": "to",
          "type": "address"
        },
        {
          "name": "value",
          "type": "uint256"
        }
      ],
      "name": "kmxStableTokenTransferFrom",
      "outputs": [
        {
          "name": "",
          "type": "bool"
        }
      ],
      "payable": false,
      "stateMutability": "nonpayable",
      "type": "function"
    },
    {
      "constant": true,
      "inputs": [
        {
          "name": "_account",
          "type": "address"
        }
      ],
      "name": "isAccountFrozen",
      "outputs": [
        {
          "name": "",
          "type": "bool"
        }
      ],
      "payable": false,
      "stateMutability": "view",
      "type": "function"
    },
    {
      "constant": false,
      "inputs": [
        {
          "name": "_newState",
          "type": "bool"
        }
      ],
      "name": "changeMintBurnAllowance",
      "outputs": [],
      "payable": false,
      "stateMutability": "nonpayable",
      "type": "function"
    },
    {
      "constant": false,
      "inputs": [
        {
          "name": "newOwner",
          "type": "address"
        }
      ],
      "name": "transferOwnership",
      "outputs": [],
      "payable": false,
      "stateMutability": "nonpayable",
      "type": "function"
    },
    {
      "payable": true,
      "stateMutability": "payable",
      "type": "fallback"
    },
    {
      "anonymous": false,
      "inputs": [
        {
          "indexed": true,
          "name": "tokenAddress",
          "type": "address"
        }
      ],
      "name": "KMXTokenSet",
      "type": "event"
    },
    {
      "anonymous": false,
      "inputs": [
        {
          "indexed": false,
          "name": "_newState",
          "type": "bool"
        }
      ],
      "name": "MintBurnAllowanceChanged",
      "type": "event"
    },
    {
      "anonymous": false,
      "inputs": [
        {
          "indexed": false,
          "name": "value",
          "type": "uint256"
        },
        {
          "indexed": false,
          "name": "newTotalSupply",
          "type": "uint256"
        }
      ],
      "name": "Minted",
      "type": "event"
    },
    {
      "anonymous": false,
      "inputs": [
        {
          "indexed": false,
          "name": "value",
          "type": "uint256"
        },
        {
          "indexed": false,
          "name": "newTotalSupply",
          "type": "uint256"
        }
      ],
      "name": "Burned",
      "type": "event"
    },
    {
      "anonymous": false,
      "inputs": [
        {
          "indexed": true,
          "name": "oldTokenHolder",
          "type": "address"
        },
        {
          "indexed": true,
          "name": "newTokenHolder",
          "type": "address"
        }
      ],
      "name": "TokenHolderChanged",
      "type": "event"
    },
    {
      "anonymous": false,
      "inputs": [
        {
          "indexed": false,
          "name": "newPrice",
          "type": "uint256"
        },
        {
          "indexed": false,
          "name": "currency",
          "type": "string"
        }
      ],
      "name": "PriceChanged",
      "type": "event"
    },
    {
      "anonymous": false,
      "inputs": [
        {
          "indexed": false,
          "name": "newFees",
          "type": "uint256"
        }
      ],
      "name": "FeesChanged",
      "type": "event"
    },
    {
      "anonymous": false,
      "inputs": [
        {
          "indexed": true,
          "name": "account",
          "type": "address"
        }
      ],
      "name": "AccountFrozen",
      "type": "event"
    },
    {
      "anonymous": false,
      "inputs": [
        {
          "indexed": true,
          "name": "account",
          "type": "address"
        }
      ],
      "name": "AccountUnfrozen",
      "type": "event"
    },
    {
      "anonymous": false,
      "inputs": [
        {
          "indexed": true,
          "name": "admin",
          "type": "address"
        }
      ],
      "name": "AdminAdded",
      "type": "event"
    },
    {
      "anonymous": false,
      "inputs": [
        {
          "indexed": true,
          "name": "admin",
          "type": "address"
        }
      ],
      "name": "AdminRemoved",
      "type": "event"
    },
    {
      "anonymous": false,
      "inputs": [
        {
          "indexed": true,
          "name": "previousOwner",
          "type": "address"
        },
        {
          "indexed": true,
          "name": "newOwner",
          "type": "address"
        }
      ],
      "name": "OwnershipTransferred",
      "type": "event"
    },
    {
      "anonymous": false,
      "inputs": [
        {
          "indexed": true,
          "name": "owner",
          "type": "address"
        },
        {
          "indexed": true,
          "name": "spender",
          "type": "address"
        },
        {
          "indexed": false,
          "name": "value",
          "type": "uint256"
        }
      ],
      "name": "Approval",
      "type": "event"
    },
    {
      "anonymous": false,
      "inputs": [
        {
          "indexed": true,
          "name": "from",
          "type": "address"
        },
        {
          "indexed": true,
          "name": "to",
          "type": "address"
        },
        {
          "indexed": false,
          "name": "value",
          "type": "uint256"
        }
      ],
      "name": "Transfer",
      "type": "event"
    },
    {
      "constant": false,
      "inputs": [
        {
          "name": "_name",
          "type": "string"
        }
      ],
      "name": "setName",
      "outputs": [],
      "payable": false,
      "stateMutability": "nonpayable",
      "type": "function"
    },
    {
      "constant": false,
      "inputs": [
        {
          "name": "_symbols",
          "type": "string"
        }
      ],
      "name": "setSymbols",
      "outputs": [],
      "payable": false,
      "stateMutability": "nonpayable",
      "type": "function"
    }
  ],
  "bytecode": "0x60c0604052600c60808190527f4b616d697820537461626c65000000000000000000000000000000000000000060a09081526200004091600e9190620003f0565b506040805180820190915260048082527f4b4555520000000000000000000000000000000000000000000000000000000060209092019182526200008791600f91620003f0565b50601260105533620000e5576040517f08c379a0000000000000000000000000000000000000000000000000000000008152600401808060200182810382526023815260200180620048dd6023913960400191505060405180910390fd5b60008054600160a060020a0319163317908190556200011690600160a060020a0316640100000000620001c4810204565b6200012d6001808064010000000062000216810204565b606460075560005460098054600160a060020a03909216600160a060020a03199092169190911760a060020a60ff02191690556200018d670fae910354310000670de0b6b3a764000066060a24181e400064010000000062000216810204565b6032600d556a084595161401484a0000006004819055600954600160a060020a031660009081526005602052604090205562000495565b620001df60028264010000000062003fde620002c682021704565b604051600160a060020a038216907f44d6d25963f097ad14f29f06854a01f575648a1ef82f30e562ccd3889717e33990600090a250565b604080517f455552000000000000000000000000000000000000000000000000000000000081526008600380830182905283519283900360239081018420979097557f5553440000000000000000000000000000000000000000000000000000000000835282810182905283519283900387018320959095557f58414600000000000000000000000000000000000000000000000000000000008252938101939093525191829003909201902055565b620002db828264010000000062000358810204565b1562000333576040517f08c379a0000000000000000000000000000000000000000000000000000000008152600401808060200182810382526023815260200180620049006023913960400191505060405180910390fd5b600160a060020a0316600090815260209190915260409020805460ff19166001179055565b6000600160a060020a038216620003d057604080517f08c379a000000000000000000000000000000000000000000000000000000000815260206004820181905260248201527f4163636f756e74206d757374206e6f74206265207a65726f2d61646472657373604482015290519081900360640190fd5b50600160a060020a03166000908152602091909152604090205460ff1690565b828054600181600116156101000203166002900490600052602060002090601f016020900481019282601f106200043357805160ff191683800117855562000463565b8280016001018555821562000463579182015b828111156200046357825182559160200191906001019062000446565b506200047192915062000475565b5090565b6200049291905b808211156200047157600081556001016200047c565b90565b61443880620004a56000396000f3fe6080604052600436106102b0576000357c0100000000000000000000000000000000000000000000000000000000900480636cda375b11610177578063a9059cbb116100de578063c73358de11610097578063c73358de14610def578063dd62ed3e14610e22578063e44f917714610e5d578063e816d97f14610ea0578063ea14d67b14610ed3578063f2fde38b14610eff576102b0565b8063a9059cbb14610c7e578063ad59d89214610cb7578063b37be8e414610cf0578063bcf0dd8e14610d05578063c110f14514610d48578063c47f002714610d72576102b0565b80638bad0c0a116101305780638bad0c0a14610b41578063923aa87d14610b565780639e69909214610b6b578063a0712d6814610be8578063a18a209214610c12578063a457c2d714610c45576102b0565b80636cda375b1461098557806370480275146109af57806370a08231146109e25780637b68d0ac14610a155780638868686c14610a485780638af1384614610b02576102b0565b8063395093511161021b5780634e71e0c8116101d45780634e71e0c8146108075780635303852a1461081c5780635633131c1461086557806367deaeb11461087a578063697d60b0146108bd5780636b8d9cc514610970576102b0565b8063395093511461070e578063414f85941461074757806341c0e1b51461077a578063420a83e71461078f57806342966c68146107a45780634bb63ce6146107ce576102b0565b806323b872dd1161026d57806323b872dd146105ec57806324d7806c1461062f5780632f54bf6e146106625780632fa9a2f8146106955780633087cbe3146106c8578063313ce567146106f9576102b0565b806302888d06146103f357806306fdde03146104b857806307039ff914610542578063095ea7b3146105575780631785f53c146105a457806318160ddd146105d7575b34156103f157600954600160a060020a0316662386f26fc1000034111561035357336108fc6102ec34662386f26fc1000063ffffffff610f3216565b6040518115909202916000818181858888f19350505050158015610314573d6000803e3d6000fd5b50604051600160a060020a03821690600090662386f26fc100009082818181858883f1935050505015801561034d573d6000803e3d6000fd5b506103ef565b336108fc610379606461036d34605a63ffffffff610f9716565b9063ffffffff610ffa16565b6040518115909202916000818181858888f193505050501580156103a1573d6000803e3d6000fd5b50600160a060020a0381166108fc6103c5606461036d34600a63ffffffff610f9716565b6040518115909202916000818181858888f193505050501580156103ed573d6000803e3d6000fd5b505b505b005b3480156103ff57600080fd5b506104a66004803603602081101561041657600080fd5b81019060208101813564010000000081111561043157600080fd5b82018360208201111561044357600080fd5b8035906020019184600183028401116401000000008311171561046557600080fd5b91908080601f016020809104026020016040519081016040528093929190818152602001838380828437600092019190915250929550611067945050505050565b60408051918252519081900360200190f35b3480156104c457600080fd5b506104cd611173565b6040805160208082528351818301528351919283929083019185019080838360005b838110156105075781810151838201526020016104ef565b50505050905090810190601f1680156105345780820380516001836020036101000a031916815260200191505b509250505060405180910390f35b34801561054e57600080fd5b506104cd611201565b34801561056357600080fd5b506105906004803603604081101561057a57600080fd5b50600160a060020a03813516906020013561125c565b604080519115158252519081900360200190f35b3480156105b057600080fd5b506103f1600480360360208110156105c757600080fd5b5035600160a060020a0316611301565b3480156105e357600080fd5b506104a6611360565b3480156105f857600080fd5b506105906004803603606081101561060f57600080fd5b50600160a060020a03813581169160208101359091169060400135611367565b34801561063b57600080fd5b506105906004803603602081101561065257600080fd5b5035600160a060020a031661137c565b34801561066e57600080fd5b506105906004803603602081101561068557600080fd5b5035600160a060020a031661138f565b3480156106a157600080fd5b50610590600480360360208110156106b857600080fd5b5035600160a060020a03166113a3565b3480156106d457600080fd5b506106dd6114c7565b60408051600160a060020a039092168252519081900360200190f35b34801561070557600080fd5b506104a66114d6565b34801561071a57600080fd5b506103f16004803603604081101561073157600080fd5b50600160a060020a0381351690602001356114dc565b34801561075357600080fd5b506103f16004803603602081101561076a57600080fd5b5035600160a060020a031661157a565b34801561078657600080fd5b506103f1611667565b34801561079b57600080fd5b506106dd6116c6565b3480156107b057600080fd5b506104a6600480360360208110156107c757600080fd5b5035611725565b3480156107da57600080fd5b50610590600480360360408110156107f157600080fd5b50600160a060020a0381351690602001356118a2565b34801561081357600080fd5b506103f1611918565b34801561082857600080fd5b506105906004803603608081101561083f57600080fd5b50600160a060020a038135811691602081013590911690604081013590606001356119d5565b34801561087157600080fd5b506106dd611e24565b34801561088657600080fd5b506105906004803603606081101561089d57600080fd5b50600160a060020a03813581169160208101359091169060400135611e33565b3480156108c957600080fd5b50610590600480360360208110156108e057600080fd5b8101906020810181356401000000008111156108fb57600080fd5b82018360208201111561090d57600080fd5b8035906020019184600183028401116401000000008311171561092f57600080fd5b91908080601f016020809104026020016040519081016040528093929190818152602001838380828437600092019190915250929550611f2b945050505050565b34801561097c57600080fd5b50610590611f95565b34801561099157600080fd5b506103f1600480360360208110156109a857600080fd5b5035611fa5565b3480156109bb57600080fd5b506103f1600480360360208110156109d257600080fd5b5035600160a060020a031661208d565b3480156109ee57600080fd5b506104a660048036036020811015610a0557600080fd5b5035600160a060020a03166120e9565b348015610a2157600080fd5b506103f160048036036020811015610a3857600080fd5b5035600160a060020a03166120f4565b348015610a5457600080fd5b506103f160048036036040811015610a6b57600080fd5b81359190810190604081016020820135640100000000811115610a8d57600080fd5b820183602082011115610a9f57600080fd5b80359060200191846001830284011164010000000083111715610ac157600080fd5b91908080601f0160208091040260200160405190810160405280939291908181526020018383808284376000920191909152509295506121ef945050505050565b348015610b0e57600080fd5b5061059060048036036060811015610b2557600080fd5b50600160a060020a038135169060208101359060400135612535565b348015610b4d57600080fd5b506103f161283c565b348015610b6257600080fd5b506104a66128fd565b348015610b7757600080fd5b506103f160048036036020811015610b8e57600080fd5b810190602081018135640100000000811115610ba957600080fd5b820183602082011115610bbb57600080fd5b80359060200191846001830284011164010000000083111715610bdd57600080fd5b509092509050612903565b348015610bf457600080fd5b506103f160048036036020811015610c0b57600080fd5b50356129b9565b348015610c1e57600080fd5b506103f160048036036020811015610c3557600080fd5b5035600160a060020a0316612afc565b348015610c5157600080fd5b506103f160048036036040811015610c6857600080fd5b50600160a060020a038135169060200135612c82565b348015610c8a57600080fd5b5061059060048036036040811015610ca157600080fd5b50600160a060020a038135169060200135612d1c565b348015610cc357600080fd5b5061059060048036036040811015610cda57600080fd5b50600160a060020a038135169060200135612d24565b348015610cfc57600080fd5b506104a6612ff2565b348015610d1157600080fd5b5061059060048036036060811015610d2857600080fd5b50600160a060020a03813581169160208101359091169060400135612ff8565b348015610d5457600080fd5b506103f160048036036020811015610d6b57600080fd5b5035613052565b348015610d7e57600080fd5b506103f160048036036020811015610d9557600080fd5b810190602081018135640100000000811115610db057600080fd5b820183602082011115610dc257600080fd5b80359060200191846001830284011164010000000083111715610de457600080fd5b5090925090506130ea565b348015610dfb57600080fd5b506103f160048036036020811015610e1257600080fd5b5035600160a060020a031661319b565b348015610e2e57600080fd5b506104a660048036036040811015610e4557600080fd5b50600160a060020a0381358116916020013516613279565b348015610e6957600080fd5b5061059060048036036060811015610e8057600080fd5b50600160a060020a03813581169160208101359091169060400135613285565b348015610eac57600080fd5b5061059060048036036020811015610ec357600080fd5b5035600160a060020a031661369d565b348015610edf57600080fd5b506103f160048036036020811015610ef657600080fd5b503515156136a8565b348015610f0b57600080fd5b506103f160048036036020811015610f2257600080fd5b5035600160a060020a0316613822565b600082821115610f8c576040805160e560020a62461bcd02815260206004820152601e60248201527f536166654d6174683a207375627472616374696f6e206f766572666c6f770000604482015290519081900360640190fd5b508082035b92915050565b600082610fa657506000610f91565b82820282848281610fb357fe5b0414610ff35760405160e560020a62461bcd0281526004018080602001828103825260218152602001806142936021913960400191505060405180910390fd5b9392505050565b6000808211611053576040805160e560020a62461bcd02815260206004820152601a60248201527f536166654d6174683a206469766973696f6e206279207a65726f000000000000604482015290519081900360640190fd5b600082848161105e57fe5b04949350505050565b6000816008816040518082805190602001908083835b6020831061109c5780518252601f19909201916020918201910161107d565b51815160209384036101000a60001901801990921691161790529201948552506040519384900301909220541515915061110c90505760405160e560020a62461bcd02815260040180806020018281038252602f8152602001806141f1602f913960400191505060405180910390fd5b6008836040518082805190602001908083835b6020831061113e5780518252601f19909201916020918201910161111f565b51815160209384036101000a600019018019909216911617905292019485525060405193849003019092205495945050505050565b600e805460408051602060026001851615610100026000190190941693909304601f810184900484028201840190925281815292918301828280156111f95780601f106111ce576101008083540402835291602001916111f9565b820191906000526020600020905b8154815290600101906020018083116111dc57829003601f168201915b505050505081565b600f805460408051602060026001851615610100026000190190941693909304601f810184900484028201840190925281815292918301828280156111f95780601f106111ce576101008083540402835291602001916111f9565b6000336112a1576040805160e560020a62461bcd02815260206004820152601c60248201526000805160206142f5833981519152604482015290519081900360640190fd5b600160a060020a0383166112ed576040805160e560020a62461bcd02815260206004820152601d6024820152600080516020614273833981519152604482015290519081900360640190fd5b6112f83384846138e9565b50600192915050565b61131260023363ffffffff61393916565b611354576040805160e560020a62461bcd02815260206004820152601060248201526000805160206143ca833981519152604482015290519081900360640190fd5b61135d816139b9565b50565b6004545b90565b6000611374838584613285565b949350505050565b6000610f9160028363ffffffff61393916565b600054600160a060020a0391821691161490565b6000816113af81613a01565b611403576040805160e560020a62461bcd02815260206004820152601a60248201527f4d757374206265206120636f6e74726163742061646472657373000000000000604482015290519081900360640190fd5b600054600160a060020a03163314611453576040805160e560020a62461bcd02815260206004820152601a60248201526000805160206141b1833981519152604482015290519081900360640190fd5b600b805473ffffffffffffffffffffffffffffffffffffffff19908116600160a060020a03868116918217909355600c80549092161790819055604051859291909116907fda46792bd7f899765e3e585d3e08f18062f24add103a990ad3944619dfd1209a90600090a25060019392505050565b600a54600160a060020a031690565b60105481565b3361151f576040805160e560020a62461bcd02815260206004820152601c60248201526000805160206142f5833981519152604482015290519081900360640190fd5b600160a060020a03821661156b576040805160e560020a62461bcd02815260206004820152601d6024820152600080516020614273833981519152604482015290519081900360640190fd5b611576338383613a0d565b5050565b61158b60023363ffffffff61393916565b6115cd576040805160e560020a62461bcd02815260206004820152601060248201526000805160206143ca833981519152604482015290519081900360640190fd5b806115d781613a64565b1561161a576040805160e560020a62461bcd02815260206004820152601a6024820152600080516020614191833981519152604482015290519081900360640190fd5b600160a060020a038216600081815260036020526040808220805460ff19166001179055517f4f2a367e694e71282f29ab5eaa04c4c0be45ac5bf2ca74fb67068b98bdc2887d9190a25050565b600054600160a060020a031633146116b7576040805160e560020a62461bcd02815260206004820152601a60248201526000805160206141b1833981519152604482015290519081900360640190fd5b600054600160a060020a031680ff5b600a54600090600160a060020a031633146117155760405160e560020a62461bcd02815260040180806020018281038252602f815260200180614220602f913960400191505060405180910390fd5b50600954600160a060020a031690565b600061173860023363ffffffff61393916565b61177a576040805160e560020a62461bcd02815260206004820152601060248201526000805160206143ca833981519152604482015290519081900360640190fd5b60095460a060020a900460ff166117c55760405160e560020a62461bcd02815260040180806020018281038252602481526020018061424f6024913960400191505060405180910390fd5b600954829081906117de90600160a060020a03166120e9565b10156117fc576009546117f990600160a060020a03166120e9565b90505b60095461181290600160a060020a031682613a82565b600454611825908263ffffffff610f3216565b6004557fcec1bae6e024d929f2929f3478ce70f55f9c636c8ef7b5073a61d7c3a432451b83611852611360565b6040805192835260208301919091528051918290030190a1600954604080518381529051600092600160a060020a031691600080516020614315833981519152919081900360200190a392915050565b600a54600090600160a060020a031633146118f15760405160e560020a62461bcd02815260040180806020018281038252602f815260200180614220602f913960400191505060405180910390fd5b600b5461190e90600160a060020a0316848463ffffffff613acb16565b5060019392505050565b600154600160a060020a0316331461197a576040805160e560020a62461bcd02815260206004820152601c60248201527f53656e646572206d7573742062652070656e64696e67206f776e657200000000604482015290519081900360640190fd5b6001546000805473ffffffffffffffffffffffffffffffffffffffff1916600160a060020a03928316908117808355604051919316917f8be0079c531659141344cd1fd0a4f28419497f9722a3daafe3b4186f6b6457e091a3565b6000336119e181613a64565b15611a24576040805160e560020a62461bcd02815260206004820152601a6024820152600080516020614191833981519152604482015290519081900360640190fd5b85611a2e81613a64565b15611a71576040805160e560020a62461bcd02815260206004820152601a6024820152600080516020614191833981519152604482015290519081900360640190fd5b85611a7b81613a64565b15611abe576040805160e560020a62461bcd02815260206004820152601a6024820152600080516020614191833981519152604482015290519081900360640190fd5b6009548890600160a060020a0380831691161415611b14576040805160e560020a62461bcd02815260206004820181905260248201526000805160206142b4833981519152604482015290519081900360640190fd5b600160a060020a038816611b5c5760405160e560020a62461bcd0281526004018080602001828103825260268152602001806143a46026913960400191505060405180910390fd5b600160a060020a038916611ba45760405160e560020a62461bcd0281526004018080602001828103825260248152602001806141486024913960400191505060405180910390fd5b33611be35760405160e560020a62461bcd02815260040180806020018281038252602581526020018061416c6025913960400191505060405180910390fd5b60008711611c29576040805160e560020a62461bcd02815260206004820152601d6024820152600080516020614384833981519152604482015290519081900360640190fd5b60075415611d6a576000611c4e61271061036d6007548b610f9790919063ffffffff16565b9050611c6c8761036d83670de0b6b3a764000063ffffffff610f9716565b9050611c99606461036d611c8c600d546064610f3290919063ffffffff16565b849063ffffffff610f9716565b905087611ca58b6120e9565b1015611ce9576040805160e560020a62461bcd02815260206004820152601960248201526000805160206141d1833981519152604482015290519081900360640190fd5b87611cf48b33613279565b1015611d38576040805160e560020a62461bcd0281526020600482015260196024820152600080516020614128833981519152604482015290519081900360640190fd5b611d448a8a8a33613b69565b600b54611d6290600160a060020a03168b833363ffffffff613be716565b955050611e18565b86611d748a6120e9565b1015611db8576040805160e560020a62461bcd02815260206004820152601960248201526000805160206141d1833981519152604482015290519081900360640190fd5b86611dc38a33613279565b1015611e07576040805160e560020a62461bcd0281526020600482015260196024820152600080516020614128833981519152604482015290519081900360640190fd5b611e1389898933613b69565b600194505b50505050949350505050565b600c54600160a060020a031690565b6000611e4660023363ffffffff61393916565b611e88576040805160e560020a62461bcd02815260206004820152601060248201526000805160206143ca833981519152604482015290519081900360640190fd5b600160a060020a038416611ed4576040805160e560020a62461bcd02815260206004820152601c60248201526000805160206142f5833981519152604482015290519081900360640190fd5b600160a060020a038316611f20576040805160e560020a62461bcd02815260206004820152601d6024820152600080516020614273833981519152604482015290519081900360640190fd5b61190e8484846138e9565b60006008826040518082805190602001908083835b60208310611f5f5780518252601f199092019160209182019101611f40565b51815160209384036101000a60001901801990921691161790529201948552506040519384900301909220541515949350505050565b60095460a060020a900460ff1690565b611fb660023363ffffffff61393916565b611ff8576040805160e560020a62461bcd02815260206004820152601060248201526000805160206143ca833981519152604482015290519081900360640190fd5b612710811115612052576040805160e560020a62461bcd02815260206004820152601d60248201527f46656573206d75737420626520696e2072616e676520302d3130303030000000604482015290519081900360640190fd5b60078190556040805182815290517f3dda580d2b9d92da338ef46ec718e7b1dd0a2c505e3df4aa8d40360192a0f8229181900360200190a150565b61209e60023363ffffffff61393916565b6120e0576040805160e560020a62461bcd02815260206004820152601060248201526000805160206143ca833981519152604482015290519081900360640190fd5b61135d81613c98565b6000610f9182613ce0565b61210560023363ffffffff61393916565b612147576040805160e560020a62461bcd02815260206004820152601060248201526000805160206143ca833981519152604482015290519081900360640190fd5b8061215181613a64565b6121a5576040805160e560020a62461bcd02815260206004820152601660248201527f4163636f756e74206d7573742062652066726f7a656e00000000000000000000604482015290519081900360640190fd5b600160a060020a038216600081815260036020526040808220805460ff19169055517ff915cd9fe234de6e8d3afe7bf2388d35b2b6d48e8c629a24602019bde79c213a9190a25050565b806008816040518082805190602001908083835b602083106122225780518252601f199092019160209182019101612203565b51815160209384036101000a60001901801990921691161790529201948552506040519384900301909220541515915061229290505760405160e560020a62461bcd02815260040180806020018281038252602f8152602001806141f1602f913960400191505060405180910390fd5b6122a360023363ffffffff61393916565b6122e5576040805160e560020a62461bcd02815260206004820152601060248201526000805160206143ca833981519152604482015290519081900360640190fd5b600083118260405160200180807f546f6b656e20707269636520696e200000000000000000000000000000000000815250600f0182805190602001908083835b602083106123445780518252601f199092019160209182019101612325565b6001836020036101000a038019825116818451168082178552505050505050905001807f206d757374206e6f742062652030000000000000000000000000000000000000815250600e019150506040516020818303038152906040529061242c5760405160e560020a62461bcd0281526004018080602001828103825283818151815260200191508051906020019080838360005b838110156123f15781810151838201526020016123d9565b50505050905090810190601f16801561241e5780820380516001836020036101000a031916815260200191505b509250505060405180910390fd5b50826008836040518082805190602001908083835b602083106124605780518252601f199092019160209182019101612441565b51815160209384036101000a60001901801990921691161790529201948552506040805194859003820185209590955587845283810185815287519585019590955286517fbc1a6d11df191cc217bb06c2da838849148b8a9a56b8138fa96cd89e90a0921595899589955093509160608401919085019080838360005b838110156124f55781810151838201526020016124dd565b50505050905090810190601f1680156125225780820380516001836020036101000a031916815260200191505b50935050505060405180910390a1505050565b60003361254181613a64565b15612584576040805160e560020a62461bcd02815260206004820152601a6024820152600080516020614191833981519152604482015290519081900360640190fd5b8461258e81613a64565b156125d1576040805160e560020a62461bcd02815260206004820152601a6024820152600080516020614191833981519152604482015290519081900360640190fd5b6009543390600160a060020a0316811415612624576040805160e560020a62461bcd02815260206004820181905260248201526000805160206142b4833981519152604482015290519081900360640190fd5b600160a060020a03871661266c5760405160e560020a62461bcd0281526004018080602001828103825260268152602001806143a46026913960400191505060405180910390fd5b336126ab5760405160e560020a62461bcd0281526004018080602001828103825260268152602001806143a46026913960400191505060405180910390fd5b600086116126f1576040805160e560020a62461bcd02815260206004820152601d6024820152600080516020614384833981519152604482015290519081900360640190fd5b600754156127d457600061271661271061036d6007548a610f9790919063ffffffff16565b90506127348661036d83670de0b6b3a764000063ffffffff610f9716565b9050612754606461036d611c8c600d546064610f3290919063ffffffff16565b905086612760336120e9565b10156127a4576040805160e560020a62461bcd0281526020600482015260196024820152600080516020614108833981519152604482015290519081900360640190fd5b6127af338989613cfb565b600b546127cc90600160a060020a0316338363ffffffff613d6d16565b945050612832565b856127de336120e9565b1015612822576040805160e560020a62461bcd0281526020600482015260196024820152600080516020614108833981519152604482015290519081900360640190fd5b61282d338888613cfb565b600193505b5050509392505050565b61284d60023363ffffffff61393916565b61288f576040805160e560020a62461bcd02815260206004820152601060248201526000805160206143ca833981519152604482015290519081900360640190fd5b600054600160a060020a03163314156128f2576040805160e560020a62461bcd02815260206004820152601f60248201527f4f776e65722063616e206e6f742072656e6f756e636520746f2061646d696e00604482015290519081900360640190fd5b6128fb336139b9565b565b600d5490565b600054600160a060020a03163314612953576040805160e560020a62461bcd02815260206004820152601a60248201526000805160206141b1833981519152604482015290519081900360640190fd5b806129a8576040805160e560020a62461bcd02815260206004820152601960248201527f53796d626f6c73206d757374206e6f7420626520656d70747900000000000000604482015290519081900360640190fd5b6129b4600f838361404c565b505050565b6129ca60023363ffffffff61393916565b612a0c576040805160e560020a62461bcd02815260206004820152601060248201526000805160206143ca833981519152604482015290519081900360640190fd5b60095460a060020a900460ff16612a575760405160e560020a62461bcd02815260040180806020018281038252602481526020018061424f6024913960400191505060405180910390fd5b600954612a6d90600160a060020a031682613dd9565b600454612a80908263ffffffff613e0216565b6004557f8a9dcf4e150b1153011b29fec302d5be0c13e84fa8f56ab78587f778a32a90dd81612aad611360565b6040805192835260208301919091528051918290030190a1600954604080518381529051600160a060020a0390921691600091600080516020614315833981519152919081900360200190a350565b600054600160a060020a03163314612b4c576040805160e560020a62461bcd02815260206004820152601a60248201526000805160206141b1833981519152604482015290519081900360640190fd5b600160a060020a038116612baa576040805160e560020a62461bcd02815260206004820181905260248201527f4e657720486f6c646572206d757374206e6f7420626520302d61646472657373604482015290519081900360640190fd5b600954600160a060020a0382811691161415612bfa5760405160e560020a62461bcd0281526004018080602001828103825260218152602001806142d46021913960400191505060405180910390fd5b600954612c1990600160a060020a031682612c14826120e9565b613cfb565b600954604051600160a060020a038084169216907f70418639b9c14c316c6ae17fa73febff0a5d1e066ce89d40a4b9b5381625adfe90600090a36009805473ffffffffffffffffffffffffffffffffffffffff1916600160a060020a0392909216919091179055565b33612cc5576040805160e560020a62461bcd02815260206004820152601c60248201526000805160206142f5833981519152604482015290519081900360640190fd5b600160a060020a038216612d11576040805160e560020a62461bcd02815260206004820152601d6024820152600080516020614273833981519152604482015290519081900360640190fd5b611576338383613e5f565b6000610ff383835b600033612d3081613a64565b15612d73576040805160e560020a62461bcd02815260206004820152601a6024820152600080516020614191833981519152604482015290519081900360640190fd5b83612d7d81613a64565b15612dc0576040805160e560020a62461bcd02815260206004820152601a6024820152600080516020614191833981519152604482015290519081900360640190fd5b6009543390600160a060020a0316811415612e13576040805160e560020a62461bcd02815260206004820181905260248201526000805160206142b4833981519152604482015290519081900360640190fd5b600160a060020a038616612e5b5760405160e560020a62461bcd0281526004018080602001828103825260268152602001806143a46026913960400191505060405180910390fd5b33612e9a5760405160e560020a62461bcd0281526004018080602001828103825260268152602001806143a46026913960400191505060405180910390fd5b60008511612ee0576040805160e560020a62461bcd02815260206004820152601d6024820152600080516020614384833981519152604482015290519081900360640190fd5b60075415612f8d576000612f0561271061036d60075489610f9790919063ffffffff16565b9050612f17868263ffffffff613e0216565b612f20336120e9565b1015612f64576040805160e560020a62461bcd0281526020600482015260196024820152600080516020614108833981519152604482015290519081900360640190fd5b612f6f338888613cfb565b600954612f87903390600160a060020a031683613cfb565b50612fe6565b84612f97336120e9565b1015612fdb576040805160e560020a62461bcd0281526020600482015260196024820152600080516020614108833981519152604482015290519081900360640190fd5b612fe6338787613cfb565b50600195945050505050565b60075490565b600a54600090600160a060020a031633146130475760405160e560020a62461bcd02815260040180806020018281038252602f815260200180614220602f913960400191505060405180910390fd5b61190e848484613cfb565b600054600160a060020a031633146130a2576040805160e560020a62461bcd02815260206004820152601a60248201526000805160206141b1833981519152604482015290519081900360640190fd5b60648111156130e55760405160e560020a62461bcd02815260040180806020018281038252604f815260200180614335604f913960600191505060405180910390fd5b600d55565b600054600160a060020a0316331461313a576040805160e560020a62461bcd02815260206004820152601a60248201526000805160206141b1833981519152604482015290519081900360640190fd5b8061318f576040805160e560020a62461bcd02815260206004820152601660248201527f4e616d65206d757374206e6f7420626520656d70747900000000000000000000604482015290519081900360640190fd5b6129b4600e838361404c565b806131a581613a01565b6131f9576040805160e560020a62461bcd02815260206004820152601a60248201527f4d757374206265206120636f6e74726163742061646472657373000000000000604482015290519081900360640190fd5b600054600160a060020a03163314613249576040805160e560020a62461bcd02815260206004820152601a60248201526000805160206141b1833981519152604482015290519081900360640190fd5b50600a805473ffffffffffffffffffffffffffffffffffffffff1916600160a060020a0392909216919091179055565b6000610ff38383613e6a565b60003361329181613a64565b156132d4576040805160e560020a62461bcd02815260206004820152601a6024820152600080516020614191833981519152604482015290519081900360640190fd5b846132de81613a64565b15613321576040805160e560020a62461bcd02815260206004820152601a6024820152600080516020614191833981519152604482015290519081900360640190fd5b8461332b81613a64565b1561336e576040805160e560020a62461bcd02815260206004820152601a6024820152600080516020614191833981519152604482015290519081900360640190fd5b6009548790600160a060020a03808316911614156133c4576040805160e560020a62461bcd02815260206004820181905260248201526000805160206142b4833981519152604482015290519081900360640190fd5b600160a060020a03871661340c5760405160e560020a62461bcd0281526004018080602001828103825260268152602001806143a46026913960400191505060405180910390fd5b600160a060020a0388166134545760405160e560020a62461bcd0281526004018080602001828103825260248152602001806141486024913960400191505060405180910390fd5b336134935760405160e560020a62461bcd02815260040180806020018281038252602581526020018061416c6025913960400191505060405180910390fd5b600086116134d9576040805160e560020a62461bcd02815260206004820152601d6024820152600080516020614384833981519152604482015290519081900360640190fd5b600754156135e65760006134fe61271061036d6007548a610f9790919063ffffffff16565b9050613510878263ffffffff613e0216565b6135198a6120e9565b101561355d576040805160e560020a62461bcd02815260206004820152601960248201526000805160206141d1833981519152604482015290519081900360640190fd5b61356d878263ffffffff613e0216565b6135778a33613279565b10156135bb576040805160e560020a62461bcd0281526020600482015260196024820152600080516020614128833981519152604482015290519081900360640190fd5b6135c789898933613b69565b6009546135e0908a90600160a060020a03168333613b69565b5061368f565b856135f0896120e9565b1015613634576040805160e560020a62461bcd02815260206004820152601960248201526000805160206141d1833981519152604482015290519081900360640190fd5b8561363f8933613279565b1015613683576040805160e560020a62461bcd0281526020600482015260196024820152600080516020614128833981519152604482015290519081900360640190fd5b61368f88888833613b69565b506001979650505050505050565b6000610f9182613a64565b600054600160a060020a031633146136f8576040805160e560020a62461bcd02815260206004820152601a60248201526000805160206141b1833981519152604482015290519081900360640190fd5b600954604080517f4e6577204d696e7420416c6c6f77616e6365206d757374206265200000000000602082015283157f01000000000000000000000000000000000000000000000000000000000000008102603b8301528251808303601c018152603c9092019092529160a060020a900460ff161515146137bd5760405160e560020a62461bcd0281526020600482018181528351602484015283519092839260449091019190850190808383600083156123f15781810151838201526020016123d9565b506009805482151560a060020a810274ff0000000000000000000000000000000000000000199092169190911790915560408051918252517ffd1efbc27e4f96d2ced2f88c1e9bb283db7b0bb5a896728fa99314defd42be519181900360200190a150565b600054600160a060020a03163314613872576040805160e560020a62461bcd02815260206004820152601a60248201526000805160206141b1833981519152604482015290519081900360640190fd5b600160a060020a0381166138ba5760405160e560020a62461bcd0281526004018080602001828103825260238152602001806140e56023913960400191505060405180910390fd5b6001805473ffffffffffffffffffffffffffffffffffffffff1916600160a060020a0392909216919091179055565b6138f4838383613e95565b604080518281529051600160a060020a0384169133917f8c5be1e5ebec7d5bd14f71427d1e84f3dd0314c0f7b2291e5b200ac8c7c3b9259181900360200190a3505050565b6000600160a060020a038216613999576040805160e560020a62461bcd02815260206004820181905260248201527f4163636f756e74206d757374206e6f74206265207a65726f2d61646472657373604482015290519081900360640190fd5b50600160a060020a03166000908152602091909152604090205460ff1690565b6139ca60028263ffffffff613ec116565b604051600160a060020a038216907fa3b62bc36326052d97ea62d63c3d60308ed4c3ea8ac079dd8499f1e9c4f80c0f90600090a250565b3b63ffffffff16151590565b613a18838383613f41565b600160a060020a038216337f8c5be1e5ebec7d5bd14f71427d1e84f3dd0314c0f7b2291e5b200ac8c7c3b925613a4e8686613e6a565b60408051918252519081900360200190a3505050565b600160a060020a031660009081526003602052604090205460ff1690565b600160a060020a038216600090815260056020526040902054613aab908263ffffffff610f3216565b600160a060020a0390921660009081526005602052604090209190915550565b604080517f7dbdaaca000000000000000000000000000000000000000000000000000000008152600160a060020a038481166004830152602482018490529151600092861691637dbdaaca91604480830192602092919082900301818787803b158015613b3757600080fd5b505af1158015613b4b573d6000803e3d6000fd5b505050506040513d6020811015613b6157600080fd5b505161190e57fe5b600160a060020a0383163014613b8357613b838383613dd9565b613b8e848284613fa8565b600160a060020a0384163014613ba857613ba88483613a82565b82600160a060020a031684600160a060020a0316600080516020614315833981519152846040518082815260200191505060405180910390a350505050565b604080517f45275ee9000000000000000000000000000000000000000000000000000000008152600160a060020a03858116600483015260248201859052838116604483015291516000928716916345275ee991606480830192602092919082900301818787803b158015613c5b57600080fd5b505af1158015613c6f573d6000803e3d6000fd5b505050506040513d6020811015613c8557600080fd5b5051613c8d57fe5b506001949350505050565b613ca960028263ffffffff613fde16565b604051600160a060020a038216907f44d6d25963f097ad14f29f06854a01f575648a1ef82f30e562ccd3889717e33990600090a250565b600160a060020a031660009081526005602052604090205490565b600160a060020a0382163014613d1557613d158282613dd9565b600160a060020a0383163014613d2f57613d2f8382613a82565b81600160a060020a031683600160a060020a0316600080516020614315833981519152836040518082815260200191505060405180910390a3505050565b604080517f62d20852000000000000000000000000000000000000000000000000000000008152600160a060020a0384811660048301526024820184905291516000928616916362d2085291604480830192602092919082900301818787803b158015613b3757600080fd5b600160a060020a038216600090815260056020526040902054613aab908263ffffffff613e0216565b600082820183811015610ff3576040805160e560020a62461bcd02815260206004820152601b60248201527f536166654d6174683a206164646974696f6e206f766572666c6f770000000000604482015290519081900360640190fd5b613a18838383613fa8565b600160a060020a03918216600090815260066020908152604080832093909416825291909152205490565b600160a060020a0392831660009081526006602090815260408083209490951682529290925291902055565b613ecb8282613939565b613f1f576040805160e560020a62461bcd02815260206004820152601f60248201527f4163636f756e7420686173206e6f7420686176652061646d696e20726f6c6500604482015290519081900360640190fd5b600160a060020a0316600090815260209190915260409020805460ff19169055565b600160a060020a03808416600090815260066020908152604080832093861683529290522054613f77908263ffffffff613e0216565b600160a060020a03938416600090815260066020908152604080832095909616825293909352929091209190915550565b600160a060020a03808416600090815260066020908152604080832093861683529290522054613f77908263ffffffff610f3216565b613fe88282613939565b156140275760405160e560020a62461bcd0281526004018080602001828103825260238152602001806143ea6023913960400191505060405180910390fd5b600160a060020a0316600090815260209190915260409020805460ff19166001179055565b828054600181600116156101000203166002900490600052602060002090601f016020900481019282601f1061408d5782800160ff198235161785556140ba565b828001600101855582156140ba579182015b828111156140ba57823582559160200191906001019061409f565b506140c69291506140ca565b5090565b61136491905b808211156140c657600081556001016140d056fe4f776e65722061646472657373206d757374206e6f7420626520302d6164647265737353656e64657220556e73696666696369656e742066756e6473000000000000005370656e64657220756e73756666696369656e7420666565730000000000000053656e6465722061646472657373206d757374206e6f7420626520302d616464726573735370656e6465722061646472657373206d757374206e6f7420626520302d616464726573734163636f756e74206d757374206e6f742062652066726f7a656e00000000000054686973206973206e6f7420636f6e7472616374206f776e657200000000000053656e64657220756e73756666696369656e742066756e64730000000000000043757272656e6379206973206e6f742070726573656e7420696e20737570706f727465642063757272656e636965734f6e6c79204d61726b657420636f6e74726163742063616e20706572666f726d2074686973206f7065726174696f6e4d696e7420616e64206275726e206f7065726174696f6e73206e6f7420616c6c6f7765645370656e646572206d757374206e6f7420626520302d61646472657373000000536166654d6174683a206d756c7469706c69636174696f6e206f766572666c6f7741646472657373206d757374206e6f7420626520746f6b656e20686f6c6465724e657720686f6c646572206d757374206e6f74206265206f6c6420686f6c64657253656e646572206d757374206e6f7420626520302d6164647265737300000000ddf252ad1be2c89b69c2b068fc378daa952ba7f163c4a11628f55a4df523b3ef4665657320446973636f756e74207573696e67204b4d5820546f6b656e20666f72204b4d5820537461626c6520546f6b656e73206d757374206265206265747765656e203020616e64203130302025416d6f756e74206d7573742062652067726561746572207468616e203000000052656365697665722061646472657373206d757374206e6f7420626520302d616464726573734d75737420626520616e2061646d696e000000000000000000000000000000004163636f756e742068617320616c726561647920686176652061646d696e20726f6c65a165627a7a72305820201ec7509f02d5e326d6da8c55250286b70c4ab8861aa70adf25c3ffcdefb06600294f776e65722061646472657373206d757374206e6f7420626520302d616464726573734163636f756e742068617320616c726561647920686176652061646d696e20726f6c65",
  "source": "pragma solidity >=0.4.10 <0.6.0;\r\n\r\nimport \"./KMXStableToken.sol\";\r\n\r\ncontract KMXStable is KMXStableToken {\r\n    string public name = \"Kamix Stable\";\r\n    string public symbols = \"KEUR\";\r\n    uint256 public decimals = 18;\r\n\r\n    function setName(string calldata _name) external onlyOwner {\r\n        require(bytes(_name).length != 0, \"Name must not be empty\");\r\n        name = _name;\r\n    }\r\n\r\n    function setSymbols(string calldata _symbols) external onlyOwner {\r\n        require(bytes(_symbols).length != 0, \"Symbols must not be empty\");\r\n        symbols = _symbols;\r\n    }\r\n    \r\n}",
  "sourcePath": "C:/Users/Sim'S/WebstormProjects/kmxv1/contracts/kmx/KMXStable.sol",
  "compiler": {
    "name": "solc",
    "version": "0.5.8+commit.23d335f2.Emscripten.clang"
  },
  "schemaVersion": "3.0.10",
  "updatedAt": "2020-05-05T09:03:05.944Z",
  "devdoc": {
    "methods": {}
  },
  "userdoc": {
    "methods": {}
  }
}