{
  "contractName": "KMXStable",
  "abi": [
    {
      "constant": true,
      "inputs": [
        {
          "name": "_currency",
          "type": "string"
        }
      ],
      "name": "tokenPrice",
      "outputs": [
        {
          "name": "",
          "type": "uint256"
        }
      ],
      "payable": false,
      "stateMutability": "view",
      "type": "function"
    },
    {
      "constant": true,
      "inputs": [],
      "name": "name",
      "outputs": [
        {
          "name": "",
          "type": "string"
        }
      ],
      "payable": false,
      "stateMutability": "view",
      "type": "function"
    },
    {
      "constant": true,
      "inputs": [],
      "name": "symbols",
      "outputs": [
        {
          "name": "",
          "type": "string"
        }
      ],
      "payable": false,
      "stateMutability": "view",
      "type": "function"
    },
    {
      "constant": false,
      "inputs": [
        {
          "name": "spender",
          "type": "address"
        },
        {
          "name": "value",
          "type": "uint256"
        }
      ],
      "name": "approve",
      "outputs": [
        {
          "name": "",
          "type": "bool"
        }
      ],
      "payable": false,
      "stateMutability": "nonpayable",
      "type": "function"
    },
    {
      "constant": false,
      "inputs": [
        {
          "name": "admin",
          "type": "address"
        }
      ],
      "name": "removeAdmin",
      "outputs": [],
      "payable": false,
      "stateMutability": "nonpayable",
      "type": "function"
    },
    {
      "constant": true,
      "inputs": [],
      "name": "totalSupply",
      "outputs": [
        {
          "name": "",
          "type": "uint256"
        }
      ],
      "payable": false,
      "stateMutability": "view",
      "type": "function"
    },
    {
      "constant": false,
      "inputs": [
        {
          "name": "to",
          "type": "address"
        },
        {
          "name": "from",
          "type": "address"
        },
        {
          "name": "value",
          "type": "uint256"
        }
      ],
      "name": "transferFrom",
      "outputs": [
        {
          "name": "",
          "type": "bool"
        }
      ],
      "payable": false,
      "stateMutability": "nonpayable",
      "type": "function"
    },
    {
      "constant": true,
      "inputs": [
        {
          "name": "account",
          "type": "address"
        }
      ],
      "name": "isAdmin",
      "outputs": [
        {
          "name": "",
          "type": "bool"
        }
      ],
      "payable": false,
      "stateMutability": "view",
      "type": "function"
    },
    {
      "constant": true,
      "inputs": [
        {
          "name": "_address",
          "type": "address"
        }
      ],
      "name": "isOwner",
      "outputs": [
        {
          "name": "",
          "type": "bool"
        }
      ],
      "payable": false,
      "stateMutability": "view",
      "type": "function"
    },
    {
      "constant": false,
      "inputs": [
        {
          "name": "_address",
          "type": "address"
        }
      ],
      "name": "setKmxToken",
      "outputs": [
        {
          "name": "",
          "type": "bool"
        }
      ],
      "payable": false,
      "stateMutability": "nonpayable",
      "type": "function"
    },
    {
      "constant": true,
      "inputs": [],
      "name": "marketContractAddress",
      "outputs": [
        {
          "name": "",
          "type": "address"
        }
      ],
      "payable": false,
      "stateMutability": "view",
      "type": "function"
    },
    {
      "constant": true,
      "inputs": [],
      "name": "decimals",
      "outputs": [
        {
          "name": "",
          "type": "uint256"
        }
      ],
      "payable": false,
      "stateMutability": "view",
      "type": "function"
    },
    {
      "constant": false,
      "inputs": [
        {
          "name": "spender",
          "type": "address"
        },
        {
          "name": "value",
          "type": "uint256"
        }
      ],
      "name": "increaseAllowance",
      "outputs": [],
      "payable": false,
      "stateMutability": "nonpayable",
      "type": "function"
    },
    {
      "constant": false,
      "inputs": [
        {
          "name": "_account",
          "type": "address"
        }
      ],
      "name": "frozeAccount",
      "outputs": [],
      "payable": false,
      "stateMutability": "nonpayable",
      "type": "function"
    },
    {
      "constant": false,
      "inputs": [],
      "name": "kill",
      "outputs": [],
      "payable": false,
      "stateMutability": "nonpayable",
      "type": "function"
    },
    {
      "constant": true,
      "inputs": [],
      "name": "tokenHolder",
      "outputs": [
        {
          "name": "",
          "type": "address"
        }
      ],
      "payable": false,
      "stateMutability": "view",
      "type": "function"
    },
    {
      "constant": false,
      "inputs": [
        {
          "name": "_value",
          "type": "uint256"
        }
      ],
      "name": "burn",
      "outputs": [
        {
          "name": "",
          "type": "uint256"
        }
      ],
      "payable": false,
      "stateMutability": "nonpayable",
      "type": "function"
    },
    {
      "constant": false,
      "inputs": [
        {
          "name": "to",
          "type": "address"
        },
        {
          "name": "value",
          "type": "uint256"
        }
      ],
      "name": "marketBuyKMX",
      "outputs": [
        {
          "name": "",
          "type": "bool"
        }
      ],
      "payable": false,
      "stateMutability": "nonpayable",
      "type": "function"
    },
    {
      "constant": false,
      "inputs": [],
      "name": "claimOwnership",
      "outputs": [],
      "payable": false,
      "stateMutability": "nonpayable",
      "type": "function"
    },
    {
      "constant": false,
      "inputs": [
        {
          "name": "from",
          "type": "address"
        },
        {
          "name": "to",
          "type": "address"
        },
        {
          "name": "value",
          "type": "uint256"
        },
        {
          "name": "stableTokenPrice",
          "type": "uint256"
        }
      ],
      "name": "kmxStableTokenTransferFromKMXFees",
      "outputs": [
        {
          "name": "",
          "type": "bool"
        }
      ],
      "payable": false,
      "stateMutability": "nonpayable",
      "type": "function"
    },
    {
      "constant": true,
      "inputs": [],
      "name": "getKmxToken",
      "outputs": [
        {
          "name": "",
          "type": "address"
        }
      ],
      "payable": false,
      "stateMutability": "view",
      "type": "function"
    },
    {
      "constant": true,
      "inputs": [
        {
          "name": "_currency",
          "type": "string"
        }
      ],
      "name": "validCurrency",
      "outputs": [
        {
          "name": "",
          "type": "bool"
        }
      ],
      "payable": false,
      "stateMutability": "view",
      "type": "function"
    },
    {
      "constant": true,
      "inputs": [],
      "name": "isMintBurnAllowed",
      "outputs": [
        {
          "name": "",
          "type": "bool"
        }
      ],
      "payable": false,
      "stateMutability": "view",
      "type": "function"
    },
    {
      "constant": false,
      "inputs": [
        {
          "name": "_fees",
          "type": "uint256"
        }
      ],
      "name": "changeFees",
      "outputs": [],
      "payable": false,
      "stateMutability": "nonpayable",
      "type": "function"
    },
    {
      "constant": false,
      "inputs": [
        {
          "name": "admin",
          "type": "address"
        }
      ],
      "name": "addAdmin",
      "outputs": [],
      "payable": false,
      "stateMutability": "nonpayable",
      "type": "function"
    },
    {
      "constant": true,
      "inputs": [
        {
          "name": "account",
          "type": "address"
        }
      ],
      "name": "balanceOf",
      "outputs": [
        {
          "name": "",
          "type": "uint256"
        }
      ],
      "payable": false,
      "stateMutability": "view",
      "type": "function"
    },
    {
      "constant": false,
      "inputs": [
        {
          "name": "_account",
          "type": "address"
        }
      ],
      "name": "unfrozeAccount",
      "outputs": [],
      "payable": false,
      "stateMutability": "nonpayable",
      "type": "function"
    },
    {
      "constant": false,
      "inputs": [
        {
          "name": "_price",
          "type": "uint256"
        },
        {
          "name": "_currency",
          "type": "string"
        }
      ],
      "name": "changePrice",
      "outputs": [],
      "payable": false,
      "stateMutability": "nonpayable",
      "type": "function"
    },
    {
      "constant": false,
      "inputs": [
        {
          "name": "to",
          "type": "address"
        },
        {
          "name": "value",
          "type": "uint256"
        },
        {
          "name": "stableTokenPrice",
          "type": "uint256"
        }
      ],
      "name": "kmxStableTokenTransferKMXFees",
      "outputs": [
        {
          "name": "",
          "type": "bool"
        }
      ],
      "payable": false,
      "stateMutability": "nonpayable",
      "type": "function"
    },
    {
      "constant": false,
      "inputs": [],
      "name": "renounceAdmin",
      "outputs": [],
      "payable": false,
      "stateMutability": "nonpayable",
      "type": "function"
    },
    {
      "constant": true,
      "inputs": [],
      "name": "getKmxTokenDiscountForFees",
      "outputs": [
        {
          "name": "",
          "type": "uint256"
        }
      ],
      "payable": false,
      "stateMutability": "view",
      "type": "function"
    },
    {
      "constant": false,
      "inputs": [
        {
          "name": "_value",
          "type": "uint256"
        }
      ],
      "name": "mint",
      "outputs": [],
      "payable": false,
      "stateMutability": "nonpayable",
      "type": "function"
    },
    {
      "constant": false,
      "inputs": [
        {
          "name": "_newHolder",
          "type": "address"
        }
      ],
      "name": "changeTokenHolder",
      "outputs": [],
      "payable": false,
      "stateMutability": "nonpayable",
      "type": "function"
    },
    {
      "constant": false,
      "inputs": [
        {
          "name": "spender",
          "type": "address"
        },
        {
          "name": "value",
          "type": "uint256"
        }
      ],
      "name": "decreaseAllowance",
      "outputs": [],
      "payable": false,
      "stateMutability": "nonpayable",
      "type": "function"
    },
    {
      "constant": false,
      "inputs": [
        {
          "name": "to",
          "type": "address"
        },
        {
          "name": "value",
          "type": "uint256"
        }
      ],
      "name": "transfer",
      "outputs": [
        {
          "name": "",
          "type": "bool"
        }
      ],
      "payable": false,
      "stateMutability": "nonpayable",
      "type": "function"
    },
    {
      "constant": false,
      "inputs": [
        {
          "name": "to",
          "type": "address"
        },
        {
          "name": "value",
          "type": "uint256"
        }
      ],
      "name": "kmxStableTokenTransfer",
      "outputs": [
        {
          "name": "",
          "type": "bool"
        }
      ],
      "payable": false,
      "stateMutability": "nonpayable",
      "type": "function"
    },
    {
      "constant": true,
      "inputs": [],
      "name": "transactionFees",
      "outputs": [
        {
          "name": "",
          "type": "uint256"
        }
      ],
      "payable": false,
      "stateMutability": "view",
      "type": "function"
    },
    {
      "constant": false,
      "inputs": [
        {
          "name": "from",
          "type": "address"
        },
        {
          "name": "to",
          "type": "address"
        },
        {
          "name": "value",
          "type": "uint256"
        }
      ],
      "name": "marketTransfer",
      "outputs": [
        {
          "name": "",
          "type": "bool"
        }
      ],
      "payable": false,
      "stateMutability": "nonpayable",
      "type": "function"
    },
    {
      "constant": false,
      "inputs": [
        {
          "name": "kmxTokenDiscountForFees",
          "type": "uint256"
        }
      ],
      "name": "changeKmxTokenDiscountForFees",
      "outputs": [],
      "payable": false,
      "stateMutability": "nonpayable",
      "type": "function"
    },
    {
      "constant": false,
      "inputs": [
        {
          "name": "_address",
          "type": "address"
        }
      ],
      "name": "setMarketContractAddress",
      "outputs": [],
      "payable": false,
      "stateMutability": "nonpayable",
      "type": "function"
    },
    {
      "constant": true,
      "inputs": [
        {
          "name": "owner",
          "type": "address"
        },
        {
          "name": "spender",
          "type": "address"
        }
      ],
      "name": "allowance",
      "outputs": [
        {
          "name": "",
          "type": "uint256"
        }
      ],
      "payable": false,
      "stateMutability": "view",
      "type": "function"
    },
    {
      "constant": false,
      "inputs": [
        {
          "name": "from",
          "type": "address"
        },
        {
          "name": "to",
          "type": "address"
        },
        {
          "name": "value",
          "type": "uint256"
        }
      ],
      "name": "kmxStableTokenTransferFrom",
      "outputs": [
        {
          "name": "",
          "type": "bool"
        }
      ],
      "payable": false,
      "stateMutability": "nonpayable",
      "type": "function"
    },
    {
      "constant": true,
      "inputs": [
        {
          "name": "_account",
          "type": "address"
        }
      ],
      "name": "isAccountFrozen",
      "outputs": [
        {
          "name": "",
          "type": "bool"
        }
      ],
      "payable": false,
      "stateMutability": "view",
      "type": "function"
    },
    {
      "constant": false,
      "inputs": [
        {
          "name": "_newState",
          "type": "bool"
        }
      ],
      "name": "changeMintBurnAllowance",
      "outputs": [],
      "payable": false,
      "stateMutability": "nonpayable",
      "type": "function"
    },
    {
      "constant": false,
      "inputs": [
        {
          "name": "newOwner",
          "type": "address"
        }
      ],
      "name": "transferOwnership",
      "outputs": [],
      "payable": false,
      "stateMutability": "nonpayable",
      "type": "function"
    },
    {
      "payable": true,
      "stateMutability": "payable",
      "type": "fallback"
    },
    {
      "anonymous": false,
      "inputs": [
        {
          "indexed": true,
          "name": "tokenAddress",
          "type": "address"
        }
      ],
      "name": "KMXTokenSet",
      "type": "event"
    },
    {
      "anonymous": false,
      "inputs": [
        {
          "indexed": false,
          "name": "_newState",
          "type": "bool"
        }
      ],
      "name": "MintBurnAllowanceChanged",
      "type": "event"
    },
    {
      "anonymous": false,
      "inputs": [
        {
          "indexed": false,
          "name": "value",
          "type": "uint256"
        },
        {
          "indexed": false,
          "name": "newTotalSupply",
          "type": "uint256"
        }
      ],
      "name": "Minted",
      "type": "event"
    },
    {
      "anonymous": false,
      "inputs": [
        {
          "indexed": false,
          "name": "value",
          "type": "uint256"
        },
        {
          "indexed": false,
          "name": "newTotalSupply",
          "type": "uint256"
        }
      ],
      "name": "Burned",
      "type": "event"
    },
    {
      "anonymous": false,
      "inputs": [
        {
          "indexed": true,
          "name": "oldTokenHolder",
          "type": "address"
        },
        {
          "indexed": true,
          "name": "newTokenHolder",
          "type": "address"
        }
      ],
      "name": "TokenHolderChanged",
      "type": "event"
    },
    {
      "anonymous": false,
      "inputs": [
        {
          "indexed": false,
          "name": "newPrice",
          "type": "uint256"
        },
        {
          "indexed": false,
          "name": "currency",
          "type": "string"
        }
      ],
      "name": "PriceChanged",
      "type": "event"
    },
    {
      "anonymous": false,
      "inputs": [
        {
          "indexed": false,
          "name": "newFees",
          "type": "uint256"
        }
      ],
      "name": "FeesChanged",
      "type": "event"
    },
    {
      "anonymous": false,
      "inputs": [
        {
          "indexed": true,
          "name": "account",
          "type": "address"
        }
      ],
      "name": "AccountFrozen",
      "type": "event"
    },
    {
      "anonymous": false,
      "inputs": [
        {
          "indexed": true,
          "name": "account",
          "type": "address"
        }
      ],
      "name": "AccountUnfrozen",
      "type": "event"
    },
    {
      "anonymous": false,
      "inputs": [
        {
          "indexed": true,
          "name": "admin",
          "type": "address"
        }
      ],
      "name": "AdminAdded",
      "type": "event"
    },
    {
      "anonymous": false,
      "inputs": [
        {
          "indexed": true,
          "name": "admin",
          "type": "address"
        }
      ],
      "name": "AdminRemoved",
      "type": "event"
    },
    {
      "anonymous": false,
      "inputs": [
        {
          "indexed": true,
          "name": "previousOwner",
          "type": "address"
        },
        {
          "indexed": true,
          "name": "newOwner",
          "type": "address"
        }
      ],
      "name": "OwnershipTransferred",
      "type": "event"
    },
    {
      "anonymous": false,
      "inputs": [
        {
          "indexed": true,
          "name": "owner",
          "type": "address"
        },
        {
          "indexed": true,
          "name": "spender",
          "type": "address"
        },
        {
          "indexed": false,
          "name": "value",
          "type": "uint256"
        }
      ],
      "name": "Approval",
      "type": "event"
    },
    {
      "anonymous": false,
      "inputs": [
        {
          "indexed": true,
          "name": "from",
          "type": "address"
        },
        {
          "indexed": true,
          "name": "to",
          "type": "address"
        },
        {
          "indexed": false,
          "name": "value",
          "type": "uint256"
        }
      ],
      "name": "Transfer",
      "type": "event"
    },
    {
      "constant": false,
      "inputs": [
        {
          "name": "_name",
          "type": "string"
        }
      ],
      "name": "setName",
      "outputs": [],
      "payable": false,
      "stateMutability": "nonpayable",
      "type": "function"
    },
    {
      "constant": false,
      "inputs": [
        {
          "name": "_symbols",
          "type": "string"
        }
      ],
      "name": "setSymbols",
      "outputs": [],
      "payable": false,
      "stateMutability": "nonpayable",
      "type": "function"
    }
  ],
  "bytecode": "0x60c0604052600c60808190527f4b616d697820537461626c65000000000000000000000000000000000000000060a09081526200004091600e9190620003f0565b506040805180820190915260048082527f4b4555520000000000000000000000000000000000000000000000000000000060209092019182526200008791600f91620003f0565b50601260105533620000e5576040517f08c379a0000000000000000000000000000000000000000000000000000000008152600401808060200182810382526023815260200180620047b36023913960400191505060405180910390fd5b60008054600160a060020a0319163317908190556200011690600160a060020a0316640100000000620001c4810204565b6200012d6001808064010000000062000216810204565b606460075560005460098054600160a060020a03909216600160a060020a03199092169190911760a060020a60ff02191690556200018d670fae910354310000670de0b6b3a764000066060a24181e400064010000000062000216810204565b6032600d556a084595161401484a0000006004819055600954600160a060020a031660009081526005602052604090205562000495565b620001df60028264010000000062003ef4620002c682021704565b604051600160a060020a038216907f44d6d25963f097ad14f29f06854a01f575648a1ef82f30e562ccd3889717e33990600090a250565b604080517f455552000000000000000000000000000000000000000000000000000000000081526008600380830182905283519283900360239081018420979097557f5553440000000000000000000000000000000000000000000000000000000000835282810182905283519283900387018320959095557f58414600000000000000000000000000000000000000000000000000000000008252938101939093525191829003909201902055565b620002db828264010000000062000358810204565b1562000333576040517f08c379a0000000000000000000000000000000000000000000000000000000008152600401808060200182810382526023815260200180620047d66023913960400191505060405180910390fd5b600160a060020a0316600090815260209190915260409020805460ff19166001179055565b6000600160a060020a038216620003d057604080517f08c379a000000000000000000000000000000000000000000000000000000000815260206004820181905260248201527f4163636f756e74206d757374206e6f74206265207a65726f2d61646472657373604482015290519081900360640190fd5b50600160a060020a03166000908152602091909152604090205460ff1690565b828054600181600116156101000203166002900490600052602060002090601f016020900481019282601f106200043357805160ff191683800117855562000463565b8280016001018555821562000463579182015b828111156200046357825182559160200191906001019062000446565b506200047192915062000475565b5090565b6200049291905b808211156200047157600081556001016200047c565b90565b61430e80620004a56000396000f3fe6080604052600436106102a5576000357c0100000000000000000000000000000000000000000000000000000000900480636cda375b11610177578063a9059cbb116100de578063c73358de11610097578063c73358de14610da1578063dd62ed3e14610dd4578063e44f917714610e0f578063e816d97f14610e52578063ea14d67b14610e85578063f2fde38b14610eb1576102a5565b8063a9059cbb14610c30578063ad59d89214610c69578063b37be8e414610ca2578063bcf0dd8e14610cb7578063c110f14514610cfa578063c47f002714610d24576102a5565b80638bad0c0a116101305780638bad0c0a14610af3578063923aa87d14610b085780639e69909214610b1d578063a0712d6814610b9a578063a18a209214610bc4578063a457c2d714610bf7576102a5565b80636cda375b14610937578063704802751461096157806370a08231146109945780637b68d0ac146109c75780638868686c146109fa5780638af1384614610ab4576102a5565b8063313ce5671161021b5780634bb63ce6116101d45780634bb63ce6146107c35780634e71e0c8146107fc5780635303852a146108115780635633131c1461085a578063697d60b01461086f5780636b8d9cc514610922576102a5565b8063313ce567146106ee5780633950935114610703578063414f85941461073c57806341c0e1b51461076f578063420a83e71461078457806342966c6814610799576102a5565b806318160ddd1161026d57806318160ddd146105cc57806323b872dd146105e157806324d7806c146106245780632f54bf6e146106575780632fa9a2f81461068a5780633087cbe3146106bd576102a5565b806302888d06146103e857806306fdde03146104ad57806307039ff914610537578063095ea7b31461054c5780631785f53c14610599575b34156103e657600954600160a060020a0316662386f26fc1000034111561034857336108fc6102e134662386f26fc1000063ffffffff610ee416565b6040518115909202916000818181858888f19350505050158015610309573d6000803e3d6000fd5b50604051600160a060020a03821690600090662386f26fc100009082818181858883f19350505050158015610342573d6000803e3d6000fd5b506103e4565b336108fc61036e606461036234605a63ffffffff610f4916565b9063ffffffff610fac16565b6040518115909202916000818181858888f19350505050158015610396573d6000803e3d6000fd5b50600160a060020a0381166108fc6103ba606461036234600a63ffffffff610f4916565b6040518115909202916000818181858888f193505050501580156103e2573d6000803e3d6000fd5b505b505b005b3480156103f457600080fd5b5061049b6004803603602081101561040b57600080fd5b81019060208101813564010000000081111561042657600080fd5b82018360208201111561043857600080fd5b8035906020019184600183028401116401000000008311171561045a57600080fd5b91908080601f016020809104026020016040519081016040528093929190818152602001838380828437600092019190915250929550611019945050505050565b60408051918252519081900360200190f35b3480156104b957600080fd5b506104c2611125565b6040805160208082528351818301528351919283929083019185019080838360005b838110156104fc5781810151838201526020016104e4565b50505050905090810190601f1680156105295780820380516001836020036101000a031916815260200191505b509250505060405180910390f35b34801561054357600080fd5b506104c26111b3565b34801561055857600080fd5b506105856004803603604081101561056f57600080fd5b50600160a060020a03813516906020013561120e565b604080519115158252519081900360200190f35b3480156105a557600080fd5b506103e6600480360360208110156105bc57600080fd5b5035600160a060020a03166112d7565b3480156105d857600080fd5b5061049b611336565b3480156105ed57600080fd5b506105856004803603606081101561060457600080fd5b50600160a060020a0381358116916020810135909116906040013561133d565b34801561063057600080fd5b506105856004803603602081101561064757600080fd5b5035600160a060020a0316611352565b34801561066357600080fd5b506105856004803603602081101561067a57600080fd5b5035600160a060020a0316611365565b34801561069657600080fd5b50610585600480360360208110156106ad57600080fd5b5035600160a060020a0316611379565b3480156106c957600080fd5b506106d261149d565b60408051600160a060020a039092168252519081900360200190f35b3480156106fa57600080fd5b5061049b6114ac565b34801561070f57600080fd5b506103e66004803603604081101561072657600080fd5b50600160a060020a0381351690602001356114b2565b34801561074857600080fd5b506103e66004803603602081101561075f57600080fd5b5035600160a060020a0316611574565b34801561077b57600080fd5b506103e6611661565b34801561079057600080fd5b506106d26116c0565b3480156107a557600080fd5b5061049b600480360360208110156107bc57600080fd5b503561171f565b3480156107cf57600080fd5b50610585600480360360408110156107e657600080fd5b50600160a060020a03813516906020013561189c565b34801561080857600080fd5b506103e6611912565b34801561081d57600080fd5b506105856004803603608081101561083457600080fd5b50600160a060020a038135811691602081013590911690604081013590606001356119cf565b34801561086657600080fd5b506106d2611e19565b34801561087b57600080fd5b506105856004803603602081101561089257600080fd5b8101906020810181356401000000008111156108ad57600080fd5b8201836020820111156108bf57600080fd5b803590602001918460018302840111640100000000831117156108e157600080fd5b91908080601f016020809104026020016040519081016040528093929190818152602001838380828437600092019190915250929550611e28945050505050565b34801561092e57600080fd5b50610585611e92565b34801561094357600080fd5b506103e66004803603602081101561095a57600080fd5b5035611ea2565b34801561096d57600080fd5b506103e66004803603602081101561098457600080fd5b5035600160a060020a0316611f8a565b3480156109a057600080fd5b5061049b600480360360208110156109b757600080fd5b5035600160a060020a0316611fe6565b3480156109d357600080fd5b506103e6600480360360208110156109ea57600080fd5b5035600160a060020a0316611ff1565b348015610a0657600080fd5b506103e660048036036040811015610a1d57600080fd5b81359190810190604081016020820135640100000000811115610a3f57600080fd5b820183602082011115610a5157600080fd5b80359060200191846001830284011164010000000083111715610a7357600080fd5b91908080601f0160208091040260200160405190810160405280939291908181526020018383808284376000920191909152509295506120ec945050505050565b348015610ac057600080fd5b5061058560048036036060811015610ad757600080fd5b50600160a060020a038135169060208101359060400135612432565b348015610aff57600080fd5b506103e6612737565b348015610b1457600080fd5b5061049b6127f8565b348015610b2957600080fd5b506103e660048036036020811015610b4057600080fd5b810190602081018135640100000000811115610b5b57600080fd5b820183602082011115610b6d57600080fd5b80359060200191846001830284011164010000000083111715610b8f57600080fd5b5090925090506127fe565b348015610ba657600080fd5b506103e660048036036020811015610bbd57600080fd5b50356128b4565b348015610bd057600080fd5b506103e660048036036020811015610be757600080fd5b5035600160a060020a03166129f7565b348015610c0357600080fd5b506103e660048036036040811015610c1a57600080fd5b50600160a060020a038135169060200135612b7d565b348015610c3c57600080fd5b5061058560048036036040811015610c5357600080fd5b50600160a060020a038135169060200135612c3b565b348015610c7557600080fd5b5061058560048036036040811015610c8c57600080fd5b50600160a060020a038135169060200135612c43565b348015610cae57600080fd5b5061049b612f0f565b348015610cc357600080fd5b5061058560048036036060811015610cda57600080fd5b50600160a060020a03813581169160208101359091169060400135612f15565b348015610d0657600080fd5b506103e660048036036020811015610d1d57600080fd5b5035612f6f565b348015610d3057600080fd5b506103e660048036036020811015610d4757600080fd5b810190602081018135640100000000811115610d6257600080fd5b820183602082011115610d7457600080fd5b80359060200191846001830284011164010000000083111715610d9657600080fd5b509092509050613007565b348015610dad57600080fd5b506103e660048036036020811015610dc457600080fd5b5035600160a060020a03166130b8565b348015610de057600080fd5b5061049b60048036036040811015610df757600080fd5b50600160a060020a0381358116916020013516613196565b348015610e1b57600080fd5b5061058560048036036060811015610e3257600080fd5b50600160a060020a038135811691602081013590911690604001356131a2565b348015610e5e57600080fd5b5061058560048036036020811015610e7557600080fd5b5035600160a060020a03166135b3565b348015610e9157600080fd5b506103e660048036036020811015610ea857600080fd5b503515156135be565b348015610ebd57600080fd5b506103e660048036036020811015610ed457600080fd5b5035600160a060020a0316613738565b600082821115610f3e576040805160e560020a62461bcd02815260206004820152601e60248201527f536166654d6174683a207375627472616374696f6e206f766572666c6f770000604482015290519081900360640190fd5b508082035b92915050565b600082610f5857506000610f43565b82820282848281610f6557fe5b0414610fa55760405160e560020a62461bcd0281526004018080602001828103825260218152602001806141896021913960400191505060405180910390fd5b9392505050565b6000808211611005576040805160e560020a62461bcd02815260206004820152601a60248201527f536166654d6174683a206469766973696f6e206279207a65726f000000000000604482015290519081900360640190fd5b600082848161101057fe5b04949350505050565b6000816008816040518082805190602001908083835b6020831061104e5780518252601f19909201916020918201910161102f565b51815160209384036101000a6000190180199092169116179052920194855250604051938490030190922054151591506110be90505760405160e560020a62461bcd02815260040180806020018281038252602f815260200180614107602f913960400191505060405180910390fd5b6008836040518082805190602001908083835b602083106110f05780518252601f1990920191602091820191016110d1565b51815160209384036101000a600019018019909216911617905292019485525060405193849003019092205495945050505050565b600e805460408051602060026001851615610100026000190190941693909304601f810184900484028201840190925281815292918301828280156111ab5780601f10611180576101008083540402835291602001916111ab565b820191906000526020600020905b81548152906001019060200180831161118e57829003601f168201915b505050505081565b600f805460408051602060026001851615610100026000190190941693909304601f810184900484028201840190925281815292918301828280156111ab5780601f10611180576101008083540402835291602001916111ab565b600033611265576040805160e560020a62461bcd02815260206004820152601c60248201527f53656e646572206d757374206e6f7420626520302d6164647265737300000000604482015290519081900360640190fd5b600160a060020a0383166112c3576040805160e560020a62461bcd02815260206004820152601d60248201527f5370656e646572206d757374206e6f7420626520302d61646472657373000000604482015290519081900360640190fd5b6112ce3384846137ff565b50600192915050565b6112e860023363ffffffff61384f16565b61132a576040805160e560020a62461bcd02815260206004820152601060248201526000805160206142a0833981519152604482015290519081900360640190fd5b611333816138cf565b50565b6004545b90565b600061134a8385846131a2565b949350505050565b6000610f4360028363ffffffff61384f16565b600054600160a060020a0391821691161490565b60008161138581613917565b6113d9576040805160e560020a62461bcd02815260206004820152601a60248201527f4d757374206265206120636f6e74726163742061646472657373000000000000604482015290519081900360640190fd5b600054600160a060020a03163314611429576040805160e560020a62461bcd02815260206004820152601a60248201526000805160206140c7833981519152604482015290519081900360640190fd5b600b805473ffffffffffffffffffffffffffffffffffffffff19908116600160a060020a03868116918217909355600c80549092161790819055604051859291909116907fda46792bd7f899765e3e585d3e08f18062f24add103a990ad3944619dfd1209a90600090a25060019392505050565b600a54600160a060020a031690565b60105481565b33611507576040805160e560020a62461bcd02815260206004820152601c60248201527f53656e646572206d757374206e6f7420626520302d6164647265737300000000604482015290519081900360640190fd5b600160a060020a038216611565576040805160e560020a62461bcd02815260206004820152601d60248201527f5370656e646572206d757374206e6f7420626520302d61646472657373000000604482015290519081900360640190fd5b611570338383613923565b5050565b61158560023363ffffffff61384f16565b6115c7576040805160e560020a62461bcd02815260206004820152601060248201526000805160206142a0833981519152604482015290519081900360640190fd5b806115d18161397a565b15611614576040805160e560020a62461bcd02815260206004820152601a60248201526000805160206140a7833981519152604482015290519081900360640190fd5b600160a060020a038216600081815260036020526040808220805460ff19166001179055517f4f2a367e694e71282f29ab5eaa04c4c0be45ac5bf2ca74fb67068b98bdc2887d9190a25050565b600054600160a060020a031633146116b1576040805160e560020a62461bcd02815260206004820152601a60248201526000805160206140c7833981519152604482015290519081900360640190fd5b600054600160a060020a031680ff5b600a54600090600160a060020a0316331461170f5760405160e560020a62461bcd02815260040180806020018281038252602f815260200180614136602f913960400191505060405180910390fd5b50600954600160a060020a031690565b600061173260023363ffffffff61384f16565b611774576040805160e560020a62461bcd02815260206004820152601060248201526000805160206142a0833981519152604482015290519081900360640190fd5b60095460a060020a900460ff166117bf5760405160e560020a62461bcd0281526004018080602001828103825260248152602001806141656024913960400191505060405180910390fd5b600954829081906117d890600160a060020a0316611fe6565b10156117f6576009546117f390600160a060020a0316611fe6565b90505b60095461180c90600160a060020a031682613998565b60045461181f908263ffffffff610ee416565b6004557fcec1bae6e024d929f2929f3478ce70f55f9c636c8ef7b5073a61d7c3a432451b8361184c611336565b6040805192835260208301919091528051918290030190a1600954604080518381529051600092600160a060020a0316916000805160206141eb833981519152919081900360200190a392915050565b600a54600090600160a060020a031633146118eb5760405160e560020a62461bcd02815260040180806020018281038252602f815260200180614136602f913960400191505060405180910390fd5b600b5461190890600160a060020a0316848463ffffffff6139e116565b5060019392505050565b600154600160a060020a03163314611974576040805160e560020a62461bcd02815260206004820152601c60248201527f53656e646572206d7573742062652070656e64696e67206f776e657200000000604482015290519081900360640190fd5b6001546000805473ffffffffffffffffffffffffffffffffffffffff1916600160a060020a03928316908117808355604051919316917f8be0079c531659141344cd1fd0a4f28419497f9722a3daafe3b4186f6b6457e091a3565b6000336119db8161397a565b15611a1e576040805160e560020a62461bcd02815260206004820152601a60248201526000805160206140a7833981519152604482015290519081900360640190fd5b85611a288161397a565b15611a6b576040805160e560020a62461bcd02815260206004820152601a60248201526000805160206140a7833981519152604482015290519081900360640190fd5b85611a758161397a565b15611ab8576040805160e560020a62461bcd02815260206004820152601a60248201526000805160206140a7833981519152604482015290519081900360640190fd5b6009543390600160a060020a0316811415611b0b576040805160e560020a62461bcd02815260206004820181905260248201526000805160206141aa833981519152604482015290519081900360640190fd5b600160a060020a038816611b535760405160e560020a62461bcd02815260040180806020018281038252602681526020018061427a6026913960400191505060405180910390fd5b600160a060020a038916611b9b5760405160e560020a62461bcd02815260040180806020018281038252602481526020018061405e6024913960400191505060405180910390fd5b33611bda5760405160e560020a62461bcd0281526004018080602001828103825260258152602001806140826025913960400191505060405180910390fd5b60008711611c20576040805160e560020a62461bcd02815260206004820152601d602482015260008051602061425a833981519152604482015290519081900360640190fd5b60075415611d5f576000611c456127106103626007548b610f4990919063ffffffff16565b9050611c638761036283670de0b6b3a764000063ffffffff610f4916565b9050611c906064610362611c83600d546064610ee490919063ffffffff16565b849063ffffffff610f4916565b905087611c9c8b611fe6565b11611cdf576040805160e560020a62461bcd02815260206004820152601960248201526000805160206140e7833981519152604482015290519081900360640190fd5b87611cea8b33613196565b11611d2d576040805160e560020a62461bcd028152602060048201526019602482015260008051602061403e833981519152604482015290519081900360640190fd5b611d398a8a8a33613a7f565b600b54611d5790600160a060020a03168b833363ffffffff613afd16565b955050611e0d565b86611d698a611fe6565b1015611dad576040805160e560020a62461bcd02815260206004820152601960248201526000805160206140e7833981519152604482015290519081900360640190fd5b86611db88a33613196565b1015611dfc576040805160e560020a62461bcd028152602060048201526019602482015260008051602061403e833981519152604482015290519081900360640190fd5b611e0889898933613a7f565b600194505b50505050949350505050565b600c54600160a060020a031690565b60006008826040518082805190602001908083835b60208310611e5c5780518252601f199092019160209182019101611e3d565b51815160209384036101000a60001901801990921691161790529201948552506040519384900301909220541515949350505050565b60095460a060020a900460ff1690565b611eb360023363ffffffff61384f16565b611ef5576040805160e560020a62461bcd02815260206004820152601060248201526000805160206142a0833981519152604482015290519081900360640190fd5b612710811115611f4f576040805160e560020a62461bcd02815260206004820152601d60248201527f46656573206d75737420626520696e2072616e676520302d3130303030000000604482015290519081900360640190fd5b60078190556040805182815290517f3dda580d2b9d92da338ef46ec718e7b1dd0a2c505e3df4aa8d40360192a0f8229181900360200190a150565b611f9b60023363ffffffff61384f16565b611fdd576040805160e560020a62461bcd02815260206004820152601060248201526000805160206142a0833981519152604482015290519081900360640190fd5b61133381613bae565b6000610f4382613bf6565b61200260023363ffffffff61384f16565b612044576040805160e560020a62461bcd02815260206004820152601060248201526000805160206142a0833981519152604482015290519081900360640190fd5b8061204e8161397a565b6120a2576040805160e560020a62461bcd02815260206004820152601660248201527f4163636f756e74206d7573742062652066726f7a656e00000000000000000000604482015290519081900360640190fd5b600160a060020a038216600081815260036020526040808220805460ff19169055517ff915cd9fe234de6e8d3afe7bf2388d35b2b6d48e8c629a24602019bde79c213a9190a25050565b806008816040518082805190602001908083835b6020831061211f5780518252601f199092019160209182019101612100565b51815160209384036101000a60001901801990921691161790529201948552506040519384900301909220541515915061218f90505760405160e560020a62461bcd02815260040180806020018281038252602f815260200180614107602f913960400191505060405180910390fd5b6121a060023363ffffffff61384f16565b6121e2576040805160e560020a62461bcd02815260206004820152601060248201526000805160206142a0833981519152604482015290519081900360640190fd5b600083118260405160200180807f546f6b656e20707269636520696e200000000000000000000000000000000000815250600f0182805190602001908083835b602083106122415780518252601f199092019160209182019101612222565b6001836020036101000a038019825116818451168082178552505050505050905001807f206d757374206e6f742062652030000000000000000000000000000000000000815250600e01915050604051602081830303815290604052906123295760405160e560020a62461bcd0281526004018080602001828103825283818151815260200191508051906020019080838360005b838110156122ee5781810151838201526020016122d6565b50505050905090810190601f16801561231b5780820380516001836020036101000a031916815260200191505b509250505060405180910390fd5b50826008836040518082805190602001908083835b6020831061235d5780518252601f19909201916020918201910161233e565b51815160209384036101000a60001901801990921691161790529201948552506040805194859003820185209590955587845283810185815287519585019590955286517fbc1a6d11df191cc217bb06c2da838849148b8a9a56b8138fa96cd89e90a0921595899589955093509160608401919085019080838360005b838110156123f25781810151838201526020016123da565b50505050905090810190601f16801561241f5780820380516001836020036101000a031916815260200191505b50935050505060405180910390a1505050565b60003361243e8161397a565b15612481576040805160e560020a62461bcd02815260206004820152601a60248201526000805160206140a7833981519152604482015290519081900360640190fd5b8461248b8161397a565b156124ce576040805160e560020a62461bcd02815260206004820152601a60248201526000805160206140a7833981519152604482015290519081900360640190fd5b6009543390600160a060020a0316811415612521576040805160e560020a62461bcd02815260206004820181905260248201526000805160206141aa833981519152604482015290519081900360640190fd5b600160a060020a0387166125695760405160e560020a62461bcd02815260040180806020018281038252602681526020018061427a6026913960400191505060405180910390fd5b336125a85760405160e560020a62461bcd02815260040180806020018281038252602681526020018061427a6026913960400191505060405180910390fd5b600086116125ee576040805160e560020a62461bcd02815260206004820152601d602482015260008051602061425a833981519152604482015290519081900360640190fd5b600754156126d05760006126136127106103626007548a610f4990919063ffffffff16565b90506126318661036283670de0b6b3a764000063ffffffff610f4916565b90506126516064610362611c83600d546064610ee490919063ffffffff16565b90508661265d33611fe6565b116126a0576040805160e560020a62461bcd028152602060048201526019602482015260008051602061401e833981519152604482015290519081900360640190fd5b6126ab338989613c11565b600b546126c890600160a060020a0316338363ffffffff613c8316565b94505061272d565b856126da33611fe6565b1161271d576040805160e560020a62461bcd028152602060048201526019602482015260008051602061401e833981519152604482015290519081900360640190fd5b612728338888613c11565b600193505b5050509392505050565b61274860023363ffffffff61384f16565b61278a576040805160e560020a62461bcd02815260206004820152601060248201526000805160206142a0833981519152604482015290519081900360640190fd5b600054600160a060020a03163314156127ed576040805160e560020a62461bcd02815260206004820152601f60248201527f4f776e65722063616e206e6f742072656e6f756e636520746f2061646d696e00604482015290519081900360640190fd5b6127f6336138cf565b565b600d5490565b600054600160a060020a0316331461284e576040805160e560020a62461bcd02815260206004820152601a60248201526000805160206140c7833981519152604482015290519081900360640190fd5b806128a3576040805160e560020a62461bcd02815260206004820152601960248201527f53796d626f6c73206d757374206e6f7420626520656d70747900000000000000604482015290519081900360640190fd5b6128af600f8383613f62565b505050565b6128c560023363ffffffff61384f16565b612907576040805160e560020a62461bcd02815260206004820152601060248201526000805160206142a0833981519152604482015290519081900360640190fd5b60095460a060020a900460ff166129525760405160e560020a62461bcd0281526004018080602001828103825260248152602001806141656024913960400191505060405180910390fd5b60095461296890600160a060020a031682613cef565b60045461297b908263ffffffff613d1816565b6004557f8a9dcf4e150b1153011b29fec302d5be0c13e84fa8f56ab78587f778a32a90dd816129a8611336565b6040805192835260208301919091528051918290030190a1600954604080518381529051600160a060020a03909216916000916000805160206141eb833981519152919081900360200190a350565b600054600160a060020a03163314612a47576040805160e560020a62461bcd02815260206004820152601a60248201526000805160206140c7833981519152604482015290519081900360640190fd5b600160a060020a038116612aa5576040805160e560020a62461bcd02815260206004820181905260248201527f4e657720486f6c646572206d757374206e6f7420626520302d61646472657373604482015290519081900360640190fd5b600954600160a060020a0382811691161415612af55760405160e560020a62461bcd0281526004018080602001828103825260218152602001806141ca6021913960400191505060405180910390fd5b600954612b1490600160a060020a031682612b0f82611fe6565b613c11565b600954604051600160a060020a038084169216907f70418639b9c14c316c6ae17fa73febff0a5d1e066ce89d40a4b9b5381625adfe90600090a36009805473ffffffffffffffffffffffffffffffffffffffff1916600160a060020a0392909216919091179055565b33612bd2576040805160e560020a62461bcd02815260206004820152601c60248201527f53656e646572206d757374206e6f7420626520302d6164647265737300000000604482015290519081900360640190fd5b600160a060020a038216612c30576040805160e560020a62461bcd02815260206004820152601d60248201527f5370656e646572206d757374206e6f7420626520302d61646472657373000000604482015290519081900360640190fd5b611570338383613d75565b6000610fa583835b600033612c4f8161397a565b15612c92576040805160e560020a62461bcd02815260206004820152601a60248201526000805160206140a7833981519152604482015290519081900360640190fd5b83612c9c8161397a565b15612cdf576040805160e560020a62461bcd02815260206004820152601a60248201526000805160206140a7833981519152604482015290519081900360640190fd5b6009543390600160a060020a0316811415612d32576040805160e560020a62461bcd02815260206004820181905260248201526000805160206141aa833981519152604482015290519081900360640190fd5b600160a060020a038616612d7a5760405160e560020a62461bcd02815260040180806020018281038252602681526020018061427a6026913960400191505060405180910390fd5b33612db95760405160e560020a62461bcd02815260040180806020018281038252602681526020018061427a6026913960400191505060405180910390fd5b60008511612dff576040805160e560020a62461bcd02815260206004820152601d602482015260008051602061425a833981519152604482015290519081900360640190fd5b60075415612eab576000612e2461271061036260075489610f4990919063ffffffff16565b9050612e36868263ffffffff613d1816565b612e3f33611fe6565b11612e82576040805160e560020a62461bcd028152602060048201526019602482015260008051602061401e833981519152604482015290519081900360640190fd5b612e8d338888613c11565b600954612ea5903390600160a060020a031683613c11565b50612f03565b84612eb533611fe6565b11612ef8576040805160e560020a62461bcd028152602060048201526019602482015260008051602061401e833981519152604482015290519081900360640190fd5b612f03338787613c11565b50600195945050505050565b60075490565b600a54600090600160a060020a03163314612f645760405160e560020a62461bcd02815260040180806020018281038252602f815260200180614136602f913960400191505060405180910390fd5b611908848484613c11565b600054600160a060020a03163314612fbf576040805160e560020a62461bcd02815260206004820152601a60248201526000805160206140c7833981519152604482015290519081900360640190fd5b60648111156130025760405160e560020a62461bcd02815260040180806020018281038252604f81526020018061420b604f913960600191505060405180910390fd5b600d55565b600054600160a060020a03163314613057576040805160e560020a62461bcd02815260206004820152601a60248201526000805160206140c7833981519152604482015290519081900360640190fd5b806130ac576040805160e560020a62461bcd02815260206004820152601660248201527f4e616d65206d757374206e6f7420626520656d70747900000000000000000000604482015290519081900360640190fd5b6128af600e8383613f62565b806130c281613917565b613116576040805160e560020a62461bcd02815260206004820152601a60248201527f4d757374206265206120636f6e74726163742061646472657373000000000000604482015290519081900360640190fd5b600054600160a060020a03163314613166576040805160e560020a62461bcd02815260206004820152601a60248201526000805160206140c7833981519152604482015290519081900360640190fd5b50600a805473ffffffffffffffffffffffffffffffffffffffff1916600160a060020a0392909216919091179055565b6000610fa58383613d80565b6000336131ae8161397a565b156131f1576040805160e560020a62461bcd02815260206004820152601a60248201526000805160206140a7833981519152604482015290519081900360640190fd5b846131fb8161397a565b1561323e576040805160e560020a62461bcd02815260206004820152601a60248201526000805160206140a7833981519152604482015290519081900360640190fd5b846132488161397a565b1561328b576040805160e560020a62461bcd02815260206004820152601a60248201526000805160206140a7833981519152604482015290519081900360640190fd5b6009543390600160a060020a03168114156132de576040805160e560020a62461bcd02815260206004820181905260248201526000805160206141aa833981519152604482015290519081900360640190fd5b600160a060020a0387166133265760405160e560020a62461bcd02815260040180806020018281038252602681526020018061427a6026913960400191505060405180910390fd5b600160a060020a03881661336e5760405160e560020a62461bcd02815260040180806020018281038252602481526020018061405e6024913960400191505060405180910390fd5b336133ad5760405160e560020a62461bcd0281526004018080602001828103825260258152602001806140826025913960400191505060405180910390fd5b600086116133f3576040805160e560020a62461bcd02815260206004820152601d602482015260008051602061425a833981519152604482015290519081900360640190fd5b600754156134fe5760006134186127106103626007548a610f4990919063ffffffff16565b905061342a878263ffffffff613d1816565b6134338a611fe6565b11613476576040805160e560020a62461bcd02815260206004820152601960248201526000805160206140e7833981519152604482015290519081900360640190fd5b613486878263ffffffff613d1816565b6134908a33613196565b116134d3576040805160e560020a62461bcd028152602060048201526019602482015260008051602061403e833981519152604482015290519081900360640190fd5b6134df89898933613a7f565b6009546134f8908a90600160a060020a03168333613a7f565b506135a5565b8561350889611fe6565b1161354b576040805160e560020a62461bcd02815260206004820152601960248201526000805160206140e7833981519152604482015290519081900360640190fd5b856135568933613196565b11613599576040805160e560020a62461bcd028152602060048201526019602482015260008051602061403e833981519152604482015290519081900360640190fd5b6135a588888833613a7f565b506001979650505050505050565b6000610f438261397a565b600054600160a060020a0316331461360e576040805160e560020a62461bcd02815260206004820152601a60248201526000805160206140c7833981519152604482015290519081900360640190fd5b600954604080517f4e6577204d696e7420416c6c6f77616e6365206d757374206265200000000000602082015283157f01000000000000000000000000000000000000000000000000000000000000008102603b8301528251808303601c018152603c9092019092529160a060020a900460ff161515146136d35760405160e560020a62461bcd0281526020600482018181528351602484015283519092839260449091019190850190808383600083156122ee5781810151838201526020016122d6565b506009805482151560a060020a810274ff0000000000000000000000000000000000000000199092169190911790915560408051918252517ffd1efbc27e4f96d2ced2f88c1e9bb283db7b0bb5a896728fa99314defd42be519181900360200190a150565b600054600160a060020a03163314613788576040805160e560020a62461bcd02815260206004820152601a60248201526000805160206140c7833981519152604482015290519081900360640190fd5b600160a060020a0381166137d05760405160e560020a62461bcd028152600401808060200182810382526023815260200180613ffb6023913960400191505060405180910390fd5b6001805473ffffffffffffffffffffffffffffffffffffffff1916600160a060020a0392909216919091179055565b61380a838383613dab565b604080518281529051600160a060020a0384169133917f8c5be1e5ebec7d5bd14f71427d1e84f3dd0314c0f7b2291e5b200ac8c7c3b9259181900360200190a3505050565b6000600160a060020a0382166138af576040805160e560020a62461bcd02815260206004820181905260248201527f4163636f756e74206d757374206e6f74206265207a65726f2d61646472657373604482015290519081900360640190fd5b50600160a060020a03166000908152602091909152604090205460ff1690565b6138e060028263ffffffff613dd716565b604051600160a060020a038216907fa3b62bc36326052d97ea62d63c3d60308ed4c3ea8ac079dd8499f1e9c4f80c0f90600090a250565b3b63ffffffff16151590565b61392e838383613e57565b600160a060020a038216337f8c5be1e5ebec7d5bd14f71427d1e84f3dd0314c0f7b2291e5b200ac8c7c3b9256139648686613d80565b60408051918252519081900360200190a3505050565b600160a060020a031660009081526003602052604090205460ff1690565b600160a060020a0382166000908152600560205260409020546139c1908263ffffffff610ee416565b600160a060020a0390921660009081526005602052604090209190915550565b604080517f7dbdaaca000000000000000000000000000000000000000000000000000000008152600160a060020a038481166004830152602482018490529151600092861691637dbdaaca91604480830192602092919082900301818787803b158015613a4d57600080fd5b505af1158015613a61573d6000803e3d6000fd5b505050506040513d6020811015613a7757600080fd5b505161190857fe5b600160a060020a0383163014613a9957613a998383613cef565b613aa4848284613ebe565b600160a060020a0384163014613abe57613abe8483613998565b82600160a060020a031684600160a060020a03166000805160206141eb833981519152846040518082815260200191505060405180910390a350505050565b604080517f45275ee9000000000000000000000000000000000000000000000000000000008152600160a060020a03858116600483015260248201859052838116604483015291516000928716916345275ee991606480830192602092919082900301818787803b158015613b7157600080fd5b505af1158015613b85573d6000803e3d6000fd5b505050506040513d6020811015613b9b57600080fd5b5051613ba357fe5b506001949350505050565b613bbf60028263ffffffff613ef416565b604051600160a060020a038216907f44d6d25963f097ad14f29f06854a01f575648a1ef82f30e562ccd3889717e33990600090a250565b600160a060020a031660009081526005602052604090205490565b600160a060020a0382163014613c2b57613c2b8282613cef565b600160a060020a0383163014613c4557613c458382613998565b81600160a060020a031683600160a060020a03166000805160206141eb833981519152836040518082815260200191505060405180910390a3505050565b604080517f62d20852000000000000000000000000000000000000000000000000000000008152600160a060020a0384811660048301526024820184905291516000928616916362d2085291604480830192602092919082900301818787803b158015613a4d57600080fd5b600160a060020a0382166000908152600560205260409020546139c1908263ffffffff613d1816565b600082820183811015610fa5576040805160e560020a62461bcd02815260206004820152601b60248201527f536166654d6174683a206164646974696f6e206f766572666c6f770000000000604482015290519081900360640190fd5b61392e838383613ebe565b600160a060020a03918216600090815260066020908152604080832093909416825291909152205490565b600160a060020a0392831660009081526006602090815260408083209490951682529290925291902055565b613de1828261384f565b613e35576040805160e560020a62461bcd02815260206004820152601f60248201527f4163636f756e7420686173206e6f7420686176652061646d696e20726f6c6500604482015290519081900360640190fd5b600160a060020a0316600090815260209190915260409020805460ff19169055565b600160a060020a03808416600090815260066020908152604080832093861683529290522054613e8d908263ffffffff613d1816565b600160a060020a03938416600090815260066020908152604080832095909616825293909352929091209190915550565b600160a060020a03808416600090815260066020908152604080832093861683529290522054613e8d908263ffffffff610ee416565b613efe828261384f565b15613f3d5760405160e560020a62461bcd0281526004018080602001828103825260238152602001806142c06023913960400191505060405180910390fd5b600160a060020a0316600090815260209190915260409020805460ff19166001179055565b828054600181600116156101000203166002900490600052602060002090601f016020900481019282601f10613fa35782800160ff19823516178555613fd0565b82800160010185558215613fd0579182015b82811115613fd0578235825591602001919060010190613fb5565b50613fdc929150613fe0565b5090565b61133a91905b80821115613fdc5760008155600101613fe656fe4f776e65722061646472657373206d757374206e6f7420626520302d6164647265737353656e64657220556e73696666696369656e742066756e6473000000000000005370656e64657220756e73756666696369656e7420666565730000000000000053656e6465722061646472657373206d757374206e6f7420626520302d616464726573735370656e6465722061646472657373206d757374206e6f7420626520302d616464726573734163636f756e74206d757374206e6f742062652066726f7a656e00000000000054686973206973206e6f7420636f6e7472616374206f776e657200000000000053656e64657220756e73756666696369656e742066756e64730000000000000043757272656e6379206973206e6f742070726573656e7420696e20737570706f727465642063757272656e636965734f6e6c79204d61726b657420636f6e74726163742063616e20706572666f726d2074686973206f7065726174696f6e4d696e7420616e64206275726e206f7065726174696f6e73206e6f7420616c6c6f776564536166654d6174683a206d756c7469706c69636174696f6e206f766572666c6f7741646472657373206d757374206e6f7420626520746f6b656e20686f6c6465724e657720686f6c646572206d757374206e6f74206265206f6c6420686f6c646572ddf252ad1be2c89b69c2b068fc378daa952ba7f163c4a11628f55a4df523b3ef4665657320446973636f756e74207573696e67204b4d5820546f6b656e20666f72204b4d5820537461626c6520546f6b656e73206d757374206265206265747765656e203020616e64203130302025416d6f756e74206d7573742062652067726561746572207468616e203000000052656365697665722061646472657373206d757374206e6f7420626520302d616464726573734d75737420626520616e2061646d696e000000000000000000000000000000004163636f756e742068617320616c726561647920686176652061646d696e20726f6c65a165627a7a723058203ad1de9854dfeff9712f2759a9e034417779f4b8ee9d4bbd17ba4f01141097b700294f776e65722061646472657373206d757374206e6f7420626520302d616464726573734163636f756e742068617320616c726561647920686176652061646d696e20726f6c65",
  "source": "pragma solidity >=0.4.10 <0.6.0;\r\n\r\nimport \"./KMXStableToken.sol\";\r\n\r\ncontract KMXStable is KMXStableToken {\r\n    string public name = \"Kamix Stable\";\r\n    string public symbols = \"KEUR\";\r\n    uint256 public decimals = 18;\r\n\r\n    function setName(string calldata _name) external onlyOwner {\r\n        require(bytes(_name).length != 0, \"Name must not be empty\");\r\n        name = _name;\r\n    }\r\n\r\n    function setSymbols(string calldata _symbols) external onlyOwner {\r\n        require(bytes(_symbols).length != 0, \"Symbols must not be empty\");\r\n        symbols = _symbols;\r\n    }\r\n    \r\n}",
  "sourcePath": "C:/Users/Sim'S/WebstormProjects/kmxv1/contracts/kmx/KMXStable.sol",
  "compiler": {
    "name": "solc",
    "version": "0.5.8+commit.23d335f2.Emscripten.clang"
  },
  "schemaVersion": "3.0.10",
  "updatedAt": "2019-08-23T20:06:11.694Z",
  "devdoc": {
    "methods": {}
  },
  "userdoc": {
    "methods": {}
  }
}