{
  "contractName": "KMXStableMarket",
  "abi": [
    {
      "constant": false,
      "inputs": [
        {
          "name": "myId",
          "type": "bytes32"
        },
        {
          "name": "result",
          "type": "string"
        }
      ],
      "name": "__callback",
      "outputs": [],
      "payable": false,
      "stateMutability": "nonpayable",
      "type": "function"
    },
    {
      "constant": false,
      "inputs": [
        {
          "name": "_myid",
          "type": "bytes32"
        },
        {
          "name": "_result",
          "type": "string"
        },
        {
          "name": "_proof",
          "type": "bytes"
        }
      ],
      "name": "__callback",
      "outputs": [],
      "payable": false,
      "stateMutability": "nonpayable",
      "type": "function"
    },
    {
      "constant": false,
      "inputs": [
        {
          "name": "_type",
          "type": "string"
        },
        {
          "name": "_url",
          "type": "string"
        }
      ],
      "name": "query",
      "outputs": [
        {
          "name": "",
          "type": "bytes32"
        }
      ],
      "payable": false,
      "stateMutability": "nonpayable",
      "type": "function"
    },
    {
      "inputs": [
        {
          "name": "_kmxStbTknAdd",
          "type": "address"
        }
      ],
      "payable": true,
      "stateMutability": "payable",
      "type": "constructor"
    },
    {
      "payable": true,
      "stateMutability": "payable",
      "type": "fallback"
    },
    {
      "anonymous": false,
      "inputs": [
        {
          "indexed": true,
          "name": "account",
          "type": "address"
        },
        {
          "indexed": false,
          "name": "tknAmount",
          "type": "uint256"
        }
      ],
      "name": "TokenBought",
      "type": "event"
    },
    {
      "anonymous": false,
      "inputs": [
        {
          "indexed": true,
          "name": "account",
          "type": "address"
        },
        {
          "indexed": false,
          "name": "tknAmount",
          "type": "uint256"
        }
      ],
      "name": "TokenRefunded",
      "type": "event"
    },
    {
      "anonymous": false,
      "inputs": [
        {
          "indexed": true,
          "name": "buyer",
          "type": "address"
        },
        {
          "indexed": false,
          "name": "amount",
          "type": "uint256"
        }
      ],
      "name": "KMXTokensBought",
      "type": "event"
    },
    {
      "constant": false,
      "inputs": [
        {
          "name": "newUrl",
          "type": "string"
        }
      ],
      "name": "setStableTokenPriceUrl",
      "outputs": [],
      "payable": false,
      "stateMutability": "nonpayable",
      "type": "function"
    },
    {
      "constant": true,
      "inputs": [],
      "name": "stableTokenPriceUrl",
      "outputs": [
        {
          "name": "",
          "type": "string"
        }
      ],
      "payable": false,
      "stateMutability": "view",
      "type": "function"
    },
    {
      "constant": false,
      "inputs": [
        {
          "name": "_newBuyKMXFees",
          "type": "uint256"
        }
      ],
      "name": "setBuyKMXFees",
      "outputs": [],
      "payable": false,
      "stateMutability": "nonpayable",
      "type": "function"
    },
    {
      "constant": true,
      "inputs": [],
      "name": "buyKMXFees",
      "outputs": [
        {
          "name": "",
          "type": "uint256"
        }
      ],
      "payable": false,
      "stateMutability": "view",
      "type": "function"
    },
    {
      "constant": false,
      "inputs": [
        {
          "name": "_address",
          "type": "address"
        }
      ],
      "name": "setKMXStableToken",
      "outputs": [],
      "payable": false,
      "stateMutability": "nonpayable",
      "type": "function"
    },
    {
      "constant": true,
      "inputs": [],
      "name": "kmxStableToken",
      "outputs": [
        {
          "name": "",
          "type": "address"
        }
      ],
      "payable": false,
      "stateMutability": "view",
      "type": "function"
    },
    {
      "constant": true,
      "inputs": [
        {
          "name": "_seller",
          "type": "address"
        }
      ],
      "name": "isSeller",
      "outputs": [
        {
          "name": "",
          "type": "bool"
        }
      ],
      "payable": false,
      "stateMutability": "view",
      "type": "function"
    },
    {
      "constant": false,
      "inputs": [
        {
          "name": "_seller",
          "type": "address"
        }
      ],
      "name": "addSeller",
      "outputs": [],
      "payable": false,
      "stateMutability": "nonpayable",
      "type": "function"
    },
    {
      "constant": false,
      "inputs": [
        {
          "name": "_seller",
          "type": "address"
        }
      ],
      "name": "removeSeller",
      "outputs": [],
      "payable": false,
      "stateMutability": "nonpayable",
      "type": "function"
    },
    {
      "constant": false,
      "inputs": [
        {
          "name": "_account",
          "type": "address"
        },
        {
          "name": "_currency",
          "type": "string"
        },
        {
          "name": "_amount",
          "type": "uint256"
        }
      ],
      "name": "buy",
      "outputs": [
        {
          "name": "",
          "type": "uint256"
        }
      ],
      "payable": false,
      "stateMutability": "nonpayable",
      "type": "function"
    },
    {
      "constant": false,
      "inputs": [
        {
          "name": "_account",
          "type": "address"
        },
        {
          "name": "_currency",
          "type": "string"
        },
        {
          "name": "_amount",
          "type": "uint256"
        }
      ],
      "name": "buyFromSeller",
      "outputs": [
        {
          "name": "",
          "type": "uint256"
        }
      ],
      "payable": false,
      "stateMutability": "nonpayable",
      "type": "function"
    },
    {
      "constant": true,
      "inputs": [
        {
          "name": "_account",
          "type": "address"
        },
        {
          "name": "_currency",
          "type": "string"
        },
        {
          "name": "_tokenQuantity",
          "type": "uint256"
        }
      ],
      "name": "refundAmount",
      "outputs": [
        {
          "name": "",
          "type": "uint256"
        }
      ],
      "payable": false,
      "stateMutability": "view",
      "type": "function"
    },
    {
      "constant": false,
      "inputs": [
        {
          "name": "_account",
          "type": "address"
        },
        {
          "name": "_currency",
          "type": "string"
        },
        {
          "name": "_tokenQuantity",
          "type": "uint256"
        }
      ],
      "name": "refund",
      "outputs": [
        {
          "name": "",
          "type": "bool"
        }
      ],
      "payable": false,
      "stateMutability": "nonpayable",
      "type": "function"
    },
    {
      "constant": false,
      "inputs": [
        {
          "name": "_account",
          "type": "address"
        },
        {
          "name": "_currency",
          "type": "string"
        },
        {
          "name": "_tokenQuantity",
          "type": "uint256"
        }
      ],
      "name": "refundToSeller",
      "outputs": [
        {
          "name": "",
          "type": "bool"
        }
      ],
      "payable": false,
      "stateMutability": "nonpayable",
      "type": "function"
    },
    {
      "constant": false,
      "inputs": [
        {
          "name": "_amount",
          "type": "uint256"
        }
      ],
      "name": "buyKMXTokens",
      "outputs": [],
      "payable": false,
      "stateMutability": "nonpayable",
      "type": "function"
    },
    {
      "constant": false,
      "inputs": [],
      "name": "kill",
      "outputs": [],
      "payable": false,
      "stateMutability": "nonpayable",
      "type": "function"
    }
  ],
  "bytecode": "0x608060405260405160208062004d0d833981018060405260208110156200002557600080fd5b505162000049600160a060020a03821664010000000062003584620000ea82021704565b620000b557604080517f08c379a000000000000000000000000000000000000000000000000000000000815260206004820152601a60248201527f50726f7669646520636f6e747261637420616464726573736573000000000000604482015290519081900360640190fd5b60068054600160a060020a03909216600160a060020a03199283168117909155600580549092161790556064600c55620000f6565b3b63ffffffff16151590565b614c0780620001066000396000f3fe6080604052600436106101185760003560e060020a9004806378d8fb21116100a4578063ca57cbf411610068578063ca57cbf414610b41578063cc0908e714610b72578063cca524ce14610c37578063d93fabfa14610c61578063ee95feaf14610c9457610118565b806378d8fb21146107855780637cb9cf541461084a57806381ade3071461087d5780639bed2f49146109b7578063b1c46d2214610a7c57610118565b806338bbfa50116100eb57806338bbfa50146104a257806341c0e1b5146105e357806348c692d7146105f85780635210e696146106d157806353baf1f11461075b57610118565b806313527a42146102db57806327dc297e1461030e5780632f874ce6146103c857806334cc5c0f146103ef575b34156102d957600654604080517f420a83e70000000000000000000000000000000000000000000000000000000081529051600092600160a060020a03169163420a83e7916004808301926020929190829003018186803b15801561017c57600080fd5b505afa158015610190573d6000803e3d6000fd5b505050506040513d60208110156101a657600080fd5b50519050662386f26fc1000034111561023b57336108fc6101d434662386f26fc1000063ffffffff610cc716565b6040518115909202916000818181858888f193505050501580156101fc573d6000803e3d6000fd5b50604051600160a060020a03821690600090662386f26fc100009082818181858883f19350505050158015610235573d6000803e3d6000fd5b506102d7565b336108fc610261606461025534605a63ffffffff610d2c16565b9063ffffffff610d8f16565b6040518115909202916000818181858888f19350505050158015610289573d6000803e3d6000fd5b50600160a060020a0381166108fc6102ad606461025534600a63ffffffff610d2c16565b6040518115909202916000818181858888f193505050501580156102d5573d6000803e3d6000fd5b505b505b005b3480156102e757600080fd5b506102d9600480360360208110156102fe57600080fd5b5035600160a060020a0316610dfc565b34801561031a57600080fd5b506102d96004803603604081101561033157600080fd5b8135919081019060408101602082013564010000000081111561035357600080fd5b82018360208201111561036557600080fd5b8035906020019184600183028401116401000000008311171561038757600080fd5b91908080601f016020809104026020016040519081016040528093929190818152602001838380828437600092019190915250929550610f5c945050505050565b3480156103d457600080fd5b506103dd610fda565b60408051918252519081900360200190f35b3480156103fb57600080fd5b506102d96004803603602081101561041257600080fd5b81019060208101813564010000000081111561042d57600080fd5b82018360208201111561043f57600080fd5b8035906020019184600183028401116401000000008311171561046157600080fd5b91908080601f016020809104026020016040519081016040528093929190818152602001838380828437600092019190915250929550610fe1945050505050565b3480156104ae57600080fd5b506102d9600480360360608110156104c557600080fd5b813591908101906040810160208201356401000000008111156104e757600080fd5b8201836020820111156104f957600080fd5b8035906020019184600183028401116401000000008311171561051b57600080fd5b91908080601f016020809104026020016040519081016040528093929190818152602001838380828437600092019190915250929594936020810193503591505064010000000081111561056e57600080fd5b82018360208201111561058057600080fd5b803590602001918460018302840111640100000000831117156105a257600080fd5b91908080601f0160208091040260200160405190810160405280939291908181526020018383808284376000920191909152509295506110ac945050505050565b3480156105ef57600080fd5b506102d96110dd565b34801561060457600080fd5b506106bd6004803603606081101561061b57600080fd5b600160a060020a03823516919081019060408101602082013564010000000081111561064657600080fd5b82018360208201111561065857600080fd5b8035906020019184600183028401116401000000008311171561067a57600080fd5b91908080601f01602080910402602001604051908101604052809392919081815260200183838082843760009201919091525092955050913592506111af915050565b604080519115158252519081900360200190f35b3480156106dd57600080fd5b506106e6611838565b6040805160208082528351818301528351919283929083019185019080838360005b83811015610720578181015183820152602001610708565b50505050905090810190601f16801561074d5780820380516001836020036101000a031916815260200191505b509250505060405180910390f35b34801561076757600080fd5b506102d96004803603602081101561077e57600080fd5b50356118ce565b34801561079157600080fd5b506103dd600480360360608110156107a857600080fd5b600160a060020a0382351691908101906040810160208201356401000000008111156107d357600080fd5b8201836020820111156107e557600080fd5b8035906020019184600183028401116401000000008311171561080757600080fd5b91908080601f01602080910402602001604051908101604052809392919081815260200183838082843760009201919091525092955050913592506119ed915050565b34801561085657600080fd5b506102d96004803603602081101561086d57600080fd5b5035600160a060020a0316611ef3565b34801561088957600080fd5b506103dd600480360360408110156108a057600080fd5b8101906020810181356401000000008111156108bb57600080fd5b8201836020820111156108cd57600080fd5b803590602001918460018302840111640100000000831117156108ef57600080fd5b91908080601f016020809104026020016040519081016040528093929190818152602001838380828437600092019190915250929594936020810193503591505064010000000081111561094257600080fd5b82018360208201111561095457600080fd5b8035906020019184600183028401116401000000008311171561097657600080fd5b91908080601f016020809104026020016040519081016040528093929190818152602001838380828437600092019190915250929550612013945050505050565b3480156109c357600080fd5b506103dd600480360360608110156109da57600080fd5b600160a060020a038235169190810190604081016020820135640100000000811115610a0557600080fd5b820183602082011115610a1757600080fd5b80359060200191846001830284011164010000000083111715610a3957600080fd5b91908080601f016020809104026020016040519081016040528093929190818152602001838380828437600092019190915250929550509135925061201f915050565b348015610a8857600080fd5b506103dd60048036036060811015610a9f57600080fd5b600160a060020a038235169190810190604081016020820135640100000000811115610aca57600080fd5b820183602082011115610adc57600080fd5b80359060200191846001830284011164010000000083111715610afe57600080fd5b91908080601f016020809104026020016040519081016040528093929190818152602001838380828437600092019190915250929550509135925061259f915050565b348015610b4d57600080fd5b50610b56612d35565b60408051600160a060020a039092168252519081900360200190f35b348015610b7e57600080fd5b506106bd60048036036060811015610b9557600080fd5b600160a060020a038235169190810190604081016020820135640100000000811115610bc057600080fd5b820183602082011115610bd257600080fd5b80359060200191846001830284011164010000000083111715610bf457600080fd5b91908080601f0160208091040260200160405190810160405280939291908181526020018383808284376000920191909152509295505091359250612d44915050565b348015610c4357600080fd5b506102d960048036036020811015610c5a57600080fd5b5035613217565b348015610c6d57600080fd5b506102d960048036036020811015610c8457600080fd5b5035600160a060020a031661332e565b348015610ca057600080fd5b506106bd60048036036020811015610cb757600080fd5b5035600160a060020a0316613577565b600082821115610d21576040805160e560020a62461bcd02815260206004820152601e60248201527f536166654d6174683a207375627472616374696f6e206f766572666c6f770000604482015290519081900360640190fd5b508082035b92915050565b600082610d3b57506000610d26565b82820282848281610d4857fe5b0414610d885760405160e560020a62461bcd028152600401808060200182810382526021815260200180614aac6021913960400191505060405180910390fd5b9392505050565b6000808211610de8576040805160e560020a62461bcd02815260206004820152601a60248201527f536166654d6174683a206469766973696f6e206279207a65726f000000000000604482015290519081900360640190fd5b6000828481610df357fe5b04949350505050565b600654604080517f2f54bf6e0000000000000000000000000000000000000000000000000000000081523360048201529051600160a060020a0390921691632f54bf6e91602480820192602092909190829003018186803b158015610e6057600080fd5b505afa158015610e74573d6000803e3d6000fd5b505050506040513d6020811015610e8a57600080fd5b5051610eca5760405160e560020a62461bcd028152600401808060200182810382526025815260200180614b146025913960400191505060405180910390fd5b610edc81600160a060020a0316613584565b610f30576040805160e560020a62461bcd02815260206004820152601860248201527f50726f7669646520636f6e747261637420616464726573730000000000000000604482015290519081900360640190fd5b60068054600160a060020a03909216600160a060020a0319928316811790915560058054909216179055565b610f64613590565b600160a060020a031633600160a060020a031614610fcc576040805160e560020a62461bcd02815260206004820152601d60248201527f4d7573742062652063616c6c6564206f6e6c79206279204f7261636c65000000604482015290519081900360640190fd5b610fd68282613782565b5050565b600c545b90565b6006546040805160e260020a630935e01b0281523360048201529051600160a060020a03909216916324d7806c91602480820192602092909190829003018186803b15801561102f57600080fd5b505afa158015611043573d6000803e3d6000fd5b505050506040513d602081101561105957600080fd5b50516110995760405160e560020a62461bcd028152600401808060200182810382526025815260200180614a226025913960400191505060405180910390fd5b8051610fd690600b906020840190614965565b5050600080805260036020527f3617319a054d772f909f7c479a2cebe5066e836a939412e32403c99029b92eff5550565b600654604080517f2f54bf6e0000000000000000000000000000000000000000000000000000000081523360048201529051600160a060020a0390921691632f54bf6e91602480820192602092909190829003018186803b15801561114157600080fd5b505afa158015611155573d6000803e3d6000fd5b505050506040513d602081101561116b57600080fd5b50516111ab5760405160e560020a62461bcd028152600401808060200182810382526025815260200180614b146025913960400191505060405180910390fd5b3380ff5b6000331580159061124557506111c433613577565b8061124557506006546040805160e260020a630935e01b0281523360048201529051600160a060020a03909216916324d7806c91602480820192602092909190829003018186803b15801561121857600080fd5b505afa15801561122c573d6000803e3d6000fd5b505050506040513d602081101561124257600080fd5b50515b6112835760405160e560020a62461bcd028152600401808060200182810382526031815260200180614b6a6031913960400191505060405180910390fd5b60065460405160e460020a630697d60b0281526020600482018181528651602484015286518794600160a060020a03169363697d60b09386939283926044019185019080838360005b838110156112e45781810151838201526020016112cc565b50505050905090810190601f1680156113115780820380516001836020036101000a031916815260200191505b509250505060206040518083038186803b15801561132e57600080fd5b505afa158015611342573d6000803e3d6000fd5b505050506040513d602081101561135857600080fd5b505161139c576040805160e560020a62461bcd0281526020600482015260186024820152600080516020614af4833981519152604482015290519081900360640190fd5b8483600160a060020a0382166113e65760405160e560020a62461bcd028152600401808060200182810382526025815260200180614a676025913960400191505060405180910390fd5b600660009054906101000a9004600160a060020a0316600160a060020a031663420a83e76040518163ffffffff1660e060020a02815260040160206040518083038186803b15801561143757600080fd5b505afa15801561144b573d6000803e3d6000fd5b505050506040513d602081101561146157600080fd5b5051600160a060020a03838116911614156114b4576040805160e560020a62461bcd0281526020600482018190526024820152600080516020614a47833981519152604482015290519081900360640190fd5b6006546040805160e060020a63e816d97f028152600160a060020a0385811660048301529151919092169163e816d97f916024808301926020929190829003018186803b15801561150457600080fd5b505afa158015611518573d6000803e3d6000fd5b505050506040513d602081101561152e57600080fd5b505115611573576040805160e560020a62461bcd0281526020600482015260116024820152600080516020614a8c833981519152604482015290519081900360640190fd5b600081116115b55760405160e560020a62461bcd028152600401808060200182810382526041815260200180614b9b6041913960600191505060405180910390fd5b6115be87613577565b1561167b576006546040805160e260020a630935e01b0281523360048201529051600160a060020a03909216916324d7806c91602480820192602092909190829003018186803b15801561161157600080fd5b505afa158015611625573d6000803e3d6000fd5b505050506040513d602081101561163b57600080fd5b505161167b5760405160e560020a62461bcd028152600401808060200182810382526031815260200180614b396031913960400191505060405180910390fd5b6006546040805160e060020a6370a08231028152600160a060020a038a811660048301529151889392909216916370a0823191602480820192602092909190829003018186803b1580156116ce57600080fd5b505afa1580156116e2573d6000803e3d6000fd5b505050506040513d60208110156116f857600080fd5b50511015611750576040805160e560020a62461bcd02815260206004820152601260248201527f556e73756666696369656e742066756e64730000000000000000000000000000604482015290519081900360640190fd5b6117eb87600660009054906101000a9004600160a060020a0316600160a060020a031663420a83e76040518163ffffffff1660e060020a02815260040160206040518083038186803b1580156117a557600080fd5b505afa1580156117b9573d6000803e3d6000fd5b505050506040513d60208110156117cf57600080fd5b5051600654600160a060020a031691908863ffffffff6137cc16565b50604080518681529051600160a060020a038916917fb7feb6c1d7169f40790388a31c0160d8f962a2b6c31970c28bd8cdfefa25ea29919081900360200190a25060019695505050505050565b600b8054604080516020601f60026000196101006001881615020190951694909404938401819004810282018101909252828152606093909290918301828280156118c45780601f10611899576101008083540402835291602001916118c4565b820191906000526020600020905b8154815290600101906020018083116118a757829003601f168201915b5050505050905090565b6006546040805160e060020a6370a08231028152336004820181905291516119ea9360079386939092600160a060020a03909216916370a0823191602480820192602092909190829003018186803b15801561192957600080fd5b505afa15801561193d573d6000803e3d6000fd5b505050506040513d602081101561195357600080fd5b5051600b8054604080516020601f600260001961010060018816150201909516949094049384018190048102820181019092528281523093909290918301828280156119e05780601f106119b5576101008083540402835291602001916119e0565b820191906000526020600020905b8154815290600101906020018083116119c357829003601f168201915b505050505061387d565b50565b60003315801590611a835750611a0233613577565b80611a8357506006546040805160e260020a630935e01b0281523360048201529051600160a060020a03909216916324d7806c91602480820192602092909190829003018186803b158015611a5657600080fd5b505afa158015611a6a573d6000803e3d6000fd5b505050506040513d6020811015611a8057600080fd5b50515b611ac15760405160e560020a62461bcd028152600401808060200182810382526031815260200180614b6a6031913960400191505060405180910390fd5b60065460405160e460020a630697d60b0281526020600482018181528651602484015286518794600160a060020a03169363697d60b09386939283926044019185019080838360005b83811015611b22578181015183820152602001611b0a565b50505050905090810190601f168015611b4f5780820380516001836020036101000a031916815260200191505b509250505060206040518083038186803b158015611b6c57600080fd5b505afa158015611b80573d6000803e3d6000fd5b505050506040513d6020811015611b9657600080fd5b5051611bda576040805160e560020a62461bcd0281526020600482015260186024820152600080516020614af4833981519152604482015290519081900360640190fd5b8483600160a060020a038216611c245760405160e560020a62461bcd028152600401808060200182810382526025815260200180614a676025913960400191505060405180910390fd5b600660009054906101000a9004600160a060020a0316600160a060020a031663420a83e76040518163ffffffff1660e060020a02815260040160206040518083038186803b158015611c7557600080fd5b505afa158015611c89573d6000803e3d6000fd5b505050506040513d6020811015611c9f57600080fd5b5051600160a060020a0383811691161415611cf2576040805160e560020a62461bcd0281526020600482018190526024820152600080516020614a47833981519152604482015290519081900360640190fd5b6006546040805160e060020a63e816d97f028152600160a060020a0385811660048301529151919092169163e816d97f916024808301926020929190829003018186803b158015611d4257600080fd5b505afa158015611d56573d6000803e3d6000fd5b505050506040513d6020811015611d6c57600080fd5b505115611db1576040805160e560020a62461bcd0281526020600482015260116024820152600080516020614a8c833981519152604482015290519081900360640190fd5b60008111611df35760405160e560020a62461bcd028152600401808060200182810382526041815260200180614b9b6041913960600191505060405180910390fd5b6006546040517f02888d06000000000000000000000000000000000000000000000000000000008152602060048201818152895160248401528951611ee894600160a060020a0316936302888d06938c939283926044019185019080838360005b83811015611e6c578181015183820152602001611e54565b50505050905090810190601f168015611e995780820380516001836020036101000a031916815260200191505b509250505060206040518083038186803b158015611eb657600080fd5b505afa158015611eca573d6000803e3d6000fd5b505050506040513d6020811015611ee057600080fd5b505186613af4565b979650505050505050565b6006546040805160e260020a630935e01b0281523360048201529051600160a060020a03909216916324d7806c91602480820192602092909190829003018186803b158015611f4157600080fd5b505afa158015611f55573d6000803e3d6000fd5b505050506040513d6020811015611f6b57600080fd5b5051611fab5760405160e560020a62461bcd028152600401808060200182810382526025815260200180614a226025913960400191505060405180910390fd5b611fb481613577565b612008576040805160e560020a62461bcd02815260206004820152600f60248201527f4973206e6f7420612073656c6c65720000000000000000000000000000000000604482015290519081900360640190fd5b6119ea600782613b12565b6000610d888383613b5c565b60003361202b81613577565b61207f576040805160e560020a62461bcd02815260206004820152601760248201527f4d75737420626520616e20746f6b656e2073656c6c6572000000000000000000604482015290519081900360640190fd5b60065460405160e460020a630697d60b0281526020600482018181528751602484015287518894600160a060020a03169363697d60b09386939283926044019185019080838360005b838110156120e05781810151838201526020016120c8565b50505050905090810190601f16801561210d5780820380516001836020036101000a031916815260200191505b509250505060206040518083038186803b15801561212a57600080fd5b505afa15801561213e573d6000803e3d6000fd5b505050506040513d602081101561215457600080fd5b5051612198576040805160e560020a62461bcd0281526020600482015260186024820152600080516020614af4833981519152604482015290519081900360640190fd5b8584600160a060020a0382166121e25760405160e560020a62461bcd028152600401808060200182810382526025815260200180614a676025913960400191505060405180910390fd5b600660009054906101000a9004600160a060020a0316600160a060020a031663420a83e76040518163ffffffff1660e060020a02815260040160206040518083038186803b15801561223357600080fd5b505afa158015612247573d6000803e3d6000fd5b505050506040513d602081101561225d57600080fd5b5051600160a060020a03838116911614156122b0576040805160e560020a62461bcd0281526020600482018190526024820152600080516020614a47833981519152604482015290519081900360640190fd5b6006546040805160e060020a63e816d97f028152600160a060020a0385811660048301529151919092169163e816d97f916024808301926020929190829003018186803b15801561230057600080fd5b505afa158015612314573d6000803e3d6000fd5b505050506040513d602081101561232a57600080fd5b50511561236f576040805160e560020a62461bcd0281526020600482015260116024820152600080516020614a8c833981519152604482015290519081900360640190fd5b600081116123b15760405160e560020a62461bcd028152600401808060200182810382526041815260200180614b9b6041913960600191505060405180910390fd5b6006546040517f02888d060000000000000000000000000000000000000000000000000000000081526020600482018181528a5160248401528a51600094859461252894600160a060020a03909216936302888d06938f9391928392604490910191908501908083838c5b8381101561243457818101518382015260200161241c565b50505050905090810190601f1680156124615780820380516001836020036101000a031916815260200191505b509250505060206040518083038186803b15801561247e57600080fd5b505afa158015612492573d6000803e3d6000fd5b505050506040513d60208110156124a857600080fd5b50516006546040805160e060020a6370a0823102815233600482015290518c92600160a060020a0316916370a08231916024808301926020929190829003018186803b1580156124f757600080fd5b505afa15801561250b573d6000803e3d6000fd5b505050506040513d602081101561252157600080fd5b5051613f52565b909250905081156125925760065461255190600160a060020a0316338c8563ffffffff6137cc16565b50604080518381529051600160a060020a038c16917fa3a187cfc249a33f6c4046e8d418886eea8564f9dd214a32aa5ba08d9602b543919081900360200190a25b9998505050505050505050565b6000331580159061263557506125b433613577565b8061263557506006546040805160e260020a630935e01b0281523360048201529051600160a060020a03909216916324d7806c91602480820192602092909190829003018186803b15801561260857600080fd5b505afa15801561261c573d6000803e3d6000fd5b505050506040513d602081101561263257600080fd5b50515b6126735760405160e560020a62461bcd028152600401808060200182810382526031815260200180614b6a6031913960400191505060405180910390fd5b60065460405160e460020a630697d60b0281526020600482018181528651602484015286518794600160a060020a03169363697d60b09386939283926044019185019080838360005b838110156126d45781810151838201526020016126bc565b50505050905090810190601f1680156127015780820380516001836020036101000a031916815260200191505b509250505060206040518083038186803b15801561271e57600080fd5b505afa158015612732573d6000803e3d6000fd5b505050506040513d602081101561274857600080fd5b505161278c576040805160e560020a62461bcd0281526020600482015260186024820152600080516020614af4833981519152604482015290519081900360640190fd5b8483600160a060020a0382166127d65760405160e560020a62461bcd028152600401808060200182810382526025815260200180614a676025913960400191505060405180910390fd5b600660009054906101000a9004600160a060020a0316600160a060020a031663420a83e76040518163ffffffff1660e060020a02815260040160206040518083038186803b15801561282757600080fd5b505afa15801561283b573d6000803e3d6000fd5b505050506040513d602081101561285157600080fd5b5051600160a060020a03838116911614156128a4576040805160e560020a62461bcd0281526020600482018190526024820152600080516020614a47833981519152604482015290519081900360640190fd5b6006546040805160e060020a63e816d97f028152600160a060020a0385811660048301529151919092169163e816d97f916024808301926020929190829003018186803b1580156128f457600080fd5b505afa158015612908573d6000803e3d6000fd5b505050506040513d602081101561291e57600080fd5b505115612963576040805160e560020a62461bcd0281526020600482015260116024820152600080516020614a8c833981519152604482015290519081900360640190fd5b600081116129a55760405160e560020a62461bcd028152600401808060200182810382526041815260200180614b9b6041913960600191505060405180910390fd5b6129ae87613577565b15612a6b576006546040805160e260020a630935e01b0281523360048201529051600160a060020a03909216916324d7806c91602480820192602092909190829003018186803b158015612a0157600080fd5b505afa158015612a15573d6000803e3d6000fd5b505050506040513d6020811015612a2b57600080fd5b5051612a6b5760405160e560020a62461bcd028152600401808060200182810382526031815260200180614b396031913960400191505060405180910390fd5b6006546040517f02888d060000000000000000000000000000000000000000000000000000000081526020600482018181528951602484015289516000948594612c3894600160a060020a03909216936302888d06938e9391928392604490910191908501908083838c5b83811015612aee578181015183820152602001612ad6565b50505050905090810190601f168015612b1b5780820380516001836020036101000a031916815260200191505b509250505060206040518083038186803b158015612b3857600080fd5b505afa158015612b4c573d6000803e3d6000fd5b505050506040513d6020811015612b6257600080fd5b5051600654604080517f420a83e700000000000000000000000000000000000000000000000000000000815290518b92600160a060020a0316916370a0823191839163420a83e7916004808301926020929190829003018186803b158015612bc957600080fd5b505afa158015612bdd573d6000803e3d6000fd5b505050506040513d6020811015612bf357600080fd5b50516040805160e060020a63ffffffff8516028152600160a060020a039092166004830152516024808301926020929190829003018186803b1580156124f757600080fd5b90925090508115612d2957600654604080517f420a83e70000000000000000000000000000000000000000000000000000000081529051612ce892600160a060020a03169163420a83e7916004808301926020929190829003018186803b158015612ca257600080fd5b505afa158015612cb6573d6000803e3d6000fd5b505050506040513d6020811015612ccc57600080fd5b5051600654600160a060020a0316908b8563ffffffff6137cc16565b50604080518381529051600160a060020a038b16917fa3a187cfc249a33f6c4046e8d418886eea8564f9dd214a32aa5ba08d9602b543919081900360200190a25b98975050505050505050565b600554600160a060020a031690565b600033612d5081613577565b612da4576040805160e560020a62461bcd02815260206004820152601760248201527f4d75737420626520616e20746f6b656e2073656c6c6572000000000000000000604482015290519081900360640190fd5b60065460405160e460020a630697d60b0281526020600482018181528751602484015287518894600160a060020a03169363697d60b09386939283926044019185019080838360005b83811015612e05578181015183820152602001612ded565b50505050905090810190601f168015612e325780820380516001836020036101000a031916815260200191505b509250505060206040518083038186803b158015612e4f57600080fd5b505afa158015612e63573d6000803e3d6000fd5b505050506040513d6020811015612e7957600080fd5b5051612ebd576040805160e560020a62461bcd0281526020600482015260186024820152600080516020614af4833981519152604482015290519081900360640190fd5b8584600160a060020a038216612f075760405160e560020a62461bcd028152600401808060200182810382526025815260200180614a676025913960400191505060405180910390fd5b600660009054906101000a9004600160a060020a0316600160a060020a031663420a83e76040518163ffffffff1660e060020a02815260040160206040518083038186803b158015612f5857600080fd5b505afa158015612f6c573d6000803e3d6000fd5b505050506040513d6020811015612f8257600080fd5b5051600160a060020a0383811691161415612fd5576040805160e560020a62461bcd0281526020600482018190526024820152600080516020614a47833981519152604482015290519081900360640190fd5b6006546040805160e060020a63e816d97f028152600160a060020a0385811660048301529151919092169163e816d97f916024808301926020929190829003018186803b15801561302557600080fd5b505afa158015613039573d6000803e3d6000fd5b505050506040513d602081101561304f57600080fd5b505115613094576040805160e560020a62461bcd0281526020600482015260116024820152600080516020614a8c833981519152604482015290519081900360640190fd5b600081116130d65760405160e560020a62461bcd028152600401808060200182810382526041815260200180614b9b6041913960600191505060405180910390fd5b6006546040805160e060020a6370a08231028152600160a060020a038b811660048301529151899392909216916370a0823191602480820192602092909190829003018186803b15801561312957600080fd5b505afa15801561313d573d6000803e3d6000fd5b505050506040513d602081101561315357600080fd5b505110156131ab576040805160e560020a62461bcd02815260206004820152601260248201527f556e73756666696369656e742066756e64730000000000000000000000000000604482015290519081900360640190fd5b6006546131c990600160a060020a031689338963ffffffff6137cc16565b50604080518781529051600160a060020a038a16917fb7feb6c1d7169f40790388a31c0160d8f962a2b6c31970c28bd8cdfefa25ea29919081900360200190a2506001979650505050505050565b6006546040805160e260020a630935e01b0281523360048201529051600160a060020a03909216916324d7806c91602480820192602092909190829003018186803b15801561326557600080fd5b505afa158015613279573d6000803e3d6000fd5b505050506040513d602081101561328f57600080fd5b50516132cf5760405160e560020a62461bcd028152600401808060200182810382526025815260200180614a226025913960400191505060405180910390fd5b612710811115613329576040805160e560020a62461bcd02815260206004820152601a60248201527f46656573206d75737420626520696e2070657263656e74616765000000000000604482015290519081900360640190fd5b600c55565b6006546040805160e260020a630935e01b0281523360048201529051600160a060020a03909216916324d7806c91602480820192602092909190829003018186803b15801561337c57600080fd5b505afa158015613390573d6000803e3d6000fd5b505050506040513d60208110156133a657600080fd5b50516133e65760405160e560020a62461bcd028152600401808060200182810382526025815260200180614a226025913960400191505060405180910390fd5b600160a060020a03811661342e5760405160e560020a62461bcd0281526004018080602001828103825260248152602001806149fe6024913960400191505060405180910390fd5b600660009054906101000a9004600160a060020a0316600160a060020a031663420a83e76040518163ffffffff1660e060020a02815260040160206040518083038186803b15801561347f57600080fd5b505afa158015613493573d6000803e3d6000fd5b505050506040513d60208110156134a957600080fd5b5051600160a060020a038281169116141561350e576040805160e560020a62461bcd02815260206004820152601f60248201527f53656c6c6572206d757374206e6f7420626520746f6b656e20686f6c64657200604482015290519081900360640190fd5b61351781613577565b1561356c576040805160e560020a62461bcd02815260206004820152601060248201527f416c726561647920612073656c6c657200000000000000000000000000000000604482015290519081900360640190fd5b6119ea600782613fc8565b6000610d26600783614015565b3b63ffffffff16151590565b600154600090600160a060020a031615806135bd57506001546135bb90600160a060020a0316614034565b155b156135ce576135cc6000614038565b505b600160009054906101000a9004600160a060020a0316600160a060020a03166338cc48316040518163ffffffff1660e060020a028152600401602060405180830381600087803b15801561362157600080fd5b505af1158015613635573d6000803e3d6000fd5b505050506040513d602081101561364b57600080fd5b5051600054600160a060020a0390811691161461370157600160009054906101000a9004600160a060020a0316600160a060020a03166338cc48316040518163ffffffff1660e060020a028152600401602060405180830381600087803b1580156136b557600080fd5b505af11580156136c9573d6000803e3d6000fd5b505050506040513d60208110156136df57600080fd5b505160008054600160a060020a031916600160a060020a039092169190911790555b6000809054906101000a9004600160a060020a0316600160a060020a031663c281d19e6040518163ffffffff1660e060020a02815260040160206040518083038186803b15801561375157600080fd5b505afa158015613765573d6000803e3d6000fd5b505050506040513d602081101561377b57600080fd5b5051905090565b600082815260096020526040902054600160a060020a031615610fd6576000806137ab83614042565b915091506137c684826137be57836137c1565b60005b61418f565b50505050565b604080517fbcf0dd8e000000000000000000000000000000000000000000000000000000008152600160a060020a038581166004830152848116602483015260448201849052915160009287169163bcf0dd8e91606480830192602092919082900301818787803b15801561384057600080fd5b505af1158015613854573d6000803e3d6000fd5b505050506040513d602081101561386a57600080fd5b505161387257fe5b506001949350505050565b848310156138d5576040805160e560020a62461bcd02815260206004820152601560248201527f556e73756666696369656e742062616c616e6365730000000000000000000000604482015290519081900360640190fd5b600082600160a060020a03166381ade3078360405160200180807f6a736f6e2800000000000000000000000000000000000000000000000000000081525060050182805190602001908083835b602083106139415780518252601f199092019160209182019101613922565b51815160209384036101000a60001901801990921691161790527f292e70726963650000000000000000000000000000000000000000000000000091909301908152604080518083036018190181526007830180835263ffffffff891660e060020a029052600b83019182526003604b8401527f55524c0000000000000000000000000000000000000000000000000000000000606b8401526080602b84019081528151608b8501528151919750919550859491935060ab909201919086019080838360005b83811015613a1f578181015183820152602001613a07565b50505050905090810190601f168015613a4c5780820380516001836020036101000a031916815260200191505b509350505050602060405180830381600087803b158015613a6c57600080fd5b505af1158015613a80573d6000803e3d6000fd5b505050506040513d6020811015613a9657600080fd5b5051600090815260028801602090815260408083208054600160a060020a03909916600160a060020a0319909916891790559682526003890181528682209790975560019788019096525050509120805460ff191690921790915550565b6000610d888361025584670de0b6b3a764000063ffffffff610d2c16565b600160a060020a038116600081815260208490526040808220805460ff19169055517f28b0e6f1ecc47257ec3f79765e931c56d7dfa4c59debbc701a1245cfd42375f09190a25050565b600154600090600160a060020a03161580613b895750600154613b8790600160a060020a0316614034565b155b15613b9a57613b986000614038565b505b600160009054906101000a9004600160a060020a0316600160a060020a03166338cc48316040518163ffffffff1660e060020a028152600401602060405180830381600087803b158015613bed57600080fd5b505af1158015613c01573d6000803e3d6000fd5b505050506040513d6020811015613c1757600080fd5b5051600054600160a060020a03908116911614613ccd57600160009054906101000a9004600160a060020a0316600160a060020a03166338cc48316040518163ffffffff1660e060020a028152600401602060405180830381600087803b158015613c8157600080fd5b505af1158015613c95573d6000803e3d6000fd5b505050506040513d6020811015613cab57600080fd5b505160008054600160a060020a031916600160a060020a039092169190911790555b600080546040517f524f3889000000000000000000000000000000000000000000000000000000008152602060048201818152875160248401528751600160a060020a039094169363524f38899389938392604490920191908501908083838b5b83811015613d46578181015183820152602001613d2e565b50505050905090810190601f168015613d735780820380516001836020036101000a031916815260200191505b5092505050602060405180830381600087803b158015613d9257600080fd5b505af1158015613da6573d6000803e3d6000fd5b505050506040513d6020811015613dbc57600080fd5b50519050670de0b6b3a764000062030d403a0201811115613de1575060009050610d26565b600080546040517fadf59f9900000000000000000000000000000000000000000000000000000000815260048101838152606060248301908152885160648401528851600160a060020a039094169463adf59f9994879491938b938b9391929091604481019160849091019060208701908083838b5b83811015613e6f578181015183820152602001613e57565b50505050905090810190601f168015613e9c5780820380516001836020036101000a031916815260200191505b50838103825284518152845160209182019186019080838360005b83811015613ecf578181015183820152602001613eb7565b50505050905090810190601f168015613efc5780820380516001836020036101000a031916815260200191505b50955050505050506020604051808303818588803b158015613f1d57600080fd5b505af1158015613f31573d6000803e3d6000fd5b50505050506040513d6020811015613f4857600080fd5b5051949350505050565b600080848482613f74670de0b6b3a7640000610255848663ffffffff610d2c16565b9050600086821115613fba57866000613f9f8661025584670de0b6b3a764000063ffffffff610d2c16565b9050613fb1858263ffffffff610cc716565b90945090925090505b909890975095505050505050565b600160a060020a038116600081815260208490526040808220805460ff19166001179055517f2a5b684466efcba806639913b639a9d5a8941f247a170221236b2fd4955f04599190a25050565b600160a060020a03166000908152602091909152604090205460ff1690565b3b90565b6000610d26614346565b60008080838180805b83518110156141815783517f30000000000000000000000000000000000000000000000000000000000000009085908390811061408457fe5b602001015160f860020a900460f860020a027effffffffffffffffffffffffffffffffffffffffffffffffffffffffffffff191610158015614128575083517f3900000000000000000000000000000000000000000000000000000000000000908590839081106140f157fe5b602001015160f860020a900460f860020a027effffffffffffffffffffffffffffffffffffffffffffffffffffffffffffff191611155b1561417457829150603084828151811061413e57fe5b602001015160f860020a900460f860020a0260f860020a90040360ff1683600a020192508282111561416f57600194505b614179565b600194505b60010161404b565b509094509192505050915091565b600082815260096020908152604080832054600c54600654835160e060020a6370a08231028152600160a060020a039384166004820181905294519496958695614233956007958c958c9591949216926370a0823192602480840193919291829003018186803b15801561420257600080fd5b505afa158015614216573d6000803e3d6000fd5b505050506040513d602081101561422c57600080fd5b50516146f0565b9092509050811561429c5760065461425b90600160a060020a0316848463ffffffff6148ae16565b50604080518381529051600160a060020a038516917f5c1b93d1b3a4152322e3e358c8e6eca5e4177363496d5e789e2fce88c4767c97919081900360200190a25b801561433f5761433d83600660009054906101000a9004600160a060020a0316600160a060020a031663420a83e76040518163ffffffff1660e060020a02815260040160206040518083038186803b1580156142f757600080fd5b505afa15801561430b573d6000803e3d6000fd5b505050506040513d602081101561432157600080fd5b5051600654600160a060020a031691908463ffffffff6137cc16565b505b5050505050565b600080614366731d3b2638a7cc9f2cb3d298a3da7a90b67e5506ed614034565b11156143d75760018054600160a060020a031916731d3b2638a7cc9f2cb3d298a3da7a90b67e5506ed17905560408051808201909152600b81527f6574685f6d61696e6e657400000000000000000000000000000000000000000060208201526143cf90614956565b506001610fde565b60006143f673c03a2615d5efaf5f49f60b7bb6583eaec212fdf1614034565b111561445f5760018054600160a060020a03191673c03a2615d5efaf5f49f60b7bb6583eaec212fdf117905560408051808201909152600c81527f6574685f726f707374656e33000000000000000000000000000000000000000060208201526143cf90614956565b600061447e73b7a07bcf2ba2f2703b24c0691b5278999c59ac7e614034565b11156144e75760018054600160a060020a03191673b7a07bcf2ba2f2703b24c0691b5278999c59ac7e17905560408051808201909152600981527f6574685f6b6f76616e000000000000000000000000000000000000000000000060208201526143cf90614956565b600061450673146500cfd35b22e4a392fe0adc06de1a1368ed48614034565b111561456f5760018054600160a060020a03191673146500cfd35b22e4a392fe0adc06de1a1368ed4817905560408051808201909152600b81527f6574685f72696e6b65627900000000000000000000000000000000000000000060208201526143cf90614956565b600061458e73a2998efd205fb9d4b4963afb70778d6354ad3a41614034565b11156145f75760018054600160a060020a03191673a2998efd205fb9d4b4963afb70778d6354ad3a4117905560408051808201909152600a81527f6574685f676f65726c690000000000000000000000000000000000000000000060208201526143cf90614956565b6000614616736f485c8bf6fc43ea212e93bbf8ce046c7f1cb475614034565b1115614648575060018054600160a060020a031916736f485c8bf6fc43ea212e93bbf8ce046c7f1cb475178155610fde565b60006146677320e12a1f859b3feae5fb2a0a32c18f5a65555bbf614034565b1115614699575060018054600160a060020a0319167320e12a1f859b3feae5fb2a0a32c18f5a65555bbf178155610fde565b60006146b87351efaf4c8b3c9afbd5ab9f4bbc82784ab6ef8faa614034565b11156146ea575060018054600160a060020a0319167351efaf4c8b3c9afbd5ab9f4bbc82784ab6ef8faa178155610fde565b50600090565b6000848152600286016020908152604080832054600160a060020a03168084526003890183528184205460018a01909352908320548392908390819060ff1661478d5783600160a060020a03167f1da5c8363728fcfbe892645b4598ccee13c4448931a93dd39766a2648ffb2dbd604051808060200182810382526027815260200180614acd6027913960400191505060405180910390a2614852565b82871015614806576040805160208082526015908201527f556e73756666696369656e742062616c616e6365730000000000000000000000818301529051600160a060020a038616917f1da5c8363728fcfbe892645b4598ccee13c4448931a93dd39766a2648ffb2dbd919081900360600190a2614852565b61481c612710610255858b63ffffffff610d2c16565b90506000614830848363ffffffff610cc716565b905061484e8a61025583670de0b6b3a764000063ffffffff610d2c16565b9250505b600160a060020a03909316600090815260038b016020908152604080832083905560018d018252808320805460ff191690558b835260028d0190915290208054600160a060020a03191690559350909150509550959350505050565b604080517f4bb63ce6000000000000000000000000000000000000000000000000000000008152600160a060020a038481166004830152602482018490529151600092861691634bb63ce691604480830192602092919082900301818787803b15801561491a57600080fd5b505af115801561492e573d6000803e3d6000fd5b505050506040513d602081101561494457600080fd5b505161494c57fe5b5060019392505050565b8051610fd69060029060208401905b828054600181600116156101000203166002900490600052602060002090601f016020900481019282601f106149a657805160ff19168380011785556149d3565b828001600101855582156149d3579182015b828111156149d35782518255916020019190600101906149b8565b506149df9291506149e3565b5090565b610fde91905b808211156149df57600081556001016149e956fe53656c6c65722041646472657373206d757374206e6f7420626520302d616464726573734f6e6c792041646d696e2063616e20706572666f726d2074686973206f7065726174696f6e4163636f756e74206d757374206e6f7420626520746f6b656e20686f6c6465724163636f756e742061646472657373206d757374206e6f7420626520302d616464726573734163636f756e742069732066726f7a656e000000000000000000000000000000536166654d6174683a206d756c7469706c69636174696f6e206f766572666c6f7753656e64657220686173206e6f742072657175657374656420627579204b4d5820546f6b656e7350726f7669646520612076616c69642063757272656e637900000000000000004f6e6c79206f776e65722063616e20706572666f726d2074686973206f7065726174696f6e4f6e6c792061646d696e2063616e20706572666f726d2074686973206f7065726174696f6e20666f722073656c6c6572734f6e6c792073656c6c657273206f722061646d696e732063616e20706572666f726d2074686973206f7065726174696f6e416d6f756e74206f662063757272656e6379202f20546f6b656e73207175616e7469747920676976656e206d7573742062652067726561746572207468616e2030a165627a7a723058202d9cdce64578c21aa52b55371e6591894b7a2cf0e44802ab8fbab7619190fd1a0029",
  "source": "pragma solidity >=0.4.10 <0.6.0;\r\n\r\nimport \"./KMXStableToken.sol\";\r\nimport \"./KMXStableMarketLib.sol\";\r\nimport \"./utils/Oracle.sol\";\r\nimport \"./utils/AddressUtils.sol\";\r\nimport \"./utils/SafeMath.sol\";\r\nimport \"./utils/StringParser.sol\";\r\n\r\nlibrary SafeKMXStableTokenForMarket {\r\n    function safeMarketTransfer(KMXStableToken kmxStableToken, address from, address to, uint256 value) internal returns(bool){\r\n        assert(kmxStableToken.marketTransfer(from, to, value));\r\n        return true;\r\n    }\r\n    function safeBuyKMX(KMXStableToken kmxStableToken, address account, uint256 tknQty) internal returns(bool) {\r\n        assert(kmxStableToken.marketBuyKMX(account, tknQty));\r\n        return true;\r\n    }\r\n}\r\n\r\ncontract KMXStableMarket is Oracle {\r\n    event TokenBought(address indexed account, uint256 tknAmount);\r\n    event TokenRefunded(address indexed account, uint256 tknAmount);\r\n    event KMXTokensBought(address indexed buyer, uint256 amount);\r\n\r\n    address internal _kmxStableTokenAddress;\r\n    KMXStableToken internal _kmxStableToken;\r\n    KMXStableMarketLib.KMXMarketData internal _marketData;\r\n    \r\n    string internal _stableTokenPriceUrl;\r\n    uint256 internal _buyKMXFees;\r\n\r\n    using AddressUtils for address;\r\n    using SafeMath for uint256;\r\n    using StringParser for string;\r\n    using SafeKMXStableTokenForMarket for KMXStableToken;\r\n\r\n    constructor(address _kmxStbTknAdd) public payable {\r\n        require(_kmxStbTknAdd.isContractAddress(), \"Provide contract addresses\");\r\n        address payable _payableKmxStbTknAdd = address(uint160(_kmxStbTknAdd));\r\n        _kmxStableToken = KMXStableToken(_payableKmxStbTknAdd);\r\n        _kmxStableTokenAddress = _kmxStbTknAdd;\r\n        _buyKMXFees = 100;\r\n    }\r\n\r\n    function setStableTokenPriceUrl(string memory newUrl) public onlyAdmin {\r\n        _stableTokenPriceUrl = newUrl;\r\n    }\r\n\r\n    function stableTokenPriceUrl() public view returns(string memory){\r\n        return _stableTokenPriceUrl;\r\n    }\r\n\r\n    function setBuyKMXFees(uint256 _newBuyKMXFees) public onlyAdmin {\r\n        require(_newBuyKMXFees <=10000, \"Fees must be in percentage\");\r\n        _buyKMXFees = _newBuyKMXFees;\r\n    }\r\n\r\n    function buyKMXFees() public view returns(uint256) {\r\n        return _buyKMXFees;\r\n    }\r\n\r\n    function setKMXStableToken(address _address) public onlyOwner {\r\n        require(_address.isContractAddress(), \"Provide contract address\");\r\n        address payable _payableKmxStbTknAdd = address(uint160(_address));\r\n        _kmxStableToken = KMXStableToken(_payableKmxStbTknAdd);\r\n        _kmxStableTokenAddress = _address;\r\n    }\r\n\r\n    function kmxStableToken() public view returns(address) {\r\n        return _kmxStableTokenAddress;\r\n    }\r\n\r\n    modifier onlyAdmin() {\r\n        require(_kmxStableToken.isAdmin(msg.sender), \"Only Admin can perform this operation\");\r\n        _;\r\n    }\r\n\r\n    modifier onlyOwner() {\r\n        require(_kmxStableToken.isOwner(msg.sender), \"Only owner can perform this operation\");\r\n        _;\r\n    }\r\n\r\n    modifier onlySeller(address _seller) {\r\n        require(isSeller(_seller), \"Must be an token seller\");\r\n        _;\r\n    }\r\n\r\n    modifier sellerOrAdmin() {\r\n        require(msg.sender != address(0) && (isSeller(msg.sender) || _kmxStableToken.isAdmin(msg.sender)),\r\n                \"Only sellers or admins can perform this operation\");\r\n        _;\r\n    }\r\n\r\n    modifier validateBuyRefParams(address _address, uint256 _amt) {\r\n        require(_address != address(0), \"Account address must not be 0-address\");\r\n        require(_address != _kmxStableToken.tokenHolder(), \"Account must not be token holder\");\r\n        require(!_kmxStableToken.isAccountFrozen(_address), \"Account is frozen\");\r\n        require(_amt > 0, \"Amount of currency / Tokens quantity given must be greater than 0\");\r\n        _;\r\n    }\r\n\r\n    modifier validCurrency(string memory _currency) {\r\n        require(_kmxStableToken.validCurrency(_currency), \"Provide a valid currency\");\r\n        _;\r\n    }\r\n \r\n    function isSeller(address _seller) public view returns(bool) {\r\n        return KMXStableMarketLib.isSeller(_marketData, _seller);\r\n    }\r\n\r\n    function addSeller(address _seller) public onlyAdmin {\r\n        require(_seller != address(0), \"Seller Address must not be 0-address\");\r\n        require(_seller != _kmxStableToken.tokenHolder(), \"Seller must not be token holder\");\r\n        require(!isSeller(_seller), \"Already a seller\");\r\n        KMXStableMarketLib.addSeller(_marketData, _seller);\r\n    }\r\n\r\n    function removeSeller(address _seller) public onlyAdmin {\r\n        require(isSeller(_seller), \"Is not a seller\");\r\n        KMXStableMarketLib.removeSeller(_marketData, _seller);\r\n    }\r\n\r\n    function buy(address _account, string memory _currency, uint256 _amount) public\r\n    sellerOrAdmin validCurrency(_currency) validateBuyRefParams(_account, _amount) returns(uint256) {\r\n        if (isSeller(_account)){\r\n            require(_kmxStableToken.isAdmin(msg.sender), \"Only admin can perform this operation for sellers\");\r\n        }\r\n        (uint256 tknQty, uint256 rfd) = KMXStableMarketLib.buy(_kmxStableToken.tokenPrice(_currency), _amount, _kmxStableToken.balanceOf(_kmxStableToken.tokenHolder()));\r\n        if (tknQty > 0){\r\n            _kmxStableToken.safeMarketTransfer(_kmxStableToken.tokenHolder(), _account, tknQty);\r\n            emit TokenBought(_account, tknQty);\r\n        }\r\n        return rfd;\r\n    }\r\n\r\n    function buyFromSeller(address _account, string memory _currency, uint256 _amount) public\r\n    onlySeller(msg.sender) validCurrency(_currency) validateBuyRefParams(_account, _amount) returns(uint256) {\r\n        (uint256 tknQty, uint256 rfd) = KMXStableMarketLib.buy(_kmxStableToken.tokenPrice(_currency), _amount, _kmxStableToken.balanceOf(msg.sender));\r\n        if (tknQty > 0){\r\n            _kmxStableToken.safeMarketTransfer(msg.sender, _account, tknQty);\r\n            emit TokenBought(_account, tknQty);\r\n        }\r\n        return rfd;\r\n    }\r\n\r\n    function refundAmount(address _account, string memory _currency, uint256 _tokenQuantity) public view\r\n    sellerOrAdmin validCurrency(_currency) validateBuyRefParams(_account, _tokenQuantity) returns(uint256) {\r\n        return KMXStableMarketLib.refundAmount(_kmxStableToken.tokenPrice(_currency), _tokenQuantity);\r\n    }\r\n\r\n    function refund(address _account, string memory _currency, uint256 _tokenQuantity) public\r\n    sellerOrAdmin validCurrency(_currency) validateBuyRefParams(_account, _tokenQuantity) returns(bool) {\r\n        if (isSeller(_account)){\r\n            require(_kmxStableToken.isAdmin(msg.sender), \"Only admin can perform this operation for sellers\");\r\n        }\r\n        require(_kmxStableToken.balanceOf(_account) >= _tokenQuantity, \"Unsufficient funds\");\r\n        _kmxStableToken.safeMarketTransfer(_account, _kmxStableToken.tokenHolder(), _tokenQuantity);\r\n        emit TokenRefunded(_account, _tokenQuantity);\r\n        return true;\r\n    }\r\n\r\n    function refundToSeller(address _account, string memory _currency, uint256 _tokenQuantity) public\r\n    onlySeller(msg.sender) validCurrency(_currency) validateBuyRefParams(_account, _tokenQuantity) returns(bool) {\r\n        require(_kmxStableToken.balanceOf(_account) >= _tokenQuantity, \"Unsufficient funds\");\r\n        _kmxStableToken.safeMarketTransfer(_account, msg.sender, _tokenQuantity);\r\n        emit TokenRefunded(_account, _tokenQuantity);\r\n        return true;\r\n    }\r\n\r\n    function buyKMXTokens(uint256 _amount) public {\r\n        KMXStableMarketLib.buyKMXTokens(_marketData, _amount, msg.sender, _kmxStableToken.balanceOf(msg.sender), this, _stableTokenPriceUrl);\r\n    }\r\n\r\n    function exchangeKMXTokens(bytes32 _oracleReqId, uint256 stableTokenPrice) internal { // 1 KMX ===? x KEUR\r\n        address _account = _marketData.buyKMXBuyersReqIds[_oracleReqId];\r\n        (uint256 tknQty, uint256 fees) = KMXStableMarketLib.exchangeKMXTokens(_marketData, _oracleReqId, stableTokenPrice, _buyKMXFees, _kmxStableToken.balanceOf(_account));\r\n        if (tknQty > 0) {\r\n            _kmxStableToken.safeBuyKMX(_account, tknQty);\r\n            emit KMXTokensBought(_account, tknQty);\r\n        }\r\n        if (fees > 0) {\r\n            _kmxStableToken.safeMarketTransfer(_account, _kmxStableToken.tokenHolder(), fees);\r\n        }\r\n    }\r\n\r\n    function _oracleCallback(bytes32 myId, string memory result) internal {\r\n        if (_marketData.buyKMXBuyersReqIds[myId]!=address(0)){\r\n            (uint256 stTknPrice, bool error) = result.parseToUint256();\r\n            exchangeKMXTokens(myId, error?0:stTknPrice);\r\n        }\r\n    }\r\n\r\n    function kill() public onlyOwner {\r\n        address payable _payableOwner = address(uint160(msg.sender));\r\n        selfdestruct(_payableOwner);\r\n    }\r\n\r\n    function () external payable {\r\n        if (msg.value > 0){\r\n            address payable _payableTokenHolder = address(uint160(_kmxStableToken.tokenHolder()));\r\n            if (msg.value > 10**16) {\r\n                msg.sender.transfer(msg.value.sub(10**16));\r\n                _payableTokenHolder.transfer(10**16);\r\n            }\r\n            else {\r\n                msg.sender.transfer(msg.value.mul(90).div(100));\r\n                _payableTokenHolder.transfer(msg.value.mul(10).div(100));\r\n            }\r\n        }\r\n    }\r\n} ",
  "sourcePath": "C:/Users/Sim'S/WebstormProjects/kmxv1/contracts/kmx/KMXStableMarket.sol",
  "compiler": {
    "name": "solc",
    "version": "0.5.8+commit.23d335f2.Emscripten.clang"
  },
  "schemaVersion": "3.0.10",
  "updatedAt": "2020-05-05T09:03:05.995Z",
  "devdoc": {
    "methods": {}
  },
  "userdoc": {
    "methods": {}
  }
}