{
  "contractName": "KMXStableToken",
  "abi": [
    {
      "constant": true,
      "inputs": [
        {
          "name": "_currency",
          "type": "string"
        }
      ],
      "name": "tokenPrice",
      "outputs": [
        {
          "name": "",
          "type": "uint256"
        }
      ],
      "payable": false,
      "stateMutability": "view",
      "type": "function"
    },
    {
      "constant": false,
      "inputs": [
        {
          "name": "spender",
          "type": "address"
        },
        {
          "name": "value",
          "type": "uint256"
        }
      ],
      "name": "approve",
      "outputs": [
        {
          "name": "",
          "type": "bool"
        }
      ],
      "payable": false,
      "stateMutability": "nonpayable",
      "type": "function"
    },
    {
      "constant": false,
      "inputs": [
        {
          "name": "admin",
          "type": "address"
        }
      ],
      "name": "removeAdmin",
      "outputs": [],
      "payable": false,
      "stateMutability": "nonpayable",
      "type": "function"
    },
    {
      "constant": true,
      "inputs": [],
      "name": "totalSupply",
      "outputs": [
        {
          "name": "",
          "type": "uint256"
        }
      ],
      "payable": false,
      "stateMutability": "view",
      "type": "function"
    },
    {
      "constant": true,
      "inputs": [
        {
          "name": "account",
          "type": "address"
        }
      ],
      "name": "isAdmin",
      "outputs": [
        {
          "name": "",
          "type": "bool"
        }
      ],
      "payable": false,
      "stateMutability": "view",
      "type": "function"
    },
    {
      "constant": true,
      "inputs": [
        {
          "name": "_address",
          "type": "address"
        }
      ],
      "name": "isOwner",
      "outputs": [
        {
          "name": "",
          "type": "bool"
        }
      ],
      "payable": false,
      "stateMutability": "view",
      "type": "function"
    },
    {
      "constant": false,
      "inputs": [
        {
          "name": "spender",
          "type": "address"
        },
        {
          "name": "value",
          "type": "uint256"
        }
      ],
      "name": "increaseAllowance",
      "outputs": [],
      "payable": false,
      "stateMutability": "nonpayable",
      "type": "function"
    },
    {
      "constant": false,
      "inputs": [
        {
          "name": "_account",
          "type": "address"
        }
      ],
      "name": "frozeAccount",
      "outputs": [],
      "payable": false,
      "stateMutability": "nonpayable",
      "type": "function"
    },
    {
      "constant": false,
      "inputs": [],
      "name": "kill",
      "outputs": [],
      "payable": false,
      "stateMutability": "nonpayable",
      "type": "function"
    },
    {
      "constant": false,
      "inputs": [
        {
          "name": "_value",
          "type": "uint256"
        }
      ],
      "name": "burn",
      "outputs": [
        {
          "name": "",
          "type": "uint256"
        }
      ],
      "payable": false,
      "stateMutability": "nonpayable",
      "type": "function"
    },
    {
      "constant": false,
      "inputs": [],
      "name": "claimOwnership",
      "outputs": [],
      "payable": false,
      "stateMutability": "nonpayable",
      "type": "function"
    },
    {
      "constant": true,
      "inputs": [
        {
          "name": "_currency",
          "type": "string"
        }
      ],
      "name": "validCurrency",
      "outputs": [
        {
          "name": "",
          "type": "bool"
        }
      ],
      "payable": false,
      "stateMutability": "view",
      "type": "function"
    },
    {
      "constant": true,
      "inputs": [],
      "name": "isMintBurnAllowed",
      "outputs": [
        {
          "name": "",
          "type": "bool"
        }
      ],
      "payable": false,
      "stateMutability": "view",
      "type": "function"
    },
    {
      "constant": false,
      "inputs": [
        {
          "name": "_fees",
          "type": "uint256"
        }
      ],
      "name": "changeFees",
      "outputs": [],
      "payable": false,
      "stateMutability": "nonpayable",
      "type": "function"
    },
    {
      "constant": false,
      "inputs": [
        {
          "name": "admin",
          "type": "address"
        }
      ],
      "name": "addAdmin",
      "outputs": [],
      "payable": false,
      "stateMutability": "nonpayable",
      "type": "function"
    },
    {
      "constant": true,
      "inputs": [
        {
          "name": "account",
          "type": "address"
        }
      ],
      "name": "balanceOf",
      "outputs": [
        {
          "name": "",
          "type": "uint256"
        }
      ],
      "payable": false,
      "stateMutability": "view",
      "type": "function"
    },
    {
      "constant": false,
      "inputs": [
        {
          "name": "_account",
          "type": "address"
        }
      ],
      "name": "unfrozeAccount",
      "outputs": [],
      "payable": false,
      "stateMutability": "nonpayable",
      "type": "function"
    },
    {
      "constant": false,
      "inputs": [
        {
          "name": "_price",
          "type": "uint256"
        },
        {
          "name": "_currency",
          "type": "string"
        }
      ],
      "name": "changePrice",
      "outputs": [],
      "payable": false,
      "stateMutability": "nonpayable",
      "type": "function"
    },
    {
      "constant": false,
      "inputs": [],
      "name": "renounceAdmin",
      "outputs": [],
      "payable": false,
      "stateMutability": "nonpayable",
      "type": "function"
    },
    {
      "constant": false,
      "inputs": [
        {
          "name": "_value",
          "type": "uint256"
        }
      ],
      "name": "mint",
      "outputs": [],
      "payable": false,
      "stateMutability": "nonpayable",
      "type": "function"
    },
    {
      "constant": false,
      "inputs": [
        {
          "name": "_newHolder",
          "type": "address"
        }
      ],
      "name": "changeTokenHolder",
      "outputs": [],
      "payable": false,
      "stateMutability": "nonpayable",
      "type": "function"
    },
    {
      "constant": false,
      "inputs": [
        {
          "name": "spender",
          "type": "address"
        },
        {
          "name": "value",
          "type": "uint256"
        }
      ],
      "name": "decreaseAllowance",
      "outputs": [],
      "payable": false,
      "stateMutability": "nonpayable",
      "type": "function"
    },
    {
      "constant": true,
      "inputs": [],
      "name": "transactionFees",
      "outputs": [
        {
          "name": "",
          "type": "uint256"
        }
      ],
      "payable": false,
      "stateMutability": "view",
      "type": "function"
    },
    {
      "constant": true,
      "inputs": [
        {
          "name": "owner",
          "type": "address"
        },
        {
          "name": "spender",
          "type": "address"
        }
      ],
      "name": "allowance",
      "outputs": [
        {
          "name": "",
          "type": "uint256"
        }
      ],
      "payable": false,
      "stateMutability": "view",
      "type": "function"
    },
    {
      "constant": true,
      "inputs": [
        {
          "name": "_account",
          "type": "address"
        }
      ],
      "name": "isAccountFrozen",
      "outputs": [
        {
          "name": "",
          "type": "bool"
        }
      ],
      "payable": false,
      "stateMutability": "view",
      "type": "function"
    },
    {
      "constant": false,
      "inputs": [
        {
          "name": "_newState",
          "type": "bool"
        }
      ],
      "name": "changeMintBurnAllowance",
      "outputs": [],
      "payable": false,
      "stateMutability": "nonpayable",
      "type": "function"
    },
    {
      "constant": false,
      "inputs": [
        {
          "name": "newOwner",
          "type": "address"
        }
      ],
      "name": "transferOwnership",
      "outputs": [],
      "payable": false,
      "stateMutability": "nonpayable",
      "type": "function"
    },
    {
      "inputs": [],
      "payable": false,
      "stateMutability": "nonpayable",
      "type": "constructor"
    },
    {
      "payable": true,
      "stateMutability": "payable",
      "type": "fallback"
    },
    {
      "anonymous": false,
      "inputs": [
        {
          "indexed": true,
          "name": "tokenAddress",
          "type": "address"
        }
      ],
      "name": "KMXTokenSet",
      "type": "event"
    },
    {
      "anonymous": false,
      "inputs": [
        {
          "indexed": false,
          "name": "_newState",
          "type": "bool"
        }
      ],
      "name": "MintBurnAllowanceChanged",
      "type": "event"
    },
    {
      "anonymous": false,
      "inputs": [
        {
          "indexed": false,
          "name": "value",
          "type": "uint256"
        },
        {
          "indexed": false,
          "name": "newTotalSupply",
          "type": "uint256"
        }
      ],
      "name": "Minted",
      "type": "event"
    },
    {
      "anonymous": false,
      "inputs": [
        {
          "indexed": false,
          "name": "value",
          "type": "uint256"
        },
        {
          "indexed": false,
          "name": "newTotalSupply",
          "type": "uint256"
        }
      ],
      "name": "Burned",
      "type": "event"
    },
    {
      "anonymous": false,
      "inputs": [
        {
          "indexed": true,
          "name": "oldTokenHolder",
          "type": "address"
        },
        {
          "indexed": true,
          "name": "newTokenHolder",
          "type": "address"
        }
      ],
      "name": "TokenHolderChanged",
      "type": "event"
    },
    {
      "anonymous": false,
      "inputs": [
        {
          "indexed": false,
          "name": "newPrice",
          "type": "uint256"
        },
        {
          "indexed": false,
          "name": "currency",
          "type": "string"
        }
      ],
      "name": "PriceChanged",
      "type": "event"
    },
    {
      "anonymous": false,
      "inputs": [
        {
          "indexed": false,
          "name": "newFees",
          "type": "uint256"
        }
      ],
      "name": "FeesChanged",
      "type": "event"
    },
    {
      "anonymous": false,
      "inputs": [
        {
          "indexed": true,
          "name": "account",
          "type": "address"
        }
      ],
      "name": "AccountFrozen",
      "type": "event"
    },
    {
      "anonymous": false,
      "inputs": [
        {
          "indexed": true,
          "name": "account",
          "type": "address"
        }
      ],
      "name": "AccountUnfrozen",
      "type": "event"
    },
    {
      "anonymous": false,
      "inputs": [
        {
          "indexed": true,
          "name": "admin",
          "type": "address"
        }
      ],
      "name": "AdminAdded",
      "type": "event"
    },
    {
      "anonymous": false,
      "inputs": [
        {
          "indexed": true,
          "name": "admin",
          "type": "address"
        }
      ],
      "name": "AdminRemoved",
      "type": "event"
    },
    {
      "anonymous": false,
      "inputs": [
        {
          "indexed": true,
          "name": "previousOwner",
          "type": "address"
        },
        {
          "indexed": true,
          "name": "newOwner",
          "type": "address"
        }
      ],
      "name": "OwnershipTransferred",
      "type": "event"
    },
    {
      "anonymous": false,
      "inputs": [
        {
          "indexed": true,
          "name": "owner",
          "type": "address"
        },
        {
          "indexed": true,
          "name": "spender",
          "type": "address"
        },
        {
          "indexed": false,
          "name": "value",
          "type": "uint256"
        }
      ],
      "name": "Approval",
      "type": "event"
    },
    {
      "anonymous": false,
      "inputs": [
        {
          "indexed": true,
          "name": "from",
          "type": "address"
        },
        {
          "indexed": true,
          "name": "to",
          "type": "address"
        },
        {
          "indexed": false,
          "name": "value",
          "type": "uint256"
        }
      ],
      "name": "Transfer",
      "type": "event"
    },
    {
      "constant": false,
      "inputs": [
        {
          "name": "kmxTokenDiscountForFees",
          "type": "uint256"
        }
      ],
      "name": "changeKmxTokenDiscountForFees",
      "outputs": [],
      "payable": false,
      "stateMutability": "nonpayable",
      "type": "function"
    },
    {
      "constant": true,
      "inputs": [],
      "name": "getKmxTokenDiscountForFees",
      "outputs": [
        {
          "name": "",
          "type": "uint256"
        }
      ],
      "payable": false,
      "stateMutability": "view",
      "type": "function"
    },
    {
      "constant": true,
      "inputs": [],
      "name": "tokenHolder",
      "outputs": [
        {
          "name": "",
          "type": "address"
        }
      ],
      "payable": false,
      "stateMutability": "view",
      "type": "function"
    },
    {
      "constant": false,
      "inputs": [
        {
          "name": "_address",
          "type": "address"
        }
      ],
      "name": "setKmxToken",
      "outputs": [
        {
          "name": "",
          "type": "bool"
        }
      ],
      "payable": false,
      "stateMutability": "nonpayable",
      "type": "function"
    },
    {
      "constant": true,
      "inputs": [],
      "name": "getKmxToken",
      "outputs": [
        {
          "name": "",
          "type": "address"
        }
      ],
      "payable": false,
      "stateMutability": "view",
      "type": "function"
    },
    {
      "constant": false,
      "inputs": [
        {
          "name": "_address",
          "type": "address"
        }
      ],
      "name": "setMarketContractAddress",
      "outputs": [],
      "payable": false,
      "stateMutability": "nonpayable",
      "type": "function"
    },
    {
      "constant": true,
      "inputs": [],
      "name": "marketContractAddress",
      "outputs": [
        {
          "name": "",
          "type": "address"
        }
      ],
      "payable": false,
      "stateMutability": "view",
      "type": "function"
    },
    {
      "constant": false,
      "inputs": [
        {
          "name": "to",
          "type": "address"
        },
        {
          "name": "value",
          "type": "uint256"
        }
      ],
      "name": "kmxStableTokenTransfer",
      "outputs": [
        {
          "name": "",
          "type": "bool"
        }
      ],
      "payable": false,
      "stateMutability": "nonpayable",
      "type": "function"
    },
    {
      "constant": false,
      "inputs": [
        {
          "name": "from",
          "type": "address"
        },
        {
          "name": "to",
          "type": "address"
        },
        {
          "name": "value",
          "type": "uint256"
        }
      ],
      "name": "kmxStableTokenTransferFrom",
      "outputs": [
        {
          "name": "",
          "type": "bool"
        }
      ],
      "payable": false,
      "stateMutability": "nonpayable",
      "type": "function"
    },
    {
      "constant": false,
      "inputs": [
        {
          "name": "to",
          "type": "address"
        },
        {
          "name": "value",
          "type": "uint256"
        },
        {
          "name": "stableTokenPrice",
          "type": "uint256"
        }
      ],
      "name": "kmxStableTokenTransferKMXFees",
      "outputs": [
        {
          "name": "",
          "type": "bool"
        }
      ],
      "payable": false,
      "stateMutability": "nonpayable",
      "type": "function"
    },
    {
      "constant": false,
      "inputs": [
        {
          "name": "from",
          "type": "address"
        },
        {
          "name": "to",
          "type": "address"
        },
        {
          "name": "value",
          "type": "uint256"
        },
        {
          "name": "stableTokenPrice",
          "type": "uint256"
        }
      ],
      "name": "kmxStableTokenTransferFromKMXFees",
      "outputs": [
        {
          "name": "",
          "type": "bool"
        }
      ],
      "payable": false,
      "stateMutability": "nonpayable",
      "type": "function"
    },
    {
      "constant": false,
      "inputs": [
        {
          "name": "to",
          "type": "address"
        },
        {
          "name": "value",
          "type": "uint256"
        }
      ],
      "name": "transfer",
      "outputs": [
        {
          "name": "",
          "type": "bool"
        }
      ],
      "payable": false,
      "stateMutability": "nonpayable",
      "type": "function"
    },
    {
      "constant": false,
      "inputs": [
        {
          "name": "to",
          "type": "address"
        },
        {
          "name": "from",
          "type": "address"
        },
        {
          "name": "value",
          "type": "uint256"
        }
      ],
      "name": "transferFrom",
      "outputs": [
        {
          "name": "",
          "type": "bool"
        }
      ],
      "payable": false,
      "stateMutability": "nonpayable",
      "type": "function"
    },
    {
      "constant": false,
      "inputs": [
        {
          "name": "from",
          "type": "address"
        },
        {
          "name": "to",
          "type": "address"
        },
        {
          "name": "value",
          "type": "uint256"
        }
      ],
      "name": "marketTransfer",
      "outputs": [
        {
          "name": "",
          "type": "bool"
        }
      ],
      "payable": false,
      "stateMutability": "nonpayable",
      "type": "function"
    },
    {
      "constant": false,
      "inputs": [
        {
          "name": "to",
          "type": "address"
        },
        {
          "name": "value",
          "type": "uint256"
        }
      ],
      "name": "marketBuyKMX",
      "outputs": [
        {
          "name": "",
          "type": "bool"
        }
      ],
      "payable": false,
      "stateMutability": "nonpayable",
      "type": "function"
    }
  ],
  "bytecode": "0x60806040523480156200001157600080fd5b50336200006a576040517f08c379a0000000000000000000000000000000000000000000000000000000008152600401808060200182810382526023815260200180620041bf6023913960400191505060405180910390fd5b60008054600160a060020a0319163317908190556200009b90600160a060020a031664010000000062000149810204565b620000b2600180806401000000006200019b810204565b606460075560005460098054600160a060020a03909216600160a060020a03199092169190911760a060020a60ff021916905562000112670fae910354310000670de0b6b3a764000066060a24181e40006401000000006200019b810204565b6032600d556a084595161401484a0000006004819055600954600160a060020a031660009081526005602052604090205562000375565b6200016460028264010000000062003ab86200024b82021704565b604051600160a060020a038216907f44d6d25963f097ad14f29f06854a01f575648a1ef82f30e562ccd3889717e33990600090a250565b604080517f455552000000000000000000000000000000000000000000000000000000000081526008600380830182905283519283900360239081018420979097557f5553440000000000000000000000000000000000000000000000000000000000835282810182905283519283900387018320959095557f58414600000000000000000000000000000000000000000000000000000000008252938101939093525191829003909201902055565b620002608282640100000000620002dd810204565b15620002b8576040517f08c379a0000000000000000000000000000000000000000000000000000000008152600401808060200182810382526023815260200180620041e26023913960400191505060405180910390fd5b600160a060020a0316600090815260209190915260409020805460ff19166001179055565b6000600160a060020a0382166200035557604080517f08c379a000000000000000000000000000000000000000000000000000000000815260206004820181905260248201527f4163636f756e74206d757374206e6f74206265207a65726f2d61646472657373604482015290519081900360640190fd5b50600160a060020a03166000908152602091909152604090205460ff1690565b613e3a80620003856000396000f3fe60806040526004361061026e576000357c0100000000000000000000000000000000000000000000000000000000900480637048027511610156578063a9059cbb116100d3578063c73358de11610097578063c73358de14610bbc578063dd62ed3e14610bef578063e44f917714610c2a578063e816d97f14610c6d578063ea14d67b14610ca0578063f2fde38b14610ccc5761026e565b8063a9059cbb14610ac8578063ad59d89214610b01578063b37be8e414610b3a578063bcf0dd8e14610b4f578063c110f14514610b925761026e565b80638bad0c0a1161011a5780638bad0c0a14610a08578063923aa87d14610a1d578063a0712d6814610a32578063a18a209214610a5c578063a457c2d714610a8f5761026e565b8063704802751461087657806370a08231146108a95780637b68d0ac146108dc5780638868686c1461090f5780638af13846146109c95761026e565b8063414f8594116101ef5780634e71e0c8116101b35780634e71e0c8146107115780635303852a146107265780635633131c1461076f578063697d60b0146107845780636b8d9cc5146108375780636cda375b1461084c5761026e565b8063414f85941461065157806341c0e1b514610684578063420a83e71461069957806342966c68146106ae5780634bb63ce6146106d85761026e565b806324d7806c1161023657806324d7806c1461054e5780632f54bf6e146105815780632fa9a2f8146105b45780633087cbe3146105e757806339509351146106185761026e565b806302888d06146103b1578063095ea7b3146104765780631785f53c146104c357806318160ddd146104f657806323b872dd1461050b575b34156103af57600954600160a060020a0316662386f26fc1000034111561031157336108fc6102aa34662386f26fc1000063ffffffff610cff16565b6040518115909202916000818181858888f193505050501580156102d2573d6000803e3d6000fd5b50604051600160a060020a03821690600090662386f26fc100009082818181858883f1935050505015801561030b573d6000803e3d6000fd5b506103ad565b336108fc610337606461032b34605a63ffffffff610d6416565b9063ffffffff610dc716565b6040518115909202916000818181858888f1935050505015801561035f573d6000803e3d6000fd5b50600160a060020a0381166108fc610383606461032b34600a63ffffffff610d6416565b6040518115909202916000818181858888f193505050501580156103ab573d6000803e3d6000fd5b505b505b005b3480156103bd57600080fd5b50610464600480360360208110156103d457600080fd5b8101906020810181356401000000008111156103ef57600080fd5b82018360208201111561040157600080fd5b8035906020019184600183028401116401000000008311171561042357600080fd5b91908080601f016020809104026020016040519081016040528093929190818152602001838380828437600092019190915250929550610e34945050505050565b60408051918252519081900360200190f35b34801561048257600080fd5b506104af6004803603604081101561049957600080fd5b50600160a060020a038135169060200135610f40565b604080519115158252519081900360200190f35b3480156104cf57600080fd5b506103af600480360360208110156104e657600080fd5b5035600160a060020a0316611009565b34801561050257600080fd5b50610464611068565b34801561051757600080fd5b506104af6004803603606081101561052e57600080fd5b50600160a060020a0381358116916020810135909116906040013561106e565b34801561055a57600080fd5b506104af6004803603602081101561057157600080fd5b5035600160a060020a0316611083565b34801561058d57600080fd5b506104af600480360360208110156105a457600080fd5b5035600160a060020a0316611096565b3480156105c057600080fd5b506104af600480360360208110156105d757600080fd5b5035600160a060020a03166110aa565b3480156105f357600080fd5b506105fc6111ce565b60408051600160a060020a039092168252519081900360200190f35b34801561062457600080fd5b506103af6004803603604081101561063b57600080fd5b50600160a060020a0381351690602001356111dd565b34801561065d57600080fd5b506103af6004803603602081101561067457600080fd5b5035600160a060020a031661129f565b34801561069057600080fd5b506103af61138c565b3480156106a557600080fd5b506105fc6113eb565b3480156106ba57600080fd5b50610464600480360360208110156106d157600080fd5b503561144a565b3480156106e457600080fd5b506104af600480360360408110156106fb57600080fd5b50600160a060020a0381351690602001356115c7565b34801561071d57600080fd5b506103af61163d565b34801561073257600080fd5b506104af6004803603608081101561074957600080fd5b50600160a060020a038135811691602081013590911690604081013590606001356116fa565b34801561077b57600080fd5b506105fc611b44565b34801561079057600080fd5b506104af600480360360208110156107a757600080fd5b8101906020810181356401000000008111156107c257600080fd5b8201836020820111156107d457600080fd5b803590602001918460018302840111640100000000831117156107f657600080fd5b91908080601f016020809104026020016040519081016040528093929190818152602001838380828437600092019190915250929550611b53945050505050565b34801561084357600080fd5b506104af611bbd565b34801561085857600080fd5b506103af6004803603602081101561086f57600080fd5b5035611bcd565b34801561088257600080fd5b506103af6004803603602081101561089957600080fd5b5035600160a060020a0316611cb5565b3480156108b557600080fd5b50610464600480360360208110156108cc57600080fd5b5035600160a060020a0316611d11565b3480156108e857600080fd5b506103af600480360360208110156108ff57600080fd5b5035600160a060020a0316611d1c565b34801561091b57600080fd5b506103af6004803603604081101561093257600080fd5b8135919081019060408101602082013564010000000081111561095457600080fd5b82018360208201111561096657600080fd5b8035906020019184600183028401116401000000008311171561098857600080fd5b91908080601f016020809104026020016040519081016040528093929190818152602001838380828437600092019190915250929550611e17945050505050565b3480156109d557600080fd5b506104af600480360360608110156109ec57600080fd5b50600160a060020a03813516906020810135906040013561215d565b348015610a1457600080fd5b506103af612462565b348015610a2957600080fd5b50610464612523565b348015610a3e57600080fd5b506103af60048036036020811015610a5557600080fd5b5035612529565b348015610a6857600080fd5b506103af60048036036020811015610a7f57600080fd5b5035600160a060020a031661266c565b348015610a9b57600080fd5b506103af60048036036040811015610ab257600080fd5b50600160a060020a0381351690602001356127f2565b348015610ad457600080fd5b506104af60048036036040811015610aeb57600080fd5b50600160a060020a0381351690602001356128b0565b348015610b0d57600080fd5b506104af60048036036040811015610b2457600080fd5b50600160a060020a0381351690602001356128b8565b348015610b4657600080fd5b50610464612b84565b348015610b5b57600080fd5b506104af60048036036060811015610b7257600080fd5b50600160a060020a03813581169160208101359091169060400135612b8a565b348015610b9e57600080fd5b506103af60048036036020811015610bb557600080fd5b5035612be4565b348015610bc857600080fd5b506103af60048036036020811015610bdf57600080fd5b5035600160a060020a0316612c7c565b348015610bfb57600080fd5b5061046460048036036040811015610c1257600080fd5b50600160a060020a0381358116916020013516612d5a565b348015610c3657600080fd5b506104af60048036036060811015610c4d57600080fd5b50600160a060020a03813581169160208101359091169060400135612d66565b348015610c7957600080fd5b506104af60048036036020811015610c9057600080fd5b5035600160a060020a0316613177565b348015610cac57600080fd5b506103af60048036036020811015610cc357600080fd5b50351515613182565b348015610cd857600080fd5b506103af60048036036020811015610cef57600080fd5b5035600160a060020a03166132fc565b600082821115610d59576040805160e560020a62461bcd02815260206004820152601e60248201527f536166654d6174683a207375627472616374696f6e206f766572666c6f770000604482015290519081900360640190fd5b508082035b92915050565b600082610d7357506000610d5e565b82820282848281610d8057fe5b0414610dc05760405160e560020a62461bcd028152600401808060200182810382526021815260200180613cb56021913960400191505060405180910390fd5b9392505050565b6000808211610e20576040805160e560020a62461bcd02815260206004820152601a60248201527f536166654d6174683a206469766973696f6e206279207a65726f000000000000604482015290519081900360640190fd5b6000828481610e2b57fe5b04949350505050565b6000816008816040518082805190602001908083835b60208310610e695780518252601f199092019160209182019101610e4a565b51815160209384036101000a600019018019909216911617905292019485525060405193849003019092205415159150610ed990505760405160e560020a62461bcd02815260040180806020018281038252602f815260200180613c33602f913960400191505060405180910390fd5b6008836040518082805190602001908083835b60208310610f0b5780518252601f199092019160209182019101610eec565b51815160209384036101000a600019018019909216911617905292019485525060405193849003019092205495945050505050565b600033610f97576040805160e560020a62461bcd02815260206004820152601c60248201527f53656e646572206d757374206e6f7420626520302d6164647265737300000000604482015290519081900360640190fd5b600160a060020a038316610ff5576040805160e560020a62461bcd02815260206004820152601d60248201527f5370656e646572206d757374206e6f7420626520302d61646472657373000000604482015290519081900360640190fd5b6110003384846133c3565b50600192915050565b61101a60023363ffffffff61341316565b61105c576040805160e560020a62461bcd0281526020600482015260106024820152600080516020613dcc833981519152604482015290519081900360640190fd5b61106581613493565b50565b60045490565b600061107b838584612d66565b949350505050565b6000610d5e60028363ffffffff61341316565b600054600160a060020a0391821691161490565b6000816110b6816134db565b61110a576040805160e560020a62461bcd02815260206004820152601a60248201527f4d757374206265206120636f6e74726163742061646472657373000000000000604482015290519081900360640190fd5b600054600160a060020a0316331461115a576040805160e560020a62461bcd02815260206004820152601a6024820152600080516020613bf3833981519152604482015290519081900360640190fd5b600b805473ffffffffffffffffffffffffffffffffffffffff19908116600160a060020a03868116918217909355600c80549092161790819055604051859291909116907fda46792bd7f899765e3e585d3e08f18062f24add103a990ad3944619dfd1209a90600090a25060019392505050565b600a54600160a060020a031690565b33611232576040805160e560020a62461bcd02815260206004820152601c60248201527f53656e646572206d757374206e6f7420626520302d6164647265737300000000604482015290519081900360640190fd5b600160a060020a038216611290576040805160e560020a62461bcd02815260206004820152601d60248201527f5370656e646572206d757374206e6f7420626520302d61646472657373000000604482015290519081900360640190fd5b61129b3383836134e7565b5050565b6112b060023363ffffffff61341316565b6112f2576040805160e560020a62461bcd0281526020600482015260106024820152600080516020613dcc833981519152604482015290519081900360640190fd5b806112fc8161353e565b1561133f576040805160e560020a62461bcd02815260206004820152601a6024820152600080516020613bd3833981519152604482015290519081900360640190fd5b600160a060020a038216600081815260036020526040808220805460ff19166001179055517f4f2a367e694e71282f29ab5eaa04c4c0be45ac5bf2ca74fb67068b98bdc2887d9190a25050565b600054600160a060020a031633146113dc576040805160e560020a62461bcd02815260206004820152601a6024820152600080516020613bf3833981519152604482015290519081900360640190fd5b600054600160a060020a031680ff5b600a54600090600160a060020a0316331461143a5760405160e560020a62461bcd02815260040180806020018281038252602f815260200180613c62602f913960400191505060405180910390fd5b50600954600160a060020a031690565b600061145d60023363ffffffff61341316565b61149f576040805160e560020a62461bcd0281526020600482015260106024820152600080516020613dcc833981519152604482015290519081900360640190fd5b60095460a060020a900460ff166114ea5760405160e560020a62461bcd028152600401808060200182810382526024815260200180613c916024913960400191505060405180910390fd5b6009548290819061150390600160a060020a0316611d11565b10156115215760095461151e90600160a060020a0316611d11565b90505b60095461153790600160a060020a03168261355c565b60045461154a908263ffffffff610cff16565b6004557fcec1bae6e024d929f2929f3478ce70f55f9c636c8ef7b5073a61d7c3a432451b83611577611068565b6040805192835260208301919091528051918290030190a1600954604080518381529051600092600160a060020a031691600080516020613d17833981519152919081900360200190a392915050565b600a54600090600160a060020a031633146116165760405160e560020a62461bcd02815260040180806020018281038252602f815260200180613c62602f913960400191505060405180910390fd5b600b5461163390600160a060020a0316848463ffffffff6135a516565b5060019392505050565b600154600160a060020a0316331461169f576040805160e560020a62461bcd02815260206004820152601c60248201527f53656e646572206d7573742062652070656e64696e67206f776e657200000000604482015290519081900360640190fd5b6001546000805473ffffffffffffffffffffffffffffffffffffffff1916600160a060020a03928316908117808355604051919316917f8be0079c531659141344cd1fd0a4f28419497f9722a3daafe3b4186f6b6457e091a3565b6000336117068161353e565b15611749576040805160e560020a62461bcd02815260206004820152601a6024820152600080516020613bd3833981519152604482015290519081900360640190fd5b856117538161353e565b15611796576040805160e560020a62461bcd02815260206004820152601a6024820152600080516020613bd3833981519152604482015290519081900360640190fd5b856117a08161353e565b156117e3576040805160e560020a62461bcd02815260206004820152601a6024820152600080516020613bd3833981519152604482015290519081900360640190fd5b6009543390600160a060020a0316811415611836576040805160e560020a62461bcd0281526020600482018190526024820152600080516020613cd6833981519152604482015290519081900360640190fd5b600160a060020a03881661187e5760405160e560020a62461bcd028152600401808060200182810382526026815260200180613da66026913960400191505060405180910390fd5b600160a060020a0389166118c65760405160e560020a62461bcd028152600401808060200182810382526024815260200180613b8a6024913960400191505060405180910390fd5b336119055760405160e560020a62461bcd028152600401808060200182810382526025815260200180613bae6025913960400191505060405180910390fd5b6000871161194b576040805160e560020a62461bcd02815260206004820152601d6024820152600080516020613d86833981519152604482015290519081900360640190fd5b60075415611a8a57600061197061271061032b6007548b610d6490919063ffffffff16565b905061198e8761032b83670de0b6b3a764000063ffffffff610d6416565b90506119bb606461032b6119ae600d546064610cff90919063ffffffff16565b849063ffffffff610d6416565b9050876119c78b611d11565b11611a0a576040805160e560020a62461bcd0281526020600482015260196024820152600080516020613c13833981519152604482015290519081900360640190fd5b87611a158b33612d5a565b11611a58576040805160e560020a62461bcd0281526020600482015260196024820152600080516020613b6a833981519152604482015290519081900360640190fd5b611a648a8a8a33613643565b600b54611a8290600160a060020a03168b833363ffffffff6136c116565b955050611b38565b86611a948a611d11565b1015611ad8576040805160e560020a62461bcd0281526020600482015260196024820152600080516020613c13833981519152604482015290519081900360640190fd5b86611ae38a33612d5a565b1015611b27576040805160e560020a62461bcd0281526020600482015260196024820152600080516020613b6a833981519152604482015290519081900360640190fd5b611b3389898933613643565b600194505b50505050949350505050565b600c54600160a060020a031690565b60006008826040518082805190602001908083835b60208310611b875780518252601f199092019160209182019101611b68565b51815160209384036101000a60001901801990921691161790529201948552506040519384900301909220541515949350505050565b60095460a060020a900460ff1690565b611bde60023363ffffffff61341316565b611c20576040805160e560020a62461bcd0281526020600482015260106024820152600080516020613dcc833981519152604482015290519081900360640190fd5b612710811115611c7a576040805160e560020a62461bcd02815260206004820152601d60248201527f46656573206d75737420626520696e2072616e676520302d3130303030000000604482015290519081900360640190fd5b60078190556040805182815290517f3dda580d2b9d92da338ef46ec718e7b1dd0a2c505e3df4aa8d40360192a0f8229181900360200190a150565b611cc660023363ffffffff61341316565b611d08576040805160e560020a62461bcd0281526020600482015260106024820152600080516020613dcc833981519152604482015290519081900360640190fd5b61106581613772565b6000610d5e826137ba565b611d2d60023363ffffffff61341316565b611d6f576040805160e560020a62461bcd0281526020600482015260106024820152600080516020613dcc833981519152604482015290519081900360640190fd5b80611d798161353e565b611dcd576040805160e560020a62461bcd02815260206004820152601660248201527f4163636f756e74206d7573742062652066726f7a656e00000000000000000000604482015290519081900360640190fd5b600160a060020a038216600081815260036020526040808220805460ff19169055517ff915cd9fe234de6e8d3afe7bf2388d35b2b6d48e8c629a24602019bde79c213a9190a25050565b806008816040518082805190602001908083835b60208310611e4a5780518252601f199092019160209182019101611e2b565b51815160209384036101000a600019018019909216911617905292019485525060405193849003019092205415159150611eba90505760405160e560020a62461bcd02815260040180806020018281038252602f815260200180613c33602f913960400191505060405180910390fd5b611ecb60023363ffffffff61341316565b611f0d576040805160e560020a62461bcd0281526020600482015260106024820152600080516020613dcc833981519152604482015290519081900360640190fd5b600083118260405160200180807f546f6b656e20707269636520696e200000000000000000000000000000000000815250600f0182805190602001908083835b60208310611f6c5780518252601f199092019160209182019101611f4d565b6001836020036101000a038019825116818451168082178552505050505050905001807f206d757374206e6f742062652030000000000000000000000000000000000000815250600e01915050604051602081830303815290604052906120545760405160e560020a62461bcd0281526004018080602001828103825283818151815260200191508051906020019080838360005b83811015612019578181015183820152602001612001565b50505050905090810190601f1680156120465780820380516001836020036101000a031916815260200191505b509250505060405180910390fd5b50826008836040518082805190602001908083835b602083106120885780518252601f199092019160209182019101612069565b51815160209384036101000a60001901801990921691161790529201948552506040805194859003820185209590955587845283810185815287519585019590955286517fbc1a6d11df191cc217bb06c2da838849148b8a9a56b8138fa96cd89e90a0921595899589955093509160608401919085019080838360005b8381101561211d578181015183820152602001612105565b50505050905090810190601f16801561214a5780820380516001836020036101000a031916815260200191505b50935050505060405180910390a1505050565b6000336121698161353e565b156121ac576040805160e560020a62461bcd02815260206004820152601a6024820152600080516020613bd3833981519152604482015290519081900360640190fd5b846121b68161353e565b156121f9576040805160e560020a62461bcd02815260206004820152601a6024820152600080516020613bd3833981519152604482015290519081900360640190fd5b6009543390600160a060020a031681141561224c576040805160e560020a62461bcd0281526020600482018190526024820152600080516020613cd6833981519152604482015290519081900360640190fd5b600160a060020a0387166122945760405160e560020a62461bcd028152600401808060200182810382526026815260200180613da66026913960400191505060405180910390fd5b336122d35760405160e560020a62461bcd028152600401808060200182810382526026815260200180613da66026913960400191505060405180910390fd5b60008611612319576040805160e560020a62461bcd02815260206004820152601d6024820152600080516020613d86833981519152604482015290519081900360640190fd5b600754156123fb57600061233e61271061032b6007548a610d6490919063ffffffff16565b905061235c8661032b83670de0b6b3a764000063ffffffff610d6416565b905061237c606461032b6119ae600d546064610cff90919063ffffffff16565b90508661238833611d11565b116123cb576040805160e560020a62461bcd0281526020600482015260196024820152600080516020613b4a833981519152604482015290519081900360640190fd5b6123d63389896137d5565b600b546123f390600160a060020a0316338363ffffffff61384716565b945050612458565b8561240533611d11565b11612448576040805160e560020a62461bcd0281526020600482015260196024820152600080516020613b4a833981519152604482015290519081900360640190fd5b6124533388886137d5565b600193505b5050509392505050565b61247360023363ffffffff61341316565b6124b5576040805160e560020a62461bcd0281526020600482015260106024820152600080516020613dcc833981519152604482015290519081900360640190fd5b600054600160a060020a0316331415612518576040805160e560020a62461bcd02815260206004820152601f60248201527f4f776e65722063616e206e6f742072656e6f756e636520746f2061646d696e00604482015290519081900360640190fd5b61252133613493565b565b600d5490565b61253a60023363ffffffff61341316565b61257c576040805160e560020a62461bcd0281526020600482015260106024820152600080516020613dcc833981519152604482015290519081900360640190fd5b60095460a060020a900460ff166125c75760405160e560020a62461bcd028152600401808060200182810382526024815260200180613c916024913960400191505060405180910390fd5b6009546125dd90600160a060020a0316826138b3565b6004546125f0908263ffffffff6138dc16565b6004557f8a9dcf4e150b1153011b29fec302d5be0c13e84fa8f56ab78587f778a32a90dd8161261d611068565b6040805192835260208301919091528051918290030190a1600954604080518381529051600160a060020a0390921691600091600080516020613d17833981519152919081900360200190a350565b600054600160a060020a031633146126bc576040805160e560020a62461bcd02815260206004820152601a6024820152600080516020613bf3833981519152604482015290519081900360640190fd5b600160a060020a03811661271a576040805160e560020a62461bcd02815260206004820181905260248201527f4e657720486f6c646572206d757374206e6f7420626520302d61646472657373604482015290519081900360640190fd5b600954600160a060020a038281169116141561276a5760405160e560020a62461bcd028152600401808060200182810382526021815260200180613cf66021913960400191505060405180910390fd5b60095461278990600160a060020a03168261278482611d11565b6137d5565b600954604051600160a060020a038084169216907f70418639b9c14c316c6ae17fa73febff0a5d1e066ce89d40a4b9b5381625adfe90600090a36009805473ffffffffffffffffffffffffffffffffffffffff1916600160a060020a0392909216919091179055565b33612847576040805160e560020a62461bcd02815260206004820152601c60248201527f53656e646572206d757374206e6f7420626520302d6164647265737300000000604482015290519081900360640190fd5b600160a060020a0382166128a5576040805160e560020a62461bcd02815260206004820152601d60248201527f5370656e646572206d757374206e6f7420626520302d61646472657373000000604482015290519081900360640190fd5b61129b338383613939565b6000610dc083835b6000336128c48161353e565b15612907576040805160e560020a62461bcd02815260206004820152601a6024820152600080516020613bd3833981519152604482015290519081900360640190fd5b836129118161353e565b15612954576040805160e560020a62461bcd02815260206004820152601a6024820152600080516020613bd3833981519152604482015290519081900360640190fd5b6009543390600160a060020a03168114156129a7576040805160e560020a62461bcd0281526020600482018190526024820152600080516020613cd6833981519152604482015290519081900360640190fd5b600160a060020a0386166129ef5760405160e560020a62461bcd028152600401808060200182810382526026815260200180613da66026913960400191505060405180910390fd5b33612a2e5760405160e560020a62461bcd028152600401808060200182810382526026815260200180613da66026913960400191505060405180910390fd5b60008511612a74576040805160e560020a62461bcd02815260206004820152601d6024820152600080516020613d86833981519152604482015290519081900360640190fd5b60075415612b20576000612a9961271061032b60075489610d6490919063ffffffff16565b9050612aab868263ffffffff6138dc16565b612ab433611d11565b11612af7576040805160e560020a62461bcd0281526020600482015260196024820152600080516020613b4a833981519152604482015290519081900360640190fd5b612b023388886137d5565b600954612b1a903390600160a060020a0316836137d5565b50612b78565b84612b2a33611d11565b11612b6d576040805160e560020a62461bcd0281526020600482015260196024820152600080516020613b4a833981519152604482015290519081900360640190fd5b612b783387876137d5565b50600195945050505050565b60075490565b600a54600090600160a060020a03163314612bd95760405160e560020a62461bcd02815260040180806020018281038252602f815260200180613c62602f913960400191505060405180910390fd5b6116338484846137d5565b600054600160a060020a03163314612c34576040805160e560020a62461bcd02815260206004820152601a6024820152600080516020613bf3833981519152604482015290519081900360640190fd5b6064811115612c775760405160e560020a62461bcd02815260040180806020018281038252604f815260200180613d37604f913960600191505060405180910390fd5b600d55565b80612c86816134db565b612cda576040805160e560020a62461bcd02815260206004820152601a60248201527f4d757374206265206120636f6e74726163742061646472657373000000000000604482015290519081900360640190fd5b600054600160a060020a03163314612d2a576040805160e560020a62461bcd02815260206004820152601a6024820152600080516020613bf3833981519152604482015290519081900360640190fd5b50600a805473ffffffffffffffffffffffffffffffffffffffff1916600160a060020a0392909216919091179055565b6000610dc08383613944565b600033612d728161353e565b15612db5576040805160e560020a62461bcd02815260206004820152601a6024820152600080516020613bd3833981519152604482015290519081900360640190fd5b84612dbf8161353e565b15612e02576040805160e560020a62461bcd02815260206004820152601a6024820152600080516020613bd3833981519152604482015290519081900360640190fd5b84612e0c8161353e565b15612e4f576040805160e560020a62461bcd02815260206004820152601a6024820152600080516020613bd3833981519152604482015290519081900360640190fd5b6009543390600160a060020a0316811415612ea2576040805160e560020a62461bcd0281526020600482018190526024820152600080516020613cd6833981519152604482015290519081900360640190fd5b600160a060020a038716612eea5760405160e560020a62461bcd028152600401808060200182810382526026815260200180613da66026913960400191505060405180910390fd5b600160a060020a038816612f325760405160e560020a62461bcd028152600401808060200182810382526024815260200180613b8a6024913960400191505060405180910390fd5b33612f715760405160e560020a62461bcd028152600401808060200182810382526025815260200180613bae6025913960400191505060405180910390fd5b60008611612fb7576040805160e560020a62461bcd02815260206004820152601d6024820152600080516020613d86833981519152604482015290519081900360640190fd5b600754156130c2576000612fdc61271061032b6007548a610d6490919063ffffffff16565b9050612fee878263ffffffff6138dc16565b612ff78a611d11565b1161303a576040805160e560020a62461bcd0281526020600482015260196024820152600080516020613c13833981519152604482015290519081900360640190fd5b61304a878263ffffffff6138dc16565b6130548a33612d5a565b11613097576040805160e560020a62461bcd0281526020600482015260196024820152600080516020613b6a833981519152604482015290519081900360640190fd5b6130a389898933613643565b6009546130bc908a90600160a060020a03168333613643565b50613169565b856130cc89611d11565b1161310f576040805160e560020a62461bcd0281526020600482015260196024820152600080516020613c13833981519152604482015290519081900360640190fd5b8561311a8933612d5a565b1161315d576040805160e560020a62461bcd0281526020600482015260196024820152600080516020613b6a833981519152604482015290519081900360640190fd5b61316988888833613643565b506001979650505050505050565b6000610d5e8261353e565b600054600160a060020a031633146131d2576040805160e560020a62461bcd02815260206004820152601a6024820152600080516020613bf3833981519152604482015290519081900360640190fd5b600954604080517f4e6577204d696e7420416c6c6f77616e6365206d757374206265200000000000602082015283157f01000000000000000000000000000000000000000000000000000000000000008102603b8301528251808303601c018152603c9092019092529160a060020a900460ff161515146132975760405160e560020a62461bcd028152602060048201818152835160248401528351909283926044909101919085019080838360008315612019578181015183820152602001612001565b506009805482151560a060020a810274ff0000000000000000000000000000000000000000199092169190911790915560408051918252517ffd1efbc27e4f96d2ced2f88c1e9bb283db7b0bb5a896728fa99314defd42be519181900360200190a150565b600054600160a060020a0316331461334c576040805160e560020a62461bcd02815260206004820152601a6024820152600080516020613bf3833981519152604482015290519081900360640190fd5b600160a060020a0381166133945760405160e560020a62461bcd028152600401808060200182810382526023815260200180613b276023913960400191505060405180910390fd5b6001805473ffffffffffffffffffffffffffffffffffffffff1916600160a060020a0392909216919091179055565b6133ce83838361396f565b604080518281529051600160a060020a0384169133917f8c5be1e5ebec7d5bd14f71427d1e84f3dd0314c0f7b2291e5b200ac8c7c3b9259181900360200190a3505050565b6000600160a060020a038216613473576040805160e560020a62461bcd02815260206004820181905260248201527f4163636f756e74206d757374206e6f74206265207a65726f2d61646472657373604482015290519081900360640190fd5b50600160a060020a03166000908152602091909152604090205460ff1690565b6134a460028263ffffffff61399b16565b604051600160a060020a038216907fa3b62bc36326052d97ea62d63c3d60308ed4c3ea8ac079dd8499f1e9c4f80c0f90600090a250565b3b63ffffffff16151590565b6134f2838383613a1b565b600160a060020a038216337f8c5be1e5ebec7d5bd14f71427d1e84f3dd0314c0f7b2291e5b200ac8c7c3b9256135288686613944565b60408051918252519081900360200190a3505050565b600160a060020a031660009081526003602052604090205460ff1690565b600160a060020a038216600090815260056020526040902054613585908263ffffffff610cff16565b600160a060020a0390921660009081526005602052604090209190915550565b604080517f7dbdaaca000000000000000000000000000000000000000000000000000000008152600160a060020a038481166004830152602482018490529151600092861691637dbdaaca91604480830192602092919082900301818787803b15801561361157600080fd5b505af1158015613625573d6000803e3d6000fd5b505050506040513d602081101561363b57600080fd5b505161163357fe5b600160a060020a038316301461365d5761365d83836138b3565b613668848284613a82565b600160a060020a038416301461368257613682848361355c565b82600160a060020a031684600160a060020a0316600080516020613d17833981519152846040518082815260200191505060405180910390a350505050565b604080517f45275ee9000000000000000000000000000000000000000000000000000000008152600160a060020a03858116600483015260248201859052838116604483015291516000928716916345275ee991606480830192602092919082900301818787803b15801561373557600080fd5b505af1158015613749573d6000803e3d6000fd5b505050506040513d602081101561375f57600080fd5b505161376757fe5b506001949350505050565b61378360028263ffffffff613ab816565b604051600160a060020a038216907f44d6d25963f097ad14f29f06854a01f575648a1ef82f30e562ccd3889717e33990600090a250565b600160a060020a031660009081526005602052604090205490565b600160a060020a03821630146137ef576137ef82826138b3565b600160a060020a038316301461380957613809838261355c565b81600160a060020a031683600160a060020a0316600080516020613d17833981519152836040518082815260200191505060405180910390a3505050565b604080517f62d20852000000000000000000000000000000000000000000000000000000008152600160a060020a0384811660048301526024820184905291516000928616916362d2085291604480830192602092919082900301818787803b15801561361157600080fd5b600160a060020a038216600090815260056020526040902054613585908263ffffffff6138dc16565b600082820183811015610dc0576040805160e560020a62461bcd02815260206004820152601b60248201527f536166654d6174683a206164646974696f6e206f766572666c6f770000000000604482015290519081900360640190fd5b6134f2838383613a82565b600160a060020a03918216600090815260066020908152604080832093909416825291909152205490565b600160a060020a0392831660009081526006602090815260408083209490951682529290925291902055565b6139a58282613413565b6139f9576040805160e560020a62461bcd02815260206004820152601f60248201527f4163636f756e7420686173206e6f7420686176652061646d696e20726f6c6500604482015290519081900360640190fd5b600160a060020a0316600090815260209190915260409020805460ff19169055565b600160a060020a03808416600090815260066020908152604080832093861683529290522054613a51908263ffffffff6138dc16565b600160a060020a03938416600090815260066020908152604080832095909616825293909352929091209190915550565b600160a060020a03808416600090815260066020908152604080832093861683529290522054613a51908263ffffffff610cff16565b613ac28282613413565b15613b015760405160e560020a62461bcd028152600401808060200182810382526023815260200180613dec6023913960400191505060405180910390fd5b600160a060020a0316600090815260209190915260409020805460ff1916600117905556fe4f776e65722061646472657373206d757374206e6f7420626520302d6164647265737353656e64657220556e73696666696369656e742066756e6473000000000000005370656e64657220756e73756666696369656e7420666565730000000000000053656e6465722061646472657373206d757374206e6f7420626520302d616464726573735370656e6465722061646472657373206d757374206e6f7420626520302d616464726573734163636f756e74206d757374206e6f742062652066726f7a656e00000000000054686973206973206e6f7420636f6e7472616374206f776e657200000000000053656e64657220756e73756666696369656e742066756e64730000000000000043757272656e6379206973206e6f742070726573656e7420696e20737570706f727465642063757272656e636965734f6e6c79204d61726b657420636f6e74726163742063616e20706572666f726d2074686973206f7065726174696f6e4d696e7420616e64206275726e206f7065726174696f6e73206e6f7420616c6c6f776564536166654d6174683a206d756c7469706c69636174696f6e206f766572666c6f7741646472657373206d757374206e6f7420626520746f6b656e20686f6c6465724e657720686f6c646572206d757374206e6f74206265206f6c6420686f6c646572ddf252ad1be2c89b69c2b068fc378daa952ba7f163c4a11628f55a4df523b3ef4665657320446973636f756e74207573696e67204b4d5820546f6b656e20666f72204b4d5820537461626c6520546f6b656e73206d757374206265206265747765656e203020616e64203130302025416d6f756e74206d7573742062652067726561746572207468616e203000000052656365697665722061646472657373206d757374206e6f7420626520302d616464726573734d75737420626520616e2061646d696e000000000000000000000000000000004163636f756e742068617320616c726561647920686176652061646d696e20726f6c65a165627a7a72305820964cbce05d5c670c23292603d7b9a913d9baa5ffa06c45720a6a9b12b37ee8e100294f776e65722061646472657373206d757374206e6f7420626520302d616464726573734163636f756e742068617320616c726561647920686176652061646d696e20726f6c65",
  "source": "pragma solidity >=0.4.10 <0.6.0;\r\n\r\nimport \"./MintBurnToken.sol\";\r\nimport \"./KMXToken.sol\";\r\nimport \"./utils/AddressUtils.sol\";\r\n\r\nlibrary SafeKMXToken {\r\n    function SafeFeesForStableTokenTransfer(KMXToken token, address from, uint256 fees) internal returns(bool) {\r\n        assert(token.feesForStableTokenTransfer(from, fees));\r\n        return true;\r\n    }\r\n    function SafeFeesForStableTokenTransferFrom(KMXToken token, address from, uint256 fees, address spender) internal returns(bool) {\r\n        assert(token.feesForStableTokenTransferFrom(from, fees, spender));\r\n        return true;\r\n    }\r\n    function SafeBuyKMXTokens(KMXToken token, address account, uint256 amount) internal returns(bool) {\r\n        assert(token.buyKMXTokens(account, amount));\r\n        return true;\r\n    }\r\n    function SafeBalanceOf(KMXToken token, address account) internal view returns(uint256) {\r\n        bool success = false;\r\n        uint256 balance = 0;\r\n        (success, balance) = token.balanceOfFromStableToken(account);\r\n        assert(success);\r\n        return balance;\r\n    }\r\n}\r\n\r\ncontract KMXStableToken is MintBurnToken {\r\n    address internal _kmxStableMarketAddress;\r\n    KMXToken internal _kmxToken;\r\n    address internal _kmxTokenAdd;\r\n    uint256 internal _kmxTokenDiscountForFees;\r\n\r\n    event KMXTokenSet(address indexed tokenAddress);\r\n\r\n    using SafeKMXToken for KMXToken;\r\n\r\n    constructor() public {\r\n        _initTokenPrices(1 * 113 * 10 ** 16, 1 * DECIMALS, 1 * 17 * 10 ** 14);\r\n        _kmxTokenDiscountForFees = 50;\r\n        _totalSupply = 10000000 * DECIMALS;\r\n        balances[_tokenHolder] = _totalSupply;\r\n    }\r\n\r\n    function changeKmxTokenDiscountForFees(uint256 kmxTokenDiscountForFees) public onlyOwner {\r\n        require(kmxTokenDiscountForFees<=100, \"Fees Discount using KMX Token for KMX Stable Tokens must be between 0 and 100 %\");\r\n        _kmxTokenDiscountForFees = kmxTokenDiscountForFees;\r\n    }\r\n\r\n    function getKmxTokenDiscountForFees() public view returns(uint256){\r\n        return _kmxTokenDiscountForFees;\r\n    }\r\n\r\n    modifier isContractAddress(address _address) {\r\n        require(AddressUtils.isContractAddress(_address), \"Must be a contract address\");\r\n        _;\r\n    }\r\n\r\n    modifier onlyMarketContract() {\r\n        require(msg.sender == _kmxStableMarketAddress, \"Only Market contract can perform this operation\");\r\n        _;\r\n    }\r\n\r\n    function tokenHolder() public view onlyMarketContract returns(address) {\r\n        return _tokenHolder;\r\n    }\r\n\r\n    function setKmxToken(address _address) public isContractAddress(_address) onlyOwner returns(bool) {\r\n        address payable _payableAddress = address(uint160(_address));\r\n        _kmxToken = KMXToken(_payableAddress);\r\n        _kmxTokenAdd = _address;\r\n        emit KMXTokenSet(_kmxTokenAdd);\r\n        return true;\r\n    }\r\n\r\n    function getKmxToken() public view returns(address) {\r\n        return _kmxTokenAdd;\r\n    }\r\n\r\n    function setMarketContractAddress(address _address) public isContractAddress(_address) onlyOwner  {\r\n        _kmxStableMarketAddress = _address;\r\n    }\r\n\r\n    function marketContractAddress() public view returns(address) {\r\n        return _kmxStableMarketAddress;\r\n    }\r\n\r\n    function kmxStableTokenTransfer(address to, uint256 value) public \r\n    accountNotFrozen(msg.sender) accountNotFrozen(to) notTokenHolder(msg.sender) returns(bool) {\r\n        require(to != address(0), \"Receiver address must not be 0-address\");\r\n        require(msg.sender != address(0), \"Receiver address must not be 0-address\");\r\n        require(value > 0, \"Amount must be greater than 0\");\r\n        if (_transactionFees > 0) {\r\n            uint256 fees = value.mul(_transactionFees).div(10000);\r\n            require(balanceOf(msg.sender) > value.add(fees), \"Sender Unsifficient funds\");\r\n            _transferAllArgs(msg.sender, to, value);\r\n            _transferAllArgs(msg.sender, _tokenHolder, fees);\r\n        }\r\n        else {\r\n            require(balanceOf(msg.sender) > value, \"Sender Unsifficient funds\");\r\n            _transferAllArgs(msg.sender, to, value);\r\n        }\r\n        return true;\r\n    }\r\n\r\n    function kmxStableTokenTransferFrom(address from, address to, uint256 value) public \r\n    accountNotFrozen(msg.sender) accountNotFrozen(from) accountNotFrozen(to) notTokenHolder(msg.sender) returns(bool) {\r\n        require(to != address(0), \"Receiver address must not be 0-address\");\r\n        require(from != address(0), \"Sender address must not be 0-address\");\r\n        require(msg.sender != address(0), \"Spender address must not be 0-address\");\r\n        require(value > 0, \"Amount must be greater than 0\");\r\n        if (_transactionFees > 0) {\r\n            uint256 fees = value.mul(_transactionFees).div(10000);\r\n            require(balanceOf(from) > value.add(fees), \"Sender unsufficient funds\");\r\n            require(allowance(from, msg.sender) > value.add(fees), \"Spender unsufficient fees\");\r\n            _transferFromAllArgs(from, to, value, msg.sender);\r\n            _transferFromAllArgs(from, _tokenHolder, fees, msg.sender);\r\n        }\r\n        else{\r\n            require(balanceOf(from) > value, \"Sender unsufficient funds\");\r\n            require(allowance(from, msg.sender) > value, \"Spender unsufficient fees\");\r\n            _transferFromAllArgs(from, to, value, msg.sender);\r\n        } \r\n        return true;\r\n    }\r\n\r\n    function kmxStableTokenTransferKMXFees(address to, uint256 value, uint256 stableTokenPrice) public \r\n    accountNotFrozen(msg.sender) accountNotFrozen(to) notTokenHolder(msg.sender) returns(bool) {\r\n        require(to != address(0), \"Receiver address must not be 0-address\");\r\n        require(msg.sender != address(0), \"Receiver address must not be 0-address\");\r\n        require(value > 0, \"Amount must be greater than 0\");\r\n        if (_transactionFees > 0) {\r\n            uint256 fees = value.mul(_transactionFees).div(10000);\r\n            fees = fees.mul(DECIMALS).div(stableTokenPrice);\r\n            fees = fees.mul(uint256(100).sub(_kmxTokenDiscountForFees)).div(100);\r\n            require(balanceOf(msg.sender) > value, \"Sender Unsifficient funds\");\r\n            _transferAllArgs(msg.sender, to, value);\r\n            return _kmxToken.SafeFeesForStableTokenTransfer(msg.sender, fees);\r\n        }\r\n        else {\r\n            require(balanceOf(msg.sender) > value, \"Sender Unsifficient funds\");\r\n            _transferAllArgs(msg.sender, to, value);\r\n        }\r\n        return true;\r\n    }\r\n\r\n    function kmxStableTokenTransferFromKMXFees(address from, address to, uint256 value, uint256 stableTokenPrice) public\r\n    accountNotFrozen(msg.sender) accountNotFrozen(from) accountNotFrozen(to) notTokenHolder(msg.sender) returns(bool) {\r\n        require(to != address(0), \"Receiver address must not be 0-address\");\r\n        require(from != address(0), \"Sender address must not be 0-address\");\r\n        require(msg.sender != address(0), \"Spender address must not be 0-address\");\r\n        require(value > 0, \"Amount must be greater than 0\");\r\n        if (_transactionFees > 0) {\r\n            uint256 fees = value.mul(_transactionFees).div(10000);\r\n            fees = fees.mul(DECIMALS).div(stableTokenPrice);\r\n            fees = fees.mul(uint256(100).sub(_kmxTokenDiscountForFees)).div(100);\r\n            require(balanceOf(from) > value, \"Sender unsufficient funds\");\r\n            require(allowance(from, msg.sender) > value, \"Spender unsufficient fees\");\r\n            _transferFromAllArgs(from, to, value, msg.sender);\r\n            return _kmxToken.SafeFeesForStableTokenTransferFrom(from, fees, msg.sender);\r\n        }\r\n        else{\r\n            require(balanceOf(from) >= value, \"Sender unsufficient funds\");\r\n            require(allowance(from, msg.sender) >= value, \"Spender unsufficient fees\");\r\n            _transferFromAllArgs(from, to, value, msg.sender);\r\n        } \r\n        return true;\r\n    }\r\n\r\n    function transfer(address to, uint256 value) public returns(bool) {\r\n        return kmxStableTokenTransfer(to, value);\r\n    }\r\n\r\n    function transferFrom(address to, address from, uint256 value) public returns(bool) {\r\n        return kmxStableTokenTransferFrom(from, to, value);\r\n    }\r\n\r\n    function marketTransfer(address from, address to, uint256 value) public onlyMarketContract returns(bool) {\r\n        _transferAllArgs(from, to, value);\r\n        return true;\r\n    }\r\n\r\n    function marketBuyKMX(address to, uint256 value) public onlyMarketContract returns(bool) {\r\n        _kmxToken.SafeBuyKMXTokens(to, value);\r\n        return true;\r\n    }\r\n\r\n    function () external payable {\r\n        if (msg.value > 0){\r\n            address payable _payableTokenHolder = address(uint160(_tokenHolder));\r\n            if (msg.value > 10**16) {\r\n                msg.sender.transfer(msg.value.sub(10**16));\r\n                _payableTokenHolder.transfer(10**16);\r\n            }\r\n            else {\r\n                msg.sender.transfer(msg.value.mul(90).div(100));\r\n                _payableTokenHolder.transfer(msg.value.mul(10).div(100));\r\n            }\r\n        }\r\n    }\r\n\r\n    /*function buyKMXTokens(uint256 amount) public {\r\n        require(balanceOf(msg.sender) >= amount, \"Unsufficient balances\");\r\n        bytes32 reqId = oraclize_query(\"URL\", string(abi.encodePacked(\"json(\", _stableTokenPriceUrl, \").price\")));\r\n        buyKMXBuyersReqIds[reqId] = msg.sender;\r\n        buyKMXBuyers[msg.sender] = amount;\r\n        requestBuyKMXTokens[msg.sender] = true;\r\n    }\r\n\r\n    function exchangeKMXTokens(bytes32 _oracleReqId, uint256 stableTokenPrice) public { // 1 KMX ===? x KEUR\r\n        address _account = buyKMXBuyersReqIds[_oracleReqId];\r\n        uint256 amount = buyKMXBuyers[_account];\r\n        uint256 fees = amount.mul(_buyKMXFees).div(100);\r\n        if (!requestBuyKMXTokens[msg.sender]){\r\n            emit FeedbackBuyKMX(_account, \"Sender has not requested buy KMX Tokens\");\r\n            delete buyKMXBuyersReqIds[_oracleReqId];\r\n            delete buyKMXBuyers[_account];\r\n            requestBuyKMXTokens[msg.sender] = false;\r\n        }\r\n        else if (balanceOf(msg.sender) < amount){\r\n            emit FeedbackBuyKMX(_account, \"Unsufficient balances\");\r\n            delete buyKMXBuyersReqIds[_oracleReqId];\r\n            delete buyKMXBuyers[_account];\r\n            requestBuyKMXTokens[msg.sender] = false;\r\n        }\r\n        else{\r\n            uint256 amountToUse = amount.sub(fees);\r\n            uint256 kmxTokensQuantity = amountToUse.mul(DECIMALS).div(stableTokenPrice);\r\n            _kmxToken.SafeBuyKMXTokens(msg.sender, kmxTokensQuantity);\r\n            _transferAllArgs(_account, _tokenHolder, fees);\r\n            emit KMXTokensBought(msg.sender, kmxTokensQuantity);\r\n        }\r\n    }\r\n\r\n    function _oracleCallback(bytes32 myId, string memory result) internal {\r\n        //super._oracleCallback(myId, result);\r\n        if (buyKMXBuyersReqIds[myId]!=address(0)){\r\n            (uint256 stTknPrice, bool error) = result.parseToUint256();\r\n            exchangeKMXTokens(myId, error?0:stTknPrice);\r\n        }\r\n    }*/\r\n\r\n}",
  "sourcePath": "C:\\Users\\Sim'S\\WebstormProjects\\kmxv1\\contracts\\kmx\\KMXStableToken.sol",
  "compiler": {
    "name": "solc",
    "version": "0.5.8+commit.23d335f2.Emscripten.clang"
  },
  "schemaVersion": "3.0.10",
  "updatedAt": "2019-07-02T19:57:58.654Z",
  "devdoc": {
    "methods": {}
  },
  "userdoc": {
    "methods": {}
  }
}