{
  "contractName": "KMXStableMarket",
  "abi": [
    {
      "constant": false,
      "inputs": [
        {
          "name": "myId",
          "type": "bytes32"
        },
        {
          "name": "result",
          "type": "string"
        }
      ],
      "name": "__callback",
      "outputs": [],
      "payable": false,
      "stateMutability": "nonpayable",
      "type": "function"
    },
    {
      "constant": false,
      "inputs": [
        {
          "name": "_myid",
          "type": "bytes32"
        },
        {
          "name": "_result",
          "type": "string"
        },
        {
          "name": "_proof",
          "type": "bytes"
        }
      ],
      "name": "__callback",
      "outputs": [],
      "payable": false,
      "stateMutability": "nonpayable",
      "type": "function"
    },
    {
      "constant": false,
      "inputs": [
        {
          "name": "_type",
          "type": "string"
        },
        {
          "name": "_url",
          "type": "string"
        }
      ],
      "name": "query",
      "outputs": [
        {
          "name": "",
          "type": "bytes32"
        }
      ],
      "payable": false,
      "stateMutability": "nonpayable",
      "type": "function"
    },
    {
      "inputs": [
        {
          "name": "_kmxStbTknAdd",
          "type": "address"
        }
      ],
      "payable": true,
      "stateMutability": "payable",
      "type": "constructor"
    },
    {
      "payable": true,
      "stateMutability": "payable",
      "type": "fallback"
    },
    {
      "anonymous": false,
      "inputs": [
        {
          "indexed": true,
          "name": "account",
          "type": "address"
        },
        {
          "indexed": false,
          "name": "tknAmount",
          "type": "uint256"
        }
      ],
      "name": "TokenBought",
      "type": "event"
    },
    {
      "anonymous": false,
      "inputs": [
        {
          "indexed": true,
          "name": "account",
          "type": "address"
        },
        {
          "indexed": false,
          "name": "tknAmount",
          "type": "uint256"
        }
      ],
      "name": "TokenRefunded",
      "type": "event"
    },
    {
      "anonymous": false,
      "inputs": [
        {
          "indexed": true,
          "name": "buyer",
          "type": "address"
        },
        {
          "indexed": false,
          "name": "amount",
          "type": "uint256"
        }
      ],
      "name": "KMXTokensBought",
      "type": "event"
    },
    {
      "constant": false,
      "inputs": [
        {
          "name": "newUrl",
          "type": "string"
        }
      ],
      "name": "setStableTokenPriceUrl",
      "outputs": [],
      "payable": false,
      "stateMutability": "nonpayable",
      "type": "function"
    },
    {
      "constant": true,
      "inputs": [],
      "name": "stableTokenPriceUrl",
      "outputs": [
        {
          "name": "",
          "type": "string"
        }
      ],
      "payable": false,
      "stateMutability": "view",
      "type": "function"
    },
    {
      "constant": false,
      "inputs": [
        {
          "name": "_newBuyKMXFees",
          "type": "uint256"
        }
      ],
      "name": "setBuyKMXFees",
      "outputs": [],
      "payable": false,
      "stateMutability": "nonpayable",
      "type": "function"
    },
    {
      "constant": true,
      "inputs": [],
      "name": "buyKMXFees",
      "outputs": [
        {
          "name": "",
          "type": "uint256"
        }
      ],
      "payable": false,
      "stateMutability": "view",
      "type": "function"
    },
    {
      "constant": false,
      "inputs": [
        {
          "name": "_address",
          "type": "address"
        }
      ],
      "name": "setKMXStableToken",
      "outputs": [],
      "payable": false,
      "stateMutability": "nonpayable",
      "type": "function"
    },
    {
      "constant": true,
      "inputs": [],
      "name": "kmxStableToken",
      "outputs": [
        {
          "name": "",
          "type": "address"
        }
      ],
      "payable": false,
      "stateMutability": "view",
      "type": "function"
    },
    {
      "constant": true,
      "inputs": [
        {
          "name": "_seller",
          "type": "address"
        }
      ],
      "name": "isSeller",
      "outputs": [
        {
          "name": "",
          "type": "bool"
        }
      ],
      "payable": false,
      "stateMutability": "view",
      "type": "function"
    },
    {
      "constant": false,
      "inputs": [
        {
          "name": "_seller",
          "type": "address"
        }
      ],
      "name": "addSeller",
      "outputs": [],
      "payable": false,
      "stateMutability": "nonpayable",
      "type": "function"
    },
    {
      "constant": false,
      "inputs": [
        {
          "name": "_seller",
          "type": "address"
        }
      ],
      "name": "removeSeller",
      "outputs": [],
      "payable": false,
      "stateMutability": "nonpayable",
      "type": "function"
    },
    {
      "constant": false,
      "inputs": [
        {
          "name": "_account",
          "type": "address"
        },
        {
          "name": "_currency",
          "type": "string"
        },
        {
          "name": "_amount",
          "type": "uint256"
        }
      ],
      "name": "buy",
      "outputs": [
        {
          "name": "",
          "type": "uint256"
        }
      ],
      "payable": false,
      "stateMutability": "nonpayable",
      "type": "function"
    },
    {
      "constant": false,
      "inputs": [
        {
          "name": "_account",
          "type": "address"
        },
        {
          "name": "_currency",
          "type": "string"
        },
        {
          "name": "_amount",
          "type": "uint256"
        }
      ],
      "name": "buyFromSeller",
      "outputs": [
        {
          "name": "",
          "type": "uint256"
        }
      ],
      "payable": false,
      "stateMutability": "nonpayable",
      "type": "function"
    },
    {
      "constant": true,
      "inputs": [
        {
          "name": "_account",
          "type": "address"
        },
        {
          "name": "_currency",
          "type": "string"
        },
        {
          "name": "_tokenQuantity",
          "type": "uint256"
        }
      ],
      "name": "refundAmount",
      "outputs": [
        {
          "name": "",
          "type": "uint256"
        }
      ],
      "payable": false,
      "stateMutability": "view",
      "type": "function"
    },
    {
      "constant": false,
      "inputs": [
        {
          "name": "_account",
          "type": "address"
        },
        {
          "name": "_currency",
          "type": "string"
        },
        {
          "name": "_tokenQuantity",
          "type": "uint256"
        }
      ],
      "name": "refund",
      "outputs": [
        {
          "name": "",
          "type": "bool"
        }
      ],
      "payable": false,
      "stateMutability": "nonpayable",
      "type": "function"
    },
    {
      "constant": false,
      "inputs": [
        {
          "name": "_account",
          "type": "address"
        },
        {
          "name": "_currency",
          "type": "string"
        },
        {
          "name": "_tokenQuantity",
          "type": "uint256"
        }
      ],
      "name": "refundToSeller",
      "outputs": [
        {
          "name": "",
          "type": "bool"
        }
      ],
      "payable": false,
      "stateMutability": "nonpayable",
      "type": "function"
    },
    {
      "constant": false,
      "inputs": [
        {
          "name": "_amount",
          "type": "uint256"
        }
      ],
      "name": "buyKMXTokens",
      "outputs": [],
      "payable": false,
      "stateMutability": "nonpayable",
      "type": "function"
    }
  ],
  "bytecode": "0x608060405260405160208062004c1b833981018060405260208110156200002557600080fd5b505162000049600160a060020a03821664010000000062003492620000ea82021704565b620000b557604080517f08c379a000000000000000000000000000000000000000000000000000000000815260206004820152601a60248201527f50726f7669646520636f6e747261637420616464726573736573000000000000604482015290519081900360640190fd5b60068054600160a060020a03909216600160a060020a03199283168117909155600580549092161790556064600c55620000f6565b3b63ffffffff16151590565b614b1580620001066000396000f3fe60806040526004361061010d5760003560e060020a900480637cb9cf5411610099578063ca57cbf411610068578063ca57cbf414610b21578063cc0908e714610b52578063cca524ce14610c17578063d93fabfa14610c41578063ee95feaf14610c745761010d565b80637cb9cf541461082a57806381ade3071461085d5780639bed2f4914610997578063b1c46d2214610a5c5761010d565b806338bbfa50116100e057806338bbfa501461049757806348c692d7146105d85780635210e696146106b157806353baf1f11461073b57806378d8fb21146107655761010d565b806313527a42146102d057806327dc297e146103035780632f874ce6146103bd57806334cc5c0f146103e4575b34156102ce57600654604080517f420a83e70000000000000000000000000000000000000000000000000000000081529051600092600160a060020a03169163420a83e7916004808301926020929190829003018186803b15801561017157600080fd5b505afa158015610185573d6000803e3d6000fd5b505050506040513d602081101561019b57600080fd5b50519050662386f26fc1000034111561023057336108fc6101c934662386f26fc1000063ffffffff610ca716565b6040518115909202916000818181858888f193505050501580156101f1573d6000803e3d6000fd5b50604051600160a060020a03821690600090662386f26fc100009082818181858883f1935050505015801561022a573d6000803e3d6000fd5b506102cc565b336108fc610256606461024a34605a63ffffffff610d0c16565b9063ffffffff610d6f16565b6040518115909202916000818181858888f1935050505015801561027e573d6000803e3d6000fd5b50600160a060020a0381166108fc6102a2606461024a34600a63ffffffff610d0c16565b6040518115909202916000818181858888f193505050501580156102ca573d6000803e3d6000fd5b505b505b005b3480156102dc57600080fd5b506102ce600480360360208110156102f357600080fd5b5035600160a060020a0316610ddc565b34801561030f57600080fd5b506102ce6004803603604081101561032657600080fd5b8135919081019060408101602082013564010000000081111561034857600080fd5b82018360208201111561035a57600080fd5b8035906020019184600183028401116401000000008311171561037c57600080fd5b91908080601f016020809104026020016040519081016040528093929190818152602001838380828437600092019190915250929550610f3c945050505050565b3480156103c957600080fd5b506103d2610fba565b60408051918252519081900360200190f35b3480156103f057600080fd5b506102ce6004803603602081101561040757600080fd5b81019060208101813564010000000081111561042257600080fd5b82018360208201111561043457600080fd5b8035906020019184600183028401116401000000008311171561045657600080fd5b91908080601f016020809104026020016040519081016040528093929190818152602001838380828437600092019190915250929550610fc1945050505050565b3480156104a357600080fd5b506102ce600480360360608110156104ba57600080fd5b813591908101906040810160208201356401000000008111156104dc57600080fd5b8201836020820111156104ee57600080fd5b8035906020019184600183028401116401000000008311171561051057600080fd5b91908080601f016020809104026020016040519081016040528093929190818152602001838380828437600092019190915250929594936020810193503591505064010000000081111561056357600080fd5b82018360208201111561057557600080fd5b8035906020019184600183028401116401000000008311171561059757600080fd5b91908080601f01602080910402602001604051908101604052809392919081815260200183838082843760009201919091525092955061108c945050505050565b3480156105e457600080fd5b5061069d600480360360608110156105fb57600080fd5b600160a060020a03823516919081019060408101602082013564010000000081111561062657600080fd5b82018360208201111561063857600080fd5b8035906020019184600183028401116401000000008311171561065a57600080fd5b91908080601f01602080910402602001604051908101604052809392919081815260200183838082843760009201919091525092955050913592506110bd915050565b604080519115158252519081900360200190f35b3480156106bd57600080fd5b506106c6611746565b6040805160208082528351818301528351919283929083019185019080838360005b838110156107005781810151838201526020016106e8565b50505050905090810190601f16801561072d5780820380516001836020036101000a031916815260200191505b509250505060405180910390f35b34801561074757600080fd5b506102ce6004803603602081101561075e57600080fd5b50356117dc565b34801561077157600080fd5b506103d26004803603606081101561078857600080fd5b600160a060020a0382351691908101906040810160208201356401000000008111156107b357600080fd5b8201836020820111156107c557600080fd5b803590602001918460018302840111640100000000831117156107e757600080fd5b91908080601f01602080910402602001604051908101604052809392919081815260200183838082843760009201919091525092955050913592506118fb915050565b34801561083657600080fd5b506102ce6004803603602081101561084d57600080fd5b5035600160a060020a0316611e01565b34801561086957600080fd5b506103d26004803603604081101561088057600080fd5b81019060208101813564010000000081111561089b57600080fd5b8201836020820111156108ad57600080fd5b803590602001918460018302840111640100000000831117156108cf57600080fd5b91908080601f016020809104026020016040519081016040528093929190818152602001838380828437600092019190915250929594936020810193503591505064010000000081111561092257600080fd5b82018360208201111561093457600080fd5b8035906020019184600183028401116401000000008311171561095657600080fd5b91908080601f016020809104026020016040519081016040528093929190818152602001838380828437600092019190915250929550611f21945050505050565b3480156109a357600080fd5b506103d2600480360360608110156109ba57600080fd5b600160a060020a0382351691908101906040810160208201356401000000008111156109e557600080fd5b8201836020820111156109f757600080fd5b80359060200191846001830284011164010000000083111715610a1957600080fd5b91908080601f0160208091040260200160405190810160405280939291908181526020018383808284376000920191909152509295505091359250611f2d915050565b348015610a6857600080fd5b506103d260048036036060811015610a7f57600080fd5b600160a060020a038235169190810190604081016020820135640100000000811115610aaa57600080fd5b820183602082011115610abc57600080fd5b80359060200191846001830284011164010000000083111715610ade57600080fd5b91908080601f01602080910402602001604051908101604052809392919081815260200183838082843760009201919091525092955050913592506124ad915050565b348015610b2d57600080fd5b50610b36612c43565b60408051600160a060020a039092168252519081900360200190f35b348015610b5e57600080fd5b5061069d60048036036060811015610b7557600080fd5b600160a060020a038235169190810190604081016020820135640100000000811115610ba057600080fd5b820183602082011115610bb257600080fd5b80359060200191846001830284011164010000000083111715610bd457600080fd5b91908080601f0160208091040260200160405190810160405280939291908181526020018383808284376000920191909152509295505091359250612c52915050565b348015610c2357600080fd5b506102ce60048036036020811015610c3a57600080fd5b5035613125565b348015610c4d57600080fd5b506102ce60048036036020811015610c6457600080fd5b5035600160a060020a031661323c565b348015610c8057600080fd5b5061069d60048036036020811015610c9757600080fd5b5035600160a060020a0316613485565b600082821115610d01576040805160e560020a62461bcd02815260206004820152601e60248201527f536166654d6174683a207375627472616374696f6e206f766572666c6f770000604482015290519081900360640190fd5b508082035b92915050565b600082610d1b57506000610d06565b82820282848281610d2857fe5b0414610d685760405160e560020a62461bcd0281526004018080602001828103825260218152602001806149ba6021913960400191505060405180910390fd5b9392505050565b6000808211610dc8576040805160e560020a62461bcd02815260206004820152601a60248201527f536166654d6174683a206469766973696f6e206279207a65726f000000000000604482015290519081900360640190fd5b6000828481610dd357fe5b04949350505050565b600654604080517f2f54bf6e0000000000000000000000000000000000000000000000000000000081523360048201529051600160a060020a0390921691632f54bf6e91602480820192602092909190829003018186803b158015610e4057600080fd5b505afa158015610e54573d6000803e3d6000fd5b505050506040513d6020811015610e6a57600080fd5b5051610eaa5760405160e560020a62461bcd028152600401808060200182810382526025815260200180614a226025913960400191505060405180910390fd5b610ebc81600160a060020a0316613492565b610f10576040805160e560020a62461bcd02815260206004820152601860248201527f50726f7669646520636f6e747261637420616464726573730000000000000000604482015290519081900360640190fd5b60068054600160a060020a03909216600160a060020a0319928316811790915560058054909216179055565b610f4461349e565b600160a060020a031633600160a060020a031614610fac576040805160e560020a62461bcd02815260206004820152601d60248201527f4d7573742062652063616c6c6564206f6e6c79206279204f7261636c65000000604482015290519081900360640190fd5b610fb68282613690565b5050565b600c545b90565b6006546040805160e260020a630935e01b0281523360048201529051600160a060020a03909216916324d7806c91602480820192602092909190829003018186803b15801561100f57600080fd5b505afa158015611023573d6000803e3d6000fd5b505050506040513d602081101561103957600080fd5b50516110795760405160e560020a62461bcd0281526004018080602001828103825260258152602001806149306025913960400191505060405180910390fd5b8051610fb690600b906020840190614873565b5050600080805260036020527f3617319a054d772f909f7c479a2cebe5066e836a939412e32403c99029b92eff5550565b6000331580159061115357506110d233613485565b8061115357506006546040805160e260020a630935e01b0281523360048201529051600160a060020a03909216916324d7806c91602480820192602092909190829003018186803b15801561112657600080fd5b505afa15801561113a573d6000803e3d6000fd5b505050506040513d602081101561115057600080fd5b50515b6111915760405160e560020a62461bcd028152600401808060200182810382526031815260200180614a786031913960400191505060405180910390fd5b60065460405160e460020a630697d60b0281526020600482018181528651602484015286518794600160a060020a03169363697d60b09386939283926044019185019080838360005b838110156111f25781810151838201526020016111da565b50505050905090810190601f16801561121f5780820380516001836020036101000a031916815260200191505b509250505060206040518083038186803b15801561123c57600080fd5b505afa158015611250573d6000803e3d6000fd5b505050506040513d602081101561126657600080fd5b50516112aa576040805160e560020a62461bcd0281526020600482015260186024820152600080516020614a02833981519152604482015290519081900360640190fd5b8483600160a060020a0382166112f45760405160e560020a62461bcd0281526004018080602001828103825260258152602001806149756025913960400191505060405180910390fd5b600660009054906101000a9004600160a060020a0316600160a060020a031663420a83e76040518163ffffffff1660e060020a02815260040160206040518083038186803b15801561134557600080fd5b505afa158015611359573d6000803e3d6000fd5b505050506040513d602081101561136f57600080fd5b5051600160a060020a03838116911614156113c2576040805160e560020a62461bcd0281526020600482018190526024820152600080516020614955833981519152604482015290519081900360640190fd5b6006546040805160e060020a63e816d97f028152600160a060020a0385811660048301529151919092169163e816d97f916024808301926020929190829003018186803b15801561141257600080fd5b505afa158015611426573d6000803e3d6000fd5b505050506040513d602081101561143c57600080fd5b505115611481576040805160e560020a62461bcd028152602060048201526011602482015260008051602061499a833981519152604482015290519081900360640190fd5b600081116114c35760405160e560020a62461bcd028152600401808060200182810382526041815260200180614aa96041913960600191505060405180910390fd5b6114cc87613485565b15611589576006546040805160e260020a630935e01b0281523360048201529051600160a060020a03909216916324d7806c91602480820192602092909190829003018186803b15801561151f57600080fd5b505afa158015611533573d6000803e3d6000fd5b505050506040513d602081101561154957600080fd5b50516115895760405160e560020a62461bcd028152600401808060200182810382526031815260200180614a476031913960400191505060405180910390fd5b6006546040805160e060020a6370a08231028152600160a060020a038a811660048301529151889392909216916370a0823191602480820192602092909190829003018186803b1580156115dc57600080fd5b505afa1580156115f0573d6000803e3d6000fd5b505050506040513d602081101561160657600080fd5b5051101561165e576040805160e560020a62461bcd02815260206004820152601260248201527f556e73756666696369656e742066756e64730000000000000000000000000000604482015290519081900360640190fd5b6116f987600660009054906101000a9004600160a060020a0316600160a060020a031663420a83e76040518163ffffffff1660e060020a02815260040160206040518083038186803b1580156116b357600080fd5b505afa1580156116c7573d6000803e3d6000fd5b505050506040513d60208110156116dd57600080fd5b5051600654600160a060020a031691908863ffffffff6136da16565b50604080518681529051600160a060020a038916917fb7feb6c1d7169f40790388a31c0160d8f962a2b6c31970c28bd8cdfefa25ea29919081900360200190a25060019695505050505050565b600b8054604080516020601f60026000196101006001881615020190951694909404938401819004810282018101909252828152606093909290918301828280156117d25780601f106117a7576101008083540402835291602001916117d2565b820191906000526020600020905b8154815290600101906020018083116117b557829003601f168201915b5050505050905090565b6006546040805160e060020a6370a08231028152336004820181905291516118f89360079386939092600160a060020a03909216916370a0823191602480820192602092909190829003018186803b15801561183757600080fd5b505afa15801561184b573d6000803e3d6000fd5b505050506040513d602081101561186157600080fd5b5051600b8054604080516020601f600260001961010060018816150201909516949094049384018190048102820181019092528281523093909290918301828280156118ee5780601f106118c3576101008083540402835291602001916118ee565b820191906000526020600020905b8154815290600101906020018083116118d157829003601f168201915b505050505061378b565b50565b60003315801590611991575061191033613485565b8061199157506006546040805160e260020a630935e01b0281523360048201529051600160a060020a03909216916324d7806c91602480820192602092909190829003018186803b15801561196457600080fd5b505afa158015611978573d6000803e3d6000fd5b505050506040513d602081101561198e57600080fd5b50515b6119cf5760405160e560020a62461bcd028152600401808060200182810382526031815260200180614a786031913960400191505060405180910390fd5b60065460405160e460020a630697d60b0281526020600482018181528651602484015286518794600160a060020a03169363697d60b09386939283926044019185019080838360005b83811015611a30578181015183820152602001611a18565b50505050905090810190601f168015611a5d5780820380516001836020036101000a031916815260200191505b509250505060206040518083038186803b158015611a7a57600080fd5b505afa158015611a8e573d6000803e3d6000fd5b505050506040513d6020811015611aa457600080fd5b5051611ae8576040805160e560020a62461bcd0281526020600482015260186024820152600080516020614a02833981519152604482015290519081900360640190fd5b8483600160a060020a038216611b325760405160e560020a62461bcd0281526004018080602001828103825260258152602001806149756025913960400191505060405180910390fd5b600660009054906101000a9004600160a060020a0316600160a060020a031663420a83e76040518163ffffffff1660e060020a02815260040160206040518083038186803b158015611b8357600080fd5b505afa158015611b97573d6000803e3d6000fd5b505050506040513d6020811015611bad57600080fd5b5051600160a060020a0383811691161415611c00576040805160e560020a62461bcd0281526020600482018190526024820152600080516020614955833981519152604482015290519081900360640190fd5b6006546040805160e060020a63e816d97f028152600160a060020a0385811660048301529151919092169163e816d97f916024808301926020929190829003018186803b158015611c5057600080fd5b505afa158015611c64573d6000803e3d6000fd5b505050506040513d6020811015611c7a57600080fd5b505115611cbf576040805160e560020a62461bcd028152602060048201526011602482015260008051602061499a833981519152604482015290519081900360640190fd5b60008111611d015760405160e560020a62461bcd028152600401808060200182810382526041815260200180614aa96041913960600191505060405180910390fd5b6006546040517f02888d06000000000000000000000000000000000000000000000000000000008152602060048201818152895160248401528951611df694600160a060020a0316936302888d06938c939283926044019185019080838360005b83811015611d7a578181015183820152602001611d62565b50505050905090810190601f168015611da75780820380516001836020036101000a031916815260200191505b509250505060206040518083038186803b158015611dc457600080fd5b505afa158015611dd8573d6000803e3d6000fd5b505050506040513d6020811015611dee57600080fd5b505186613a02565b979650505050505050565b6006546040805160e260020a630935e01b0281523360048201529051600160a060020a03909216916324d7806c91602480820192602092909190829003018186803b158015611e4f57600080fd5b505afa158015611e63573d6000803e3d6000fd5b505050506040513d6020811015611e7957600080fd5b5051611eb95760405160e560020a62461bcd0281526004018080602001828103825260258152602001806149306025913960400191505060405180910390fd5b611ec281613485565b611f16576040805160e560020a62461bcd02815260206004820152600f60248201527f4973206e6f7420612073656c6c65720000000000000000000000000000000000604482015290519081900360640190fd5b6118f8600782613a20565b6000610d688383613a6a565b600033611f3981613485565b611f8d576040805160e560020a62461bcd02815260206004820152601760248201527f4d75737420626520616e20746f6b656e2073656c6c6572000000000000000000604482015290519081900360640190fd5b60065460405160e460020a630697d60b0281526020600482018181528751602484015287518894600160a060020a03169363697d60b09386939283926044019185019080838360005b83811015611fee578181015183820152602001611fd6565b50505050905090810190601f16801561201b5780820380516001836020036101000a031916815260200191505b509250505060206040518083038186803b15801561203857600080fd5b505afa15801561204c573d6000803e3d6000fd5b505050506040513d602081101561206257600080fd5b50516120a6576040805160e560020a62461bcd0281526020600482015260186024820152600080516020614a02833981519152604482015290519081900360640190fd5b8584600160a060020a0382166120f05760405160e560020a62461bcd0281526004018080602001828103825260258152602001806149756025913960400191505060405180910390fd5b600660009054906101000a9004600160a060020a0316600160a060020a031663420a83e76040518163ffffffff1660e060020a02815260040160206040518083038186803b15801561214157600080fd5b505afa158015612155573d6000803e3d6000fd5b505050506040513d602081101561216b57600080fd5b5051600160a060020a03838116911614156121be576040805160e560020a62461bcd0281526020600482018190526024820152600080516020614955833981519152604482015290519081900360640190fd5b6006546040805160e060020a63e816d97f028152600160a060020a0385811660048301529151919092169163e816d97f916024808301926020929190829003018186803b15801561220e57600080fd5b505afa158015612222573d6000803e3d6000fd5b505050506040513d602081101561223857600080fd5b50511561227d576040805160e560020a62461bcd028152602060048201526011602482015260008051602061499a833981519152604482015290519081900360640190fd5b600081116122bf5760405160e560020a62461bcd028152600401808060200182810382526041815260200180614aa96041913960600191505060405180910390fd5b6006546040517f02888d060000000000000000000000000000000000000000000000000000000081526020600482018181528a5160248401528a51600094859461243694600160a060020a03909216936302888d06938f9391928392604490910191908501908083838c5b8381101561234257818101518382015260200161232a565b50505050905090810190601f16801561236f5780820380516001836020036101000a031916815260200191505b509250505060206040518083038186803b15801561238c57600080fd5b505afa1580156123a0573d6000803e3d6000fd5b505050506040513d60208110156123b657600080fd5b50516006546040805160e060020a6370a0823102815233600482015290518c92600160a060020a0316916370a08231916024808301926020929190829003018186803b15801561240557600080fd5b505afa158015612419573d6000803e3d6000fd5b505050506040513d602081101561242f57600080fd5b5051613e60565b909250905081156124a05760065461245f90600160a060020a0316338c8563ffffffff6136da16565b50604080518381529051600160a060020a038c16917fa3a187cfc249a33f6c4046e8d418886eea8564f9dd214a32aa5ba08d9602b543919081900360200190a25b9998505050505050505050565b6000331580159061254357506124c233613485565b8061254357506006546040805160e260020a630935e01b0281523360048201529051600160a060020a03909216916324d7806c91602480820192602092909190829003018186803b15801561251657600080fd5b505afa15801561252a573d6000803e3d6000fd5b505050506040513d602081101561254057600080fd5b50515b6125815760405160e560020a62461bcd028152600401808060200182810382526031815260200180614a786031913960400191505060405180910390fd5b60065460405160e460020a630697d60b0281526020600482018181528651602484015286518794600160a060020a03169363697d60b09386939283926044019185019080838360005b838110156125e25781810151838201526020016125ca565b50505050905090810190601f16801561260f5780820380516001836020036101000a031916815260200191505b509250505060206040518083038186803b15801561262c57600080fd5b505afa158015612640573d6000803e3d6000fd5b505050506040513d602081101561265657600080fd5b505161269a576040805160e560020a62461bcd0281526020600482015260186024820152600080516020614a02833981519152604482015290519081900360640190fd5b8483600160a060020a0382166126e45760405160e560020a62461bcd0281526004018080602001828103825260258152602001806149756025913960400191505060405180910390fd5b600660009054906101000a9004600160a060020a0316600160a060020a031663420a83e76040518163ffffffff1660e060020a02815260040160206040518083038186803b15801561273557600080fd5b505afa158015612749573d6000803e3d6000fd5b505050506040513d602081101561275f57600080fd5b5051600160a060020a03838116911614156127b2576040805160e560020a62461bcd0281526020600482018190526024820152600080516020614955833981519152604482015290519081900360640190fd5b6006546040805160e060020a63e816d97f028152600160a060020a0385811660048301529151919092169163e816d97f916024808301926020929190829003018186803b15801561280257600080fd5b505afa158015612816573d6000803e3d6000fd5b505050506040513d602081101561282c57600080fd5b505115612871576040805160e560020a62461bcd028152602060048201526011602482015260008051602061499a833981519152604482015290519081900360640190fd5b600081116128b35760405160e560020a62461bcd028152600401808060200182810382526041815260200180614aa96041913960600191505060405180910390fd5b6128bc87613485565b15612979576006546040805160e260020a630935e01b0281523360048201529051600160a060020a03909216916324d7806c91602480820192602092909190829003018186803b15801561290f57600080fd5b505afa158015612923573d6000803e3d6000fd5b505050506040513d602081101561293957600080fd5b50516129795760405160e560020a62461bcd028152600401808060200182810382526031815260200180614a476031913960400191505060405180910390fd5b6006546040517f02888d060000000000000000000000000000000000000000000000000000000081526020600482018181528951602484015289516000948594612b4694600160a060020a03909216936302888d06938e9391928392604490910191908501908083838c5b838110156129fc5781810151838201526020016129e4565b50505050905090810190601f168015612a295780820380516001836020036101000a031916815260200191505b509250505060206040518083038186803b158015612a4657600080fd5b505afa158015612a5a573d6000803e3d6000fd5b505050506040513d6020811015612a7057600080fd5b5051600654604080517f420a83e700000000000000000000000000000000000000000000000000000000815290518b92600160a060020a0316916370a0823191839163420a83e7916004808301926020929190829003018186803b158015612ad757600080fd5b505afa158015612aeb573d6000803e3d6000fd5b505050506040513d6020811015612b0157600080fd5b50516040805160e060020a63ffffffff8516028152600160a060020a039092166004830152516024808301926020929190829003018186803b15801561240557600080fd5b90925090508115612c3757600654604080517f420a83e70000000000000000000000000000000000000000000000000000000081529051612bf692600160a060020a03169163420a83e7916004808301926020929190829003018186803b158015612bb057600080fd5b505afa158015612bc4573d6000803e3d6000fd5b505050506040513d6020811015612bda57600080fd5b5051600654600160a060020a0316908b8563ffffffff6136da16565b50604080518381529051600160a060020a038b16917fa3a187cfc249a33f6c4046e8d418886eea8564f9dd214a32aa5ba08d9602b543919081900360200190a25b98975050505050505050565b600554600160a060020a031690565b600033612c5e81613485565b612cb2576040805160e560020a62461bcd02815260206004820152601760248201527f4d75737420626520616e20746f6b656e2073656c6c6572000000000000000000604482015290519081900360640190fd5b60065460405160e460020a630697d60b0281526020600482018181528751602484015287518894600160a060020a03169363697d60b09386939283926044019185019080838360005b83811015612d13578181015183820152602001612cfb565b50505050905090810190601f168015612d405780820380516001836020036101000a031916815260200191505b509250505060206040518083038186803b158015612d5d57600080fd5b505afa158015612d71573d6000803e3d6000fd5b505050506040513d6020811015612d8757600080fd5b5051612dcb576040805160e560020a62461bcd0281526020600482015260186024820152600080516020614a02833981519152604482015290519081900360640190fd5b8584600160a060020a038216612e155760405160e560020a62461bcd0281526004018080602001828103825260258152602001806149756025913960400191505060405180910390fd5b600660009054906101000a9004600160a060020a0316600160a060020a031663420a83e76040518163ffffffff1660e060020a02815260040160206040518083038186803b158015612e6657600080fd5b505afa158015612e7a573d6000803e3d6000fd5b505050506040513d6020811015612e9057600080fd5b5051600160a060020a0383811691161415612ee3576040805160e560020a62461bcd0281526020600482018190526024820152600080516020614955833981519152604482015290519081900360640190fd5b6006546040805160e060020a63e816d97f028152600160a060020a0385811660048301529151919092169163e816d97f916024808301926020929190829003018186803b158015612f3357600080fd5b505afa158015612f47573d6000803e3d6000fd5b505050506040513d6020811015612f5d57600080fd5b505115612fa2576040805160e560020a62461bcd028152602060048201526011602482015260008051602061499a833981519152604482015290519081900360640190fd5b60008111612fe45760405160e560020a62461bcd028152600401808060200182810382526041815260200180614aa96041913960600191505060405180910390fd5b6006546040805160e060020a6370a08231028152600160a060020a038b811660048301529151899392909216916370a0823191602480820192602092909190829003018186803b15801561303757600080fd5b505afa15801561304b573d6000803e3d6000fd5b505050506040513d602081101561306157600080fd5b505110156130b9576040805160e560020a62461bcd02815260206004820152601260248201527f556e73756666696369656e742066756e64730000000000000000000000000000604482015290519081900360640190fd5b6006546130d790600160a060020a031689338963ffffffff6136da16565b50604080518781529051600160a060020a038a16917fb7feb6c1d7169f40790388a31c0160d8f962a2b6c31970c28bd8cdfefa25ea29919081900360200190a2506001979650505050505050565b6006546040805160e260020a630935e01b0281523360048201529051600160a060020a03909216916324d7806c91602480820192602092909190829003018186803b15801561317357600080fd5b505afa158015613187573d6000803e3d6000fd5b505050506040513d602081101561319d57600080fd5b50516131dd5760405160e560020a62461bcd0281526004018080602001828103825260258152602001806149306025913960400191505060405180910390fd5b612710811115613237576040805160e560020a62461bcd02815260206004820152601a60248201527f46656573206d75737420626520696e2070657263656e74616765000000000000604482015290519081900360640190fd5b600c55565b6006546040805160e260020a630935e01b0281523360048201529051600160a060020a03909216916324d7806c91602480820192602092909190829003018186803b15801561328a57600080fd5b505afa15801561329e573d6000803e3d6000fd5b505050506040513d60208110156132b457600080fd5b50516132f45760405160e560020a62461bcd0281526004018080602001828103825260258152602001806149306025913960400191505060405180910390fd5b600160a060020a03811661333c5760405160e560020a62461bcd02815260040180806020018281038252602481526020018061490c6024913960400191505060405180910390fd5b600660009054906101000a9004600160a060020a0316600160a060020a031663420a83e76040518163ffffffff1660e060020a02815260040160206040518083038186803b15801561338d57600080fd5b505afa1580156133a1573d6000803e3d6000fd5b505050506040513d60208110156133b757600080fd5b5051600160a060020a038281169116141561341c576040805160e560020a62461bcd02815260206004820152601f60248201527f53656c6c6572206d757374206e6f7420626520746f6b656e20686f6c64657200604482015290519081900360640190fd5b61342581613485565b1561347a576040805160e560020a62461bcd02815260206004820152601060248201527f416c726561647920612073656c6c657200000000000000000000000000000000604482015290519081900360640190fd5b6118f8600782613ed6565b6000610d06600783613f23565b3b63ffffffff16151590565b600154600090600160a060020a031615806134cb57506001546134c990600160a060020a0316613f42565b155b156134dc576134da6000613f46565b505b600160009054906101000a9004600160a060020a0316600160a060020a03166338cc48316040518163ffffffff1660e060020a028152600401602060405180830381600087803b15801561352f57600080fd5b505af1158015613543573d6000803e3d6000fd5b505050506040513d602081101561355957600080fd5b5051600054600160a060020a0390811691161461360f57600160009054906101000a9004600160a060020a0316600160a060020a03166338cc48316040518163ffffffff1660e060020a028152600401602060405180830381600087803b1580156135c357600080fd5b505af11580156135d7573d6000803e3d6000fd5b505050506040513d60208110156135ed57600080fd5b505160008054600160a060020a031916600160a060020a039092169190911790555b6000809054906101000a9004600160a060020a0316600160a060020a031663c281d19e6040518163ffffffff1660e060020a02815260040160206040518083038186803b15801561365f57600080fd5b505afa158015613673573d6000803e3d6000fd5b505050506040513d602081101561368957600080fd5b5051905090565b600082815260096020526040902054600160a060020a031615610fb6576000806136b983613f50565b915091506136d484826136cc57836136cf565b60005b61409d565b50505050565b604080517fbcf0dd8e000000000000000000000000000000000000000000000000000000008152600160a060020a038581166004830152848116602483015260448201849052915160009287169163bcf0dd8e91606480830192602092919082900301818787803b15801561374e57600080fd5b505af1158015613762573d6000803e3d6000fd5b505050506040513d602081101561377857600080fd5b505161378057fe5b506001949350505050565b848310156137e3576040805160e560020a62461bcd02815260206004820152601560248201527f556e73756666696369656e742062616c616e6365730000000000000000000000604482015290519081900360640190fd5b600082600160a060020a03166381ade3078360405160200180807f6a736f6e2800000000000000000000000000000000000000000000000000000081525060050182805190602001908083835b6020831061384f5780518252601f199092019160209182019101613830565b51815160209384036101000a60001901801990921691161790527f292e70726963650000000000000000000000000000000000000000000000000091909301908152604080518083036018190181526007830180835263ffffffff891660e060020a029052600b83019182526003604b8401527f55524c0000000000000000000000000000000000000000000000000000000000606b8401526080602b84019081528151608b8501528151919750919550859491935060ab909201919086019080838360005b8381101561392d578181015183820152602001613915565b50505050905090810190601f16801561395a5780820380516001836020036101000a031916815260200191505b509350505050602060405180830381600087803b15801561397a57600080fd5b505af115801561398e573d6000803e3d6000fd5b505050506040513d60208110156139a457600080fd5b5051600090815260028801602090815260408083208054600160a060020a03909916600160a060020a0319909916891790559682526003890181528682209790975560019788019096525050509120805460ff191690921790915550565b6000610d688361024a84670de0b6b3a764000063ffffffff610d0c16565b600160a060020a038116600081815260208490526040808220805460ff19169055517f28b0e6f1ecc47257ec3f79765e931c56d7dfa4c59debbc701a1245cfd42375f09190a25050565b600154600090600160a060020a03161580613a975750600154613a9590600160a060020a0316613f42565b155b15613aa857613aa66000613f46565b505b600160009054906101000a9004600160a060020a0316600160a060020a03166338cc48316040518163ffffffff1660e060020a028152600401602060405180830381600087803b158015613afb57600080fd5b505af1158015613b0f573d6000803e3d6000fd5b505050506040513d6020811015613b2557600080fd5b5051600054600160a060020a03908116911614613bdb57600160009054906101000a9004600160a060020a0316600160a060020a03166338cc48316040518163ffffffff1660e060020a028152600401602060405180830381600087803b158015613b8f57600080fd5b505af1158015613ba3573d6000803e3d6000fd5b505050506040513d6020811015613bb957600080fd5b505160008054600160a060020a031916600160a060020a039092169190911790555b600080546040517f524f3889000000000000000000000000000000000000000000000000000000008152602060048201818152875160248401528751600160a060020a039094169363524f38899389938392604490920191908501908083838b5b83811015613c54578181015183820152602001613c3c565b50505050905090810190601f168015613c815780820380516001836020036101000a031916815260200191505b5092505050602060405180830381600087803b158015613ca057600080fd5b505af1158015613cb4573d6000803e3d6000fd5b505050506040513d6020811015613cca57600080fd5b50519050670de0b6b3a764000062030d403a0201811115613cef575060009050610d06565b600080546040517fadf59f9900000000000000000000000000000000000000000000000000000000815260048101838152606060248301908152885160648401528851600160a060020a039094169463adf59f9994879491938b938b9391929091604481019160849091019060208701908083838b5b83811015613d7d578181015183820152602001613d65565b50505050905090810190601f168015613daa5780820380516001836020036101000a031916815260200191505b50838103825284518152845160209182019186019080838360005b83811015613ddd578181015183820152602001613dc5565b50505050905090810190601f168015613e0a5780820380516001836020036101000a031916815260200191505b50955050505050506020604051808303818588803b158015613e2b57600080fd5b505af1158015613e3f573d6000803e3d6000fd5b50505050506040513d6020811015613e5657600080fd5b5051949350505050565b600080848482613e82670de0b6b3a764000061024a848663ffffffff610d0c16565b9050600086821115613ec857866000613ead8661024a84670de0b6b3a764000063ffffffff610d0c16565b9050613ebf858263ffffffff610ca716565b90945090925090505b909890975095505050505050565b600160a060020a038116600081815260208490526040808220805460ff19166001179055517f2a5b684466efcba806639913b639a9d5a8941f247a170221236b2fd4955f04599190a25050565b600160a060020a03166000908152602091909152604090205460ff1690565b3b90565b6000610d06614254565b60008080838180805b835181101561408f5783517f300000000000000000000000000000000000000000000000000000000000000090859083908110613f9257fe5b602001015160f860020a900460f860020a027effffffffffffffffffffffffffffffffffffffffffffffffffffffffffffff191610158015614036575083517f390000000000000000000000000000000000000000000000000000000000000090859083908110613fff57fe5b602001015160f860020a900460f860020a027effffffffffffffffffffffffffffffffffffffffffffffffffffffffffffff191611155b1561408257829150603084828151811061404c57fe5b602001015160f860020a900460f860020a0260f860020a90040360ff1683600a020192508282111561407d57600194505b614087565b600194505b600101613f59565b509094509192505050915091565b600082815260096020908152604080832054600c54600654835160e060020a6370a08231028152600160a060020a039384166004820181905294519496958695614141956007958c958c9591949216926370a0823192602480840193919291829003018186803b15801561411057600080fd5b505afa158015614124573d6000803e3d6000fd5b505050506040513d602081101561413a57600080fd5b50516145fe565b909250905081156141aa5760065461416990600160a060020a0316848463ffffffff6147bc16565b50604080518381529051600160a060020a038516917f5c1b93d1b3a4152322e3e358c8e6eca5e4177363496d5e789e2fce88c4767c97919081900360200190a25b801561424d5761424b83600660009054906101000a9004600160a060020a0316600160a060020a031663420a83e76040518163ffffffff1660e060020a02815260040160206040518083038186803b15801561420557600080fd5b505afa158015614219573d6000803e3d6000fd5b505050506040513d602081101561422f57600080fd5b5051600654600160a060020a031691908463ffffffff6136da16565b505b5050505050565b600080614274731d3b2638a7cc9f2cb3d298a3da7a90b67e5506ed613f42565b11156142e55760018054600160a060020a031916731d3b2638a7cc9f2cb3d298a3da7a90b67e5506ed17905560408051808201909152600b81527f6574685f6d61696e6e657400000000000000000000000000000000000000000060208201526142dd90614864565b506001610fbe565b600061430473c03a2615d5efaf5f49f60b7bb6583eaec212fdf1613f42565b111561436d5760018054600160a060020a03191673c03a2615d5efaf5f49f60b7bb6583eaec212fdf117905560408051808201909152600c81527f6574685f726f707374656e33000000000000000000000000000000000000000060208201526142dd90614864565b600061438c73b7a07bcf2ba2f2703b24c0691b5278999c59ac7e613f42565b11156143f55760018054600160a060020a03191673b7a07bcf2ba2f2703b24c0691b5278999c59ac7e17905560408051808201909152600981527f6574685f6b6f76616e000000000000000000000000000000000000000000000060208201526142dd90614864565b600061441473146500cfd35b22e4a392fe0adc06de1a1368ed48613f42565b111561447d5760018054600160a060020a03191673146500cfd35b22e4a392fe0adc06de1a1368ed4817905560408051808201909152600b81527f6574685f72696e6b65627900000000000000000000000000000000000000000060208201526142dd90614864565b600061449c73a2998efd205fb9d4b4963afb70778d6354ad3a41613f42565b11156145055760018054600160a060020a03191673a2998efd205fb9d4b4963afb70778d6354ad3a4117905560408051808201909152600a81527f6574685f676f65726c690000000000000000000000000000000000000000000060208201526142dd90614864565b6000614524736f485c8bf6fc43ea212e93bbf8ce046c7f1cb475613f42565b1115614556575060018054600160a060020a031916736f485c8bf6fc43ea212e93bbf8ce046c7f1cb475178155610fbe565b60006145757320e12a1f859b3feae5fb2a0a32c18f5a65555bbf613f42565b11156145a7575060018054600160a060020a0319167320e12a1f859b3feae5fb2a0a32c18f5a65555bbf178155610fbe565b60006145c67351efaf4c8b3c9afbd5ab9f4bbc82784ab6ef8faa613f42565b11156145f8575060018054600160a060020a0319167351efaf4c8b3c9afbd5ab9f4bbc82784ab6ef8faa178155610fbe565b50600090565b6000848152600286016020908152604080832054600160a060020a03168084526003890183528184205460018a01909352908320548392908390819060ff1661469b5783600160a060020a03167f1da5c8363728fcfbe892645b4598ccee13c4448931a93dd39766a2648ffb2dbd6040518080602001828103825260278152602001806149db6027913960400191505060405180910390a2614760565b82871015614714576040805160208082526015908201527f556e73756666696369656e742062616c616e6365730000000000000000000000818301529051600160a060020a038616917f1da5c8363728fcfbe892645b4598ccee13c4448931a93dd39766a2648ffb2dbd919081900360600190a2614760565b61472a61271061024a858b63ffffffff610d0c16565b9050600061473e848363ffffffff610ca716565b905061475c8a61024a83670de0b6b3a764000063ffffffff610d0c16565b9250505b600160a060020a03909316600090815260038b016020908152604080832083905560018d018252808320805460ff191690558b835260028d0190915290208054600160a060020a03191690559350909150509550959350505050565b604080517f4bb63ce6000000000000000000000000000000000000000000000000000000008152600160a060020a038481166004830152602482018490529151600092861691634bb63ce691604480830192602092919082900301818787803b15801561482857600080fd5b505af115801561483c573d6000803e3d6000fd5b505050506040513d602081101561485257600080fd5b505161485a57fe5b5060019392505050565b8051610fb69060029060208401905b828054600181600116156101000203166002900490600052602060002090601f016020900481019282601f106148b457805160ff19168380011785556148e1565b828001600101855582156148e1579182015b828111156148e15782518255916020019190600101906148c6565b506148ed9291506148f1565b5090565b610fbe91905b808211156148ed57600081556001016148f756fe53656c6c65722041646472657373206d757374206e6f7420626520302d616464726573734f6e6c792041646d696e2063616e20706572666f726d2074686973206f7065726174696f6e4163636f756e74206d757374206e6f7420626520746f6b656e20686f6c6465724163636f756e742061646472657373206d757374206e6f7420626520302d616464726573734163636f756e742069732066726f7a656e000000000000000000000000000000536166654d6174683a206d756c7469706c69636174696f6e206f766572666c6f7753656e64657220686173206e6f742072657175657374656420627579204b4d5820546f6b656e7350726f7669646520612076616c69642063757272656e637900000000000000004f6e6c79206f776e65722063616e20706572666f726d2074686973206f7065726174696f6e4f6e6c792061646d696e2063616e20706572666f726d2074686973206f7065726174696f6e20666f722073656c6c6572734f6e6c792073656c6c657273206f722061646d696e732063616e20706572666f726d2074686973206f7065726174696f6e416d6f756e74206f662063757272656e6379202f20546f6b656e73207175616e7469747920676976656e206d7573742062652067726561746572207468616e2030a165627a7a72305820ba2d81aa4eb216de3088119d8c2e6d54f15837c848e7ceae0d66d2209ee29a3a0029",
  "source": "pragma solidity >=0.4.10 <0.6.0;\r\n\r\nimport \"./KMXStableToken.sol\";\r\nimport \"./KMXStableMarketLib.sol\";\r\nimport \"./utils/Oracle.sol\";\r\nimport \"./utils/AddressUtils.sol\";\r\nimport \"./utils/SafeMath.sol\";\r\nimport \"./utils/StringParser.sol\";\r\n\r\nlibrary SafeKMXStableTokenForMarket {\r\n    function safeMarketTransfer(KMXStableToken kmxStableToken, address from, address to, uint256 value) internal returns(bool){\r\n        assert(kmxStableToken.marketTransfer(from, to, value));\r\n        return true;\r\n    }\r\n    function safeBuyKMX(KMXStableToken kmxStableToken, address account, uint256 tknQty) internal returns(bool) {\r\n        assert(kmxStableToken.marketBuyKMX(account, tknQty));\r\n        return true;\r\n    }\r\n}\r\n\r\ncontract KMXStableMarket is Oracle {\r\n    event TokenBought(address indexed account, uint256 tknAmount);\r\n    event TokenRefunded(address indexed account, uint256 tknAmount);\r\n    event KMXTokensBought(address indexed buyer, uint256 amount);\r\n\r\n    address internal _kmxStableTokenAddress;\r\n    KMXStableToken internal _kmxStableToken;\r\n    KMXStableMarketLib.KMXMarketData internal _marketData;\r\n    \r\n    string internal _stableTokenPriceUrl;\r\n    uint256 internal _buyKMXFees;\r\n\r\n    using AddressUtils for address;\r\n    using SafeMath for uint256;\r\n    using StringParser for string;\r\n    using SafeKMXStableTokenForMarket for KMXStableToken;\r\n\r\n    constructor(address _kmxStbTknAdd) public payable {\r\n        require(_kmxStbTknAdd.isContractAddress(), \"Provide contract addresses\");\r\n        address payable _payableKmxStbTknAdd = address(uint160(_kmxStbTknAdd));\r\n        _kmxStableToken = KMXStableToken(_payableKmxStbTknAdd);\r\n        _kmxStableTokenAddress = _kmxStbTknAdd;\r\n        _buyKMXFees = 100;\r\n    }\r\n\r\n    function setStableTokenPriceUrl(string memory newUrl) public onlyAdmin {\r\n        _stableTokenPriceUrl = newUrl;\r\n    }\r\n\r\n    function stableTokenPriceUrl() public view returns(string memory){\r\n        return _stableTokenPriceUrl;\r\n    }\r\n\r\n    function setBuyKMXFees(uint256 _newBuyKMXFees) public onlyAdmin {\r\n        require(_newBuyKMXFees <=10000, \"Fees must be in percentage\");\r\n        _buyKMXFees = _newBuyKMXFees;\r\n    }\r\n\r\n    function buyKMXFees() public view returns(uint256) {\r\n        return _buyKMXFees;\r\n    }\r\n\r\n    function setKMXStableToken(address _address) public onlyOwner {\r\n        require(_address.isContractAddress(), \"Provide contract address\");\r\n        address payable _payableKmxStbTknAdd = address(uint160(_address));\r\n        _kmxStableToken = KMXStableToken(_payableKmxStbTknAdd);\r\n        _kmxStableTokenAddress = _address;\r\n    }\r\n\r\n    function kmxStableToken() public view returns(address) {\r\n        return _kmxStableTokenAddress;\r\n    }\r\n\r\n    modifier onlyAdmin() {\r\n        require(_kmxStableToken.isAdmin(msg.sender), \"Only Admin can perform this operation\");\r\n        _;\r\n    }\r\n\r\n    modifier onlyOwner() {\r\n        require(_kmxStableToken.isOwner(msg.sender), \"Only owner can perform this operation\");\r\n        _;\r\n    }\r\n\r\n    modifier onlySeller(address _seller) {\r\n        require(isSeller(_seller), \"Must be an token seller\");\r\n        _;\r\n    }\r\n\r\n    modifier sellerOrAdmin() {\r\n        require(msg.sender != address(0) && (isSeller(msg.sender) || _kmxStableToken.isAdmin(msg.sender)),\r\n                \"Only sellers or admins can perform this operation\");\r\n        _;\r\n    }\r\n\r\n    modifier validateBuyRefParams(address _address, uint256 _amt) {\r\n        require(_address != address(0), \"Account address must not be 0-address\");\r\n        require(_address != _kmxStableToken.tokenHolder(), \"Account must not be token holder\");\r\n        require(!_kmxStableToken.isAccountFrozen(_address), \"Account is frozen\");\r\n        require(_amt > 0, \"Amount of currency / Tokens quantity given must be greater than 0\");\r\n        _;\r\n    }\r\n\r\n    modifier validCurrency(string memory _currency) {\r\n        require(_kmxStableToken.validCurrency(_currency), \"Provide a valid currency\");\r\n        _;\r\n    }\r\n \r\n    function isSeller(address _seller) public view returns(bool) {\r\n        return KMXStableMarketLib.isSeller(_marketData, _seller);\r\n    }\r\n\r\n    function addSeller(address _seller) public onlyAdmin {\r\n        require(_seller != address(0), \"Seller Address must not be 0-address\");\r\n        require(_seller != _kmxStableToken.tokenHolder(), \"Seller must not be token holder\");\r\n        require(!isSeller(_seller), \"Already a seller\");\r\n        KMXStableMarketLib.addSeller(_marketData, _seller);\r\n    }\r\n\r\n    function removeSeller(address _seller) public onlyAdmin {\r\n        require(isSeller(_seller), \"Is not a seller\");\r\n        KMXStableMarketLib.removeSeller(_marketData, _seller);\r\n    }\r\n\r\n    function buy(address _account, string memory _currency, uint256 _amount) public\r\n    sellerOrAdmin validCurrency(_currency) validateBuyRefParams(_account, _amount) returns(uint256) {\r\n        if (isSeller(_account)){\r\n            require(_kmxStableToken.isAdmin(msg.sender), \"Only admin can perform this operation for sellers\");\r\n        }\r\n        (uint256 tknQty, uint256 rfd) = KMXStableMarketLib.buy(_kmxStableToken.tokenPrice(_currency), _amount, _kmxStableToken.balanceOf(_kmxStableToken.tokenHolder()));\r\n        if (tknQty > 0){\r\n            _kmxStableToken.safeMarketTransfer(_kmxStableToken.tokenHolder(), _account, tknQty);\r\n            emit TokenBought(_account, tknQty);\r\n        }\r\n        return rfd;\r\n    }\r\n\r\n    function buyFromSeller(address _account, string memory _currency, uint256 _amount) public\r\n    onlySeller(msg.sender) validCurrency(_currency) validateBuyRefParams(_account, _amount) returns(uint256) {\r\n        (uint256 tknQty, uint256 rfd) = KMXStableMarketLib.buy(_kmxStableToken.tokenPrice(_currency), _amount, _kmxStableToken.balanceOf(msg.sender));\r\n        if (tknQty > 0){\r\n            _kmxStableToken.safeMarketTransfer(msg.sender, _account, tknQty);\r\n            emit TokenBought(_account, tknQty);\r\n        }\r\n        return rfd;\r\n    }\r\n\r\n    function refundAmount(address _account, string memory _currency, uint256 _tokenQuantity) public view\r\n    sellerOrAdmin validCurrency(_currency) validateBuyRefParams(_account, _tokenQuantity) returns(uint256) {\r\n        return KMXStableMarketLib.refundAmount(_kmxStableToken.tokenPrice(_currency), _tokenQuantity);\r\n    }\r\n\r\n    function refund(address _account, string memory _currency, uint256 _tokenQuantity) public\r\n    sellerOrAdmin validCurrency(_currency) validateBuyRefParams(_account, _tokenQuantity) returns(bool) {\r\n        if (isSeller(_account)){\r\n            require(_kmxStableToken.isAdmin(msg.sender), \"Only admin can perform this operation for sellers\");\r\n        }\r\n        require(_kmxStableToken.balanceOf(_account) >= _tokenQuantity, \"Unsufficient funds\");\r\n        _kmxStableToken.safeMarketTransfer(_account, _kmxStableToken.tokenHolder(), _tokenQuantity);\r\n        emit TokenRefunded(_account, _tokenQuantity);\r\n        return true;\r\n    }\r\n\r\n    function refundToSeller(address _account, string memory _currency, uint256 _tokenQuantity) public\r\n    onlySeller(msg.sender) validCurrency(_currency) validateBuyRefParams(_account, _tokenQuantity) returns(bool) {\r\n        require(_kmxStableToken.balanceOf(_account) >= _tokenQuantity, \"Unsufficient funds\");\r\n        _kmxStableToken.safeMarketTransfer(_account, msg.sender, _tokenQuantity);\r\n        emit TokenRefunded(_account, _tokenQuantity);\r\n        return true;\r\n    }\r\n\r\n    function buyKMXTokens(uint256 _amount) public {\r\n        KMXStableMarketLib.buyKMXTokens(_marketData, _amount, msg.sender, _kmxStableToken.balanceOf(msg.sender), this, _stableTokenPriceUrl);\r\n    }\r\n\r\n    function exchangeKMXTokens(bytes32 _oracleReqId, uint256 stableTokenPrice) internal { // 1 KMX ===? x KEUR\r\n        address _account = _marketData.buyKMXBuyersReqIds[_oracleReqId];\r\n        (uint256 tknQty, uint256 fees) = KMXStableMarketLib.exchangeKMXTokens(_marketData, _oracleReqId, stableTokenPrice, _buyKMXFees, _kmxStableToken.balanceOf(_account));\r\n        if (tknQty > 0) {\r\n            _kmxStableToken.safeBuyKMX(_account, tknQty);\r\n            emit KMXTokensBought(_account, tknQty);\r\n        }\r\n        if (fees > 0) {\r\n            _kmxStableToken.safeMarketTransfer(_account, _kmxStableToken.tokenHolder(), fees);\r\n        }\r\n    }\r\n\r\n    function _oracleCallback(bytes32 myId, string memory result) internal {\r\n        if (_marketData.buyKMXBuyersReqIds[myId]!=address(0)){\r\n            (uint256 stTknPrice, bool error) = result.parseToUint256();\r\n            exchangeKMXTokens(myId, error?0:stTknPrice);\r\n        }\r\n    }\r\n\r\n    function () external payable {\r\n        if (msg.value > 0){\r\n            address payable _payableTokenHolder = address(uint160(_kmxStableToken.tokenHolder()));\r\n            if (msg.value > 10**16) {\r\n                msg.sender.transfer(msg.value.sub(10**16));\r\n                _payableTokenHolder.transfer(10**16);\r\n            }\r\n            else {\r\n                msg.sender.transfer(msg.value.mul(90).div(100));\r\n                _payableTokenHolder.transfer(msg.value.mul(10).div(100));\r\n            }\r\n        }\r\n    }\r\n} ",
  "sourcePath": "C:/Users/Sim'S/WebstormProjects/kmxv1/contracts/kmx/KMXStableMarket.sol",
  "compiler": {
    "name": "solc",
    "version": "0.5.8+commit.23d335f2.Emscripten.clang"
  },
  "schemaVersion": "3.0.10",
  "updatedAt": "2019-07-02T20:05:01.455Z",
  "devdoc": {
    "methods": {}
  },
  "userdoc": {
    "methods": {}
  }
}