{
  "contractName": "KMXToken",
  "abi": [
    {
      "constant": true,
      "inputs": [
        {
          "name": "_currency",
          "type": "string"
        }
      ],
      "name": "tokenPrice",
      "outputs": [
        {
          "name": "",
          "type": "uint256"
        }
      ],
      "payable": false,
      "stateMutability": "view",
      "type": "function"
    },
    {
      "constant": false,
      "inputs": [
        {
          "name": "spender",
          "type": "address"
        },
        {
          "name": "value",
          "type": "uint256"
        }
      ],
      "name": "approve",
      "outputs": [
        {
          "name": "",
          "type": "bool"
        }
      ],
      "payable": false,
      "stateMutability": "nonpayable",
      "type": "function"
    },
    {
      "constant": false,
      "inputs": [
        {
          "name": "admin",
          "type": "address"
        }
      ],
      "name": "removeAdmin",
      "outputs": [],
      "payable": false,
      "stateMutability": "nonpayable",
      "type": "function"
    },
    {
      "constant": true,
      "inputs": [],
      "name": "totalSupply",
      "outputs": [
        {
          "name": "",
          "type": "uint256"
        }
      ],
      "payable": false,
      "stateMutability": "view",
      "type": "function"
    },
    {
      "constant": true,
      "inputs": [
        {
          "name": "account",
          "type": "address"
        }
      ],
      "name": "isAdmin",
      "outputs": [
        {
          "name": "",
          "type": "bool"
        }
      ],
      "payable": false,
      "stateMutability": "view",
      "type": "function"
    },
    {
      "constant": true,
      "inputs": [
        {
          "name": "_address",
          "type": "address"
        }
      ],
      "name": "isOwner",
      "outputs": [
        {
          "name": "",
          "type": "bool"
        }
      ],
      "payable": false,
      "stateMutability": "view",
      "type": "function"
    },
    {
      "constant": false,
      "inputs": [
        {
          "name": "spender",
          "type": "address"
        },
        {
          "name": "value",
          "type": "uint256"
        }
      ],
      "name": "increaseAllowance",
      "outputs": [],
      "payable": false,
      "stateMutability": "nonpayable",
      "type": "function"
    },
    {
      "constant": false,
      "inputs": [
        {
          "name": "_account",
          "type": "address"
        }
      ],
      "name": "frozeAccount",
      "outputs": [],
      "payable": false,
      "stateMutability": "nonpayable",
      "type": "function"
    },
    {
      "constant": false,
      "inputs": [],
      "name": "kill",
      "outputs": [],
      "payable": false,
      "stateMutability": "nonpayable",
      "type": "function"
    },
    {
      "constant": false,
      "inputs": [],
      "name": "claimOwnership",
      "outputs": [],
      "payable": false,
      "stateMutability": "nonpayable",
      "type": "function"
    },
    {
      "constant": false,
      "inputs": [
        {
          "name": "sender",
          "type": "address"
        },
        {
          "name": "spender",
          "type": "address"
        },
        {
          "name": "value",
          "type": "uint256"
        }
      ],
      "name": "approveFromAdmin",
      "outputs": [
        {
          "name": "",
          "type": "bool"
        }
      ],
      "payable": false,
      "stateMutability": "nonpayable",
      "type": "function"
    },
    {
      "constant": true,
      "inputs": [
        {
          "name": "_currency",
          "type": "string"
        }
      ],
      "name": "validCurrency",
      "outputs": [
        {
          "name": "",
          "type": "bool"
        }
      ],
      "payable": false,
      "stateMutability": "view",
      "type": "function"
    },
    {
      "constant": false,
      "inputs": [
        {
          "name": "_fees",
          "type": "uint256"
        }
      ],
      "name": "changeFees",
      "outputs": [],
      "payable": false,
      "stateMutability": "nonpayable",
      "type": "function"
    },
    {
      "constant": false,
      "inputs": [
        {
          "name": "admin",
          "type": "address"
        }
      ],
      "name": "addAdmin",
      "outputs": [],
      "payable": false,
      "stateMutability": "nonpayable",
      "type": "function"
    },
    {
      "constant": true,
      "inputs": [
        {
          "name": "account",
          "type": "address"
        }
      ],
      "name": "balanceOf",
      "outputs": [
        {
          "name": "",
          "type": "uint256"
        }
      ],
      "payable": false,
      "stateMutability": "view",
      "type": "function"
    },
    {
      "constant": false,
      "inputs": [
        {
          "name": "_account",
          "type": "address"
        }
      ],
      "name": "unfrozeAccount",
      "outputs": [],
      "payable": false,
      "stateMutability": "nonpayable",
      "type": "function"
    },
    {
      "constant": false,
      "inputs": [
        {
          "name": "_price",
          "type": "uint256"
        },
        {
          "name": "_currency",
          "type": "string"
        }
      ],
      "name": "changePrice",
      "outputs": [],
      "payable": false,
      "stateMutability": "nonpayable",
      "type": "function"
    },
    {
      "constant": false,
      "inputs": [],
      "name": "renounceAdmin",
      "outputs": [],
      "payable": false,
      "stateMutability": "nonpayable",
      "type": "function"
    },
    {
      "constant": false,
      "inputs": [
        {
          "name": "_newHolder",
          "type": "address"
        }
      ],
      "name": "changeTokenHolder",
      "outputs": [],
      "payable": false,
      "stateMutability": "nonpayable",
      "type": "function"
    },
    {
      "constant": false,
      "inputs": [
        {
          "name": "spender",
          "type": "address"
        },
        {
          "name": "value",
          "type": "uint256"
        }
      ],
      "name": "decreaseAllowance",
      "outputs": [],
      "payable": false,
      "stateMutability": "nonpayable",
      "type": "function"
    },
    {
      "constant": true,
      "inputs": [],
      "name": "transactionFees",
      "outputs": [
        {
          "name": "",
          "type": "uint256"
        }
      ],
      "payable": false,
      "stateMutability": "view",
      "type": "function"
    },
    {
      "constant": true,
      "inputs": [
        {
          "name": "owner",
          "type": "address"
        },
        {
          "name": "spender",
          "type": "address"
        }
      ],
      "name": "allowance",
      "outputs": [
        {
          "name": "",
          "type": "uint256"
        }
      ],
      "payable": false,
      "stateMutability": "view",
      "type": "function"
    },
    {
      "constant": true,
      "inputs": [
        {
          "name": "_account",
          "type": "address"
        }
      ],
      "name": "isAccountFrozen",
      "outputs": [
        {
          "name": "",
          "type": "bool"
        }
      ],
      "payable": false,
      "stateMutability": "view",
      "type": "function"
    },
    {
      "constant": false,
      "inputs": [
        {
          "name": "newOwner",
          "type": "address"
        }
      ],
      "name": "transferOwnership",
      "outputs": [],
      "payable": false,
      "stateMutability": "nonpayable",
      "type": "function"
    },
    {
      "inputs": [],
      "payable": false,
      "stateMutability": "nonpayable",
      "type": "constructor"
    },
    {
      "payable": true,
      "stateMutability": "payable",
      "type": "fallback"
    },
    {
      "anonymous": false,
      "inputs": [
        {
          "indexed": true,
          "name": "oldTokenAddress",
          "type": "address"
        },
        {
          "indexed": true,
          "name": "newTokenAddress",
          "type": "address"
        }
      ],
      "name": "StableTokenChanged",
      "type": "event"
    },
    {
      "anonymous": false,
      "inputs": [
        {
          "indexed": true,
          "name": "oldTokenHolder",
          "type": "address"
        },
        {
          "indexed": true,
          "name": "newTokenHolder",
          "type": "address"
        }
      ],
      "name": "TokenHolderChanged",
      "type": "event"
    },
    {
      "anonymous": false,
      "inputs": [
        {
          "indexed": false,
          "name": "newPrice",
          "type": "uint256"
        },
        {
          "indexed": false,
          "name": "currency",
          "type": "string"
        }
      ],
      "name": "PriceChanged",
      "type": "event"
    },
    {
      "anonymous": false,
      "inputs": [
        {
          "indexed": false,
          "name": "newFees",
          "type": "uint256"
        }
      ],
      "name": "FeesChanged",
      "type": "event"
    },
    {
      "anonymous": false,
      "inputs": [
        {
          "indexed": true,
          "name": "account",
          "type": "address"
        }
      ],
      "name": "AccountFrozen",
      "type": "event"
    },
    {
      "anonymous": false,
      "inputs": [
        {
          "indexed": true,
          "name": "account",
          "type": "address"
        }
      ],
      "name": "AccountUnfrozen",
      "type": "event"
    },
    {
      "anonymous": false,
      "inputs": [
        {
          "indexed": true,
          "name": "admin",
          "type": "address"
        }
      ],
      "name": "AdminAdded",
      "type": "event"
    },
    {
      "anonymous": false,
      "inputs": [
        {
          "indexed": true,
          "name": "admin",
          "type": "address"
        }
      ],
      "name": "AdminRemoved",
      "type": "event"
    },
    {
      "anonymous": false,
      "inputs": [
        {
          "indexed": true,
          "name": "previousOwner",
          "type": "address"
        },
        {
          "indexed": true,
          "name": "newOwner",
          "type": "address"
        }
      ],
      "name": "OwnershipTransferred",
      "type": "event"
    },
    {
      "anonymous": false,
      "inputs": [
        {
          "indexed": true,
          "name": "owner",
          "type": "address"
        },
        {
          "indexed": true,
          "name": "spender",
          "type": "address"
        },
        {
          "indexed": false,
          "name": "value",
          "type": "uint256"
        }
      ],
      "name": "Approval",
      "type": "event"
    },
    {
      "anonymous": false,
      "inputs": [
        {
          "indexed": true,
          "name": "from",
          "type": "address"
        },
        {
          "indexed": true,
          "name": "to",
          "type": "address"
        },
        {
          "indexed": false,
          "name": "value",
          "type": "uint256"
        }
      ],
      "name": "Transfer",
      "type": "event"
    },
    {
      "constant": false,
      "inputs": [
        {
          "name": "stableToken",
          "type": "address"
        }
      ],
      "name": "setStableToken",
      "outputs": [
        {
          "name": "",
          "type": "bool"
        }
      ],
      "payable": false,
      "stateMutability": "nonpayable",
      "type": "function"
    },
    {
      "constant": true,
      "inputs": [],
      "name": "getStableToken",
      "outputs": [
        {
          "name": "",
          "type": "address"
        }
      ],
      "payable": false,
      "stateMutability": "view",
      "type": "function"
    },
    {
      "constant": true,
      "inputs": [],
      "name": "getKMXAdminCenter",
      "outputs": [
        {
          "name": "",
          "type": "address"
        }
      ],
      "payable": false,
      "stateMutability": "view",
      "type": "function"
    },
    {
      "constant": false,
      "inputs": [
        {
          "name": "_address",
          "type": "address"
        }
      ],
      "name": "setKMXAdminCenter",
      "outputs": [],
      "payable": false,
      "stateMutability": "nonpayable",
      "type": "function"
    },
    {
      "constant": true,
      "inputs": [],
      "name": "tokenHolder",
      "outputs": [
        {
          "name": "",
          "type": "address"
        }
      ],
      "payable": false,
      "stateMutability": "view",
      "type": "function"
    },
    {
      "constant": false,
      "inputs": [
        {
          "name": "_newValue",
          "type": "uint256"
        }
      ],
      "name": "setTotalSupply",
      "outputs": [],
      "payable": false,
      "stateMutability": "nonpayable",
      "type": "function"
    },
    {
      "constant": false,
      "inputs": [
        {
          "name": "_balance",
          "type": "uint256"
        }
      ],
      "name": "setTokenHolderBalance",
      "outputs": [
        {
          "name": "",
          "type": "bool"
        }
      ],
      "payable": false,
      "stateMutability": "nonpayable",
      "type": "function"
    },
    {
      "constant": false,
      "inputs": [
        {
          "name": "from",
          "type": "address"
        },
        {
          "name": "to",
          "type": "address"
        },
        {
          "name": "value",
          "type": "uint256"
        }
      ],
      "name": "icoTransfer",
      "outputs": [
        {
          "name": "",
          "type": "bool"
        }
      ],
      "payable": false,
      "stateMutability": "nonpayable",
      "type": "function"
    },
    {
      "constant": false,
      "inputs": [
        {
          "name": "to",
          "type": "address"
        },
        {
          "name": "value",
          "type": "uint256"
        }
      ],
      "name": "transfer",
      "outputs": [
        {
          "name": "",
          "type": "bool"
        }
      ],
      "payable": false,
      "stateMutability": "nonpayable",
      "type": "function"
    },
    {
      "constant": false,
      "inputs": [
        {
          "name": "to",
          "type": "address"
        },
        {
          "name": "from",
          "type": "address"
        },
        {
          "name": "value",
          "type": "uint256"
        }
      ],
      "name": "transferFrom",
      "outputs": [
        {
          "name": "",
          "type": "bool"
        }
      ],
      "payable": false,
      "stateMutability": "nonpayable",
      "type": "function"
    },
    {
      "constant": false,
      "inputs": [
        {
          "name": "from",
          "type": "address"
        },
        {
          "name": "fees",
          "type": "uint256"
        }
      ],
      "name": "feesForStableTokenTransfer",
      "outputs": [
        {
          "name": "",
          "type": "bool"
        }
      ],
      "payable": false,
      "stateMutability": "nonpayable",
      "type": "function"
    },
    {
      "constant": false,
      "inputs": [
        {
          "name": "from",
          "type": "address"
        },
        {
          "name": "fees",
          "type": "uint256"
        },
        {
          "name": "spender",
          "type": "address"
        }
      ],
      "name": "feesForStableTokenTransferFrom",
      "outputs": [
        {
          "name": "",
          "type": "bool"
        }
      ],
      "payable": false,
      "stateMutability": "nonpayable",
      "type": "function"
    },
    {
      "constant": false,
      "inputs": [
        {
          "name": "_account",
          "type": "address"
        },
        {
          "name": "_amount",
          "type": "uint256"
        }
      ],
      "name": "buyKMXTokens",
      "outputs": [
        {
          "name": "",
          "type": "bool"
        }
      ],
      "payable": false,
      "stateMutability": "nonpayable",
      "type": "function"
    },
    {
      "constant": false,
      "inputs": [
        {
          "name": "_account",
          "type": "address"
        },
        {
          "name": "_amount",
          "type": "uint256"
        }
      ],
      "name": "sendKMXToUser",
      "outputs": [
        {
          "name": "",
          "type": "bool"
        }
      ],
      "payable": false,
      "stateMutability": "nonpayable",
      "type": "function"
    },
    {
      "constant": false,
      "inputs": [
        {
          "name": "_account",
          "type": "address"
        },
        {
          "name": "_amount",
          "type": "uint256"
        }
      ],
      "name": "takeKMXFromUser",
      "outputs": [
        {
          "name": "",
          "type": "bool"
        }
      ],
      "payable": false,
      "stateMutability": "nonpayable",
      "type": "function"
    },
    {
      "constant": true,
      "inputs": [
        {
          "name": "_account",
          "type": "address"
        }
      ],
      "name": "balanceOfFromStableToken",
      "outputs": [
        {
          "name": "",
          "type": "bool"
        },
        {
          "name": "",
          "type": "uint256"
        }
      ],
      "payable": false,
      "stateMutability": "view",
      "type": "function"
    }
  ],
  "bytecode": "0x60806040523480156200001157600080fd5b50336200006a576040517f08c379a000000000000000000000000000000000000000000000000000000000815260040180806020018281038252602381526020018062003e0e6023913960400191505060405180910390fd5b60008054600160a060020a0319163317908190556200009b90600160a060020a03166401000000006200011b810204565b620000b2600180806401000000006200016d810204565b606460075560005460098054600160a060020a031916600160a060020a0390921691909117905562000106673eba440d50c40000673782dace9d90000066182890607900006401000000006200016d810204565b6afb768105935a2f3000000060045562000347565b62000136600282640100000000620037c76200021d82021704565b604051600160a060020a038216907f44d6d25963f097ad14f29f06854a01f575648a1ef82f30e562ccd3889717e33990600090a250565b604080517f455552000000000000000000000000000000000000000000000000000000000081526008600380830182905283519283900360239081018420979097557f5553440000000000000000000000000000000000000000000000000000000000835282810182905283519283900387018320959095557f58414600000000000000000000000000000000000000000000000000000000008252938101939093525191829003909201902055565b620002328282640100000000620002af810204565b156200028a576040517f08c379a000000000000000000000000000000000000000000000000000000000815260040180806020018281038252602381526020018062003e316023913960400191505060405180910390fd5b600160a060020a0316600090815260209190915260409020805460ff19166001179055565b6000600160a060020a0382166200032757604080517f08c379a000000000000000000000000000000000000000000000000000000000815260206004820181905260248201527f4163636f756e74206d757374206e6f74206265207a65726f2d61646472657373604482015290519081900360640190fd5b50600160a060020a03166000908152602091909152604090205460ff1690565b613ab780620003576000396000f3fe608060405260043610610258576000357c0100000000000000000000000000000000000000000000000000000000900480636cda375b1161014b578063a9059cbb116100c8578063e1e86c361161008c578063e1e86c3614610bf7578063e816d97f14610c21578063f2fde38b14610c54578063f7ea7a3d14610c87578063f8e6d23414610cb157610258565b8063a9059cbb14610b02578063b37be8e414610b3b578063c57983bd14610b50578063db1bc87b14610b89578063dd62ed3e14610bbc57610258565b80638868686c1161010f5780638868686c1461098e5780638bad0c0a14610a48578063a18a209214610a5d578063a2a797cf14610a90578063a457c2d714610ac957610258565b80636cda375b1461089257806370480275146108bc57806370a08231146108ef5780637b68d0ac146109225780637dbdaaca1461095557610258565b806339509351116101d957806345bfd9bc1161019d57806345bfd9bc146107005780634e71e0c81461074e57806362d208521461076357806367deaeb11461079c578063697d60b0146107df57610258565b80633950935114610627578063414f85941461066057806341c0e1b514610693578063420a83e7146106a857806345275ee9146106bd57610258565b80632357776811610220578063235777681461053857806323b872dd1461056957806324d7806c146105ac5780632f54bf6e146105df57806335262fd81461061257610258565b806302888d061461039b578063095ea7b3146104605780631785f53c146104ad57806318160ddd146104e05780631f9714f0146104f5575b341561039957600954600160a060020a0316662386f26fc100003411156102fb57336108fc61029434662386f26fc1000063ffffffff610ce416565b6040518115909202916000818181858888f193505050501580156102bc573d6000803e3d6000fd5b50604051600160a060020a03821690600090662386f26fc100009082818181858883f193505050501580156102f5573d6000803e3d6000fd5b50610397565b336108fc610321606461031534605a63ffffffff610d4916565b9063ffffffff610dac16565b6040518115909202916000818181858888f19350505050158015610349573d6000803e3d6000fd5b50600160a060020a0381166108fc61036d606461031534600a63ffffffff610d4916565b6040518115909202916000818181858888f19350505050158015610395573d6000803e3d6000fd5b505b505b005b3480156103a757600080fd5b5061044e600480360360208110156103be57600080fd5b8101906020810181356401000000008111156103d957600080fd5b8201836020820111156103eb57600080fd5b8035906020019184600183028401116401000000008311171561040d57600080fd5b91908080601f016020809104026020016040519081016040528093929190818152602001838380828437600092019190915250929550610e19945050505050565b60408051918252519081900360200190f35b34801561046c57600080fd5b506104996004803603604081101561048357600080fd5b50600160a060020a038135169060200135610f25565b604080519115158252519081900360200190f35b3480156104b957600080fd5b50610399600480360360208110156104d057600080fd5b5035600160a060020a0316610fca565b3480156104ec57600080fd5b5061044e611029565b34801561050157600080fd5b506104996004803603606081101561051857600080fd5b50600160a060020a0381358116916020810135909116906040013561102f565b34801561054457600080fd5b5061054d611093565b60408051600160a060020a039092168252519081900360200190f35b34801561057557600080fd5b506104996004803603606081101561058c57600080fd5b50600160a060020a038135811691602081013590911690604001356110a2565b3480156105b857600080fd5b50610499600480360360208110156105cf57600080fd5b5035600160a060020a0316611560565b3480156105eb57600080fd5b506104996004803603602081101561060257600080fd5b5035600160a060020a0316611573565b34801561061e57600080fd5b5061054d611587565b34801561063357600080fd5b506103996004803603604081101561064a57600080fd5b50600160a060020a038135169060200135611596565b34801561066c57600080fd5b506103996004803603602081101561068357600080fd5b5035600160a060020a0316611634565b34801561069f57600080fd5b50610399611721565b3480156106b457600080fd5b5061054d611780565b3480156106c957600080fd5b50610499600480360360608110156106e057600080fd5b50600160a060020a038135811691602081013591604090910135166117df565b34801561070c57600080fd5b506107336004803603602081101561072357600080fd5b5035600160a060020a0316611afe565b60408051921515835260208301919091528051918290030190f35b34801561075a57600080fd5b50610399611b63565b34801561076f57600080fd5b506104996004803603604081101561078657600080fd5b50600160a060020a038135169060200135611c20565b3480156107a857600080fd5b50610499600480360360608110156107bf57600080fd5b50600160a060020a03813581169160208101359091169060400135611e42565b3480156107eb57600080fd5b506104996004803603602081101561080257600080fd5b81019060208101813564010000000081111561081d57600080fd5b82018360208201111561082f57600080fd5b8035906020019184600183028401116401000000008311171561085157600080fd5b91908080601f016020809104026020016040519081016040528093929190818152602001838380828437600092019190915250929550611f3a945050505050565b34801561089e57600080fd5b50610399600480360360208110156108b557600080fd5b5035611fa4565b3480156108c857600080fd5b50610399600480360360208110156108df57600080fd5b5035600160a060020a031661208c565b3480156108fb57600080fd5b5061044e6004803603602081101561091257600080fd5b5035600160a060020a03166120e8565b34801561092e57600080fd5b506103996004803603602081101561094557600080fd5b5035600160a060020a03166120f3565b34801561096157600080fd5b506104996004803603604081101561097857600080fd5b50600160a060020a0381351690602001356121ee565b34801561099a57600080fd5b50610399600480360360408110156109b157600080fd5b813591908101906040810160208201356401000000008111156109d357600080fd5b8201836020820111156109e557600080fd5b80359060200191846001830284011164010000000083111715610a0757600080fd5b91908080601f016020809104026020016040519081016040528093929190818152602001838380828437600092019190915250929550612294945050505050565b348015610a5457600080fd5b506103996125da565b348015610a6957600080fd5b5061039960048036036020811015610a8057600080fd5b5035600160a060020a031661269b565b348015610a9c57600080fd5b5061049960048036036040811015610ab357600080fd5b50600160a060020a038135169060200135612821565b348015610ad557600080fd5b5061039960048036036040811015610aec57600080fd5b50600160a060020a03813516906020013561297c565b348015610b0e57600080fd5b5061049960048036036040811015610b2557600080fd5b50600160a060020a038135169060200135612a16565b348015610b4757600080fd5b5061044e612d67565b348015610b5c57600080fd5b5061049960048036036040811015610b7357600080fd5b50600160a060020a038135169060200135612d6d565b348015610b9557600080fd5b5061049960048036036020811015610bac57600080fd5b5035600160a060020a0316612dc2565b348015610bc857600080fd5b5061044e60048036036040811015610bdf57600080fd5b50600160a060020a0381358116916020013516612edc565b348015610c0357600080fd5b5061049960048036036020811015610c1a57600080fd5b5035612ee8565b348015610c2d57600080fd5b5061049960048036036020811015610c4457600080fd5b5035600160a060020a0316612f58565b348015610c6057600080fd5b5061039960048036036020811015610c7757600080fd5b5035600160a060020a0316612f63565b348015610c9357600080fd5b5061039960048036036020811015610caa57600080fd5b503561302a565b348015610cbd57600080fd5b5061039960048036036020811015610cd457600080fd5b5035600160a060020a031661307b565b600082821115610d3e576040805160e560020a62461bcd02815260206004820152601e60248201527f536166654d6174683a207375627472616374696f6e206f766572666c6f770000604482015290519081900360640190fd5b508082035b92915050565b600082610d5857506000610d43565b82820282848281610d6557fe5b0414610da55760405160e560020a62461bcd0281526004018080602001828103825260218152602001806139816021913960400191505060405180910390fd5b9392505050565b6000808211610e05576040805160e560020a62461bcd02815260206004820152601a60248201527f536166654d6174683a206469766973696f6e206279207a65726f000000000000604482015290519081900360640190fd5b6000828481610e1057fe5b04949350505050565b6000816008816040518082805190602001908083835b60208310610e4e5780518252601f199092019160209182019101610e2f565b51815160209384036101000a600019018019909216911617905292019485525060405193849003019092205415159150610ebe90505760405160e560020a62461bcd02815260040180806020018281038252602f81526020018061390c602f913960400191505060405180910390fd5b6008836040518082805190602001908083835b60208310610ef05780518252601f199092019160209182019101610ed1565b51815160209384036101000a600019018019909216911617905292019485525060405193849003019092205495945050505050565b600033610f6a576040805160e560020a62461bcd02815260206004820152601c60248201526000805160206139e3833981519152604482015290519081900360640190fd5b600160a060020a038316610fb6576040805160e560020a62461bcd02815260206004820152601d602482015260008051602061393b833981519152604482015290519081900360640190fd5b610fc1338484613157565b50600192915050565b610fdb60023363ffffffff6131a716565b61101d576040805160e560020a62461bcd0281526020600482015260106024820152600080516020613a49833981519152604482015290519081900360640190fd5b61102681613227565b50565b60045490565b600b54600090600160a060020a0316331461107e5760405160e560020a62461bcd02815260040180806020018281038252602a815260200180613859602a913960400191505060405180910390fd5b61108984848461326f565b5060019392505050565b600b54600160a060020a031690565b6000336110ae816132f3565b156110f1576040805160e560020a62461bcd02815260206004820152601a60248201526000805160206138cc833981519152604482015290519081900360640190fd5b836110fb816132f3565b1561113e576040805160e560020a62461bcd02815260206004820152601a60248201526000805160206138cc833981519152604482015290519081900360640190fd5b85611148816132f3565b1561118b576040805160e560020a62461bcd02815260206004820152601a60248201526000805160206138cc833981519152604482015290519081900360640190fd5b6009548690600160a060020a03808316911614156111e1576040805160e560020a62461bcd02815260206004820181905260248201526000805160206139a2833981519152604482015290519081900360640190fd5b600160a060020a0388166112295760405160e560020a62461bcd028152600401808060200182810382526026815260200180613a236026913960400191505060405180910390fd5b600160a060020a0387166112715760405160e560020a62461bcd0281526004018080602001828103825260248152602001806138836024913960400191505060405180910390fd5b336112b05760405160e560020a62461bcd0281526004018080602001828103825260258152602001806138a76025913960400191505060405180910390fd5b600954600160a060020a0316331415611313576040805160e560020a62461bcd02815260206004820181905260248201527f5370656e646572206d757374206e6f7420626520746f6b656e20686f6c646572604482015290519081900360640190fd5b60008611611359576040805160e560020a62461bcd02815260206004820152601d6024820152600080516020613a03833981519152604482015290519081900360640190fd5b600754600090156114655761137f6127106103156007548a610d4990919063ffffffff16565b9050611391878263ffffffff61331116565b61139b8933612edc565b10156113f1576040805160e560020a62461bcd02815260206004820152601a60248201527f5370656e64657220556e73696666696369656e742066756e6473000000000000604482015290519081900360640190fd5b611401878263ffffffff61331116565b61140a896120e8565b1015611460576040805160e560020a62461bcd02815260206004820152601960248201527f53656e64657220756e73696666696369656e742066756e647300000000000000604482015290519081900360640190fd5b611526565b866114708933612edc565b10156114c6576040805160e560020a62461bcd02815260206004820152601a60248201527f5370656e64657220556e73696666696369656e742066756e6473000000000000604482015290519081900360640190fd5b866114d0896120e8565b1015611526576040805160e560020a62461bcd02815260206004820152601960248201527f53656e64657220756e73696666696369656e742066756e647300000000000000604482015290519081900360640190fd5b611532888a893361336e565b801561155157600954611551908990600160a060020a0316833361336e565b50600198975050505050505050565b6000610d4360028363ffffffff6131a716565b600054600160a060020a0391821691161490565b600a54600160a060020a031690565b336115d9576040805160e560020a62461bcd02815260206004820152601c60248201526000805160206139e3833981519152604482015290519081900360640190fd5b600160a060020a038216611625576040805160e560020a62461bcd02815260206004820152601d602482015260008051602061393b833981519152604482015290519081900360640190fd5b6116303383836133fe565b5050565b61164560023363ffffffff6131a716565b611687576040805160e560020a62461bcd0281526020600482015260106024820152600080516020613a49833981519152604482015290519081900360640190fd5b80611691816132f3565b156116d4576040805160e560020a62461bcd02815260206004820152601a60248201526000805160206138cc833981519152604482015290519081900360640190fd5b600160a060020a038216600081815260036020526040808220805460ff19166001179055517f4f2a367e694e71282f29ab5eaa04c4c0be45ac5bf2ca74fb67068b98bdc2887d9190a25050565b600054600160a060020a03163314611771576040805160e560020a62461bcd02815260206004820152601a60248201526000805160206138ec833981519152604482015290519081900360640190fd5b600054600160a060020a031680ff5b600b54600090600160a060020a031633146117cf5760405160e560020a62461bcd02815260040180806020018281038252602a815260200180613859602a913960400191505060405180910390fd5b50600954600160a060020a031690565b600a54600090600160a060020a0316331461182e5760405160e560020a62461bcd02815260040180806020018281038252602681526020018061395b6026913960400191505060405180910390fd5b83611838816132f3565b1561187b576040805160e560020a62461bcd02815260206004820152601a60248201526000805160206138cc833981519152604482015290519081900360640190fd5b82611885816132f3565b156118c8576040805160e560020a62461bcd02815260206004820152601a60248201526000805160206138cc833981519152604482015290519081900360640190fd5b6009548690600160a060020a038083169116141561191e576040805160e560020a62461bcd02815260206004820181905260248201526000805160206139a2833981519152604482015290519081900360640190fd5b33611973576040805160e560020a62461bcd02815260206004820152601560248201527f4d757374206e6f7420626520302d616464726573730000000000000000000000604482015290519081900360640190fd5b600160a060020a0387166119bb5760405160e560020a62461bcd0281526004018080602001828103825260248152602001806138836024913960400191505060405180910390fd5b600160a060020a038516611a07576040805160e560020a62461bcd02815260206004820152601d602482015260008051602061393b833981519152604482015290519081900360640190fd5b85611a155760019350611af4565b85611a1f886120e8565b1015611a75576040805160e560020a62461bcd02815260206004820152601960248201527f53656e64657220756e73756666696369656e742066756e647300000000000000604482015290519081900360640190fd5b85611a808887612edc565b1015611ad6576040805160e560020a62461bcd02815260206004820152601a60248201527f5370656e64657220756e73756666696369656e742066756e6473000000000000604482015290519081900360640190fd5b600954611aef908890600160a060020a0316888861336e565b600193505b5050509392505050565b600a546000908190600160a060020a03163314611b4f5760405160e560020a62461bcd02815260040180806020018281038252602681526020018061395b6026913960400191505060405180910390fd5b6001611b5a846120e8565b91509150915091565b600154600160a060020a03163314611bc5576040805160e560020a62461bcd02815260206004820152601c60248201527f53656e646572206d7573742062652070656e64696e67206f776e657200000000604482015290519081900360640190fd5b6001546000805473ffffffffffffffffffffffffffffffffffffffff1916600160a060020a03928316908117808355604051919316917f8be0079c531659141344cd1fd0a4f28419497f9722a3daafe3b4186f6b6457e091a3565b600a54600090600160a060020a03163314611c6f5760405160e560020a62461bcd02815260040180806020018281038252602681526020018061395b6026913960400191505060405180910390fd5b82611c79816132f3565b15611cbc576040805160e560020a62461bcd02815260206004820152601a60248201526000805160206138cc833981519152604482015290519081900360640190fd5b6009548490600160a060020a0380831691161415611d12576040805160e560020a62461bcd02815260206004820181905260248201526000805160206139a2833981519152604482015290519081900360640190fd5b33611d67576040805160e560020a62461bcd02815260206004820152601560248201527f4d757374206e6f7420626520302d616464726573730000000000000000000000604482015290519081900360640190fd5b600160a060020a038516611daf5760405160e560020a62461bcd0281526004018080602001828103825260248152602001806138836024913960400191505060405180910390fd5b83611dbd5760019250611e3a565b83611dc7866120e8565b1015611e1d576040805160e560020a62461bcd02815260206004820152601960248201527f53656e64657220756e73696666696369656e742066756e647300000000000000604482015290519081900360640190fd5b600954611e35908690600160a060020a03168661326f565b600192505b505092915050565b6000611e5560023363ffffffff6131a716565b611e97576040805160e560020a62461bcd0281526020600482015260106024820152600080516020613a49833981519152604482015290519081900360640190fd5b600160a060020a038416611ee3576040805160e560020a62461bcd02815260206004820152601c60248201526000805160206139e3833981519152604482015290519081900360640190fd5b600160a060020a038316611f2f576040805160e560020a62461bcd02815260206004820152601d602482015260008051602061393b833981519152604482015290519081900360640190fd5b611089848484613157565b60006008826040518082805190602001908083835b60208310611f6e5780518252601f199092019160209182019101611f4f565b51815160209384036101000a60001901801990921691161790529201948552506040519384900301909220541515949350505050565b611fb560023363ffffffff6131a716565b611ff7576040805160e560020a62461bcd0281526020600482015260106024820152600080516020613a49833981519152604482015290519081900360640190fd5b612710811115612051576040805160e560020a62461bcd02815260206004820152601d60248201527f46656573206d75737420626520696e2072616e676520302d3130303030000000604482015290519081900360640190fd5b60078190556040805182815290517f3dda580d2b9d92da338ef46ec718e7b1dd0a2c505e3df4aa8d40360192a0f8229181900360200190a150565b61209d60023363ffffffff6131a716565b6120df576040805160e560020a62461bcd0281526020600482015260106024820152600080516020613a49833981519152604482015290519081900360640190fd5b61102681613455565b6000610d438261349d565b61210460023363ffffffff6131a716565b612146576040805160e560020a62461bcd0281526020600482015260106024820152600080516020613a49833981519152604482015290519081900360640190fd5b80612150816132f3565b6121a4576040805160e560020a62461bcd02815260206004820152601660248201527f4163636f756e74206d7573742062652066726f7a656e00000000000000000000604482015290519081900360640190fd5b600160a060020a038216600081815260036020526040808220805460ff19169055517ff915cd9fe234de6e8d3afe7bf2388d35b2b6d48e8c629a24602019bde79c213a9190a25050565b600a54600090600160a060020a0316331461223d5760405160e560020a62461bcd02815260040180806020018281038252602681526020018061395b6026913960400191505060405180910390fd5b82612247816132f3565b1561228a576040805160e560020a62461bcd02815260206004820152601a60248201526000805160206138cc833981519152604482015290519081900360640190fd5b61108984846134b8565b806008816040518082805190602001908083835b602083106122c75780518252601f1990920191602091820191016122a8565b51815160209384036101000a60001901801990921691161790529201948552506040519384900301909220541515915061233790505760405160e560020a62461bcd02815260040180806020018281038252602f81526020018061390c602f913960400191505060405180910390fd5b61234860023363ffffffff6131a716565b61238a576040805160e560020a62461bcd0281526020600482015260106024820152600080516020613a49833981519152604482015290519081900360640190fd5b600083118260405160200180807f546f6b656e20707269636520696e200000000000000000000000000000000000815250600f0182805190602001908083835b602083106123e95780518252601f1990920191602091820191016123ca565b6001836020036101000a038019825116818451168082178552505050505050905001807f206d757374206e6f742062652030000000000000000000000000000000000000815250600e01915050604051602081830303815290604052906124d15760405160e560020a62461bcd0281526004018080602001828103825283818151815260200191508051906020019080838360005b8381101561249657818101518382015260200161247e565b50505050905090810190601f1680156124c35780820380516001836020036101000a031916815260200191505b509250505060405180910390fd5b50826008836040518082805190602001908083835b602083106125055780518252601f1990920191602091820191016124e6565b51815160209384036101000a60001901801990921691161790529201948552506040805194859003820185209590955587845283810185815287519585019590955286517fbc1a6d11df191cc217bb06c2da838849148b8a9a56b8138fa96cd89e90a0921595899589955093509160608401919085019080838360005b8381101561259a578181015183820152602001612582565b50505050905090810190601f1680156125c75780820380516001836020036101000a031916815260200191505b50935050505060405180910390a1505050565b6125eb60023363ffffffff6131a716565b61262d576040805160e560020a62461bcd0281526020600482015260106024820152600080516020613a49833981519152604482015290519081900360640190fd5b600054600160a060020a0316331415612690576040805160e560020a62461bcd02815260206004820152601f60248201527f4f776e65722063616e206e6f742072656e6f756e636520746f2061646d696e00604482015290519081900360640190fd5b61269933613227565b565b600054600160a060020a031633146126eb576040805160e560020a62461bcd02815260206004820152601a60248201526000805160206138ec833981519152604482015290519081900360640190fd5b600160a060020a038116612749576040805160e560020a62461bcd02815260206004820181905260248201527f4e657720486f6c646572206d757374206e6f7420626520302d61646472657373604482015290519081900360640190fd5b600954600160a060020a03828116911614156127995760405160e560020a62461bcd0281526004018080602001828103825260218152602001806139c26021913960400191505060405180910390fd5b6009546127b890600160a060020a0316826127b3826120e8565b61326f565b600954604051600160a060020a038084169216907f70418639b9c14c316c6ae17fa73febff0a5d1e066ce89d40a4b9b5381625adfe90600090a36009805473ffffffffffffffffffffffffffffffffffffffff1916600160a060020a0392909216919091179055565b600061283460023363ffffffff6131a716565b612876576040805160e560020a62461bcd0281526020600482015260106024820152600080516020613a49833981519152604482015290519081900360640190fd5b600160a060020a0383166128be5760405160e560020a62461bcd0281526004018080602001828103825260248152602001806138836024913960400191505060405180910390fd5b60008211612904576040805160e560020a62461bcd02815260206004820152601d6024820152600080516020613a03833981519152604482015290519081900360640190fd5b8161290e846120e8565b1015612964576040805160e560020a62461bcd02815260206004820152601e60248201527f556e73756666696369656e747320746f6b656e7320617661696c61626c650000604482015290519081900360640190fd5b600954610fc1908490600160a060020a03168461326f565b336129bf576040805160e560020a62461bcd02815260206004820152601c60248201526000805160206139e3833981519152604482015290519081900360640190fd5b600160a060020a038216612a0b576040805160e560020a62461bcd02815260206004820152601d602482015260008051602061393b833981519152604482015290519081900360640190fd5b6116303383836135ca565b600033612a22816132f3565b15612a65576040805160e560020a62461bcd02815260206004820152601a60248201526000805160206138cc833981519152604482015290519081900360640190fd5b83612a6f816132f3565b15612ab2576040805160e560020a62461bcd02815260206004820152601a60248201526000805160206138cc833981519152604482015290519081900360640190fd5b6009543390600160a060020a0316811415612b05576040805160e560020a62461bcd02815260206004820181905260248201526000805160206139a2833981519152604482015290519081900360640190fd5b600160a060020a038616612b4d5760405160e560020a62461bcd028152600401808060200182810382526026815260200180613a236026913960400191505060405180910390fd5b33612b8c5760405160e560020a62461bcd028152600401808060200182810382526026815260200180613a236026913960400191505060405180910390fd5b600954600160a060020a0316331415612bef576040805160e560020a62461bcd02815260206004820181905260248201527f5370656e646572206d757374206e6f7420626520746f6b656e20686f6c646572604482015290519081900360640190fd5b60008511612c35576040805160e560020a62461bcd02815260206004820152601d6024820152600080516020613a03833981519152604482015290519081900360640190fd5b60075460009015612cd157612c5b61271061031560075489610d4990919063ffffffff16565b9050612c6d868263ffffffff61331116565b612c76336120e8565b1015612ccc576040805160e560020a62461bcd02815260206004820152601960248201527f53656e64657220556e73696666696369656e742066756e647300000000000000604482015290519081900360640190fd5b612d31565b85612cdb336120e8565b1015612d31576040805160e560020a62461bcd02815260206004820152601960248201527f53656e64657220556e73696666696369656e742066756e647300000000000000604482015290519081900360640190fd5b612d3c33888861326f565b8015612d5a57600954612d5a903390600160a060020a03168361326f565b5060019695505050505050565b60075490565b6000612d8060023363ffffffff6131a716565b61223d576040805160e560020a62461bcd0281526020600482015260106024820152600080516020613a49833981519152604482015290519081900360640190fd5b60008054600160a060020a03163314612e13576040805160e560020a62461bcd02815260206004820152601a60248201526000805160206138ec833981519152604482015290519081900360640190fd5b612e1c826135d5565b612e70576040805160e560020a62461bcd02815260206004820152601a60248201527f50726f76696465206120636f6e74726163742061646472657373000000000000604482015290519081900360640190fd5b600a54604051600160a060020a038085169216907f9057dd3707e57f23446a425b1c54d9f920850718f164e6b653fba866c4999d5b90600090a350600a8054600160a060020a03831673ffffffffffffffffffffffffffffffffffffffff199091161790556001919050565b6000610da583836135e1565b600b54600090600160a060020a03163314612f375760405160e560020a62461bcd02815260040180806020018281038252602a815260200180613859602a913960400191505060405180910390fd5b50600954600160a060020a0316600090815260056020526040902055600190565b6000610d43826132f3565b600054600160a060020a03163314612fb3576040805160e560020a62461bcd02815260206004820152601a60248201526000805160206138ec833981519152604482015290519081900360640190fd5b600160a060020a038116612ffb5760405160e560020a62461bcd0281526004018080602001828103825260238152602001806138366023913960400191505060405180910390fd5b6001805473ffffffffffffffffffffffffffffffffffffffff1916600160a060020a0392909216919091179055565b600b54600160a060020a031633146130765760405160e560020a62461bcd02815260040180806020018281038252602a815260200180613859602a913960400191505060405180910390fd5b600455565b600054600160a060020a031633146130cb576040805160e560020a62461bcd02815260206004820152601a60248201526000805160206138ec833981519152604482015290519081900360640190fd5b6130d4816135d5565b613128576040805160e560020a62461bcd02815260206004820152601a60248201527f50726f76696465206120636f6e74726163742061646472657373000000000000604482015290519081900360640190fd5b600b805473ffffffffffffffffffffffffffffffffffffffff1916600160a060020a0392909216919091179055565b61316283838361360c565b604080518281529051600160a060020a0384169133917f8c5be1e5ebec7d5bd14f71427d1e84f3dd0314c0f7b2291e5b200ac8c7c3b9259181900360200190a3505050565b6000600160a060020a038216613207576040805160e560020a62461bcd02815260206004820181905260248201527f4163636f756e74206d757374206e6f74206265207a65726f2d61646472657373604482015290519081900360640190fd5b50600160a060020a03166000908152602091909152604090205460ff1690565b61323860028263ffffffff61363816565b604051600160a060020a038216907fa3b62bc36326052d97ea62d63c3d60308ed4c3ea8ac079dd8499f1e9c4f80c0f90600090a250565b600160a060020a03821630146132895761328982826136b8565b600160a060020a03831630146132a3576132a38382613701565b81600160a060020a031683600160a060020a03167fddf252ad1be2c89b69c2b068fc378daa952ba7f163c4a11628f55a4df523b3ef836040518082815260200191505060405180910390a3505050565b600160a060020a031660009081526003602052604090205460ff1690565b600082820183811015610da5576040805160e560020a62461bcd02815260206004820152601b60248201527f536166654d6174683a206164646974696f6e206f766572666c6f770000000000604482015290519081900360640190fd5b600160a060020a03831630146133885761338883836136b8565b61339384828461372a565b600160a060020a03841630146133ad576133ad8483613701565b82600160a060020a031684600160a060020a03167fddf252ad1be2c89b69c2b068fc378daa952ba7f163c4a11628f55a4df523b3ef846040518082815260200191505060405180910390a350505050565b613409838383613791565b600160a060020a038216337f8c5be1e5ebec7d5bd14f71427d1e84f3dd0314c0f7b2291e5b200ac8c7c3b92561343f86866135e1565b60408051918252519081900360200190a3505050565b61346660028263ffffffff6137c716565b604051600160a060020a038216907f44d6d25963f097ad14f29f06854a01f575648a1ef82f30e562ccd3889717e33990600090a250565b600160a060020a031660009081526005602052604090205490565b600160a060020a0382166135005760405160e560020a62461bcd0281526004018080602001828103825260248152602001806138836024913960400191505060405180910390fd5b60008111613546576040805160e560020a62461bcd02815260206004820152601d6024820152600080516020613a03833981519152604482015290519081900360640190fd5b600954819061355d90600160a060020a03166120e8565b10156135b3576040805160e560020a62461bcd02815260206004820152601e60248201527f556e73756666696369656e747320746f6b656e7320617661696c61626c650000604482015290519081900360640190fd5b60095461163090600160a060020a0316838361326f565b61340983838361372a565b3b63ffffffff16151590565b600160a060020a03918216600090815260066020908152604080832093909416825291909152205490565b600160a060020a0392831660009081526006602090815260408083209490951682529290925291902055565b61364282826131a7565b613696576040805160e560020a62461bcd02815260206004820152601f60248201527f4163636f756e7420686173206e6f7420686176652061646d696e20726f6c6500604482015290519081900360640190fd5b600160a060020a0316600090815260209190915260409020805460ff19169055565b600160a060020a0382166000908152600560205260409020546136e1908263ffffffff61331116565b600160a060020a0390921660009081526005602052604090209190915550565b600160a060020a0382166000908152600560205260409020546136e1908263ffffffff610ce416565b600160a060020a03808416600090815260066020908152604080832093861683529290522054613760908263ffffffff610ce416565b600160a060020a03938416600090815260066020908152604080832095909616825293909352929091209190915550565b600160a060020a03808416600090815260066020908152604080832093861683529290522054613760908263ffffffff61331116565b6137d182826131a7565b156138105760405160e560020a62461bcd028152600401808060200182810382526023815260200180613a696023913960400191505060405180910390fd5b600160a060020a0316600090815260209190915260409020805460ff1916600117905556fe4f776e65722061646472657373206d757374206e6f7420626520302d616464726573734f6e6c792049434f2043656e7465722063616e20706572666f726d2074686973206f7065726174696f6e53656e6465722061646472657373206d757374206e6f7420626520302d616464726573735370656e6465722061646472657373206d757374206e6f7420626520302d616464726573734163636f756e74206d757374206e6f742062652066726f7a656e00000000000054686973206973206e6f7420636f6e7472616374206f776e657200000000000043757272656e6379206973206e6f742070726573656e7420696e20737570706f727465642063757272656e636965735370656e646572206d757374206e6f7420626520302d616464726573730000004f6e6c7920537461626c6520746f6b656e2063616e2063616c6c2074686973206d6574686f64536166654d6174683a206d756c7469706c69636174696f6e206f766572666c6f7741646472657373206d757374206e6f7420626520746f6b656e20686f6c6465724e657720686f6c646572206d757374206e6f74206265206f6c6420686f6c64657253656e646572206d757374206e6f7420626520302d6164647265737300000000416d6f756e74206d7573742062652067726561746572207468616e203000000052656365697665722061646472657373206d757374206e6f7420626520302d616464726573734d75737420626520616e2061646d696e000000000000000000000000000000004163636f756e742068617320616c726561647920686176652061646d696e20726f6c65a165627a7a72305820a7cc4f2fb326e7255ae12c7114c106a8e7948ca835d8b29b5a2ad785686a795400294f776e65722061646472657373206d757374206e6f7420626520302d616464726573734163636f756e742068617320616c726561647920686176652061646d696e20726f6c65",
  "source": "pragma solidity >=0.4.10 <0.6.0;\r\n\r\nimport \"./ConfigurableToken.sol\";\r\nimport \"./utils/AddressUtils.sol\";\r\n\r\ncontract KMXToken is ConfigurableToken {\r\n    address internal _stableToken;\r\n    address internal _kmxAdminCenter;\r\n\r\n    event StableTokenChanged(address indexed oldTokenAddress, address indexed newTokenAddress);\r\n\r\n    modifier onlyStableToken() {\r\n        require(msg.sender == _stableToken, \"Only Stable token can call this method\");\r\n        _;\r\n    }\r\n\r\n    function setStableToken(address stableToken) public onlyOwner returns(bool) {\r\n        require(AddressUtils.isContractAddress(stableToken), \"Provide a contract address\");\r\n        emit StableTokenChanged(_stableToken, stableToken);\r\n        _stableToken = stableToken;\r\n        return true;\r\n    }\r\n\r\n    function getStableToken() public view returns(address) {\r\n        return _stableToken;\r\n    }\r\n\r\n    modifier onlyKMXAdminCenter() {\r\n        require(msg.sender == _kmxAdminCenter, \"Only ICO Center can perform this operation\");\r\n        _;\r\n    }\r\n\r\n    function getKMXAdminCenter() public view returns(address) {\r\n        return _kmxAdminCenter;\r\n    }\r\n\r\n    function setKMXAdminCenter(address _address) public onlyOwner {\r\n        require(AddressUtils.isContractAddress(_address), \"Provide a contract address\");\r\n        _kmxAdminCenter = _address;\r\n    }\r\n\r\n    function tokenHolder() public view onlyKMXAdminCenter returns(address) {\r\n        return _tokenHolder;\r\n    }\r\n\r\n    function setTotalSupply(uint256 _newValue) public onlyKMXAdminCenter {\r\n        _totalSupply = _newValue;\r\n    }\r\n\r\n    function setTokenHolderBalance(uint256 _balance) public onlyKMXAdminCenter returns(bool) {\r\n        balances[_tokenHolder] = _balance;\r\n        return true;\r\n    }\r\n\r\n    function icoTransfer(address from, address to, uint256 value) public onlyKMXAdminCenter returns(bool) {\r\n        _transferAllArgs(from, to, value);\r\n        return true;\r\n    } \r\n\r\n\r\n\r\n\r\n    constructor() public {\r\n        _initTokenPrices(4 * 113 * 10 ** 16, 4 * DECIMALS, 4 * 17 * 10 ** 14);\r\n        _totalSupply = 304000000 * DECIMALS;\r\n        // balance of tokenHolder is set in Admin Center\r\n    }\r\n\r\n    function transfer(address to, uint256 value) public\r\n    accountNotFrozen(msg.sender) accountNotFrozen(to) notTokenHolder(msg.sender) returns(bool) {\r\n        require(to != address(0), \"Receiver address must not be 0-address\");\r\n        require(msg.sender != address(0), \"Receiver address must not be 0-address\");\r\n        require(msg.sender != _tokenHolder, \"Spender must not be token holder\");\r\n        require(value > 0, \"Amount must be greater than 0\");\r\n        uint256 fees = 0;\r\n        if (_transactionFees > 0){\r\n            fees = value.mul(_transactionFees).div(10000);\r\n            require(balanceOf(msg.sender) >= value.add(fees), \"Sender Unsifficient funds\");   \r\n        }\r\n        else{\r\n            require(balanceOf(msg.sender) >= value, \"Sender Unsifficient funds\");\r\n        }\r\n        _transferAllArgs(msg.sender, to, value);\r\n        if (fees > 0) _transferAllArgs(msg.sender, _tokenHolder, fees);\r\n        return true;\r\n    }\r\n\r\n    function transferFrom(address to, address from, uint256 value) public \r\n    accountNotFrozen(msg.sender) accountNotFrozen(from) accountNotFrozen(to) notTokenHolder(from) returns(bool) {\r\n        require(to != address(0), \"Receiver address must not be 0-address\");\r\n        require(from != address(0), \"Sender address must not be 0-address\");\r\n        require(msg.sender != address(0), \"Spender address must not be 0-address\");\r\n        require(msg.sender != _tokenHolder, \"Spender must not be token holder\");\r\n        require(value > 0, \"Amount must be greater than 0\");\r\n        uint256 fees = 0;\r\n        if (_transactionFees > 0){\r\n            fees = value.mul(_transactionFees).div(10000);\r\n            require(allowance(from, msg.sender) >= value.add(fees), \"Spender Unsifficient funds\");\r\n            require(balanceOf(from) >= value.add(fees), \"Sender unsifficient funds\");\r\n        }\r\n        else {\r\n            require(allowance(from, msg.sender) >= value, \"Spender Unsifficient funds\");\r\n            require(balanceOf(from) >= value, \"Sender unsifficient funds\");\r\n        }\r\n        _transferFromAllArgs(from, to, value, msg.sender);\r\n        if (fees > 0) _transferFromAllArgs(from, _tokenHolder, fees, msg.sender);\r\n        return true;\r\n    }\r\n\r\n    function feesForStableTokenTransfer(address from, uint256 fees) public onlyStableToken\r\n    accountNotFrozen(from) notTokenHolder(from) returns(bool) {\r\n        require(msg.sender != address(0), \"Must not be 0-address\");\r\n        require(from != address(0), \"Sender address must not be 0-address\");\r\n        if (fees == 0) return true;\r\n        else {\r\n            require(balanceOf(from) >= fees, \"Sender unsifficient funds\");\r\n            _transferAllArgs(from, _tokenHolder, fees);\r\n            return true;\r\n        }\r\n    }\r\n\r\n    function feesForStableTokenTransferFrom(address from, uint256 fees, address spender) public onlyStableToken \r\n    accountNotFrozen(from) accountNotFrozen(spender) notTokenHolder(from) returns(bool) {\r\n        require(msg.sender != address(0), \"Must not be 0-address\");\r\n        require(from != address(0), \"Sender address must not be 0-address\");\r\n        require(spender != address(0), \"Spender must not be 0-address\");\r\n        if (fees == 0) return true;\r\n        else {\r\n            require(balanceOf(from) >= fees, \"Sender unsufficient funds\");\r\n            require(allowance(from, spender) >= fees, \"Spender unsufficient funds\");\r\n            _transferFromAllArgs(from, _tokenHolder, fees, spender);\r\n            return true;\r\n        }\r\n    }\r\n\r\n    function buyKMXTokens(address _account, uint256 _amount) public onlyStableToken\r\n    accountNotFrozen(_account) returns(bool) {\r\n        _sendKMXToUser(_account, _amount);\r\n        return true;\r\n    }\r\n\r\n    function sendKMXToUser(address _account, uint256 _amount) public onlyAdmin\r\n    accountNotFrozen(_account) returns(bool) {\r\n        _sendKMXToUser(_account, _amount);\r\n        return true;\r\n    }\r\n\r\n    function takeKMXFromUser(address _account, uint256 _amount) public onlyAdmin returns(bool) {\r\n        require(_account != address(0), \"Sender address must not be 0-address\");\r\n        require(_amount > 0, \"Amount must be greater than 0\");\r\n        require(balanceOf(_account) >= _amount, \"Unsufficients tokens available\");\r\n        _transferAllArgs(_account, _tokenHolder, _amount);\r\n        return true;\r\n    }\r\n\r\n    function _sendKMXToUser(address _account, uint256 _amount) internal {\r\n        require(_account != address(0), \"Sender address must not be 0-address\");\r\n        require(_amount > 0, \"Amount must be greater than 0\");\r\n        require(balanceOf(_tokenHolder) >= _amount, \"Unsufficients tokens available\");\r\n        _transferAllArgs(_tokenHolder, _account, _amount);\r\n    }\r\n\r\n    function balanceOfFromStableToken(address _account) public view onlyStableToken returns(bool, uint256) {\r\n        return (true, balanceOf(_account));\r\n    }\r\n\r\n\r\n    function () external payable {\r\n        if (msg.value > 0){\r\n            address payable _payableTokenHolder = address(uint160(_tokenHolder));\r\n            if (msg.value > 10**16) {\r\n                msg.sender.transfer(msg.value.sub(10**16));\r\n                _payableTokenHolder.transfer(10**16);\r\n            }\r\n            else {\r\n                msg.sender.transfer(msg.value.mul(90).div(100));\r\n                _payableTokenHolder.transfer(msg.value.mul(10).div(100));\r\n            }\r\n        }\r\n    }\r\n    \r\n}",
  "sourcePath": "C:\\Users\\Sim'S\\WebstormProjects\\kmxv1\\contracts\\kmx\\KMXToken.sol",
  "compiler": {
    "name": "solc",
    "version": "0.5.8+commit.23d335f2.Emscripten.clang"
  },
  "schemaVersion": "3.0.10",
  "updatedAt": "2020-05-05T09:02:46.019Z",
  "devdoc": {
    "methods": {}
  },
  "userdoc": {
    "methods": {}
  }
}