{
  "contractName": "KMXToken",
  "abi": [
    {
      "constant": true,
      "inputs": [
        {
          "name": "_currency",
          "type": "string"
        }
      ],
      "name": "tokenPrice",
      "outputs": [
        {
          "name": "",
          "type": "uint256"
        }
      ],
      "payable": false,
      "stateMutability": "view",
      "type": "function"
    },
    {
      "constant": false,
      "inputs": [
        {
          "name": "spender",
          "type": "address"
        },
        {
          "name": "value",
          "type": "uint256"
        }
      ],
      "name": "approve",
      "outputs": [
        {
          "name": "",
          "type": "bool"
        }
      ],
      "payable": false,
      "stateMutability": "nonpayable",
      "type": "function"
    },
    {
      "constant": false,
      "inputs": [
        {
          "name": "admin",
          "type": "address"
        }
      ],
      "name": "removeAdmin",
      "outputs": [],
      "payable": false,
      "stateMutability": "nonpayable",
      "type": "function"
    },
    {
      "constant": true,
      "inputs": [],
      "name": "totalSupply",
      "outputs": [
        {
          "name": "",
          "type": "uint256"
        }
      ],
      "payable": false,
      "stateMutability": "view",
      "type": "function"
    },
    {
      "constant": true,
      "inputs": [
        {
          "name": "account",
          "type": "address"
        }
      ],
      "name": "isAdmin",
      "outputs": [
        {
          "name": "",
          "type": "bool"
        }
      ],
      "payable": false,
      "stateMutability": "view",
      "type": "function"
    },
    {
      "constant": true,
      "inputs": [
        {
          "name": "_address",
          "type": "address"
        }
      ],
      "name": "isOwner",
      "outputs": [
        {
          "name": "",
          "type": "bool"
        }
      ],
      "payable": false,
      "stateMutability": "view",
      "type": "function"
    },
    {
      "constant": false,
      "inputs": [
        {
          "name": "spender",
          "type": "address"
        },
        {
          "name": "value",
          "type": "uint256"
        }
      ],
      "name": "increaseAllowance",
      "outputs": [],
      "payable": false,
      "stateMutability": "nonpayable",
      "type": "function"
    },
    {
      "constant": false,
      "inputs": [
        {
          "name": "_account",
          "type": "address"
        }
      ],
      "name": "frozeAccount",
      "outputs": [],
      "payable": false,
      "stateMutability": "nonpayable",
      "type": "function"
    },
    {
      "constant": false,
      "inputs": [],
      "name": "kill",
      "outputs": [],
      "payable": false,
      "stateMutability": "nonpayable",
      "type": "function"
    },
    {
      "constant": false,
      "inputs": [],
      "name": "claimOwnership",
      "outputs": [],
      "payable": false,
      "stateMutability": "nonpayable",
      "type": "function"
    },
    {
      "constant": true,
      "inputs": [
        {
          "name": "_currency",
          "type": "string"
        }
      ],
      "name": "validCurrency",
      "outputs": [
        {
          "name": "",
          "type": "bool"
        }
      ],
      "payable": false,
      "stateMutability": "view",
      "type": "function"
    },
    {
      "constant": false,
      "inputs": [
        {
          "name": "_fees",
          "type": "uint256"
        }
      ],
      "name": "changeFees",
      "outputs": [],
      "payable": false,
      "stateMutability": "nonpayable",
      "type": "function"
    },
    {
      "constant": false,
      "inputs": [
        {
          "name": "admin",
          "type": "address"
        }
      ],
      "name": "addAdmin",
      "outputs": [],
      "payable": false,
      "stateMutability": "nonpayable",
      "type": "function"
    },
    {
      "constant": true,
      "inputs": [
        {
          "name": "account",
          "type": "address"
        }
      ],
      "name": "balanceOf",
      "outputs": [
        {
          "name": "",
          "type": "uint256"
        }
      ],
      "payable": false,
      "stateMutability": "view",
      "type": "function"
    },
    {
      "constant": false,
      "inputs": [
        {
          "name": "_account",
          "type": "address"
        }
      ],
      "name": "unfrozeAccount",
      "outputs": [],
      "payable": false,
      "stateMutability": "nonpayable",
      "type": "function"
    },
    {
      "constant": false,
      "inputs": [
        {
          "name": "_price",
          "type": "uint256"
        },
        {
          "name": "_currency",
          "type": "string"
        }
      ],
      "name": "changePrice",
      "outputs": [],
      "payable": false,
      "stateMutability": "nonpayable",
      "type": "function"
    },
    {
      "constant": false,
      "inputs": [],
      "name": "renounceAdmin",
      "outputs": [],
      "payable": false,
      "stateMutability": "nonpayable",
      "type": "function"
    },
    {
      "constant": false,
      "inputs": [
        {
          "name": "_newHolder",
          "type": "address"
        }
      ],
      "name": "changeTokenHolder",
      "outputs": [],
      "payable": false,
      "stateMutability": "nonpayable",
      "type": "function"
    },
    {
      "constant": false,
      "inputs": [
        {
          "name": "spender",
          "type": "address"
        },
        {
          "name": "value",
          "type": "uint256"
        }
      ],
      "name": "decreaseAllowance",
      "outputs": [],
      "payable": false,
      "stateMutability": "nonpayable",
      "type": "function"
    },
    {
      "constant": true,
      "inputs": [],
      "name": "transactionFees",
      "outputs": [
        {
          "name": "",
          "type": "uint256"
        }
      ],
      "payable": false,
      "stateMutability": "view",
      "type": "function"
    },
    {
      "constant": true,
      "inputs": [
        {
          "name": "owner",
          "type": "address"
        },
        {
          "name": "spender",
          "type": "address"
        }
      ],
      "name": "allowance",
      "outputs": [
        {
          "name": "",
          "type": "uint256"
        }
      ],
      "payable": false,
      "stateMutability": "view",
      "type": "function"
    },
    {
      "constant": true,
      "inputs": [
        {
          "name": "_account",
          "type": "address"
        }
      ],
      "name": "isAccountFrozen",
      "outputs": [
        {
          "name": "",
          "type": "bool"
        }
      ],
      "payable": false,
      "stateMutability": "view",
      "type": "function"
    },
    {
      "constant": false,
      "inputs": [
        {
          "name": "newOwner",
          "type": "address"
        }
      ],
      "name": "transferOwnership",
      "outputs": [],
      "payable": false,
      "stateMutability": "nonpayable",
      "type": "function"
    },
    {
      "inputs": [],
      "payable": false,
      "stateMutability": "nonpayable",
      "type": "constructor"
    },
    {
      "payable": true,
      "stateMutability": "payable",
      "type": "fallback"
    },
    {
      "anonymous": false,
      "inputs": [
        {
          "indexed": true,
          "name": "oldTokenAddress",
          "type": "address"
        },
        {
          "indexed": true,
          "name": "newTokenAddress",
          "type": "address"
        }
      ],
      "name": "StableTokenChanged",
      "type": "event"
    },
    {
      "anonymous": false,
      "inputs": [
        {
          "indexed": true,
          "name": "oldTokenHolder",
          "type": "address"
        },
        {
          "indexed": true,
          "name": "newTokenHolder",
          "type": "address"
        }
      ],
      "name": "TokenHolderChanged",
      "type": "event"
    },
    {
      "anonymous": false,
      "inputs": [
        {
          "indexed": false,
          "name": "newPrice",
          "type": "uint256"
        },
        {
          "indexed": false,
          "name": "currency",
          "type": "string"
        }
      ],
      "name": "PriceChanged",
      "type": "event"
    },
    {
      "anonymous": false,
      "inputs": [
        {
          "indexed": false,
          "name": "newFees",
          "type": "uint256"
        }
      ],
      "name": "FeesChanged",
      "type": "event"
    },
    {
      "anonymous": false,
      "inputs": [
        {
          "indexed": true,
          "name": "account",
          "type": "address"
        }
      ],
      "name": "AccountFrozen",
      "type": "event"
    },
    {
      "anonymous": false,
      "inputs": [
        {
          "indexed": true,
          "name": "account",
          "type": "address"
        }
      ],
      "name": "AccountUnfrozen",
      "type": "event"
    },
    {
      "anonymous": false,
      "inputs": [
        {
          "indexed": true,
          "name": "admin",
          "type": "address"
        }
      ],
      "name": "AdminAdded",
      "type": "event"
    },
    {
      "anonymous": false,
      "inputs": [
        {
          "indexed": true,
          "name": "admin",
          "type": "address"
        }
      ],
      "name": "AdminRemoved",
      "type": "event"
    },
    {
      "anonymous": false,
      "inputs": [
        {
          "indexed": true,
          "name": "previousOwner",
          "type": "address"
        },
        {
          "indexed": true,
          "name": "newOwner",
          "type": "address"
        }
      ],
      "name": "OwnershipTransferred",
      "type": "event"
    },
    {
      "anonymous": false,
      "inputs": [
        {
          "indexed": true,
          "name": "owner",
          "type": "address"
        },
        {
          "indexed": true,
          "name": "spender",
          "type": "address"
        },
        {
          "indexed": false,
          "name": "value",
          "type": "uint256"
        }
      ],
      "name": "Approval",
      "type": "event"
    },
    {
      "anonymous": false,
      "inputs": [
        {
          "indexed": true,
          "name": "from",
          "type": "address"
        },
        {
          "indexed": true,
          "name": "to",
          "type": "address"
        },
        {
          "indexed": false,
          "name": "value",
          "type": "uint256"
        }
      ],
      "name": "Transfer",
      "type": "event"
    },
    {
      "constant": false,
      "inputs": [
        {
          "name": "stableToken",
          "type": "address"
        }
      ],
      "name": "setStableToken",
      "outputs": [
        {
          "name": "",
          "type": "bool"
        }
      ],
      "payable": false,
      "stateMutability": "nonpayable",
      "type": "function"
    },
    {
      "constant": true,
      "inputs": [],
      "name": "getStableToken",
      "outputs": [
        {
          "name": "",
          "type": "address"
        }
      ],
      "payable": false,
      "stateMutability": "view",
      "type": "function"
    },
    {
      "constant": true,
      "inputs": [],
      "name": "getKMXAdminCenter",
      "outputs": [
        {
          "name": "",
          "type": "address"
        }
      ],
      "payable": false,
      "stateMutability": "view",
      "type": "function"
    },
    {
      "constant": false,
      "inputs": [
        {
          "name": "_address",
          "type": "address"
        }
      ],
      "name": "setKMXAdminCenter",
      "outputs": [],
      "payable": false,
      "stateMutability": "nonpayable",
      "type": "function"
    },
    {
      "constant": true,
      "inputs": [],
      "name": "tokenHolder",
      "outputs": [
        {
          "name": "",
          "type": "address"
        }
      ],
      "payable": false,
      "stateMutability": "view",
      "type": "function"
    },
    {
      "constant": false,
      "inputs": [
        {
          "name": "_newValue",
          "type": "uint256"
        }
      ],
      "name": "setTotalSupply",
      "outputs": [],
      "payable": false,
      "stateMutability": "nonpayable",
      "type": "function"
    },
    {
      "constant": false,
      "inputs": [
        {
          "name": "_balance",
          "type": "uint256"
        }
      ],
      "name": "setTokenHolderBalance",
      "outputs": [
        {
          "name": "",
          "type": "bool"
        }
      ],
      "payable": false,
      "stateMutability": "nonpayable",
      "type": "function"
    },
    {
      "constant": false,
      "inputs": [
        {
          "name": "from",
          "type": "address"
        },
        {
          "name": "to",
          "type": "address"
        },
        {
          "name": "value",
          "type": "uint256"
        }
      ],
      "name": "icoTransfer",
      "outputs": [
        {
          "name": "",
          "type": "bool"
        }
      ],
      "payable": false,
      "stateMutability": "nonpayable",
      "type": "function"
    },
    {
      "constant": false,
      "inputs": [
        {
          "name": "to",
          "type": "address"
        },
        {
          "name": "value",
          "type": "uint256"
        }
      ],
      "name": "transfer",
      "outputs": [
        {
          "name": "",
          "type": "bool"
        }
      ],
      "payable": false,
      "stateMutability": "nonpayable",
      "type": "function"
    },
    {
      "constant": false,
      "inputs": [
        {
          "name": "to",
          "type": "address"
        },
        {
          "name": "from",
          "type": "address"
        },
        {
          "name": "value",
          "type": "uint256"
        }
      ],
      "name": "transferFrom",
      "outputs": [
        {
          "name": "",
          "type": "bool"
        }
      ],
      "payable": false,
      "stateMutability": "nonpayable",
      "type": "function"
    },
    {
      "constant": false,
      "inputs": [
        {
          "name": "from",
          "type": "address"
        },
        {
          "name": "fees",
          "type": "uint256"
        }
      ],
      "name": "feesForStableTokenTransfer",
      "outputs": [
        {
          "name": "",
          "type": "bool"
        }
      ],
      "payable": false,
      "stateMutability": "nonpayable",
      "type": "function"
    },
    {
      "constant": false,
      "inputs": [
        {
          "name": "from",
          "type": "address"
        },
        {
          "name": "fees",
          "type": "uint256"
        },
        {
          "name": "spender",
          "type": "address"
        }
      ],
      "name": "feesForStableTokenTransferFrom",
      "outputs": [
        {
          "name": "",
          "type": "bool"
        }
      ],
      "payable": false,
      "stateMutability": "nonpayable",
      "type": "function"
    },
    {
      "constant": false,
      "inputs": [
        {
          "name": "_account",
          "type": "address"
        },
        {
          "name": "_amount",
          "type": "uint256"
        }
      ],
      "name": "buyKMXTokens",
      "outputs": [
        {
          "name": "",
          "type": "bool"
        }
      ],
      "payable": false,
      "stateMutability": "nonpayable",
      "type": "function"
    },
    {
      "constant": false,
      "inputs": [
        {
          "name": "_account",
          "type": "address"
        },
        {
          "name": "_amount",
          "type": "uint256"
        }
      ],
      "name": "sendKMXToUser",
      "outputs": [
        {
          "name": "",
          "type": "bool"
        }
      ],
      "payable": false,
      "stateMutability": "nonpayable",
      "type": "function"
    },
    {
      "constant": false,
      "inputs": [
        {
          "name": "_account",
          "type": "address"
        },
        {
          "name": "_amount",
          "type": "uint256"
        }
      ],
      "name": "takeKMXFromUser",
      "outputs": [
        {
          "name": "",
          "type": "bool"
        }
      ],
      "payable": false,
      "stateMutability": "nonpayable",
      "type": "function"
    },
    {
      "constant": true,
      "inputs": [
        {
          "name": "_account",
          "type": "address"
        }
      ],
      "name": "balanceOfFromStableToken",
      "outputs": [
        {
          "name": "",
          "type": "bool"
        },
        {
          "name": "",
          "type": "uint256"
        }
      ],
      "payable": false,
      "stateMutability": "view",
      "type": "function"
    }
  ],
  "bytecode": "0x60806040523480156200001157600080fd5b50336200006a576040517f08c379a000000000000000000000000000000000000000000000000000000000815260040180806020018281038252602381526020018062003cdb6023913960400191505060405180910390fd5b60008054600160a060020a0319163317908190556200009b90600160a060020a03166401000000006200011b810204565b620000b2600180806401000000006200016d810204565b606460075560005460098054600160a060020a031916600160a060020a0390921691909117905562000106673eba440d50c40000673782dace9d90000066182890607900006401000000006200016d810204565b6afb768105935a2f3000000060045562000347565b62000136600282640100000000620036b46200021d82021704565b604051600160a060020a038216907f44d6d25963f097ad14f29f06854a01f575648a1ef82f30e562ccd3889717e33990600090a250565b604080517f455552000000000000000000000000000000000000000000000000000000000081526008600380830182905283519283900360239081018420979097557f5553440000000000000000000000000000000000000000000000000000000000835282810182905283519283900387018320959095557f58414600000000000000000000000000000000000000000000000000000000008252938101939093525191829003909201902055565b620002328282640100000000620002af810204565b156200028a576040517f08c379a000000000000000000000000000000000000000000000000000000000815260040180806020018281038252602381526020018062003cfe6023913960400191505060405180910390fd5b600160a060020a0316600090815260209190915260409020805460ff19166001179055565b6000600160a060020a0382166200032757604080517f08c379a000000000000000000000000000000000000000000000000000000000815260206004820181905260248201527f4163636f756e74206d757374206e6f74206265207a65726f2d61646472657373604482015290519081900360640190fd5b50600160a060020a03166000908152602091909152604090205460ff1690565b61398480620003576000396000f3fe60806040526004361061024d576000357c0100000000000000000000000000000000000000000000000000000000900480636cda375b1161014b578063a9059cbb116100c8578063e1e86c361161008c578063e1e86c3614610ba9578063e816d97f14610bd3578063f2fde38b14610c06578063f7ea7a3d14610c39578063f8e6d23414610c635761024d565b8063a9059cbb14610ab4578063b37be8e414610aed578063c57983bd14610b02578063db1bc87b14610b3b578063dd62ed3e14610b6e5761024d565b80638868686c1161010f5780638868686c146109405780638bad0c0a146109fa578063a18a209214610a0f578063a2a797cf14610a42578063a457c2d714610a7b5761024d565b80636cda375b14610844578063704802751461086e57806370a08231146108a15780637b68d0ac146108d45780637dbdaaca146109075761024d565b806335262fd8116101d957806345275ee91161019d57806345275ee9146106b257806345bfd9bc146106f55780634e71e0c81461074357806362d2085214610758578063697d60b0146107915761024d565b806335262fd814610607578063395093511461061c578063414f85941461065557806341c0e1b514610688578063420a83e71461069d5761024d565b80631f9714f0116102205780631f9714f0146104ea578063235777681461052d57806323b872dd1461055e57806324d7806c146105a15780632f54bf6e146105d45761024d565b806302888d0614610390578063095ea7b3146104555780631785f53c146104a257806318160ddd146104d5575b341561038e57600954600160a060020a0316662386f26fc100003411156102f057336108fc61028934662386f26fc1000063ffffffff610c9616565b6040518115909202916000818181858888f193505050501580156102b1573d6000803e3d6000fd5b50604051600160a060020a03821690600090662386f26fc100009082818181858883f193505050501580156102ea573d6000803e3d6000fd5b5061038c565b336108fc610316606461030a34605a63ffffffff610cfb16565b9063ffffffff610d5e16565b6040518115909202916000818181858888f1935050505015801561033e573d6000803e3d6000fd5b50600160a060020a0381166108fc610362606461030a34600a63ffffffff610cfb16565b6040518115909202916000818181858888f1935050505015801561038a573d6000803e3d6000fd5b505b505b005b34801561039c57600080fd5b50610443600480360360208110156103b357600080fd5b8101906020810181356401000000008111156103ce57600080fd5b8201836020820111156103e057600080fd5b8035906020019184600183028401116401000000008311171561040257600080fd5b91908080601f016020809104026020016040519081016040528093929190818152602001838380828437600092019190915250929550610dcb945050505050565b60408051918252519081900360200190f35b34801561046157600080fd5b5061048e6004803603604081101561047857600080fd5b50600160a060020a038135169060200135610ed7565b604080519115158252519081900360200190f35b3480156104ae57600080fd5b5061038e600480360360208110156104c557600080fd5b5035600160a060020a0316610f8e565b3480156104e157600080fd5b50610443610fed565b3480156104f657600080fd5b5061048e6004803603606081101561050d57600080fd5b50600160a060020a03813581169160208101359091169060400135610ff3565b34801561053957600080fd5b50610542611057565b60408051600160a060020a039092168252519081900360200190f35b34801561056a57600080fd5b5061048e6004803603606081101561058157600080fd5b50600160a060020a03813581169160208101359091169060400135611066565b3480156105ad57600080fd5b5061048e600480360360208110156105c457600080fd5b5035600160a060020a0316611521565b3480156105e057600080fd5b5061048e600480360360208110156105f757600080fd5b5035600160a060020a0316611534565b34801561061357600080fd5b50610542611548565b34801561062857600080fd5b5061038e6004803603604081101561063f57600080fd5b50600160a060020a038135169060200135611557565b34801561066157600080fd5b5061038e6004803603602081101561067857600080fd5b5035600160a060020a0316611607565b34801561069457600080fd5b5061038e6116f4565b3480156106a957600080fd5b50610542611753565b3480156106be57600080fd5b5061048e600480360360608110156106d557600080fd5b50600160a060020a038135811691602081013591604090910135166117b2565b34801561070157600080fd5b506107286004803603602081101561071857600080fd5b5035600160a060020a0316611ad1565b60408051921515835260208301919091528051918290030190f35b34801561074f57600080fd5b5061038e611b36565b34801561076457600080fd5b5061048e6004803603604081101561077b57600080fd5b50600160a060020a038135169060200135611bf3565b34801561079d57600080fd5b5061048e600480360360208110156107b457600080fd5b8101906020810181356401000000008111156107cf57600080fd5b8201836020820111156107e157600080fd5b8035906020019184600183028401116401000000008311171561080357600080fd5b91908080601f016020809104026020016040519081016040528093929190818152602001838380828437600092019190915250929550611e15945050505050565b34801561085057600080fd5b5061038e6004803603602081101561086757600080fd5b5035611e7f565b34801561087a57600080fd5b5061038e6004803603602081101561089157600080fd5b5035600160a060020a0316611f67565b3480156108ad57600080fd5b50610443600480360360208110156108c457600080fd5b5035600160a060020a0316611fc3565b3480156108e057600080fd5b5061038e600480360360208110156108f757600080fd5b5035600160a060020a0316611fce565b34801561091357600080fd5b5061048e6004803603604081101561092a57600080fd5b50600160a060020a0381351690602001356120c9565b34801561094c57600080fd5b5061038e6004803603604081101561096357600080fd5b8135919081019060408101602082013564010000000081111561098557600080fd5b82018360208201111561099757600080fd5b803590602001918460018302840111640100000000831117156109b957600080fd5b91908080601f01602080910402602001604051908101604052809392919081815260200183838082843760009201919091525092955061216f945050505050565b348015610a0657600080fd5b5061038e6124b5565b348015610a1b57600080fd5b5061038e60048036036020811015610a3257600080fd5b5035600160a060020a0316612576565b348015610a4e57600080fd5b5061048e60048036036040811015610a6557600080fd5b50600160a060020a0381351690602001356126fc565b348015610a8757600080fd5b5061038e60048036036040811015610a9e57600080fd5b50600160a060020a038135169060200135612857565b348015610ac057600080fd5b5061048e60048036036040811015610ad757600080fd5b50600160a060020a038135169060200135612903565b348015610af957600080fd5b50610443612c54565b348015610b0e57600080fd5b5061048e60048036036040811015610b2557600080fd5b50600160a060020a038135169060200135612c5a565b348015610b4757600080fd5b5061048e60048036036020811015610b5e57600080fd5b5035600160a060020a0316612caf565b348015610b7a57600080fd5b5061044360048036036040811015610b9157600080fd5b50600160a060020a0381358116916020013516612dc9565b348015610bb557600080fd5b5061048e60048036036020811015610bcc57600080fd5b5035612dd5565b348015610bdf57600080fd5b5061048e60048036036020811015610bf657600080fd5b5035600160a060020a0316612e45565b348015610c1257600080fd5b5061038e60048036036020811015610c2957600080fd5b5035600160a060020a0316612e50565b348015610c4557600080fd5b5061038e60048036036020811015610c5c57600080fd5b5035612f17565b348015610c6f57600080fd5b5061038e60048036036020811015610c8657600080fd5b5035600160a060020a0316612f68565b600082821115610cf0576040805160e560020a62461bcd02815260206004820152601e60248201527f536166654d6174683a207375627472616374696f6e206f766572666c6f770000604482015290519081900360640190fd5b508082035b92915050565b600082610d0a57506000610cf5565b82820282848281610d1757fe5b0414610d575760405160e560020a62461bcd02815260040180806020018281038252602181526020018061386e6021913960400191505060405180910390fd5b9392505050565b6000808211610db7576040805160e560020a62461bcd02815260206004820152601a60248201527f536166654d6174683a206469766973696f6e206279207a65726f000000000000604482015290519081900360640190fd5b6000828481610dc257fe5b04949350505050565b6000816008816040518082805190602001908083835b60208310610e005780518252601f199092019160209182019101610de1565b51815160209384036101000a600019018019909216911617905292019485525060405193849003019092205415159150610e7090505760405160e560020a62461bcd02815260040180806020018281038252602f8152602001806137f9602f913960400191505060405180910390fd5b6008836040518082805190602001908083835b60208310610ea25780518252601f199092019160209182019101610e83565b51815160209384036101000a600019018019909216911617905292019485525060405193849003019092205495945050505050565b600033610f2e576040805160e560020a62461bcd02815260206004820152601c60248201527f53656e646572206d757374206e6f7420626520302d6164647265737300000000604482015290519081900360640190fd5b600160a060020a038316610f7a576040805160e560020a62461bcd02815260206004820152601d6024820152600080516020613828833981519152604482015290519081900360640190fd5b610f85338484613044565b50600192915050565b610f9f60023363ffffffff61309416565b610fe1576040805160e560020a62461bcd0281526020600482015260106024820152600080516020613916833981519152604482015290519081900360640190fd5b610fea81613114565b50565b60045490565b600b54600090600160a060020a031633146110425760405160e560020a62461bcd02815260040180806020018281038252602a815260200180613746602a913960400191505060405180910390fd5b61104d84848461315c565b5060019392505050565b600b54600160a060020a031690565b600033611072816131e0565b156110b5576040805160e560020a62461bcd02815260206004820152601a60248201526000805160206137b9833981519152604482015290519081900360640190fd5b836110bf816131e0565b15611102576040805160e560020a62461bcd02815260206004820152601a60248201526000805160206137b9833981519152604482015290519081900360640190fd5b8561110c816131e0565b1561114f576040805160e560020a62461bcd02815260206004820152601a60248201526000805160206137b9833981519152604482015290519081900360640190fd5b6009543390600160a060020a03168114156111a2576040805160e560020a62461bcd028152602060048201819052602482015260008051602061388f833981519152604482015290519081900360640190fd5b600160a060020a0388166111ea5760405160e560020a62461bcd0281526004018080602001828103825260268152602001806138f06026913960400191505060405180910390fd5b600160a060020a0387166112325760405160e560020a62461bcd0281526004018080602001828103825260248152602001806137706024913960400191505060405180910390fd5b336112715760405160e560020a62461bcd0281526004018080602001828103825260258152602001806137946025913960400191505060405180910390fd5b600954600160a060020a03163314156112d4576040805160e560020a62461bcd02815260206004820181905260248201527f5370656e646572206d757374206e6f7420626520746f6b656e20686f6c646572604482015290519081900360640190fd5b6000861161131a576040805160e560020a62461bcd02815260206004820152601d60248201526000805160206138d0833981519152604482015290519081900360640190fd5b600754600090156114265761134061271061030a6007548a610cfb90919063ffffffff16565b9050611352878263ffffffff6131fe16565b61135c8933612dc9565b10156113b2576040805160e560020a62461bcd02815260206004820152601a60248201527f5370656e64657220556e73696666696369656e742066756e6473000000000000604482015290519081900360640190fd5b6113c2878263ffffffff6131fe16565b6113cb89611fc3565b1015611421576040805160e560020a62461bcd02815260206004820152601960248201527f53656e64657220756e73696666696369656e742066756e647300000000000000604482015290519081900360640190fd5b6114e7565b866114318933612dc9565b1015611487576040805160e560020a62461bcd02815260206004820152601a60248201527f5370656e64657220556e73696666696369656e742066756e6473000000000000604482015290519081900360640190fd5b8661149189611fc3565b10156114e7576040805160e560020a62461bcd02815260206004820152601960248201527f53656e64657220756e73696666696369656e742066756e647300000000000000604482015290519081900360640190fd5b6114f3888a893361325b565b801561151257600954611512908990600160a060020a0316833361325b565b50600198975050505050505050565b6000610cf560028363ffffffff61309416565b600054600160a060020a0391821691161490565b600a54600160a060020a031690565b336115ac576040805160e560020a62461bcd02815260206004820152601c60248201527f53656e646572206d757374206e6f7420626520302d6164647265737300000000604482015290519081900360640190fd5b600160a060020a0382166115f8576040805160e560020a62461bcd02815260206004820152601d6024820152600080516020613828833981519152604482015290519081900360640190fd5b6116033383836132eb565b5050565b61161860023363ffffffff61309416565b61165a576040805160e560020a62461bcd0281526020600482015260106024820152600080516020613916833981519152604482015290519081900360640190fd5b80611664816131e0565b156116a7576040805160e560020a62461bcd02815260206004820152601a60248201526000805160206137b9833981519152604482015290519081900360640190fd5b600160a060020a038216600081815260036020526040808220805460ff19166001179055517f4f2a367e694e71282f29ab5eaa04c4c0be45ac5bf2ca74fb67068b98bdc2887d9190a25050565b600054600160a060020a03163314611744576040805160e560020a62461bcd02815260206004820152601a60248201526000805160206137d9833981519152604482015290519081900360640190fd5b600054600160a060020a031680ff5b600b54600090600160a060020a031633146117a25760405160e560020a62461bcd02815260040180806020018281038252602a815260200180613746602a913960400191505060405180910390fd5b50600954600160a060020a031690565b600a54600090600160a060020a031633146118015760405160e560020a62461bcd0281526004018080602001828103825260268152602001806138486026913960400191505060405180910390fd5b8361180b816131e0565b1561184e576040805160e560020a62461bcd02815260206004820152601a60248201526000805160206137b9833981519152604482015290519081900360640190fd5b82611858816131e0565b1561189b576040805160e560020a62461bcd02815260206004820152601a60248201526000805160206137b9833981519152604482015290519081900360640190fd5b6009548690600160a060020a03808316911614156118f1576040805160e560020a62461bcd028152602060048201819052602482015260008051602061388f833981519152604482015290519081900360640190fd5b33611946576040805160e560020a62461bcd02815260206004820152601560248201527f4d757374206e6f7420626520302d616464726573730000000000000000000000604482015290519081900360640190fd5b600160a060020a03871661198e5760405160e560020a62461bcd0281526004018080602001828103825260248152602001806137706024913960400191505060405180910390fd5b600160a060020a0385166119da576040805160e560020a62461bcd02815260206004820152601d6024820152600080516020613828833981519152604482015290519081900360640190fd5b856119e85760019350611ac7565b856119f288611fc3565b1015611a48576040805160e560020a62461bcd02815260206004820152601960248201527f53656e64657220756e73756666696369656e742066756e647300000000000000604482015290519081900360640190fd5b85611a538887612dc9565b1015611aa9576040805160e560020a62461bcd02815260206004820152601a60248201527f5370656e64657220756e73756666696369656e742066756e6473000000000000604482015290519081900360640190fd5b600954611ac2908890600160a060020a0316888861325b565b600193505b5050509392505050565b600a546000908190600160a060020a03163314611b225760405160e560020a62461bcd0281526004018080602001828103825260268152602001806138486026913960400191505060405180910390fd5b6001611b2d84611fc3565b91509150915091565b600154600160a060020a03163314611b98576040805160e560020a62461bcd02815260206004820152601c60248201527f53656e646572206d7573742062652070656e64696e67206f776e657200000000604482015290519081900360640190fd5b6001546000805473ffffffffffffffffffffffffffffffffffffffff1916600160a060020a03928316908117808355604051919316917f8be0079c531659141344cd1fd0a4f28419497f9722a3daafe3b4186f6b6457e091a3565b600a54600090600160a060020a03163314611c425760405160e560020a62461bcd0281526004018080602001828103825260268152602001806138486026913960400191505060405180910390fd5b82611c4c816131e0565b15611c8f576040805160e560020a62461bcd02815260206004820152601a60248201526000805160206137b9833981519152604482015290519081900360640190fd5b6009548490600160a060020a0380831691161415611ce5576040805160e560020a62461bcd028152602060048201819052602482015260008051602061388f833981519152604482015290519081900360640190fd5b33611d3a576040805160e560020a62461bcd02815260206004820152601560248201527f4d757374206e6f7420626520302d616464726573730000000000000000000000604482015290519081900360640190fd5b600160a060020a038516611d825760405160e560020a62461bcd0281526004018080602001828103825260248152602001806137706024913960400191505060405180910390fd5b83611d905760019250611e0d565b83611d9a86611fc3565b1015611df0576040805160e560020a62461bcd02815260206004820152601960248201527f53656e64657220756e73696666696369656e742066756e647300000000000000604482015290519081900360640190fd5b600954611e08908690600160a060020a03168661315c565b600192505b505092915050565b60006008826040518082805190602001908083835b60208310611e495780518252601f199092019160209182019101611e2a565b51815160209384036101000a60001901801990921691161790529201948552506040519384900301909220541515949350505050565b611e9060023363ffffffff61309416565b611ed2576040805160e560020a62461bcd0281526020600482015260106024820152600080516020613916833981519152604482015290519081900360640190fd5b612710811115611f2c576040805160e560020a62461bcd02815260206004820152601d60248201527f46656573206d75737420626520696e2072616e676520302d3130303030000000604482015290519081900360640190fd5b60078190556040805182815290517f3dda580d2b9d92da338ef46ec718e7b1dd0a2c505e3df4aa8d40360192a0f8229181900360200190a150565b611f7860023363ffffffff61309416565b611fba576040805160e560020a62461bcd0281526020600482015260106024820152600080516020613916833981519152604482015290519081900360640190fd5b610fea81613342565b6000610cf58261338a565b611fdf60023363ffffffff61309416565b612021576040805160e560020a62461bcd0281526020600482015260106024820152600080516020613916833981519152604482015290519081900360640190fd5b8061202b816131e0565b61207f576040805160e560020a62461bcd02815260206004820152601660248201527f4163636f756e74206d7573742062652066726f7a656e00000000000000000000604482015290519081900360640190fd5b600160a060020a038216600081815260036020526040808220805460ff19169055517ff915cd9fe234de6e8d3afe7bf2388d35b2b6d48e8c629a24602019bde79c213a9190a25050565b600a54600090600160a060020a031633146121185760405160e560020a62461bcd0281526004018080602001828103825260268152602001806138486026913960400191505060405180910390fd5b82612122816131e0565b15612165576040805160e560020a62461bcd02815260206004820152601a60248201526000805160206137b9833981519152604482015290519081900360640190fd5b61104d84846133a5565b806008816040518082805190602001908083835b602083106121a25780518252601f199092019160209182019101612183565b51815160209384036101000a60001901801990921691161790529201948552506040519384900301909220541515915061221290505760405160e560020a62461bcd02815260040180806020018281038252602f8152602001806137f9602f913960400191505060405180910390fd5b61222360023363ffffffff61309416565b612265576040805160e560020a62461bcd0281526020600482015260106024820152600080516020613916833981519152604482015290519081900360640190fd5b600083118260405160200180807f546f6b656e20707269636520696e200000000000000000000000000000000000815250600f0182805190602001908083835b602083106122c45780518252601f1990920191602091820191016122a5565b6001836020036101000a038019825116818451168082178552505050505050905001807f206d757374206e6f742062652030000000000000000000000000000000000000815250600e01915050604051602081830303815290604052906123ac5760405160e560020a62461bcd0281526004018080602001828103825283818151815260200191508051906020019080838360005b83811015612371578181015183820152602001612359565b50505050905090810190601f16801561239e5780820380516001836020036101000a031916815260200191505b509250505060405180910390fd5b50826008836040518082805190602001908083835b602083106123e05780518252601f1990920191602091820191016123c1565b51815160209384036101000a60001901801990921691161790529201948552506040805194859003820185209590955587845283810185815287519585019590955286517fbc1a6d11df191cc217bb06c2da838849148b8a9a56b8138fa96cd89e90a0921595899589955093509160608401919085019080838360005b8381101561247557818101518382015260200161245d565b50505050905090810190601f1680156124a25780820380516001836020036101000a031916815260200191505b50935050505060405180910390a1505050565b6124c660023363ffffffff61309416565b612508576040805160e560020a62461bcd0281526020600482015260106024820152600080516020613916833981519152604482015290519081900360640190fd5b600054600160a060020a031633141561256b576040805160e560020a62461bcd02815260206004820152601f60248201527f4f776e65722063616e206e6f742072656e6f756e636520746f2061646d696e00604482015290519081900360640190fd5b61257433613114565b565b600054600160a060020a031633146125c6576040805160e560020a62461bcd02815260206004820152601a60248201526000805160206137d9833981519152604482015290519081900360640190fd5b600160a060020a038116612624576040805160e560020a62461bcd02815260206004820181905260248201527f4e657720486f6c646572206d757374206e6f7420626520302d61646472657373604482015290519081900360640190fd5b600954600160a060020a03828116911614156126745760405160e560020a62461bcd0281526004018080602001828103825260218152602001806138af6021913960400191505060405180910390fd5b60095461269390600160a060020a03168261268e82611fc3565b61315c565b600954604051600160a060020a038084169216907f70418639b9c14c316c6ae17fa73febff0a5d1e066ce89d40a4b9b5381625adfe90600090a36009805473ffffffffffffffffffffffffffffffffffffffff1916600160a060020a0392909216919091179055565b600061270f60023363ffffffff61309416565b612751576040805160e560020a62461bcd0281526020600482015260106024820152600080516020613916833981519152604482015290519081900360640190fd5b600160a060020a0383166127995760405160e560020a62461bcd0281526004018080602001828103825260248152602001806137706024913960400191505060405180910390fd5b600082116127df576040805160e560020a62461bcd02815260206004820152601d60248201526000805160206138d0833981519152604482015290519081900360640190fd5b816127e984611fc3565b101561283f576040805160e560020a62461bcd02815260206004820152601e60248201527f556e73756666696369656e747320746f6b656e7320617661696c61626c650000604482015290519081900360640190fd5b600954610f85908490600160a060020a03168461315c565b336128ac576040805160e560020a62461bcd02815260206004820152601c60248201527f53656e646572206d757374206e6f7420626520302d6164647265737300000000604482015290519081900360640190fd5b600160a060020a0382166128f8576040805160e560020a62461bcd02815260206004820152601d6024820152600080516020613828833981519152604482015290519081900360640190fd5b6116033383836134b7565b60003361290f816131e0565b15612952576040805160e560020a62461bcd02815260206004820152601a60248201526000805160206137b9833981519152604482015290519081900360640190fd5b8361295c816131e0565b1561299f576040805160e560020a62461bcd02815260206004820152601a60248201526000805160206137b9833981519152604482015290519081900360640190fd5b6009543390600160a060020a03168114156129f2576040805160e560020a62461bcd028152602060048201819052602482015260008051602061388f833981519152604482015290519081900360640190fd5b600160a060020a038616612a3a5760405160e560020a62461bcd0281526004018080602001828103825260268152602001806138f06026913960400191505060405180910390fd5b33612a795760405160e560020a62461bcd0281526004018080602001828103825260268152602001806138f06026913960400191505060405180910390fd5b600954600160a060020a0316331415612adc576040805160e560020a62461bcd02815260206004820181905260248201527f5370656e646572206d757374206e6f7420626520746f6b656e20686f6c646572604482015290519081900360640190fd5b60008511612b22576040805160e560020a62461bcd02815260206004820152601d60248201526000805160206138d0833981519152604482015290519081900360640190fd5b60075460009015612bbe57612b4861271061030a60075489610cfb90919063ffffffff16565b9050612b5a868263ffffffff6131fe16565b612b6333611fc3565b1015612bb9576040805160e560020a62461bcd02815260206004820152601960248201527f53656e64657220556e73696666696369656e742066756e647300000000000000604482015290519081900360640190fd5b612c1e565b85612bc833611fc3565b1015612c1e576040805160e560020a62461bcd02815260206004820152601960248201527f53656e64657220556e73696666696369656e742066756e647300000000000000604482015290519081900360640190fd5b612c2933888861315c565b8015612c4757600954612c47903390600160a060020a03168361315c565b5060019695505050505050565b60075490565b6000612c6d60023363ffffffff61309416565b612118576040805160e560020a62461bcd0281526020600482015260106024820152600080516020613916833981519152604482015290519081900360640190fd5b60008054600160a060020a03163314612d00576040805160e560020a62461bcd02815260206004820152601a60248201526000805160206137d9833981519152604482015290519081900360640190fd5b612d09826134c2565b612d5d576040805160e560020a62461bcd02815260206004820152601a60248201527f50726f76696465206120636f6e74726163742061646472657373000000000000604482015290519081900360640190fd5b600a54604051600160a060020a038085169216907f9057dd3707e57f23446a425b1c54d9f920850718f164e6b653fba866c4999d5b90600090a350600a8054600160a060020a03831673ffffffffffffffffffffffffffffffffffffffff199091161790556001919050565b6000610d5783836134ce565b600b54600090600160a060020a03163314612e245760405160e560020a62461bcd02815260040180806020018281038252602a815260200180613746602a913960400191505060405180910390fd5b50600954600160a060020a0316600090815260056020526040902055600190565b6000610cf5826131e0565b600054600160a060020a03163314612ea0576040805160e560020a62461bcd02815260206004820152601a60248201526000805160206137d9833981519152604482015290519081900360640190fd5b600160a060020a038116612ee85760405160e560020a62461bcd0281526004018080602001828103825260238152602001806137236023913960400191505060405180910390fd5b6001805473ffffffffffffffffffffffffffffffffffffffff1916600160a060020a0392909216919091179055565b600b54600160a060020a03163314612f635760405160e560020a62461bcd02815260040180806020018281038252602a815260200180613746602a913960400191505060405180910390fd5b600455565b600054600160a060020a03163314612fb8576040805160e560020a62461bcd02815260206004820152601a60248201526000805160206137d9833981519152604482015290519081900360640190fd5b612fc1816134c2565b613015576040805160e560020a62461bcd02815260206004820152601a60248201527f50726f76696465206120636f6e74726163742061646472657373000000000000604482015290519081900360640190fd5b600b805473ffffffffffffffffffffffffffffffffffffffff1916600160a060020a0392909216919091179055565b61304f8383836134f9565b604080518281529051600160a060020a0384169133917f8c5be1e5ebec7d5bd14f71427d1e84f3dd0314c0f7b2291e5b200ac8c7c3b9259181900360200190a3505050565b6000600160a060020a0382166130f4576040805160e560020a62461bcd02815260206004820181905260248201527f4163636f756e74206d757374206e6f74206265207a65726f2d61646472657373604482015290519081900360640190fd5b50600160a060020a03166000908152602091909152604090205460ff1690565b61312560028263ffffffff61352516565b604051600160a060020a038216907fa3b62bc36326052d97ea62d63c3d60308ed4c3ea8ac079dd8499f1e9c4f80c0f90600090a250565b600160a060020a03821630146131765761317682826135a5565b600160a060020a03831630146131905761319083826135ee565b81600160a060020a031683600160a060020a03167fddf252ad1be2c89b69c2b068fc378daa952ba7f163c4a11628f55a4df523b3ef836040518082815260200191505060405180910390a3505050565b600160a060020a031660009081526003602052604090205460ff1690565b600082820183811015610d57576040805160e560020a62461bcd02815260206004820152601b60248201527f536166654d6174683a206164646974696f6e206f766572666c6f770000000000604482015290519081900360640190fd5b600160a060020a03831630146132755761327583836135a5565b613280848284613617565b600160a060020a038416301461329a5761329a84836135ee565b82600160a060020a031684600160a060020a03167fddf252ad1be2c89b69c2b068fc378daa952ba7f163c4a11628f55a4df523b3ef846040518082815260200191505060405180910390a350505050565b6132f683838361367e565b600160a060020a038216337f8c5be1e5ebec7d5bd14f71427d1e84f3dd0314c0f7b2291e5b200ac8c7c3b92561332c86866134ce565b60408051918252519081900360200190a3505050565b61335360028263ffffffff6136b416565b604051600160a060020a038216907f44d6d25963f097ad14f29f06854a01f575648a1ef82f30e562ccd3889717e33990600090a250565b600160a060020a031660009081526005602052604090205490565b600160a060020a0382166133ed5760405160e560020a62461bcd0281526004018080602001828103825260248152602001806137706024913960400191505060405180910390fd5b60008111613433576040805160e560020a62461bcd02815260206004820152601d60248201526000805160206138d0833981519152604482015290519081900360640190fd5b600954819061344a90600160a060020a0316611fc3565b10156134a0576040805160e560020a62461bcd02815260206004820152601e60248201527f556e73756666696369656e747320746f6b656e7320617661696c61626c650000604482015290519081900360640190fd5b60095461160390600160a060020a0316838361315c565b6132f6838383613617565b3b63ffffffff16151590565b600160a060020a03918216600090815260066020908152604080832093909416825291909152205490565b600160a060020a0392831660009081526006602090815260408083209490951682529290925291902055565b61352f8282613094565b613583576040805160e560020a62461bcd02815260206004820152601f60248201527f4163636f756e7420686173206e6f7420686176652061646d696e20726f6c6500604482015290519081900360640190fd5b600160a060020a0316600090815260209190915260409020805460ff19169055565b600160a060020a0382166000908152600560205260409020546135ce908263ffffffff6131fe16565b600160a060020a0390921660009081526005602052604090209190915550565b600160a060020a0382166000908152600560205260409020546135ce908263ffffffff610c9616565b600160a060020a0380841660009081526006602090815260408083209386168352929052205461364d908263ffffffff610c9616565b600160a060020a03938416600090815260066020908152604080832095909616825293909352929091209190915550565b600160a060020a0380841660009081526006602090815260408083209386168352929052205461364d908263ffffffff6131fe16565b6136be8282613094565b156136fd5760405160e560020a62461bcd0281526004018080602001828103825260238152602001806139366023913960400191505060405180910390fd5b600160a060020a0316600090815260209190915260409020805460ff1916600117905556fe4f776e65722061646472657373206d757374206e6f7420626520302d616464726573734f6e6c792049434f2043656e7465722063616e20706572666f726d2074686973206f7065726174696f6e53656e6465722061646472657373206d757374206e6f7420626520302d616464726573735370656e6465722061646472657373206d757374206e6f7420626520302d616464726573734163636f756e74206d757374206e6f742062652066726f7a656e00000000000054686973206973206e6f7420636f6e7472616374206f776e657200000000000043757272656e6379206973206e6f742070726573656e7420696e20737570706f727465642063757272656e636965735370656e646572206d757374206e6f7420626520302d616464726573730000004f6e6c7920537461626c6520746f6b656e2063616e2063616c6c2074686973206d6574686f64536166654d6174683a206d756c7469706c69636174696f6e206f766572666c6f7741646472657373206d757374206e6f7420626520746f6b656e20686f6c6465724e657720686f6c646572206d757374206e6f74206265206f6c6420686f6c646572416d6f756e74206d7573742062652067726561746572207468616e203000000052656365697665722061646472657373206d757374206e6f7420626520302d616464726573734d75737420626520616e2061646d696e000000000000000000000000000000004163636f756e742068617320616c726561647920686176652061646d696e20726f6c65a165627a7a72305820d46a115017fc3f6927383d0a13c922cb0215a5d3b22208847c7acc710f912fe400294f776e65722061646472657373206d757374206e6f7420626520302d616464726573734163636f756e742068617320616c726561647920686176652061646d696e20726f6c65",
  "source": "pragma solidity >=0.4.10 <0.6.0;\r\n\r\nimport \"./ConfigurableToken.sol\";\r\nimport \"./utils/AddressUtils.sol\";\r\n\r\ncontract KMXToken is ConfigurableToken {\r\n    address internal _stableToken;\r\n    address internal _kmxAdminCenter;\r\n\r\n    event StableTokenChanged(address indexed oldTokenAddress, address indexed newTokenAddress);\r\n\r\n    modifier onlyStableToken() {\r\n        require(msg.sender == _stableToken, \"Only Stable token can call this method\");\r\n        _;\r\n    }\r\n\r\n    function setStableToken(address stableToken) public onlyOwner returns(bool) {\r\n        require(AddressUtils.isContractAddress(stableToken), \"Provide a contract address\");\r\n        emit StableTokenChanged(_stableToken, stableToken);\r\n        _stableToken = stableToken;\r\n        return true;\r\n    }\r\n\r\n    function getStableToken() public view returns(address) {\r\n        return _stableToken;\r\n    }\r\n\r\n    modifier onlyKMXAdminCenter() {\r\n        require(msg.sender == _kmxAdminCenter, \"Only ICO Center can perform this operation\");\r\n        _;\r\n    }\r\n\r\n    function getKMXAdminCenter() public view returns(address) {\r\n        return _kmxAdminCenter;\r\n    }\r\n\r\n    function setKMXAdminCenter(address _address) public onlyOwner {\r\n        require(AddressUtils.isContractAddress(_address), \"Provide a contract address\");\r\n        _kmxAdminCenter = _address;\r\n    }\r\n\r\n    function tokenHolder() public view onlyKMXAdminCenter returns(address) {\r\n        return _tokenHolder;\r\n    }\r\n\r\n    function setTotalSupply(uint256 _newValue) public onlyKMXAdminCenter {\r\n        _totalSupply = _newValue;\r\n    }\r\n\r\n    function setTokenHolderBalance(uint256 _balance) public onlyKMXAdminCenter returns(bool) {\r\n        balances[_tokenHolder] = _balance;\r\n        return true;\r\n    }\r\n\r\n    function icoTransfer(address from, address to, uint256 value) public onlyKMXAdminCenter returns(bool) {\r\n        _transferAllArgs(from, to, value);\r\n        return true;\r\n    } \r\n\r\n\r\n\r\n\r\n    constructor() public {\r\n        _initTokenPrices(4 * 113 * 10 ** 16, 4 * DECIMALS, 4 * 17 * 10 ** 14);\r\n        _totalSupply = 304000000 * DECIMALS;\r\n        // balance of tokenHolder is set in Admin Center\r\n    }\r\n\r\n    function transfer(address to, uint256 value) public\r\n    accountNotFrozen(msg.sender) accountNotFrozen(to) notTokenHolder(msg.sender) returns(bool) {\r\n        require(to != address(0), \"Receiver address must not be 0-address\");\r\n        require(msg.sender != address(0), \"Receiver address must not be 0-address\");\r\n        require(msg.sender != _tokenHolder, \"Spender must not be token holder\");\r\n        require(value > 0, \"Amount must be greater than 0\");\r\n        uint256 fees = 0;\r\n        if (_transactionFees > 0){\r\n            fees = value.mul(_transactionFees).div(10000);\r\n            require(balanceOf(msg.sender) >= value.add(fees), \"Sender Unsifficient funds\");   \r\n        }\r\n        else{\r\n            require(balanceOf(msg.sender) >= value, \"Sender Unsifficient funds\");\r\n        }\r\n        _transferAllArgs(msg.sender, to, value);\r\n        if (fees > 0) _transferAllArgs(msg.sender, _tokenHolder, fees);\r\n        return true;\r\n    }\r\n\r\n    function transferFrom(address to, address from, uint256 value) public \r\n    accountNotFrozen(msg.sender) accountNotFrozen(from) accountNotFrozen(to) notTokenHolder(msg.sender) returns(bool) {\r\n        require(to != address(0), \"Receiver address must not be 0-address\");\r\n        require(from != address(0), \"Sender address must not be 0-address\");\r\n        require(msg.sender != address(0), \"Spender address must not be 0-address\");\r\n        require(msg.sender != _tokenHolder, \"Spender must not be token holder\");\r\n        require(value > 0, \"Amount must be greater than 0\");\r\n        uint256 fees = 0;\r\n        if (_transactionFees > 0){\r\n            fees = value.mul(_transactionFees).div(10000);\r\n            require(allowance(from, msg.sender) >= value.add(fees), \"Spender Unsifficient funds\");\r\n            require(balanceOf(from) >= value.add(fees), \"Sender unsifficient funds\");\r\n        }\r\n        else {\r\n            require(allowance(from, msg.sender) >= value, \"Spender Unsifficient funds\");\r\n            require(balanceOf(from) >= value, \"Sender unsifficient funds\");\r\n        }\r\n        _transferFromAllArgs(from, to, value, msg.sender);\r\n        if (fees > 0) _transferFromAllArgs(from, _tokenHolder, fees, msg.sender);\r\n        return true;\r\n    }\r\n\r\n    function feesForStableTokenTransfer(address from, uint256 fees) public onlyStableToken\r\n    accountNotFrozen(from) notTokenHolder(from) returns(bool) {\r\n        require(msg.sender != address(0), \"Must not be 0-address\");\r\n        require(from != address(0), \"Sender address must not be 0-address\");\r\n        if (fees == 0) return true;\r\n        else {\r\n            require(balanceOf(from) >= fees, \"Sender unsifficient funds\");\r\n            _transferAllArgs(from, _tokenHolder, fees);\r\n            return true;\r\n        }\r\n    }\r\n\r\n    function feesForStableTokenTransferFrom(address from, uint256 fees, address spender) public onlyStableToken \r\n    accountNotFrozen(from) accountNotFrozen(spender) notTokenHolder(from) returns(bool) {\r\n        require(msg.sender != address(0), \"Must not be 0-address\");\r\n        require(from != address(0), \"Sender address must not be 0-address\");\r\n        require(spender != address(0), \"Spender must not be 0-address\");\r\n        if (fees == 0) return true;\r\n        else {\r\n            require(balanceOf(from) >= fees, \"Sender unsufficient funds\");\r\n            require(allowance(from, spender) >= fees, \"Spender unsufficient funds\");\r\n            _transferFromAllArgs(from, _tokenHolder, fees, spender);\r\n            return true;\r\n        }\r\n    }\r\n\r\n    function buyKMXTokens(address _account, uint256 _amount) public onlyStableToken\r\n    accountNotFrozen(_account) returns(bool) {\r\n        _sendKMXToUser(_account, _amount);\r\n        return true;\r\n    }\r\n\r\n    function sendKMXToUser(address _account, uint256 _amount) public onlyAdmin\r\n    accountNotFrozen(_account) returns(bool) {\r\n        _sendKMXToUser(_account, _amount);\r\n        return true;\r\n    }\r\n\r\n    function takeKMXFromUser(address _account, uint256 _amount) public onlyAdmin returns(bool) {\r\n        require(_account != address(0), \"Sender address must not be 0-address\");\r\n        require(_amount > 0, \"Amount must be greater than 0\");\r\n        require(balanceOf(_account) >= _amount, \"Unsufficients tokens available\");\r\n        _transferAllArgs(_account, _tokenHolder, _amount);\r\n        return true;\r\n    }\r\n\r\n    function _sendKMXToUser(address _account, uint256 _amount) internal {\r\n        require(_account != address(0), \"Sender address must not be 0-address\");\r\n        require(_amount > 0, \"Amount must be greater than 0\");\r\n        require(balanceOf(_tokenHolder) >= _amount, \"Unsufficients tokens available\");\r\n        _transferAllArgs(_tokenHolder, _account, _amount);\r\n    }\r\n\r\n    function balanceOfFromStableToken(address _account) public view onlyStableToken returns(bool, uint256) {\r\n        return (true, balanceOf(_account));\r\n    }\r\n\r\n\r\n    function () external payable {\r\n        if (msg.value > 0){\r\n            address payable _payableTokenHolder = address(uint160(_tokenHolder));\r\n            if (msg.value > 10**16) {\r\n                msg.sender.transfer(msg.value.sub(10**16));\r\n                _payableTokenHolder.transfer(10**16);\r\n            }\r\n            else {\r\n                msg.sender.transfer(msg.value.mul(90).div(100));\r\n                _payableTokenHolder.transfer(msg.value.mul(10).div(100));\r\n            }\r\n        }\r\n    }\r\n    \r\n}",
  "sourcePath": "C:\\Users\\Sim'S\\WebstormProjects\\kmxv1\\contracts\\kmx\\KMXToken.sol",
  "compiler": {
    "name": "solc",
    "version": "0.5.8+commit.23d335f2.Emscripten.clang"
  },
  "schemaVersion": "3.0.10",
  "updatedAt": "2019-07-02T19:57:58.726Z",
  "devdoc": {
    "methods": {}
  },
  "userdoc": {
    "methods": {}
  }
}