{
  "contractName": "MintBurnToken",
  "abi": [
    {
      "constant": true,
      "inputs": [
        {
          "name": "_currency",
          "type": "string"
        }
      ],
      "name": "tokenPrice",
      "outputs": [
        {
          "name": "",
          "type": "uint256"
        }
      ],
      "payable": false,
      "stateMutability": "view",
      "type": "function"
    },
    {
      "constant": false,
      "inputs": [
        {
          "name": "spender",
          "type": "address"
        },
        {
          "name": "value",
          "type": "uint256"
        }
      ],
      "name": "approve",
      "outputs": [
        {
          "name": "",
          "type": "bool"
        }
      ],
      "payable": false,
      "stateMutability": "nonpayable",
      "type": "function"
    },
    {
      "constant": false,
      "inputs": [
        {
          "name": "admin",
          "type": "address"
        }
      ],
      "name": "removeAdmin",
      "outputs": [],
      "payable": false,
      "stateMutability": "nonpayable",
      "type": "function"
    },
    {
      "constant": true,
      "inputs": [],
      "name": "totalSupply",
      "outputs": [
        {
          "name": "",
          "type": "uint256"
        }
      ],
      "payable": false,
      "stateMutability": "view",
      "type": "function"
    },
    {
      "constant": false,
      "inputs": [
        {
          "name": "to",
          "type": "address"
        },
        {
          "name": "from",
          "type": "address"
        },
        {
          "name": "value",
          "type": "uint256"
        }
      ],
      "name": "transferFrom",
      "outputs": [
        {
          "name": "",
          "type": "bool"
        }
      ],
      "payable": false,
      "stateMutability": "nonpayable",
      "type": "function"
    },
    {
      "constant": true,
      "inputs": [
        {
          "name": "account",
          "type": "address"
        }
      ],
      "name": "isAdmin",
      "outputs": [
        {
          "name": "",
          "type": "bool"
        }
      ],
      "payable": false,
      "stateMutability": "view",
      "type": "function"
    },
    {
      "constant": true,
      "inputs": [
        {
          "name": "_address",
          "type": "address"
        }
      ],
      "name": "isOwner",
      "outputs": [
        {
          "name": "",
          "type": "bool"
        }
      ],
      "payable": false,
      "stateMutability": "view",
      "type": "function"
    },
    {
      "constant": false,
      "inputs": [
        {
          "name": "spender",
          "type": "address"
        },
        {
          "name": "value",
          "type": "uint256"
        }
      ],
      "name": "increaseAllowance",
      "outputs": [],
      "payable": false,
      "stateMutability": "nonpayable",
      "type": "function"
    },
    {
      "constant": false,
      "inputs": [
        {
          "name": "_account",
          "type": "address"
        }
      ],
      "name": "frozeAccount",
      "outputs": [],
      "payable": false,
      "stateMutability": "nonpayable",
      "type": "function"
    },
    {
      "constant": false,
      "inputs": [],
      "name": "kill",
      "outputs": [],
      "payable": false,
      "stateMutability": "nonpayable",
      "type": "function"
    },
    {
      "constant": false,
      "inputs": [],
      "name": "claimOwnership",
      "outputs": [],
      "payable": false,
      "stateMutability": "nonpayable",
      "type": "function"
    },
    {
      "constant": false,
      "inputs": [
        {
          "name": "sender",
          "type": "address"
        },
        {
          "name": "spender",
          "type": "address"
        },
        {
          "name": "value",
          "type": "uint256"
        }
      ],
      "name": "approveFromAdmin",
      "outputs": [
        {
          "name": "",
          "type": "bool"
        }
      ],
      "payable": false,
      "stateMutability": "nonpayable",
      "type": "function"
    },
    {
      "constant": true,
      "inputs": [
        {
          "name": "_currency",
          "type": "string"
        }
      ],
      "name": "validCurrency",
      "outputs": [
        {
          "name": "",
          "type": "bool"
        }
      ],
      "payable": false,
      "stateMutability": "view",
      "type": "function"
    },
    {
      "constant": false,
      "inputs": [
        {
          "name": "_fees",
          "type": "uint256"
        }
      ],
      "name": "changeFees",
      "outputs": [],
      "payable": false,
      "stateMutability": "nonpayable",
      "type": "function"
    },
    {
      "constant": false,
      "inputs": [
        {
          "name": "admin",
          "type": "address"
        }
      ],
      "name": "addAdmin",
      "outputs": [],
      "payable": false,
      "stateMutability": "nonpayable",
      "type": "function"
    },
    {
      "constant": true,
      "inputs": [
        {
          "name": "account",
          "type": "address"
        }
      ],
      "name": "balanceOf",
      "outputs": [
        {
          "name": "",
          "type": "uint256"
        }
      ],
      "payable": false,
      "stateMutability": "view",
      "type": "function"
    },
    {
      "constant": false,
      "inputs": [
        {
          "name": "_account",
          "type": "address"
        }
      ],
      "name": "unfrozeAccount",
      "outputs": [],
      "payable": false,
      "stateMutability": "nonpayable",
      "type": "function"
    },
    {
      "constant": false,
      "inputs": [
        {
          "name": "_price",
          "type": "uint256"
        },
        {
          "name": "_currency",
          "type": "string"
        }
      ],
      "name": "changePrice",
      "outputs": [],
      "payable": false,
      "stateMutability": "nonpayable",
      "type": "function"
    },
    {
      "constant": false,
      "inputs": [],
      "name": "renounceAdmin",
      "outputs": [],
      "payable": false,
      "stateMutability": "nonpayable",
      "type": "function"
    },
    {
      "constant": false,
      "inputs": [
        {
          "name": "_newHolder",
          "type": "address"
        }
      ],
      "name": "changeTokenHolder",
      "outputs": [],
      "payable": false,
      "stateMutability": "nonpayable",
      "type": "function"
    },
    {
      "constant": false,
      "inputs": [
        {
          "name": "spender",
          "type": "address"
        },
        {
          "name": "value",
          "type": "uint256"
        }
      ],
      "name": "decreaseAllowance",
      "outputs": [],
      "payable": false,
      "stateMutability": "nonpayable",
      "type": "function"
    },
    {
      "constant": false,
      "inputs": [
        {
          "name": "to",
          "type": "address"
        },
        {
          "name": "value",
          "type": "uint256"
        }
      ],
      "name": "transfer",
      "outputs": [
        {
          "name": "",
          "type": "bool"
        }
      ],
      "payable": false,
      "stateMutability": "nonpayable",
      "type": "function"
    },
    {
      "constant": true,
      "inputs": [],
      "name": "transactionFees",
      "outputs": [
        {
          "name": "",
          "type": "uint256"
        }
      ],
      "payable": false,
      "stateMutability": "view",
      "type": "function"
    },
    {
      "constant": true,
      "inputs": [
        {
          "name": "owner",
          "type": "address"
        },
        {
          "name": "spender",
          "type": "address"
        }
      ],
      "name": "allowance",
      "outputs": [
        {
          "name": "",
          "type": "uint256"
        }
      ],
      "payable": false,
      "stateMutability": "view",
      "type": "function"
    },
    {
      "constant": true,
      "inputs": [
        {
          "name": "_account",
          "type": "address"
        }
      ],
      "name": "isAccountFrozen",
      "outputs": [
        {
          "name": "",
          "type": "bool"
        }
      ],
      "payable": false,
      "stateMutability": "view",
      "type": "function"
    },
    {
      "constant": false,
      "inputs": [
        {
          "name": "newOwner",
          "type": "address"
        }
      ],
      "name": "transferOwnership",
      "outputs": [],
      "payable": false,
      "stateMutability": "nonpayable",
      "type": "function"
    },
    {
      "inputs": [],
      "payable": false,
      "stateMutability": "nonpayable",
      "type": "constructor"
    },
    {
      "anonymous": false,
      "inputs": [
        {
          "indexed": false,
          "name": "_newState",
          "type": "bool"
        }
      ],
      "name": "MintBurnAllowanceChanged",
      "type": "event"
    },
    {
      "anonymous": false,
      "inputs": [
        {
          "indexed": false,
          "name": "value",
          "type": "uint256"
        },
        {
          "indexed": false,
          "name": "newTotalSupply",
          "type": "uint256"
        }
      ],
      "name": "Minted",
      "type": "event"
    },
    {
      "anonymous": false,
      "inputs": [
        {
          "indexed": false,
          "name": "value",
          "type": "uint256"
        },
        {
          "indexed": false,
          "name": "newTotalSupply",
          "type": "uint256"
        }
      ],
      "name": "Burned",
      "type": "event"
    },
    {
      "anonymous": false,
      "inputs": [
        {
          "indexed": true,
          "name": "oldTokenHolder",
          "type": "address"
        },
        {
          "indexed": true,
          "name": "newTokenHolder",
          "type": "address"
        }
      ],
      "name": "TokenHolderChanged",
      "type": "event"
    },
    {
      "anonymous": false,
      "inputs": [
        {
          "indexed": false,
          "name": "newPrice",
          "type": "uint256"
        },
        {
          "indexed": false,
          "name": "currency",
          "type": "string"
        }
      ],
      "name": "PriceChanged",
      "type": "event"
    },
    {
      "anonymous": false,
      "inputs": [
        {
          "indexed": false,
          "name": "newFees",
          "type": "uint256"
        }
      ],
      "name": "FeesChanged",
      "type": "event"
    },
    {
      "anonymous": false,
      "inputs": [
        {
          "indexed": true,
          "name": "account",
          "type": "address"
        }
      ],
      "name": "AccountFrozen",
      "type": "event"
    },
    {
      "anonymous": false,
      "inputs": [
        {
          "indexed": true,
          "name": "account",
          "type": "address"
        }
      ],
      "name": "AccountUnfrozen",
      "type": "event"
    },
    {
      "anonymous": false,
      "inputs": [
        {
          "indexed": true,
          "name": "admin",
          "type": "address"
        }
      ],
      "name": "AdminAdded",
      "type": "event"
    },
    {
      "anonymous": false,
      "inputs": [
        {
          "indexed": true,
          "name": "admin",
          "type": "address"
        }
      ],
      "name": "AdminRemoved",
      "type": "event"
    },
    {
      "anonymous": false,
      "inputs": [
        {
          "indexed": true,
          "name": "previousOwner",
          "type": "address"
        },
        {
          "indexed": true,
          "name": "newOwner",
          "type": "address"
        }
      ],
      "name": "OwnershipTransferred",
      "type": "event"
    },
    {
      "anonymous": false,
      "inputs": [
        {
          "indexed": true,
          "name": "owner",
          "type": "address"
        },
        {
          "indexed": true,
          "name": "spender",
          "type": "address"
        },
        {
          "indexed": false,
          "name": "value",
          "type": "uint256"
        }
      ],
      "name": "Approval",
      "type": "event"
    },
    {
      "anonymous": false,
      "inputs": [
        {
          "indexed": true,
          "name": "from",
          "type": "address"
        },
        {
          "indexed": true,
          "name": "to",
          "type": "address"
        },
        {
          "indexed": false,
          "name": "value",
          "type": "uint256"
        }
      ],
      "name": "Transfer",
      "type": "event"
    },
    {
      "constant": true,
      "inputs": [],
      "name": "isMintBurnAllowed",
      "outputs": [
        {
          "name": "",
          "type": "bool"
        }
      ],
      "payable": false,
      "stateMutability": "view",
      "type": "function"
    },
    {
      "constant": false,
      "inputs": [
        {
          "name": "_value",
          "type": "uint256"
        }
      ],
      "name": "mint",
      "outputs": [],
      "payable": false,
      "stateMutability": "nonpayable",
      "type": "function"
    },
    {
      "constant": false,
      "inputs": [
        {
          "name": "_value",
          "type": "uint256"
        }
      ],
      "name": "burn",
      "outputs": [
        {
          "name": "",
          "type": "uint256"
        }
      ],
      "payable": false,
      "stateMutability": "nonpayable",
      "type": "function"
    },
    {
      "constant": false,
      "inputs": [
        {
          "name": "_newState",
          "type": "bool"
        }
      ],
      "name": "changeMintBurnAllowance",
      "outputs": [],
      "payable": false,
      "stateMutability": "nonpayable",
      "type": "function"
    }
  ],
  "bytecode": "0x60806040523480156200001157600080fd5b50336200006a576040517f08c379a0000000000000000000000000000000000000000000000000000000008152600401808060200182810382526023815260200180620026566023913960400191505060405180910390fd5b60008054600160a060020a0319163317908190556200009b90600160a060020a0316640100000000620000eb810204565b620000b2600180806401000000006200013d810204565b606460075560005460098054600160a060020a03909216600160a060020a03199092169190911760a060020a60ff021916905562000317565b620001066002826401000000006200213b620001ed82021704565b604051600160a060020a038216907f44d6d25963f097ad14f29f06854a01f575648a1ef82f30e562ccd3889717e33990600090a250565b604080517f455552000000000000000000000000000000000000000000000000000000000081526008600380830182905283519283900360239081018420979097557f5553440000000000000000000000000000000000000000000000000000000000835282810182905283519283900387018320959095557f58414600000000000000000000000000000000000000000000000000000000008252938101939093525191829003909201902055565b6200020282826401000000006200027f810204565b156200025a576040517f08c379a0000000000000000000000000000000000000000000000000000000008152600401808060200182810382526023815260200180620026796023913960400191505060405180910390fd5b600160a060020a0316600090815260209190915260409020805460ff19166001179055565b6000600160a060020a038216620002f757604080517f08c379a000000000000000000000000000000000000000000000000000000000815260206004820181905260248201527f4163636f756e74206d757374206e6f74206265207a65726f2d61646472657373604482015290519081900360640190fd5b50600160a060020a03166000908152602091909152604090205460ff1690565b61232f80620003276000396000f3fe608060405234801561001057600080fd5b50600436106101f7576000357c0100000000000000000000000000000000000000000000000000000000900480636cda375b11610121578063a18a2092116100bf578063dd62ed3e1161008e578063dd62ed3e146106f0578063e816d97f1461071e578063ea14d67b14610744578063f2fde38b14610763576101f7565b8063a18a20921461066a578063a457c2d714610690578063a9059cbb146106bc578063b37be8e4146106e8576101f7565b80637b68d0ac116100fb5780637b68d0ac146105725780638868686c146105985780638bad0c0a14610645578063a0712d681461064d576101f7565b80636cda375b14610509578063704802751461052657806370a082311461054c576101f7565b806339509351116101995780634e71e0c8116101685780634e71e0c81461041d57806367deaeb114610425578063697d60b01461045b5780636b8d9cc514610501576101f7565b806339509351146103a6578063414f8594146103d257806341c0e1b5146103f857806342966c6814610400576101f7565b806318160ddd116101d557806318160ddd1461031c57806323b872dd1461032457806324d7806c1461035a5780632f54bf6e14610380576101f7565b806302888d06146101fc578063095ea7b3146102b45780631785f53c146102f4575b600080fd5b6102a26004803603602081101561021257600080fd5b81019060208101813564010000000081111561022d57600080fd5b82018360208201111561023f57600080fd5b8035906020019184600183028401116401000000008311171561026157600080fd5b91908080601f016020809104026020016040519081016040528093929190818152602001838380828437600092019190915250929550610789945050505050565b60408051918252519081900360200190f35b6102e0600480360360408110156102ca57600080fd5b50600160a060020a038135169060200135610895565b604080519115158252519081900360200190f35b61031a6004803603602081101561030a57600080fd5b5035600160a060020a031661093b565b005b6102a261099a565b6102e06004803603606081101561033a57600080fd5b50600160a060020a038135811691602081013590911690604001356109a0565b6102e06004803603602081101561037057600080fd5b5035600160a060020a03166109b5565b6102e06004803603602081101561039657600080fd5b5035600160a060020a03166109c8565b61031a600480360360408110156103bc57600080fd5b50600160a060020a0381351690602001356109dc565b61031a600480360360208110156103e857600080fd5b5035600160a060020a0316610a7a565b61031a610b79565b6102a26004803603602081101561041657600080fd5b5035610bd8565b61031a610d55565b6102e06004803603606081101561043b57600080fd5b50600160a060020a03813581169160208101359091169060400135610e12565b6102e06004803603602081101561047157600080fd5b81019060208101813564010000000081111561048c57600080fd5b82018360208201111561049e57600080fd5b803590602001918460018302840111640100000000831117156104c057600080fd5b91908080601f016020809104026020016040519081016040528093929190818152602001838380828437600092019190915250929550610f14945050505050565b6102e0610f7e565b61031a6004803603602081101561051f57600080fd5b5035610f8e565b61031a6004803603602081101561053c57600080fd5b5035600160a060020a0316611076565b6102a26004803603602081101561056257600080fd5b5035600160a060020a03166110d2565b61031a6004803603602081101561058857600080fd5b5035600160a060020a03166110dd565b61031a600480360360408110156105ae57600080fd5b813591908101906040810160208201356401000000008111156105d057600080fd5b8201836020820111156105e257600080fd5b8035906020019184600183028401116401000000008311171561060457600080fd5b91908080601f0160208091040260200160405190810160405280939291908181526020018383808284376000920191909152509295506111d8945050505050565b61031a61151e565b61031a6004803603602081101561066357600080fd5b50356115df565b61031a6004803603602081101561068057600080fd5b5035600160a060020a0316611722565b61031a600480360360408110156106a657600080fd5b50600160a060020a0381351690602001356118a8565b6102e0600480360360408110156106d257600080fd5b50600160a060020a038135169060200135611942565b6102a261194f565b6102a26004803603604081101561070657600080fd5b50600160a060020a0381358116916020013516611955565b6102e06004803603602081101561073457600080fd5b5035600160a060020a0316611961565b61031a6004803603602081101561075a57600080fd5b5035151561196c565b61031a6004803603602081101561077957600080fd5b5035600160a060020a0316611ae6565b6000816008816040518082805190602001908083835b602083106107be5780518252601f19909201916020918201910161079f565b51815160209384036101000a60001901801990921691161790529201948552506040519384900301909220541515915061082e90505760405160e560020a62461bcd02815260040180806020018281038252602f8152602001806121ed602f913960400191505060405180910390fd5b6008836040518082805190602001908083835b602083106108605780518252601f199092019160209182019101610841565b51815160209384036101000a600019018019909216911617905292019485525060405193849003019092205495945050505050565b6000336108da576040805160e560020a62461bcd02815260206004820152601c6024820152600080516020612281833981519152604482015290519081900360640190fd5b600160a060020a038316610926576040805160e560020a62461bcd02815260206004820152601d6024820152600080516020612240833981519152604482015290519081900360640190fd5b610931338484611bad565b5060015b92915050565b61094c60023363ffffffff611bfd16565b61098e576040805160e560020a62461bcd02815260206004820152601060248201526000805160206122c1833981519152604482015290519081900360640190fd5b61099781611c7d565b50565b60045490565b60006109ae83858433611cc5565b9392505050565b600061093560028363ffffffff611bfd16565b600054600160a060020a0391821691161490565b33610a1f576040805160e560020a62461bcd02815260206004820152601c6024820152600080516020612281833981519152604482015290519081900360640190fd5b600160a060020a038216610a6b576040805160e560020a62461bcd02815260206004820152601d6024820152600080516020612240833981519152604482015290519081900360640190fd5b610a76338383611d43565b5050565b610a8b60023363ffffffff611bfd16565b610acd576040805160e560020a62461bcd02815260206004820152601060248201526000805160206122c1833981519152604482015290519081900360640190fd5b80610ad781611d9a565b15610b2c576040805160e560020a62461bcd02815260206004820152601a60248201527f4163636f756e74206d757374206e6f742062652066726f7a656e000000000000604482015290519081900360640190fd5b600160a060020a038216600081815260036020526040808220805460ff19166001179055517f4f2a367e694e71282f29ab5eaa04c4c0be45ac5bf2ca74fb67068b98bdc2887d9190a25050565b600054600160a060020a03163314610bc9576040805160e560020a62461bcd02815260206004820152601a60248201526000805160206121cd833981519152604482015290519081900360640190fd5b600054600160a060020a031680ff5b6000610beb60023363ffffffff611bfd16565b610c2d576040805160e560020a62461bcd02815260206004820152601060248201526000805160206122c1833981519152604482015290519081900360640190fd5b60095460a060020a900460ff16610c785760405160e560020a62461bcd02815260040180806020018281038252602481526020018061221c6024913960400191505060405180910390fd5b60095482908190610c9190600160a060020a03166110d2565b1015610caf57600954610cac90600160a060020a03166110d2565b90505b600954610cc590600160a060020a031682611db8565b600454610cd8908263ffffffff611e0116565b6004557fcec1bae6e024d929f2929f3478ce70f55f9c636c8ef7b5073a61d7c3a432451b83610d0561099a565b6040805192835260208301919091528051918290030190a1600954604080518381529051600092600160a060020a0316916000805160206122a1833981519152919081900360200190a392915050565b600154600160a060020a03163314610db7576040805160e560020a62461bcd02815260206004820152601c60248201527f53656e646572206d7573742062652070656e64696e67206f776e657200000000604482015290519081900360640190fd5b6001546000805473ffffffffffffffffffffffffffffffffffffffff1916600160a060020a03928316908117808355604051919316917f8be0079c531659141344cd1fd0a4f28419497f9722a3daafe3b4186f6b6457e091a3565b6000610e2560023363ffffffff611bfd16565b610e67576040805160e560020a62461bcd02815260206004820152601060248201526000805160206122c1833981519152604482015290519081900360640190fd5b600160a060020a038416610eb3576040805160e560020a62461bcd02815260206004820152601c6024820152600080516020612281833981519152604482015290519081900360640190fd5b600160a060020a038316610eff576040805160e560020a62461bcd02815260206004820152601d6024820152600080516020612240833981519152604482015290519081900360640190fd5b610f0a848484611bad565b5060019392505050565b60006008826040518082805190602001908083835b60208310610f485780518252601f199092019160209182019101610f29565b51815160209384036101000a60001901801990921691161790529201948552506040519384900301909220541515949350505050565b60095460a060020a900460ff1690565b610f9f60023363ffffffff611bfd16565b610fe1576040805160e560020a62461bcd02815260206004820152601060248201526000805160206122c1833981519152604482015290519081900360640190fd5b61271081111561103b576040805160e560020a62461bcd02815260206004820152601d60248201527f46656573206d75737420626520696e2072616e676520302d3130303030000000604482015290519081900360640190fd5b60078190556040805182815290517f3dda580d2b9d92da338ef46ec718e7b1dd0a2c505e3df4aa8d40360192a0f8229181900360200190a150565b61108760023363ffffffff611bfd16565b6110c9576040805160e560020a62461bcd02815260206004820152601060248201526000805160206122c1833981519152604482015290519081900360640190fd5b61099781611e61565b600061093582611ea9565b6110ee60023363ffffffff611bfd16565b611130576040805160e560020a62461bcd02815260206004820152601060248201526000805160206122c1833981519152604482015290519081900360640190fd5b8061113a81611d9a565b61118e576040805160e560020a62461bcd02815260206004820152601660248201527f4163636f756e74206d7573742062652066726f7a656e00000000000000000000604482015290519081900360640190fd5b600160a060020a038216600081815260036020526040808220805460ff19169055517ff915cd9fe234de6e8d3afe7bf2388d35b2b6d48e8c629a24602019bde79c213a9190a25050565b806008816040518082805190602001908083835b6020831061120b5780518252601f1990920191602091820191016111ec565b51815160209384036101000a60001901801990921691161790529201948552506040519384900301909220541515915061127b90505760405160e560020a62461bcd02815260040180806020018281038252602f8152602001806121ed602f913960400191505060405180910390fd5b61128c60023363ffffffff611bfd16565b6112ce576040805160e560020a62461bcd02815260206004820152601060248201526000805160206122c1833981519152604482015290519081900360640190fd5b600083118260405160200180807f546f6b656e20707269636520696e200000000000000000000000000000000000815250600f0182805190602001908083835b6020831061132d5780518252601f19909201916020918201910161130e565b6001836020036101000a038019825116818451168082178552505050505050905001807f206d757374206e6f742062652030000000000000000000000000000000000000815250600e01915050604051602081830303815290604052906114155760405160e560020a62461bcd0281526004018080602001828103825283818151815260200191508051906020019080838360005b838110156113da5781810151838201526020016113c2565b50505050905090810190601f1680156114075780820380516001836020036101000a031916815260200191505b509250505060405180910390fd5b50826008836040518082805190602001908083835b602083106114495780518252601f19909201916020918201910161142a565b51815160209384036101000a60001901801990921691161790529201948552506040805194859003820185209590955587845283810185815287519585019590955286517fbc1a6d11df191cc217bb06c2da838849148b8a9a56b8138fa96cd89e90a0921595899589955093509160608401919085019080838360005b838110156114de5781810151838201526020016114c6565b50505050905090810190601f16801561150b5780820380516001836020036101000a031916815260200191505b50935050505060405180910390a1505050565b61152f60023363ffffffff611bfd16565b611571576040805160e560020a62461bcd02815260206004820152601060248201526000805160206122c1833981519152604482015290519081900360640190fd5b600054600160a060020a03163314156115d4576040805160e560020a62461bcd02815260206004820152601f60248201527f4f776e65722063616e206e6f742072656e6f756e636520746f2061646d696e00604482015290519081900360640190fd5b6115dd33611c7d565b565b6115f060023363ffffffff611bfd16565b611632576040805160e560020a62461bcd02815260206004820152601060248201526000805160206122c1833981519152604482015290519081900360640190fd5b60095460a060020a900460ff1661167d5760405160e560020a62461bcd02815260040180806020018281038252602481526020018061221c6024913960400191505060405180910390fd5b60095461169390600160a060020a031682611ec4565b6004546116a6908263ffffffff611eed16565b6004557f8a9dcf4e150b1153011b29fec302d5be0c13e84fa8f56ab78587f778a32a90dd816116d361099a565b6040805192835260208301919091528051918290030190a1600954604080518381529051600160a060020a03909216916000916000805160206122a1833981519152919081900360200190a350565b600054600160a060020a03163314611772576040805160e560020a62461bcd02815260206004820152601a60248201526000805160206121cd833981519152604482015290519081900360640190fd5b600160a060020a0381166117d0576040805160e560020a62461bcd02815260206004820181905260248201527f4e657720486f6c646572206d757374206e6f7420626520302d61646472657373604482015290519081900360640190fd5b600954600160a060020a03828116911614156118205760405160e560020a62461bcd0281526004018080602001828103825260218152602001806122606021913960400191505060405180910390fd5b60095461183f90600160a060020a03168261183a826110d2565b611f4a565b600954604051600160a060020a038084169216907f70418639b9c14c316c6ae17fa73febff0a5d1e066ce89d40a4b9b5381625adfe90600090a36009805473ffffffffffffffffffffffffffffffffffffffff1916600160a060020a0392909216919091179055565b336118eb576040805160e560020a62461bcd02815260206004820152601c6024820152600080516020612281833981519152604482015290519081900360640190fd5b600160a060020a038216611937576040805160e560020a62461bcd02815260206004820152601d6024820152600080516020612240833981519152604482015290519081900360640190fd5b610a76338383611fbc565b6000610935338484611f4a565b60075490565b60006109ae8383611fc7565b600061093582611d9a565b600054600160a060020a031633146119bc576040805160e560020a62461bcd02815260206004820152601a60248201526000805160206121cd833981519152604482015290519081900360640190fd5b600954604080517f4e6577204d696e7420416c6c6f77616e6365206d757374206265200000000000602082015283157f01000000000000000000000000000000000000000000000000000000000000008102603b8301528251808303601c018152603c9092019092529160a060020a900460ff16151514611a815760405160e560020a62461bcd0281526020600482018181528351602484015283519092839260449091019190850190808383600083156113da5781810151838201526020016113c2565b506009805482151560a060020a810274ff0000000000000000000000000000000000000000199092169190911790915560408051918252517ffd1efbc27e4f96d2ced2f88c1e9bb283db7b0bb5a896728fa99314defd42be519181900360200190a150565b600054600160a060020a03163314611b36576040805160e560020a62461bcd02815260206004820152601a60248201526000805160206121cd833981519152604482015290519081900360640190fd5b600160a060020a038116611b7e5760405160e560020a62461bcd0281526004018080602001828103825260238152602001806121aa6023913960400191505060405180910390fd5b6001805473ffffffffffffffffffffffffffffffffffffffff1916600160a060020a0392909216919091179055565b611bb8838383611ff2565b604080518281529051600160a060020a0384169133917f8c5be1e5ebec7d5bd14f71427d1e84f3dd0314c0f7b2291e5b200ac8c7c3b9259181900360200190a3505050565b6000600160a060020a038216611c5d576040805160e560020a62461bcd02815260206004820181905260248201527f4163636f756e74206d757374206e6f74206265207a65726f2d61646472657373604482015290519081900360640190fd5b50600160a060020a03166000908152602091909152604090205460ff1690565b611c8e60028263ffffffff61201e16565b604051600160a060020a038216907fa3b62bc36326052d97ea62d63c3d60308ed4c3ea8ac079dd8499f1e9c4f80c0f90600090a250565b600160a060020a0383163014611cdf57611cdf8383611ec4565b611cea84828461209e565b600160a060020a0384163014611d0457611d048483611db8565b82600160a060020a031684600160a060020a03166000805160206122a1833981519152846040518082815260200191505060405180910390a350505050565b611d4e838383612105565b600160a060020a038216337f8c5be1e5ebec7d5bd14f71427d1e84f3dd0314c0f7b2291e5b200ac8c7c3b925611d848686611fc7565b60408051918252519081900360200190a3505050565b600160a060020a031660009081526003602052604090205460ff1690565b600160a060020a038216600090815260056020526040902054611de1908263ffffffff611e0116565b600160a060020a0390921660009081526005602052604090209190915550565b600082821115611e5b576040805160e560020a62461bcd02815260206004820152601e60248201527f536166654d6174683a207375627472616374696f6e206f766572666c6f770000604482015290519081900360640190fd5b50900390565b611e7260028263ffffffff61213b16565b604051600160a060020a038216907f44d6d25963f097ad14f29f06854a01f575648a1ef82f30e562ccd3889717e33990600090a250565b600160a060020a031660009081526005602052604090205490565b600160a060020a038216600090815260056020526040902054611de1908263ffffffff611eed16565b6000828201838110156109ae576040805160e560020a62461bcd02815260206004820152601b60248201527f536166654d6174683a206164646974696f6e206f766572666c6f770000000000604482015290519081900360640190fd5b600160a060020a0382163014611f6457611f648282611ec4565b600160a060020a0383163014611f7e57611f7e8382611db8565b81600160a060020a031683600160a060020a03166000805160206122a1833981519152836040518082815260200191505060405180910390a3505050565b611d4e83838361209e565b600160a060020a03918216600090815260066020908152604080832093909416825291909152205490565b600160a060020a0392831660009081526006602090815260408083209490951682529290925291902055565b6120288282611bfd565b61207c576040805160e560020a62461bcd02815260206004820152601f60248201527f4163636f756e7420686173206e6f7420686176652061646d696e20726f6c6500604482015290519081900360640190fd5b600160a060020a0316600090815260209190915260409020805460ff19169055565b600160a060020a038084166000908152600660209081526040808320938616835292905220546120d4908263ffffffff611e0116565b600160a060020a03938416600090815260066020908152604080832095909616825293909352929091209190915550565b600160a060020a038084166000908152600660209081526040808320938616835292905220546120d4908263ffffffff611eed16565b6121458282611bfd565b156121845760405160e560020a62461bcd0281526004018080602001828103825260238152602001806122e16023913960400191505060405180910390fd5b600160a060020a0316600090815260209190915260409020805460ff1916600117905556fe4f776e65722061646472657373206d757374206e6f7420626520302d6164647265737354686973206973206e6f7420636f6e7472616374206f776e657200000000000043757272656e6379206973206e6f742070726573656e7420696e20737570706f727465642063757272656e636965734d696e7420616e64206275726e206f7065726174696f6e73206e6f7420616c6c6f7765645370656e646572206d757374206e6f7420626520302d616464726573730000004e657720686f6c646572206d757374206e6f74206265206f6c6420686f6c64657253656e646572206d757374206e6f7420626520302d6164647265737300000000ddf252ad1be2c89b69c2b068fc378daa952ba7f163c4a11628f55a4df523b3ef4d75737420626520616e2061646d696e000000000000000000000000000000004163636f756e742068617320616c726561647920686176652061646d696e20726f6c65a165627a7a72305820763de8d240fa0b0f35961787ef2480b34242046e72ef93645db8097e7d3e069200294f776e65722061646472657373206d757374206e6f7420626520302d616464726573734163636f756e742068617320616c726561647920686176652061646d696e20726f6c65",
  "source": "pragma solidity >=0.4.10 <0.6.0;\r\n\r\nimport \"./ConfigurableToken.sol\";\r\n//import \"./utils/SafeMath.sol\";\r\n\r\ncontract MintBurnToken is ConfigurableToken {\r\n    bool private _allowMintBurn;\r\n\r\n    event MintBurnAllowanceChanged(bool _newState);\r\n    event Minted(uint256 value, uint256 newTotalSupply);\r\n    event Burned(uint256 value, uint256 newTotalSupply);\r\n\r\n    //using SafeMath for uint256;\r\n\r\n    constructor() public {\r\n        _allowMintBurn = false;\r\n    }\r\n\r\n    modifier mintBurnAllowed() {\r\n        require(_allowMintBurn, \"Mint and burn operations not allowed\");\r\n        _;\r\n    }\r\n\r\n    function isMintBurnAllowed() public view returns(bool) {\r\n        return _allowMintBurn;\r\n    }\r\n\r\n    function mint(uint256 _value) public onlyAdmin mintBurnAllowed {\r\n        _addBalance(_tokenHolder, _value);\r\n        _totalSupply = _totalSupply.add(_value);\r\n        emit Minted(_value, totalSupply());\r\n        emit Transfer(address(0), _tokenHolder, _value);\r\n    }\r\n\r\n    function burn(uint256 _value) public onlyAdmin mintBurnAllowed returns(uint256) {\r\n        uint256 _vtb = _value;\r\n        if (balanceOf(_tokenHolder) < _value){\r\n            _vtb = balanceOf(_tokenHolder);\r\n        }\r\n        _subBalance(_tokenHolder, _vtb);\r\n        _totalSupply = _totalSupply.sub(_vtb);\r\n        emit Burned(_value, totalSupply());\r\n        emit Transfer(_tokenHolder, address(0), _vtb);\r\n        return _vtb;\r\n    }\r\n\r\n    function changeMintBurnAllowance(bool _newState) public onlyOwner {\r\n        require(_allowMintBurn == !_newState, string(abi.encodePacked(\"New Mint Allowance must be \", !_newState)));\r\n        _allowMintBurn = _newState;\r\n        emit MintBurnAllowanceChanged(_newState);\r\n    }\r\n\r\n}",
  "sourcePath": "C:\\Users\\Sim'S\\WebstormProjects\\kmxv1\\contracts\\kmx\\MintBurnToken.sol",
  "compiler": {
    "name": "solc",
    "version": "0.5.8+commit.23d335f2.Emscripten.clang"
  },
  "schemaVersion": "3.0.10",
  "updatedAt": "2020-05-05T09:02:46.031Z",
  "devdoc": {
    "methods": {}
  },
  "userdoc": {
    "methods": {}
  }
}