{
  "contractName": "Ownable",
  "abi": [
    {
      "inputs": [],
      "payable": false,
      "stateMutability": "nonpayable",
      "type": "constructor"
    },
    {
      "anonymous": false,
      "inputs": [
        {
          "indexed": true,
          "name": "previousOwner",
          "type": "address"
        },
        {
          "indexed": true,
          "name": "newOwner",
          "type": "address"
        }
      ],
      "name": "OwnershipTransferred",
      "type": "event"
    },
    {
      "constant": true,
      "inputs": [
        {
          "name": "_address",
          "type": "address"
        }
      ],
      "name": "isOwner",
      "outputs": [
        {
          "name": "",
          "type": "bool"
        }
      ],
      "payable": false,
      "stateMutability": "view",
      "type": "function"
    },
    {
      "constant": false,
      "inputs": [
        {
          "name": "newOwner",
          "type": "address"
        }
      ],
      "name": "transferOwnership",
      "outputs": [],
      "payable": false,
      "stateMutability": "nonpayable",
      "type": "function"
    },
    {
      "constant": false,
      "inputs": [],
      "name": "kill",
      "outputs": [],
      "payable": false,
      "stateMutability": "nonpayable",
      "type": "function"
    }
  ],
  "bytecode": "0x608060405234801561001057600080fd5b5033610067576040517f08c379a00000000000000000000000000000000000000000000000000000000081526004018080602001828103825260238152602001806103726023913960400191505060405180910390fd5b60008054600160a060020a031916331790556102ea806100886000396000f3fe608060405234801561001057600080fd5b506004361061005d577c010000000000000000000000000000000000000000000000000000000060003504632f54bf6e811461006257806341c0e1b51461009c578063f2fde38b146100a6575b600080fd5b6100886004803603602081101561007857600080fd5b5035600160a060020a03166100cc565b604080519115158252519081900360200190f35b6100a46100e0565b005b6100a4600480360360208110156100bc57600080fd5b5035600160a060020a0316610168565b600054600160a060020a0391821691161490565b600054600160a060020a0316331461015957604080517f08c379a000000000000000000000000000000000000000000000000000000000815260206004820152601a60248201527f54686973206973206e6f7420636f6e7472616374206f776e6572000000000000604482015290519081900360640190fd5b600054600160a060020a031680ff5b600054600160a060020a031633146101e157604080517f08c379a000000000000000000000000000000000000000000000000000000000815260206004820152601a60248201527f54686973206973206e6f7420636f6e7472616374206f776e6572000000000000604482015290519081900360640190fd5b600160a060020a038116610240576040517f08c379a000000000000000000000000000000000000000000000000000000000815260040180806020018281038252602381526020018061029c6023913960400191505060405180910390fd5b6000805473ffffffffffffffffffffffffffffffffffffffff1916600160a060020a0383811691821780845560405192939116917f8be0079c531659141344cd1fd0a4f28419497f9722a3daafe3b4186f6b6457e09190a35056fe4f776e65722061646472657373206d757374206e6f7420626520302d61646472657373a165627a7a72305820fd63b99d14643567413a96ab165093351d4a37c182f2bb8563c2b688e6ec6e0f00294f776e65722061646472657373206d757374206e6f7420626520302d61646472657373",
  "source": "pragma solidity >=0.4.10 <0.6.0;\r\n\r\ncontract Ownable {\r\n    address internal _owner;\r\n\r\n    event OwnershipTransferred(address indexed previousOwner, address indexed newOwner);\r\n\r\n    constructor() public {\r\n        require(msg.sender!=address(0), \"Owner address must not be 0-address\");\r\n        _owner = msg.sender;\r\n    }\r\n\r\n    modifier onlyOwner() {\r\n        require(msg.sender==_owner, \"This is not contract owner\");\r\n        _;\r\n    }\r\n\r\n    function isOwner(address _address) public view returns(bool) {\r\n        return _owner == _address;\r\n    }\r\n\r\n    function transferOwnership(address newOwner) public onlyOwner {\r\n        require(newOwner!=address(0), \"Owner address must not be 0-address\");\r\n        _owner = newOwner;\r\n        emit OwnershipTransferred(_owner, newOwner);\r\n    }\r\n\r\n    function kill() public onlyOwner {\r\n        address payable _payableOwner = address(uint160(_owner));\r\n        selfdestruct(_payableOwner);\r\n    }\r\n}",
  "sourcePath": "C:\\Users\\Sim'S\\WebstormProjects\\kmxv1\\contracts\\kmx\\Ownable.sol",
  "compiler": {
    "name": "solc",
    "version": "0.5.8+commit.23d335f2.Emscripten.clang"
  },
  "schemaVersion": "3.0.10",
  "updatedAt": "2020-05-05T09:02:46.037Z",
  "devdoc": {
    "methods": {}
  },
  "userdoc": {
    "methods": {}
  }
}